:100000000C949B030C94B8030C94B8030C94B803A1
:100010000C94B8030C94B8030C94B8030C94B80374
:100020000C94B8030C94B8030C94B8030C942205F8
:100030000C945F100C94B8030C94B8030C94B803A0
:100040000C94B8030C94B8030C94B8030C94B80344
:100050000C94B8030C94B8030C94B8030C94B80334
:100060000C94B8030C94B803911780177317731787
:100070006617661766175C175C175C175C175C17CA
:1000800061154D174D174D174D174D174D174D173E
:100090004D174D174017401740174017401740178E
:1000A0004017401740174017401740174017401798
:1000B0004017771577157715771577157715771515
:1000C00077157715771577157715771577157715D0
:1000D00077157715771577157715771577157715C0
:1000E000771577157715361AC41A151A291A201A92
:1000F000D1199619FB19F119EB19DE190D1A051A08
:100100004919A418CE173E1A05A84CCDB2D44EB941
:100110003836A9020C50B9918688083CA6AAAA2AAA
:10012000BE000000803F0000000000000000000052
:1001300000000000000000000000000000010101BC
:10014000010101010101010101010102020202029A
:100150000202020303030303040404040505050566
:100160000606060707080809090A0A0B0B0C0D0DFD
:100170000E0F1011121314151617181A1B1D1F201D
:10018000222426282A2D2F3235383B3E4245494D20
:1001900052565B60666B71777E858D949DA5AFB876
:1001A000C3CED9E5F2FF000000000000000000000F
:1001B0000000000101010101020202020303030425
:1001C000040505060708090A0B0C0D0F1113151776
:1001D0001A1D2024282D32383E454D56606B7785F8
:1001E00094A5B8CEE5FF000014005000B400400113
:1001F000F301CD02CD03F3043D06AD073F09F40A38
:10020000C90CBF0ED41007135515BE17411ADB1CBD
:100210008B1F502227250F28062B0A2E1931323426
:100220005237773AA03DCB40F5431C473F4A5C4DDF
:1002300070507A5378566759475C155FCF61756483
:1002400003677969D66B166E3A703F722674EB7548
:100250008F770F796D7AA57BB87CA57D6C7E0B7F3F
:10026000837FD37FFB7FFB7FD37F837F0B7F6C7E7E
:10027000A57DB87CA57B6D7A0F798F77EB75267499
:100280003F723A70166ED66B796903677564CF61F9
:10029000155F475C675978567A5370505C4D3F4AFA
:1002A0001C47F543CB40A03D773A523732341931E1
:1002B0000A2E062B0F28272550228B1FDB1C411AE4
:1002C000BE1755150713D410BF0EC90CF40A3F0909
:1002D000AD073D06F304CD03CD02F3014001B400A8
:1002E0005000140000000001010202020203030397
:1002F00003030304040404040404040505050505BC
:100300000505050505060606060606060606060692
:10031000060707070707070707070707070707086D
:10032000080808080808080808080808080808094C
:10033000090909090909090909090909090909092D
:10034000090A0A0A0A0A0A0A0A0A0A0A0A0A0A0A0E
:100350000A0A0A0A0A0B0B0B0B0B0B0B0B0B0B0BF2
:100360000B0B0B0B0B0B0B0B0B0B0B0C0C0C0C0CD8
:100370000C0C0C0C0C0C0C0C0C0C0C0C0C0C0C0CBD
:100380000C0C0C0D0D0D0D0D0D0D0D0D0D0D0D0DA0
:100390000D0D0D0D0D0D0D0D0D0D0D0D0D0E0E0E8A
:1003A0000E0E0E0E0E0E0E0E0E0E0E0E0E0E0E0E6D
:1003B0000E0E0E0E0E0E0E0E0E0F0F0F0F0F0F0F56
:1003C0000F0F0F0F0F0F0F0F0F0F0F0F0F0F0F0F3D
:1003D0000F0F0F0F0F0F0F10101010101010101024
:1003E0001010101010100006080A0B0D0E0F10113F
:1003F00012131414151617171819191A1B1B1C1C85
:100400001D1D1E1E1F1F20202121222223232424E4
:100410002525262626272728282829292A2A2A2B5F
:100420002B2B2C2C2D2D2D2E2E2E2F2F2F303030F0
:10043000313131323232333333343434343535358B
:1004400036363637373737383838393939393A3A2E
:100450003A3B3B3B3B3C3C3C3C3D3D3D3D3E3E3ED8
:100460003E3F3F3F3F40000B101417191C1E202237
:10047000242627292A2C2D2F30313334353637398D
:100480003A3B3C3D3E3F4041424344454647484855
:10049000494A4B4C4D4E4E4F505152525354555564
:1004A00056575858595A5B5B5C5D5D5E5F5F606193
:1004B000616263636465656666676868696A6A6BDA
:1004C0006B6C6D6D6E6E6F6F707171727273737431
:1004D000747576767777787879797A7A7B7B7C7C95
:1004E0007D7D7E7E7F7F0010171C2024272A2D30E3
:1004F0003335373A3C3E4042444648494B4D4E50D6
:100500005253555658595B5C5D5F60616364656624
:1005100068696A6B6D6E6F707172737476777879D3
:100520007A7B7C7D7E7F80818283848586878889B3
:100530008A8B8B8C8D8E8F909192939494959697B5
:100540009899999A9B9C9D9E9E9FA0A1A2A2A3A4CC
:10055000A5A6A6A7A8A9A9AAABACACADAEAFAFB0F3
:10056000B1B1B2B3B4B4B5B6B6B7B8B9B9BABBBB2A
:10057000BCBDBDBEBFBFC0C1C1C2C3C3C4C5C5C66B
:10058000C7C7C8C8C9CACACBCCCCCDCECECFCFD0B6
:10059000D1D1D2D2D3D4D4D5D5D6D7D7D8D8D9DA09
:1005A000DADBDBDCDDDDDEDEDFDFE0E1E1E2E2E362
:1005B000E3E4E5E5E6E6E7E7E8E8E9EAEAEBEBECC1
:1005C000ECEDEDEEEEEFEFF0F1F1F2F2F3F3F4F427
:1005D000F5F5F6F6F7F7F8F8F9F9FAFAFBFBFCFC93
:1005E000FDFDFEFEFFFF7007780F74177C1F72275A
:1005F0007A2F76377E3F7147794F75577D5F7367E6
:100600007B6F6003680B64136C1B62236A2B663379
:100610006E3B6143694B65536D5B5005580D541536
:100620005C1D52255A2D56355E3D5145594D4001B0
:10063000480944114C1942214A2946314E393006A5
:10064000380E34163C1E32263A2E2002280A241276
:100650002C1A1004180C4276FC30825A825AFC3054
:1006600042768A7DF9184276FC306E6A1D47825ABE
:10067000825A1D476E6AFC304276F9188A7D627F85
:100680008C0C8A7DF9187D7A28254276FC30E3703F
:10069000573C6E6A1D47F2623451825A825A345175
:1006A000F2621D476E6A573CE370FC3042762825A3
:1006B0007D7AF9188A7D8C0C627FD97F4806627F2B
:1006C0008C0C9D7EC8128A7DF9182A7C1A1F7D7AAF
:1006D000282585781F2B4276FC30B673BA36E37036
:1006E000573CCA6DCE416E6A1D47D066404CF262DF
:1006F0003451D75EF655825A825AF655D75E345138
:10070000F262404CD0661D476E6ACE41CA6D573CBE
:10071000E370BA36B673FC3042761F2B85782825F5
:100720007D7A1A1F2A7CF9188A7DC8129D7E8C0C4E
:10073000627F4806D97F11241FBECFEFD8E0DEBF0D
:10074000CDBF11E0A0E0B1E0EAE3F0E402C0059023
:100750000D92A632B107D9F725E0A6E2B1E001C0BB
:100760001D92A93CB207E1F70E9455120C941B2080
:100770000C9400002F923F924F925F926F927F9263
:100780008F929F92AF92BF92CF92DF92EF92FF92A1
:100790000F931F93CF93DF93EC017B01FA018080CD
:1007A000912C80E091E0B4010E94F81C6B018881DB
:1007B0000E94D81C282F30E041E0841A91082815A7
:1007C000390509F408C18F5F082F10E03901660C64
:1007D000771CD301A20FB31FAE0FBF1F11963C9021
:1007E000832C912CA92EB12CDD242801440C551CFE
:1007F000D201A00FB11FAE0FBF1F11964C9150E058
:10080000481959094A9DC0014B9D900D5A9D900D64
:100810001124B6010E94F81C860E971E97FCDEC0BC
:100820008FEF8816910411F00CF0CCC0630D2224D8
:100830002A94312C261A3108D301A20FB31FAE0F10
:10084000BF1F12967C90872C912CD201A00FB11F54
:10085000AE0FBF1F12964C9150E048195909A49E43
:10086000C001A59E900DB49E900D1124B6010E946A
:10087000F81C860E971E4FEF8416910411F00CF0B1
:10088000A4C0760E88248A94912C871891082F5F33
:100890003F4FD901AA0FBB1FA20FB31FAE0FBF1F3F
:1008A0007C90272D30E00F5F1F4FD801AA0FBB1F90
:1008B000A00FB11FAE0FBF1F4C9150E0421B530B56
:1008C000A49EC001A59E900DB49E900D1124B6016A
:1008D0000E94F81C260F371F2F3F310511F00CF036
:1008E00077C0760EEFEFF0E0E719F109498150E0AB
:1008F000249E9001259E300D349E300D1124A1E8D8
:10090000B0E80E94121D880F892F881F990B9195BE
:10091000082F0095849E9001859E300D949E300D89
:1009200011240E94121D880F892F881F990B919501
:10093000182F1095E49F9001E59F300DF49F300D26
:1009400011240E94121D880F892F881F990B9195E1
:10095000482F40952A81029F900111240E94121D68
:10096000880F892F881F990B9195F70180832A8121
:10097000129F900111240E94121D880F892F881F39
:10098000990B919581832A81429F900111240E94A5
:10099000121D880F892F881F990B91958283DF91F3
:1009A000CF911F910F91FF90EF90DF90CF90BF906C
:1009B000AF909F908F907F906F905F904F903F90FF
:1009C0002F900895212C312C37CF812C912C5FCF83
:1009D000E0E0F0E08BCF00E010E0F8CE22242A9493
:1009E000312C2ACF9B01220F331F260F371F3C9A31
:1009F00048B14F7E58B150616FB7F8942115310559
:100A0000C9F0FC01820F931F219138E058B9000012
:100A100000C000C027FF48B9220F000000C000C07E
:100A200000C000C048B9000000C03A9579F7E81747
:100A3000F90751F76FBF89EF90E00197F1F700C018
:100A4000000008951F920F920FB60F921124AF92DB
:100A5000BF92CF92DF92EF92FF920F931F932F934B
:100A60003F934F935F936F937F938F939F93AF9336
:100A7000BF93CF93DF93EF93FF9380918800909182
:100A800089000197909389008093880080914601A6
:100A9000882329F0809146018150809346018091FE
:100AA0004601811115C0809148019091490101963C
:100AB00090934901809348018091480190914901A8
:100AC0008F3F910511F008F0F6C089E08093460150
:100AD00080910401882319F1815080930401809151
:100AE0000601813009F4ECC0FF91EF91DF91CF91C5
:100AF000BF91AF919F918F917F916F915F914F9136
:100B00003F912F911F910F91FF90EF90DF90CF9029
:100B1000BF90AF900F900FBE0F901F90189584E07C
:100B200080930401809107018F30C8F080915101BA
:100B3000811115C080913D01811107C68091450149
:100B4000813428F08091450181508093450184E0F3
:100B500080933D0180910701813109F434C6189BCF
:100B600005C0309B03C0199910923C0118990DC023
:100B7000309B0BC0199B09C090913B019B3428F41A
:100B800081E080933A0180933C01189B0EC030991C
:100B90000CC0199B0AC090913B019B3430F482E059
:100BA00080933A0181E080933C0118990EC03099FE
:100BB0000CC0199B0AC090913B019B3430F483E038
:100BC00080933A0181E080933C01189963C0809141
:100BD0003A0190913C0181115BC1913009F424C428
:100BE00010923B0180913501813009F412C480914B
:100BF0004A01813009F4A9C480913C01813009F493
:100C0000A2C42A9880914B01882309F478C080916E
:100C100032018F5F80933201873309F474C1809170
:100C20004B01813009F462C1823029F48091310195
:100C3000883209F460C180913001813009F061C0CF
:100C400080915101813009F495C5809142019091C4
:100C500043010E94791F8091070180932F01909199
:100C60000701891310C0CEE0D0E00E94741FBE01BE
:100C70000E94F81C8F5F809307018091070190917B
:100C80002F01981791F31092510110923801109290
:100C9000300137C0309B9BCF199999CF90913B0180
:100CA0009B3408F094CF84E080933A0181E08093F4
:100CB0003C0184E0BBC3109249011092480105CF6A
:100CC00080910B01863009F416C508F408C18730FD
:100CD00009F415C5883019F42B9A2C9A2D9A809115
:100CE0000901823009F499C4833009F49AC481302F
:100CF00019F4419A4298439810920601F5CE109249
:100D0000310180917804813009F462C31092380176
:100D100080913901813009F424C480910801813027
:100D200009F4ACC380910801823009F4DEC28091DD
:100D30000801833009F446C080910801873009F426
:100D400041C0809108018830E9F180910801843028
:100D500009F49CC280910801853009F44DC280914C
:100D60000801863009F4F8C180910801893009F43E
:100D700079C1809108018A3009F411C1809108017C
:100D80008B3009F4C8C0809108018C3009F0A7CEDF
:100D900080915101813009F0A2CE80912B018931DF
:100DA00018F48F5F80932B01E4E5F1E0DF011197E8
:100DB0008C9311978C938083339642E0E43DF40743
:100DC000A9F78DCE80915101813009F0BECF80917D
:100DD00037018F5F80933701813009F461C78091BB
:100DE0002901813009F0B1CF8091410181110C942A
:100DF0005B0F80912B018093670480912E0180937B
:100E0000E703809168039091E80329E6E22E23E04E
:100E1000F22E09EE13E0C0E0D0E0DD24DA9418C031
:100E20002091D2029091D3028091D402FE01EE5A19
:100E3000FE4F2183908382832396C038F1E0DF0741
:100E400009F433C7D7018D917D01F80191918F018C
:100E50008093D502D092D6029093D7024CE051E015
:100E600062ED72E085ED92E00E94BA0380913E014E
:100E7000813009F40AC7823099F69091D20220910C
:100E8000D3022093D2029093D3028091D402CECF8A
:100E90009111A3CE90913B019111A2CE813009F422
:100EA00043C5823009F4C2C7843009F099CE8091DD
:100EB0004B018F5F80934B0180914B01833010F089
:100EC00010924B0180914B0181110C94B20F109242
:100ED0004A0181E08093060110923A0181CE85306B
:100EE00009F0FDCE2B982C982D9AF9CE80913101E6
:100EF000843109F0A0CE109231011092320181E0CC
:100F0000809330019DCE809131018F5F80933101BC
:100F10001092320184CE80915101813009F033CF9B
:100F200080912B01823318F48F5F80932B01C4E5ED
:100F3000D1E010E00FEF13C02091D2029091D302C4
:100F40008091D402FE01319720833197908388836A
:100F50001F5F2396103809F416CF80912B01109350
:100F6000D5020093D6028093D7024CE051E062EDA7
:100F700072E085ED92E00E94BA0380913E018130DB
:100F800009F40FC58230C1F69091D2022091D302AC
:100F90002093D2029093D3028091D402D3CF809138
:100FA0005101813009F0EACE209137012F5F209363
:100FB000370186E08093440180E890E090934E01F1
:100FC00080934D01213009F484C78091290181303B
:100FD00009F0D4CE0E94741F8F77907897FF02C0DB
:100FE0000C94541080932A010E94741F2091480190
:100FF0003091490168E770E00E94F81C280F2093A7
:10100000D5028FEF8093D6028093D7024CE051E057
:1010100062ED72E085ED92E00E94BA0380913E019C
:10102000813011F40C944810823011F00C9440106F
:101030003091D2024091D3024093D2023093D30236
:101040002091D40280912A0190E0FC01EE0FFF1F55
:10105000E80FF91FEE5AFE4F41833083228310922E
:1010600029018CCE80915101813009F082CE2091EE
:1010700037012F5F2093370186E08093440180E899
:1010800090E090934E0180934D01213009F426C7E2
:1010900080912901813009F06CCEABEAB5E06CEAB1
:1010A00075E0EFEAF5E00FEFFF24F39436C0E501B9
:1010B0000983EF012197E880E901C80FD91FCE5AB3
:1010C000DE4FD8804E2D50E04D0D511D4F3F510544
:1010D0000CF4CEC50883E901C80FD91FCE5ADE4FE4
:1010E0002A813081832F90E0820F911D8F3F9105DF
:1010F0000CF4BBC50A83EB0188818111B0C51123B3
:1011000009F4ACC611501C9315966B5F7F4F359652
:10111000D5E0A93CBD0709F4D8C61C91812F90E009
:101120009C01220F331F5901A80EB91EE501CE5AAA
:10113000DE4F5E01E980AF0142505109EA01D880DB
:101140004D2D50E04E0D511D4F3F51050CF0AFCFCE
:10115000ED0CE501E982ADCF80915101813009F0BC
:1011600003CE58EEE52E53E0F52EC4E5D1E087011D
:10117000DD24DA9412C02091D2029091D3028091A2
:10118000D402FE0131972083319790838883239680
:10119000B4E008361B0709F40FC480914801909110
:1011A0004901902F9E19980F9093D502D092D602A4
:1011B000D801ED918D01F0E0EA5DFE4F85919491AB
:1011C0008093D7024CE051E062ED72E085ED92E051
:1011D0000E94BA0380913E01813009F4CCC3823071
:1011E00051F69091D2022091D3022093D202909393
:1011F000D3028091D402C5CF80915101813009F092
:10120000AECD08EE13E0C4E5D1E0FF24FA9412C09D
:101210002091D2029091D3028091D402FE013197A5
:1012200020833197908388832396B4E008361B0788
:1012300009F4E7C380914801909149018093D50258
:10124000F092D602D801ED918D01F0E0EA5DFE4FFB
:10125000859194918093D7024CE051E062ED72E069
:1012600085ED92E00E94BA0380913E01813009F43D
:101270008DC3823069F69091D2022091D3022093DF
:10128000D2029093D3028091D402C8CF80915101B1
:10129000813009F05FCD209137012F5F2093370116
:1012A00080ED97E090934E0180934D01213009F439
:1012B00022C680912901813009F04CCD0E94741F13
:1012C0008F77907897FDF6C6809326019927FC01C9
:1012D000EE0FFF1FE80FF91FEE5AFE4F8FEF8183CD
:1012E000808382831092290135CD80915101813014
:1012F00009F01DCD209137012F5F2093370180E445
:1013000090E090934E0180934D01213009F4E9C59E
:1013100080912901813009F00ACD80912C019091B2
:101320002D018F3791050CF060C69FE7981B9093B5
:101330002A0180914801909149018093D5028FEF55
:101340008093D6028093D7024CE051E062ED72E0C8
:1013500085ED92E00E94BA0380913E01813009F44C
:1013600079C6823009F45AC66091D2025091D302F4
:101370004091D40220912A0130E0F901EE0FFF1FC5
:10138000E20FF31FEE5AFE4F6183508342838FE7D3
:1013900090E0821B930BFC01EE0FFF1FE80FF91F7B
:1013A000EE5AFE4F61835083428380912C019091CD
:1013B0002D01019690932D0180932C018D3F910575
:1013C00024F010922D0110922C0110922901AFCC23
:1013D0008091510181119ACC809137018F5F809368
:1013E000370190910801992309F4B5C1823309F4BA
:1013F000B5C180913801833009F08ACC81E08093B7
:1014000051011092380110923701809339015A9A94
:101410007FCC10924A0180913401882309F47CC169
:10142000815080933401E3CB90913B019F3530F4A0
:101430009F5F90933B019B3408F4D4CB813009F437
:10144000BAC4823009F45CC5833009F4A4C4843082
:1014500009F0C8CB80913E018F5F80933E018330BD
:1014600009F4C0C588E08093360181E0809335019E
:1014700010923A012B982C982D98B4CB8091510161
:10148000813009F04FCC209137012F5F2093370135
:1014900080E890E090934E0180934D01213009F453
:1014A00025C580912901813009F03CCC80912C0127
:1014B00090912D018F3791050CF09AC59FE7981BED
:1014C00090932A0180914801909149018093D5021F
:1014D0008FEF8093D6028093D7024CE051E062ED0B
:1014E00072E085ED92E00E94BA0380913E01813066
:1014F00009F4BBC5823009F49CC54091D2023091F9
:10150000D3022091D40280912A0190E0FC01EE0FD9
:10151000FF1FE80FF91FEE5AFE4F418330832283ED
:1015200080912C0190912D01019690932D01809333
:101530002C018D3F910524F010922D0110922C0169
:1015400010922901EFCB2A9A5DCB2B982C982D98DD
:1015500090913301992309F4D9C0915090933301AC
:101560004BCBE4E5F1E0C8EED3E028E633E0CF0171
:101570000197DC011C920197DC011C921082D901B9
:101580001D929D0119923396B2E0E43DFB0779F775
:1015900080914201909143010E94791F0E94741F23
:1015A0006FEF70E00E94F81C80932E018FE790E0AF
:1015B00090932D0180932C0110922B0110922A01FF
:1015C00010923701109229011092400110923F01B0
:1015D00080914101811197C081E080934101809108
:1015E0000801833011F1809108018730F1F080917A
:1015F00008018830D1F080910801853009F4BAC221
:1016000080910801863009F4ECC28091080189308C
:1016100009F41CC21092390180CB4198429A439838
:101620006BCB41984298439A67CB8FEF80932B0105
:101630000E94741F6FEF70E00E94F81C80932E01CF
:1016400010922A0110922D0110922C0180932801F2
:10165000682F20E030E0CFEFD0E070E0482F50E07E
:10166000FB017D974E175F0704F1635E7F4F6417A0
:10167000750734F41AC0435E5F4F421753078CF06E
:101680000E94741FBE010E94F81C809328014091A3
:101690002E0150E09C013327FA017D972E173F075A
:1016A00054F720912C0130912D01F901E758FB4F9F
:1016B000808380932E012F5F3F4F30932D01209325
:1016C0002C012233310514F4682FC7CF1092280162
:1016D00080910801883009F438C380E280932701A3
:1016E000A8E6B3E0E8EEF3E011921D92C4E0E8361C
:1016F000FC07D1F780CF2B982C9A2D98F0CA2B9A03
:101700002C982D98ECCA1092410169CF9EE19093DC
:1017100033018093060170CA2B9B28C02B982C980C
:101720002D9881E08093340180913601811190C21F
:1017300081E0809306011092350190914B0199232D
:1017400009F455CA80934A0152CA815080933D01E1
:10175000811105CAF3C9883009F04BCE8091380158
:101760008F5F809338011092370145CE2B9A2C9AC7
:101770002D9AD7CF80910801882309F4C2CA80919D
:101780004201909143010E94791F8091080180934A
:101790002F0190910801891310C0CAE0D0E00E9487
:1017A000741FBE010E94F81C8F5F80930801809116
:1017B000080190912F01981791F381E080933901EE
:1017C000109230019ECA81E080933D0180914801D2
:1017D000909149018093D5028FEF8093D6028DECD2
:1017E0008093D702809145016091D20290E0FC0184
:1017F000EE0FFF1FE80FF91FEE5AFE4F6183809135
:1018000045015091D30290E0FC01EE0FFF1FE80F5D
:10181000F91FEE5AFE4F5083809145014091D4024A
:1018200090E0FC01EE0FFF1FE80FF91FEE5AFE4F8C
:101830004283209145018FE790E0DC01A21BB109B2
:10184000FD01EE0FFF1FEA0FFB1FEE5AFE4F6183F3
:1018500020914501EC01C21BD109FE01EE0FFF1FD3
:10186000EC0FFD1FEE5AFE4F508320914501FC0105
:10187000E21BF1099F01EE0FFF1FE20FF31FEE5A6B
:10188000FE4F428320914501213408F468C920911C
:1018900045012150209345012091450130E0F90197
:1018A000EE0FFF1FE20FF31FEE5AFE4F61832091F0
:1018B000450130E0F901EE0FFF1FE20FF31FEE5A72
:1018C000FE4F50832091450130E0F901EE0FFF1FDC
:1018D000E20FF31FEE5AFE4F428320914501DC01D7
:1018E000A21BB109FD01EE0FFF1FEA0FFB1FEE5A0D
:1018F000FE4F618320914501EC01C21BD109FE011D
:10190000EE0FFF1FEC0FFD1FEE5AFE4F508320918C
:101910004501821B9109FC01EE0FFF1FE80FF91F23
:10192000EE5AFE4F42831BC91092500110924F0194
:1019300080910B01882329F080910B0181508093C5
:101940000B0180910B01843009F464C38091510133
:1019500081110BC090910A0180910B01989FC001E9
:10196000112490934E0180934D0181E080930601F4
:1019700010923A0135C99091D4028091D30280939C
:10198000D4029093D3022091D202FBCB9091D40247
:101990008091D3028093D4029093D3022091D202FB
:1019A0003DCC9091D4028091D3028093D402909345
:1019B000D3022091D202C6CA80914101811114C282
:1019C0008091E803809340018091680380933F01F8
:1019D0004FE750E069EE73E088EE93E00E94841FC9
:1019E0004FE750E069E673E088E693E00E94841FC9
:1019F000809140018093670480913F018093E703C9
:101A0000B3C9809141018111A4C18091E803809301
:101A100040018091680380933F014FE750E069EEF9
:101A200073E088EE93E00E94841F4FE750E069E680
:101A300073E088E693E00E94841F809140018093C8
:101A4000670480913F018093E70389C90FEA15E09D
:101A5000CCEAEC2EC5E0FC2ECC24C394CFEFD0E032
:101A6000DD24DA9480912A01805F80932A01F801B5
:101A70003497808380914101811161C0D7011C920C
:101A8000C09241010E94741FBE010E94F81C809305
:101A9000280140912E0150E09C013327BA01625287
:101AA000710926173707ECF04E5D5F4F4217530759
:101AB00034F417C04E5D5F4F4217530794F00E94F5
:101AC000741FBE010E94F81C8093280140912E01D2
:101AD00050E09C013327BA0162527109261737077B
:101AE0004CF780932E018093D502D092D602D092EB
:101AF000D7024CE051E062ED72E085ED92E00E9489
:101B0000BA0380913E01813051F18230E9F0209199
:101B1000D2029091D3028091D402F80132972083AF
:101B200031969083D8018C930B5F1F4FB5E0EB0E7D
:101B3000F11CE5E00D3C1E0709F094CF6BCDF701D9
:101B4000C082109241019ECF9091D2022091D30287
:101B50002093D2029093D3028091D402DECF909151
:101B6000D4028091D3028093D4029093D302209127
:101B7000D202D3CFC8EED3E060E070E0CB0117C053
:101B8000BE01685E7340882777FD8095982F0E947C
:101B9000B41D2BED3FE049EC50E40E94401E20E0D4
:101BA00030E040E05CE30E94401E0E94A31E20E063
:101BB00030E040E85FE30E94221D20E030E048EC86
:101BC00051E40E94401E20E030E046E952E40E94C9
:101BD000221D0E94861D6993E4E0C836DE0781F667
:101BE0000FCDC8EED3E060E070E0CB0117C0BE01BE
:101BF000685E7340882777FD8095982F0E94B41DFA
:101C00002BED3FE049EC50E40E94401E20E030E024
:101C100040E85CE30E94401E0E94A31E20E030E0EA
:101C200040E85FE30E94221D20E030E048EC51E4F0
:101C30000E94401E20E030E046E952E40E94221D4E
:101C40000E94861D6993F4E0C836DF0781F6DDCC7B
:101C500081508093360181110C94F70569CD1F37AF
:101C600008F002C11F5F1C934FCA230F2A8343CA87
:101C7000412F50E0EA01CC0FDD1FC40FD51FCE5A13
:101C8000DE4F48814E0D488326CA9091D402809140
:101C9000D3028093D4029093D3022091D202C6C87B
:101CA00080932901109237019FC8809108018330E9
:101CB00009F45DC14091270180910801883009F441
:101CC00075C180912A018F5F80932A014817A8F47B
:101CD00010922A018FEF80932B0180912801E82F29
:101CE000F0E0E758FB4F908190932E018F5F809337
:101CF0002801823310F01092280180914101811156
:101D0000B9C08091E803809340018091680380937B
:101D10003F014FE750E069EE73E088EE93E00E94E8
:101D2000841F4FE750E069E673E088E693E00E9485
:101D3000841F809140018093670480913F018093CC
:101D4000E703109229010C94A50680E180932701F6
:101D5000C7CC80916704809340018091E703809312
:101D60003F014FE750E068EE73E089EE93E00E9498
:101D7000841F4FE750E068E673E089E693E00E9435
:101D8000841F809140018093E80380913F018093FC
:101D900068030C94AF068EE18093360181E0809356
:101DA000350110923A012B982C982D9810924C01E5
:101DB00080913A014CCB909109019F5F909309016A
:101DC00090910901943010F08093090188E080938C
:101DD000360181E08093350110923A012B982C98BE
:101DE0002D9880913A012DCB80916704809340011A
:101DF0008091E70380933F014FE750E068EE73E086
:101E000089EE93E00E94841F4FE750E068E673E09C
:101E100089E693E00E94841F809140018093E8034B
:101E200080913F01809368030C94B4068091510126
:101E3000813009F4E0C0809107018F5F8093070132
:101E400080910701823118F081E0809307011092A0
:101E50005101109238011092370187CDEB01F882C1
:101E60008C918F5F8C9350C9EB0118828C918150BB
:101E70008C934AC980916704809340018091E70365
:101E800080933F014FE750E068EE73E089EE93E006
:101E90000E94841F4FE750E068E673E089E693E014
:101EA0000E94841F809140018093E80380913F014C
:101EB0008093680346CF90912B019093E803809123
:101EC0002E01809368030C940507109229010C944D
:101ED000B90620932901109237017CC8109237016E
:101EE000DCC8209329011092370117CA20932901D9
:101EF00010923701DBCA2093290110923701DEC905
:101F000060910B0186E090E00E949E1F60910901A4
:101F100085E090E00E949E1F6091080184E090E0BF
:101F20000E949E1F6091070183E090E00E949E1F27
:101F300060914B0181E090E00E949E1F60913E0104
:101F400080E090E00E949E1F88E08093360181E04F
:101F50008093350110923A012B982C982D988091FE
:101F60003A0172CA81E080934A010C946C07109187
:101F70002B0140912701E42FF0E0C12FD0E0BF01F9
:101F8000655071092FEF30E0C9010E94F81CC61797
:101F9000D7070CF45CC065E070E06E1B7F0BC901D5
:101FA0000E94F81C160F10932B0186CE10912B0166
:101FB000E42FF0E0C12FD0E0BF01655071092FEF91
:101FC00030E0C9010E94F81CC617D707ECF165E0A4
:101FD00070E06E1B7F0BC9010E94F81C160F109356
:101FE0002B016FCE10923E013DCA91E8980F9FC918
:101FF00091E8980F65CA809108018F5F809308016E
:10200000809108018D3010F01092080181E08093DA
:102010003901ABCC88E080930B0198CC5091D2026F
:102020006091D3026093D2025093D3024091D402C4
:10203000A1C93091D2024091D3024093D202309391
:10204000D3022091D4025FCA10922B013ACE109293
:102050002B0132CE5091D4024091D3024093D4024E
:102060005093D3026091D20285C93091D40220915D
:10207000D3022093D4023093D3024091D20243CAB8
:102080004091D2023091D3022091D4020C942208C4
:102090003091D4022091D3022093D4023093D30202
:1020A0004091D2020C942208019780689F6F01969C
:1020B0000C94F207019780689F6F019605C91F92E3
:1020C0000F920FB60F9211242F933F934F935F936C
:1020D0006F937F938F939F93AF93BF93CF93DF9330
:1020E000EF93FF9380918A0090918B0081509F4FD6
:1020F00090938B0080938A008091510120914F0131
:10210000309150018111A8C080914D0190914E01F4
:102110002817390708F46CC08091E002811109C0CA
:102120008091D802882329F08091D8028150809331
:10213000D8028091E102811109C08091D9028823DF
:1021400029F08091D90281508093D9028091E202D6
:10215000811109C08091DA02882329F08091DA0286
:1021600081508093DA028091E302811109C080914D
:10217000DB02882329F08091DB0281508093DB020F
:102180008091E402811109C08091DC02882329F04A
:102190008091DC0281508093DC028091E502811104
:1021A00009C08091DD02882329F08091DD028150F1
:1021B0008093DD028091E602811109C08091DE02E8
:1021C000882329F08091DE0281508093DE02809185
:1021D000E702811109C08091DF02882329F08091F4
:1021E000DF0281508093DF021092500110924F0164
:1021F000809107018F3008F054C080914F01909179
:10220000500101969093500180934F0180914201BB
:1022100090914301019690934301809342018091F4
:10222000420190914301019621F4109243011092D2
:102230004201FF91EF91DF91CF91BF91AF919F91BB
:102240008F917F916F915F914F913F912F910F905F
:102250000FBE0F901F90189580914D0190914E01E7
:102260002817390750F280910801813009F45FC0C6
:1022700080910801823009F45AC0809108018930A8
:1022800009F47FC0809108018A3009F47AC08091F6
:102290000801843009F4ADC01092500110924F0132
:1022A000ACCF80910701823108F0A7CF80E090E0A9
:1022B0004FE750E026C030914401231B11962C9328
:1022C000DF01A80FB91FAE5ABE4F2C9130914401C7
:1022D000231708F44BC030914401231B2C93E80FC3
:1022E000F91FEE5AFE4F2281309144012317E0F18D
:1022F00030914401231B228301968038910509F413
:102300007CCF20914501281799F1FC01EE0FFF1FAA
:10231000DF01A80FB91FAE5ABE4F11962C9111972D
:1023200030914401231738F611961C92C9CFC3E5AA
:10233000D1E0A2E5B1E0E4E5F1E08881882311F085
:10234000815088838C91882311F081508C938081F7
:10235000882311F08150808323961396339672E080
:10236000E43DF70751F789CF1282C6CF1C92B7CF51
:1023700020914501BA01621B71098617970729F65A
:10238000BBCFC3E5D1E0A2E5B1E0E4E5F1E01EC0DA
:1023900090914401891B88838C91909144019817F6
:1023A00000F590914401891B8C93808190914401A8
:1023B0009817E8F490914401891B80832396139623
:1023C000339682E0E43DF80709F461CF888190916B
:1023D00044019817E8F218828C9190914401981763
:1023E00000F31C92808190914401981718F3108299
:1023F000E5CFE4E5F1E0DF0111971C9211971C9203
:102400001082339622E0E43DF207A9F745CF67E05A
:1024100086E090E00E94B01F61E085E090E00E94BD
:10242000B01F61E084E090E00E94B01F61E083E0B3
:1024300090E00E94B01F60E081E090E00E94B01F39
:1024400060E080E090E00E94B01F6BE082E090E0EE
:102450000E94B01F82E090E00E94961F80934C0182
:1024600086E090E00E94961F80930B0185E090E04B
:102470000E94961F8093090184E090E00E94961FBD
:102480008093080183E090E00E94961F80930701EB
:1024900081E090E00E94961F80934B0180E090E0E5
:1024A0000E94961F80933E010895CF93DF93CDB78E
:1024B000DEB72A970FB6F894DEBF0FBECDBF81E01E
:1024C0008093810080916F00866080936F00289ACE
:1024D000299A409A5A98229A8CE384B98EE187B956
:1024E000529A82E090E00E94961F80934C01809166
:1024F0004C018B3011F00C94D11C86E090E00E94CE
:10250000961F80930B0185E090E00E94961F8093B8
:10251000090184E090E00E94961F8093080181E009
:1025200090E00E94961F80934B0183E090E00E9410
:10253000961F8093070180E090E00E94961F809391
:102540003E0180914B01882319F081E080934A017C
:1025500081E08093060190910A0180910B01989F80
:10256000C001112490934E0180934D0181E480932A
:10257000450178941A8219822BEA34E03C832B833C
:10258000AFE72A2E312C80914C01882311F40C9452
:102590003F18AB81BC81E0E0F1E01D923197E9F793
:1025A00085E680937C002BEA34E03C832B83F901A1
:1025B00026EF20937A0080917A0084FFFCCF8091EF
:1025C00078009091790090588193919335E0EB3A9F
:1025D000F30779F710927A002F923F924F925F9211
:1025E000FF920F931F93CF93DF93CBEAD4E0E6EEF5
:1025F000F1E0FF2440E86591759108811981970306
:1026000020010E034F1C10019E035F08300C411C7B
:102610005F1CF8035F08300C411C5F1C4992599203
:102620004A9549F7DF91CF911F910F91FF905F90ED
:102630004F903F902F9011242F923F926F927F9254
:10264000CF93DF93E6EEF5E048E3A591BB27AA0F11
:10265000BB1FA555BB4F2D903C90C591DD27CC0FDE
:10266000DD1FC555DB4F688079807C926E92288291
:1026700039824A9551F7DF91CF917F906F903F90CB
:102680002F902F923F924F925F926F927F928F92F4
:102690009F92AF92BF92CF92DF92EF92FF920F93F1
:1026A0001F93CF93DF93FF2400E1E02ECBEAD4E029
:1026B000688079804A805B80759467944301559463
:1026C0004794640C751C84189508AC80BD804E80BE
:1026D0005F80B594A794650155944794A40CB51CEC
:1026E000C418D508688579854A845B847595679593
:1026F0008B0155944794640D751D041915098C853B
:102700009D854E845F84959587959C01559447944B
:10271000840D951D24193509759467942301B5948A
:10272000A7946A0C7B1C4A185B0895948794540103
:10273000D594C7948C0C9D1CAC18BD0875956795F5
:102740006B0195958795680F791FC81AD90A7594FA
:102750006794130175956795660E771E261A370ADA
:1027600042E85AE51503C001049FB00114039F0914
:10277000700D811D9F1D509F700D811D9F1D959493
:1027800087948401880E991E081B190B5594479451
:10279000D201D594C7944C0C5D1CAC19BD0935030E
:1027A000C001249FB00134039F09700D811D9F1D3E
:1027B000529F700D811D9F1DB594A7946501A80EB1
:1027C000B91EC81AD90A6992799289929992499246
:1027D0005992A992B9922992399209931993A9937E
:1027E000B993C992D992EA9409F062CF00E2C02E5F
:1027F000DD2405E0902EE6E5F6E000E1A02EBB2406
:1028000004E0E02EABEAB4E0ED01CA0DDB1D8E2C36
:102810002D903C90488059803594279431015594EF
:102820004794640C751C24183508299239927C92BF
:102830006E92AC0DBD1D1197EA94088119813C91EF
:102840002E91459155916591759115022001049F36
:10285000100114035F08300C411C5F1C509F300CAA
:10286000411C5F1C37023001269F200C311C461C86
:10287000571C36035F08300C411C5F1C729F300CE4
:10288000411C5F1C0E01CA19DB0928803980359470
:1028900027943101640C751C2418350868827982EC
:1028A000E0012992399217022001069F10011603B8
:1028B0005F08300C411C5F1C709F300C411C5F1C7A
:1028C00035023001249F2018310846085708340388
:1028D0005F1C301841085F08529F301841085F089C
:1028E0000D01AA19BB092D903C9035942794310114
:1028F000640C751C241835087C926E92D0012D92C0
:102900003C921297EA9409F098CFDE01AA19BB090C
:102910002D903C90488059803594279431015594EE
:102920004794640C751C24183508288239827C92DF
:102930006E92C50196958795C80FD91FCB3AD905D8
:1029400040F4DE01CA0DDB1DE82CEA19FB093496C0
:102950005FCF85FC06C0EA2CE6945601CC0CDD1C4A
:1029600051CFDF91CF911F910F91FF90EF90DF90AA
:10297000CF90BF90AF909F908F907F906F905F901F
:102980004F903F902F9011242F923F924F925F9241
:102990006F927F928F92FF920F931F93CF93DF934B
:1029A000ABEAB4E0C8EED2E0EBEAF5E04F01FF2479
:1029B00040E40D911D91980106C0F4010D911D9107
:1029C000329122914F0111022001009F10019803C2
:1029D0005F08300C411C5F1C33023001229F200C29
:1029E000311C461C571CBA035F08300C411C5F1C8D
:1029F0001127552061F018E0F201F03428F5330C6E
:102A0000EE1FFF1F330CEE1FFF1F1A951DC0442041
:102A100069F014E0F42DE32DF034B0F4220CEE1F35
:102A2000FF1F220CEE1FFF1F1A95F6CFF101F034A5
:102A300058F4F03160F4F13078F0F295E295EF70EF
:102A4000EF2BE695F1E008C0EF2FF2E005C0EE0FA6
:102A5000FF1FEF2FE068F1E0EA51FD4F04912227BC
:102A6000112321F0000F221F1A95E1F709932993F2
:102A70004A9509F0A2CFDF91CF911F910F91FF905E
:102A80008F907F906F905F904F903F902F90112488
:102A9000612C712C412C512CC12CD12CE12CF12C0E
:102AA00000E010E020E030E0812C912CE8EEF2E034
:102AB00041E050E080E090E038872F83FA87E98793
:102AC00007C04034510549F14F5F5F4FE985FA85F2
:102AD00021913191FA87E987BA01625071096F3308
:102AE000710578F76C5C7F4FFB010C940C1D59014C
:102AF000A80EB91E60EDA61667E4B60608F020C25F
:102B0000ADECBCEC0E94121D969587959695879525
:102B10008A0D9B1D40345105B9F62F81388570927E
:102B200069046092680450926B0440926A04D092E7
:102B30006D04C0926C04F0926F04E0926E041093E6
:102B40007104009370043093730420937204909284
:102B50007504809274049093770480937604809136
:102B60005101813009F48BC580915101811153C20B
:102B700080910901813009F40FC76091090170E06B
:102B800088EC90E00E94F81CFB0180916804909111
:102B90006904813D57E0950708F4FBC6805D9740C6
:102BA000BF010E94E41C8B01709369046093680468
:102BB0008091050190E08617970708F0E7C680919D
:102BC00005016B01C81AD10809F4E0C680916A04B6
:102BD00090916B04813D67E0960708F4D4C6805D50
:102BE0009740BF010E94E41C70936B0460936A04D9
:102BF0008091050190E08617970708F03BC580910A
:102C000005019B01281B3109F22E432F2C153D0590
:102C100010F4FC2C4D2D80916C0490916D04813D3D
:102C200077E0970708F423C5805D9740BF010E94B5
:102C3000E41C70936D0460936C048091050190E036
:102C40008617970728F4809105019B01281B3109FD
:102C5000CF2CD42EC216D30608F4690180916E04DD
:102C600090916F04813DA7E09A0708F4FDC4805D50
:102C70009740BF010E94E41C70936F0460936E0440
:102C80008091050190E08617970728F4809105014F
:102C90009B01281B3109C216D30608F469018091F3
:102CA000700490917104813DB7E09B0708F4D9C48A
:102CB000805D9740BF010E94E41C70937104609393
:102CC00070048091050190E08617970728F48091A1
:102CD00005019B01281B3109C216D30608F46901BE
:102CE0008091720490917304813D47E0940708F449
:102CF000B5C4805D9740BF010E94E41C70937304CB
:102D0000609372048091050190E08617970728F47C
:102D1000809105019B01281B31097601C216D3065B
:102D200008F479018091740490917504813D57E015
:102D3000950708F490C4805D9740BF010E94E41C91
:102D400070937504609374048091050190E0861778
:102D5000970728F4809105019B01281B3109E21691
:102D6000F30608F479018091760490917704813D0F
:102D700067E0960708F480C4805D9740BF010E9419
:102D8000E41C70937704609376048091050190E0D1
:102D90008617970728F4809105019B01281B3109AC
:102DA000FA82E982E216F30610F43A832983C80115
:102DB000E12C21E000E010E032E0F32EC980DA805F
:102DC000B22E1EC0FA01E852FD4F208130E082177A
:102DD000930708F44FC08083EE2009F44DC0FC92A5
:102DE000080F191F88E0B81609F46AC1AB2DB0E0CE
:102DF000AA0FBB1FA859BB4F8D919C91B394E3942C
:102E0000209109014E2D50E0213009F4B2C08C15FB
:102E10009D0508F4A2C08C199D099A01220F331F49
:102E2000D901A859BB4F8D939C936091050170E027
:102E30006817790740F48091050190E0F901E8599D
:102E4000FB4F91838083DA01A052BD4F6C916623C2
:102E500009F4B8CF7FEF760F7C93FA01E852FD4F6B
:102E6000208130E08217930708F0B5CF772311F067
:102E700062506C93E110B4CF1C92080F191FB6CFAB
:102E8000820E931EF0ED8F16F7E49F0608F41CCE19
:102E90003FEC832E37E4932E17CEEF81F885E20FB7
:102EA000F31FF887EF83E03DF74408F40DCEEFEC15
:102EB000F7E4F887EF8308CE020F131F003DF7E415
:102EC0001F0708F401CE0FEC17E4FECDE20EF31E4F
:102ED000E0EDEE16E7E4FE0608F4F6CD6FECE62E24
:102EE00067E4F62EF1CDC20ED31EB0EDCB16B7E4DB
:102EF000DB0608F4E9CD7FECC72E77E4D72EE4CDCE
:102F0000B901640D751D603DA7E47A0708F5290134
:102F1000569447945694479456944794460E571E99
:102F2000D3CDB901660D771D603DF7E47F0758F4F6
:102F300039017694679476946794660E771EC4CDB3
:102F40008FEC97E4BECD3FEC632E37E4732EBCCDFF
:102F50002FEC422E27E4522EB7CDDA01AA0FBB1F69
:102F6000A859BB4F1D921C928091050180E090E012
:102F70006ACF813D77E0970708F49FC09C01205DF0
:102F80003740A3E8BDE20E94121D96958795929561
:102F900082958F7089279F7089273FCFB092440117
:102FA00020914701205C213808F02FE780914701EC
:102FB00090E04816590608F032C380914501821707
:102FC000C0F430E0F901EE0FFF1FE20FF31FEE5ADD
:102FD000FE4F118210821282C101821B930BFC01F1
:102FE000EE0FFF1FE80FF91FEE5AFE4F11821082FD
:102FF00012821F5F193008F010E0013009F4CEC2D0
:10300000EA9409F092C0FFEF8F1A9F0A2FE1D20EC7
:1030100038EFD31281C0F89460E870E082E591E067
:103020000E94F204789480916A0490916B04892B39
:1030300051F580916C0490916D04892B21F580915C
:103040006E0490916F04892BF1F48091700490913B
:103050007104892BC1F48091720490917304892BBF
:1030600091F48091740490917504892B61F481E04E
:103070008093780480914C0181110C94C9120E94B4
:1030800007120C94C91280915101882321F01092EB
:10309000500110924F0190910A0180910B01989F6D
:1030A000C001112490934E0180934D011092780439
:1030B000109251015A980C94C31280E090E0ADCE6A
:1030C00010924701809107018F3098F0809107019D
:1030D000823178F49801ABEABAEA0E94121D8C01A1
:1030E00016950795169507950138110510F000E81B
:1030F00010E0D12C812C912C21E0F12C60E1662E86
:1031000077247A947FE7C72EAA24AA94E3E05E2E60
:103110005D822801022F1F2D40E1E42E55E0B52EDF
:10312000940128523D4F38872F83A092D602809178
:10313000070190E0FC013197E131F10508F059CF2A
:10314000ED58FF4F0C940C1DB092440120914701A3
:10315000205C213808F02FE78091470190E0481665
:10316000590608F42ACF8091470140E350E0481BFC
:103170005109CA01880F8093D502A092D7024CE072
:1031800051E062ED72E085ED92E02E830E94BA0379
:1031900080913E012E81813009F452C2823009F4BF
:1031A00044C25091D2024091D3023091D402822F76
:1031B00090E0FC01EE0FFF1FE80FF91FEE5AFE4FE3
:1031C000518340833283B101681B790BCB01FB0132
:1031D000EE0FFF1FE80FF91FEE5AFE4F5183408399
:1031E00032838091470190E08415950509F001CF65
:1031F00080914501281710F02093450180914501E9
:1032000090E0FC01EE0FFF1FE80FF91FEE5AFE4F92
:1032100071828091450190E0FC01EE0FFF1FE80FE5
:10322000F91FEE5AFE4F10828091450190E0FC019B
:10323000EE0FFF1FE80FF91FEE5AFE4F128280912A
:103240004501D101A81BB109CD01FD01EE0FFF1F02
:10325000E80FF91FEE5AFE4F718280914501F1018E
:10326000E81BF109CF01EE0FFF1FE80FF91FEE5A1F
:10327000FE4F1082809145019101281B3109C9013F
:10328000F901EE0FFF1FE80FF91FEE5AFE4F1282F1
:10329000B0CE809148019091490190914701980FDB
:1032A0009093D502E12FF0E0E852FD4FE081F0E08D
:1032B000EA55FE4F859194918093D7024CE051E0FE
:1032C00062ED72E085ED92E00E94BA0380913E01CA
:1032D000813009F474C1823009F466C14091D20290
:1032E0003091D3022091D4028091470190E0FC01FB
:1032F000EE0FFF1FE80FF91FEE5AFE4F418380913A
:10330000470190E0FC01EE0FFF1FE80FF91FEE5A96
:10331000FE4F30838091470190E0FC01EE0FFF1FCC
:10332000E80FF91FEE5AFE4F228363CED092D502EA
:10333000BFE1DB1609F439C3AF81B885EC91F0E049
:10334000EA55FE4F859194918093D7024CE051E06D
:1033500062ED72E085ED92E00E94BA0380913E0139
:10336000813009F448C1823009F434C14091D2025D
:103370003091D3022091D40280914701013009F4A9
:1033800038C1BC2DB81B8B2F01E090E0FC01EE0F83
:10339000FF1FE80FF91FEE5AFE4F4183308322834F
:1033A00028CEEF81F88580812FE330E0281B31099A
:1033B000C901880F8093D502E08179CFEF81F8852C
:1033C00080812FE330E0281B3109C901880F8093E9
:1033D000D502DF01B3CFEF81F8858081880F8F5749
:1033E000F6CF809148019091490190914701980F43
:1033F0009093D502A1CF80914801909149018D0D04
:103400008093D502AF81B88599CF80914801909182
:1034100049018D0D8093D50245CFD092D502EFE1C1
:10342000DE1240CF6092D5023DCF8091480190914D
:1034300049018D0D8093D502AF81B885EC9137CFCE
:10344000EF81F8858081880F8F578093D502E081C6
:103450002ECF809148019091490190914701980F9A
:103460009093D502AF81B885EC9121CFD092D5024F
:103470009FE1D912F7CF6092D502F4CF3D8130930E
:10348000440180914801909149018093D502A09216
:10349000D70220914701205C213808F02FE74CE04B
:1034A00051E062ED72E085ED92E02E830E94BA0356
:1034B00080913E012E81813009F4A8C0823041F410
:1034C0008091D2029091D3029093D2028093D30242
:1034D0008091470190E08415950509F08ACD80918F
:1034E0004501281710F02093450180914501209156
:1034F000D20290E0FC01EE0FFF1FE80FF91FEE5A19
:10350000FE4F2183809145013091D30290E0FC0170
:10351000EE0FFF1FE80FF91FEE5AFE4F3083809128
:1035200045014091D40290E0FC01EE0FFF1FE80F2F
:10353000F91FEE5AFE4F428380914501B101681B8D
:103540007109FB01EE0FFF1FE60FF71FEE5AFE4F4A
:10355000218380914501D101A81BB109FD01EE0F26
:10356000FF1FEA0FFB1FEE5AFE4F3083809145018B
:10357000F101E81BF109CF01EE0FFF1FE80FF91F62
:10358000EE5AFE4F428335CD80914801909149011A
:103590008093D502AF81B885EC9189CE80914701A7
:1035A0008F5F809347012CCD3091D2024091D3029E
:1035B0004093D2023093D3022091D40295CE309121
:1035C000D4022091D3022093D4023093D3024091AD
:1035D000D2028ACE3091D2024091D3024093D202DD
:1035E0003093D3022091D40280914701013009F039
:1035F000C8CE00E0CACE3091D4022091D3022093ED
:10360000D4023093D3024091D202B6CE8091D4023C
:103610009091D3029093D4028093D30259CF90918A
:103620004701892F880F890FA6CD4091D202509172
:10363000D3025093D2024093D3023091D402B7CD3B
:103640004091D4023091D3023093D4024093D302FC
:103650005091D202ACCD80E090E06FCB80E090E062
:103660004ACB80E090E026CB80E090E002CB80E087
:1036700090E0DCCA9601C8CA80E090E07FCB71ED93
:10368000671677E0770608F05CC110926904109223
:1036900068048091050180916A0490916B04813DDA
:1036A000A7E09A0708F02BC110926B0410926A04ED
:1036B0008091050180916C0490916D04813DB7E08B
:1036C0009B0708F0FAC010926D0410926C04809170
:1036D000050180916E0490916F04813DE7E09E07A3
:1036E00008F0C9C010926F0410926E048091050119
:1036F0008091700490917104813DF7E09F0708F07C
:1037000098C010927104109270048091050180910C
:10371000720490917304813D27E0920708F067C01E
:1037200010927304109272048091050180917404C8
:1037300090917504813D37E09307B8F510927504B8
:103740001092740480910501809176049091770421
:10375000813D47E0940738F4109277041092760484
:103760008091050101CA9C01205D3740A3E8BDE2BC
:103770000E94121D96958795929582958F70892744
:103780009F70892790937704809376042091050198
:1037900030E02817390708F0E7C98091050190E06B
:1037A0009093770480937604DFC99C01205D3740B5
:1037B000A3E8BDE20E94121D969587959295829589
:1037C0008F7089279F708927909375048093740464
:1037D0002091050130E02817390708F0B5CF809116
:1037E000050190E09093750480937404ADCF9C0123
:1037F000205D3740A3E8BDE20E94121D9695879593
:10380000929582958F7089279F7089279093730472
:10381000809372042091050130E02817390708F0E1
:1038200085CF8091050190E090937304809372049A
:103830007DCF9C01205D3740A3E8BDE20E94121DB0
:1038400096958795929582958F7089279F70892785
:1038500090937104809370042091050130E0281743
:10386000390708F054CF8091050190E090937104DE
:10387000809370044CCF9C01205D3740A3E8BDE2EB
:103880000E94121D96958795929582958F70892733
:103890009F70892790936F0480936E042091050197
:1038A00030E02817390708F023CF8091050190E018
:1038B00090936F0480936E041BCF9C01205D374072
:1038C000A3E8BDE20E94121D969587959295829578
:1038D0008F7089279F70892790936D0480936C0463
:1038E0002091050130E02817390708F0F2CE8091C9
:1038F000050190E090936D0480936C04EACE9C01E6
:10390000205D3740A3E8BDE20E94121D9695879581
:10391000929582958F7089279F70892790936B0469
:1039200080936A042091050130E02817390708F0D8
:10393000C1CE8091050190E090936B0480936A045E
:10394000B9CE9301205D3740A3E8BDE20E94121D6D
:1039500096958795929582958F7089279F70892774
:1039600090936904809368042091050130E0281742
:10397000390708F090CE8091050190E0909369049A
:103980008093680488CE80E090E02BC9C12CD12CB4
:103990001DC980E090E004C9809168049091690499
:1039A00007CA0E9407120C94A1126092D502C4CCDF
:1039B000991B79E004C0991F961708F0961B881F81
:1039C0007A95C9F780950895AA1BBB1B51E107C0E2
:1039D000AA1FBB1FA617B70710F0A61BB70B881F9F
:1039E000991F5A95A9F780959095BC01CD0108952E
:1039F00097FB072E16F4009407D077FD09D00E949C
:103A0000E41C07FC05D03EF4909581959F4F0895E6
:103A1000709561957F4F0895EE0FFF1F0590F4910B
:103A2000E02D0994A29FB001B39FC001A39F700D28
:103A3000811D1124911DB29F700D811D1124911DB6
:103A400008955058BB27AA270ED0E0C0D1D030F03F
:103A5000D6D020F031F49F3F11F41EF4C6C00EF40E
:103A6000E095E7FBBCC0E92FE2D080F3BA1762070C
:103A700073078407950718F071F49EF5FAC00EF4E9
:103A8000E0950B2EBA2FA02D0B01B90190010C016E
:103A9000CA01A0011124FF27591B99F0593F50F486
:103AA000503E68F11A16F040A22F232F342F4427DE
:103AB000585FF3CF469537952795A795F0405395D6
:103AC000C9F77EF41F16BA0B620B730B840BBAF0A6
:103AD0009150A1F0FF0FBB1F661F771F881FC2F711
:103AE0000EC0BA0F621F731F841F48F48795779525
:103AF0006795B795F7959E3F08F0B3CF9395880FDC
:103B000008F09927EE0F97958795089598D088F03B
:103B10009F5790F0B92F9927B751A0F0D1F0660FB9
:103B2000771F881F991F1AF0BA95C9F712C0B130D4
:103B300081F09FD0B1E008959CC0672F782F88272F
:103B4000B85F39F0B93FCCF3869577956795B39513
:103B5000D9F73EF490958095709561957F4F8F4F82
:103B60009F4F0895E89409C097FB3EF49095809587
:103B7000709561957F4F8F4F9F4F9923A9F0F92F33
:103B800096E9BB279395F695879577956795B795B1
:103B9000F111F8CFFAF4BB0F11F460FF1BC06F5F97
:103BA0007F4F8F4F9F4F16C0882311F096E911C0A9
:103BB000772321F09EE8872F762F05C0662371F0CA
:103BC00096E8862F70E060E02AF09A95660F771FDE
:103BD000881FDAF7880F9695879597F9089597F9D2
:103BE0009F6780E870E060E008959FEF80EC0895A3
:103BF00000240A94161617061806090608950024CC
:103C00000A9412161306140605060895092E039445
:103C1000000C11F4882352F0BB0F40F4BF2B11F4B9
:103C200060FF04C06F5F7F4F8F4F9F4F089557FD18
:103C30009058440F551F59F05F3F71F04795880F1A
:103C400097FB991F61F09F3F79F0879508951216B1
:103C500013061406551FF2CF4695F1DF08C016165D
:103C600017061806991FF1CF86957105610508940E
:103C70000895E894BB2766277727CB0197F9089525
:103C80000BD0C4CFB5DF28F0BADF18F0952309F0C8
:103C9000A6CFABCF1124EECFCADFA0F3959FD1F30F
:103CA000950F50E0551F629FF001729FBB27F00DEA
:103CB000B11D639FAA27F00DB11DAA1F649F66273F
:103CC000B00DA11D661F829F2227B00DA11D621F8E
:103CD000739FB00DA11D621F839FA00D611D221F48
:103CE000749F3327A00D611D231F849F600D211D2C
:103CF000822F762F6A2F11249F5750408AF0E1F0CF
:103D000088234AF0EE0FFF1FBB1F661F771F881F17
:103D100091505040A9F79E3F510570F060CFAACF57
:103D20005F3FECF3983EDCF3869577956795B79502
:103D3000F795E7959F5FC1F7FE2B880F911D96952C
:103D4000879597F908959F9305D00F9007FCEE5F34
:103D500028C04BCF74DFE8F3E894E0E0BB279F571F
:103D6000F0F02AED3FE049EC06C0EE0FBB0F661FF6
:103D7000771F881F28F0B23A62077307840728F07C
:103D8000B25A620B730B840BE3959A9572F78038E5
:103D900030F49A95BB0F661F771F881FD2F79048A3
:103DA00013C0EF93E0FF06C0A2EA2AED3FE049EC22
:103DB0005FEB59DE2BDF0F90039401FC9058E8E095
:103DC000F1E00EC09F3F31F0915020F48795779538
:103DD0006795B795880F911D9695879597F90895E2
:103DE0009F938F937F936F93FF93EF939B01AC010E
:103DF00047DFEF91FF9105D02F913F914F915F9158
:103E00003FCFDF93CF931F930F93FF92EF92DF92F9
:103E10007B018C01689405C0DA2EEF013DDFFE01C5
:103E2000E894A5912591359145915591AEF3EF0117
:103E30001ADEFE019701A801DA9479F7DF90EF907E
:103E4000FF900F911F91CF91DF9108958F929F92D4
:103E5000AF92BF92CF92DF92EF92FF92CF93DF9318
:103E6000EC01688179818A819B81611571058105E9
:103E7000910521F464E279ED8BE597E02DE133EFD4
:103E800041E050E00E94C71F49015A019B01AC016B
:103E9000A7EAB1E40E94E61F6B017C01ACEEB4EF2F
:103EA000A50194010E94F41FC60ED71EE81EF91E3C
:103EB000F7FE06C081E0C81AD108E10880E8F80AD8
:103EC000C882D982EA82FB82C6019F77DF91CF91B7
:103ED000FF90EF90DF90CF90BF90AF909F908F902A
:103EE00008950E94261F089580E091E00E94261FF9
:103EF0000895A0E0B0E08093000190930101A093A9
:103F00000201B093030108956817790768F4FB0173
:103F1000DC01E40FF51FA40FB51F02C002900E9242
:103F200041505040D8F708950C94BE1FF999FECF28
:103F300092BD81BDF89A992780B50895262FF999E9
:103F4000FECF92BD81BDF89A019700B4021639F0F8
:103F50001FBA20BD0FB6F894FA9AF99A0FBE0895C9
:103F6000262FF999FECF1FBA92BD81BD20BD0FB695
:103F7000F894FA9AF99A0FBE01960895FB01DC01B4
:103F800002C001900D9241505040D8F70895052E7F
:103F900097FB1EF400940E94DE1F57FD07D00E947D
:103FA000F91F07FC03D04EF40C94DE1F509540958A
:103FB000309521953F4F4F4F5F4F089590958095D5
:103FC000709561957F4F8F4F9F4F08950E94121DEE
:103FD000A59F900DB49F900DA49F800D911D11245D
:103FE0000895B7FF0C94E61F0E94E61F821B930BF7
:103FF0000895A1E21A2EAA1BBB1BFD010DC0AA1F2A
:10400000BB1FEE1FFF1FA217B307E407F50720F041
:10401000A21BB30BE40BF50B661F771F881F991FBC
:104020001A9469F760957095809590959B01AC0105
:0A403000BD01CF010895F894FFCF01
:10403A0001000000043F01010101460708FF0000DA
:10404A00FF8000FFFF0000FF0000FFFF0000FF806D
:06405A0000FFFF00000062
:00000001FF
