:100000000C949B030C94B8030C94B8030C94B803A1
:100010000C94B8030C94B8030C94B8030C94B80374
:100020000C94B8030C94B8030C94B8030C942205F8
:100030000C9457100C94B8030C94B8030C94B803A8
:100040000C94B8030C94B8030C94B8030C94B80344
:100050000C94B8030C94B8030C94B8030C94B80334
:100060000C94B8030C94B803881777176A176A17AB
:100070005D175D175D175317531753175317531712
:100080005915441744174417441744174417441785
:1000900044174417371737173717371737173717D6
:1000A00037173717371737173717371737173717E0
:1000B00037176F156F156F156F156F156F156F1556
:1000C0006F156F156F156F156F156F156F156F1510
:1000D0006F156F156F156F156F156F156F156F1500
:1000E0006F156F156F15371AC41A161A2A1A211AA6
:1000F000D2199319FC19F219EC19DF190E1A061A04
:1001000042199C18C5173F1A05A84CCDB2D44EB958
:100110003836A9020C50B9918688083CA6AAAA2AAA
:10012000BE000000803F0000000000000000000052
:1001300000000000000000000000000000010101BC
:10014000010101010101010101010102020202029A
:100150000202020303030303040404040505050566
:100160000606060707080809090A0A0B0B0C0D0DFD
:100170000E0F1011121314151617181A1B1D1F201D
:10018000222426282A2D2F3235383B3E4245494D20
:1001900052565B60666B71777E858D949DA5AFB876
:1001A000C3CED9E5F2FF000000000000000000000F
:1001B0000000000101010101020202020303030425
:1001C000040505060708090A0B0C0D0F1113151776
:1001D0001A1D2024282D32383E454D56606B7785F8
:1001E00094A5B8CEE5FF000014005000B400400113
:1001F000F301CD02CD03F3043D06AD073F09F40A38
:10020000C90CBF0ED41007135515BE17411ADB1CBD
:100210008B1F502227250F28062B0A2E1931323426
:100220005237773AA03DCB40F5431C473F4A5C4DDF
:1002300070507A5378566759475C155FCF61756483
:1002400003677969D66B166E3A703F722674EB7548
:100250008F770F796D7AA57BB87CA57D6C7E0B7F3F
:10026000837FD37FFB7FFB7FD37F837F0B7F6C7E7E
:10027000A57DB87CA57B6D7A0F798F77EB75267499
:100280003F723A70166ED66B796903677564CF61F9
:10029000155F475C675978567A5370505C4D3F4AFA
:1002A0001C47F543CB40A03D773A523732341931E1
:1002B0000A2E062B0F28272550228B1FDB1C411AE4
:1002C000BE1755150713D410BF0EC90CF40A3F0909
:1002D000AD073D06F304CD03CD02F3014001B400A8
:1002E0005000140000000001010202020203030397
:1002F00003030304040404040404040505050505BC
:100300000505050505060606060606060606060692
:10031000060707070707070707070707070707086D
:10032000080808080808080808080808080808094C
:10033000090909090909090909090909090909092D
:10034000090A0A0A0A0A0A0A0A0A0A0A0A0A0A0A0E
:100350000A0A0A0A0A0B0B0B0B0B0B0B0B0B0B0BF2
:100360000B0B0B0B0B0B0B0B0B0B0B0C0C0C0C0CD8
:100370000C0C0C0C0C0C0C0C0C0C0C0C0C0C0C0CBD
:100380000C0C0C0D0D0D0D0D0D0D0D0D0D0D0D0DA0
:100390000D0D0D0D0D0D0D0D0D0D0D0D0D0E0E0E8A
:1003A0000E0E0E0E0E0E0E0E0E0E0E0E0E0E0E0E6D
:1003B0000E0E0E0E0E0E0E0E0E0F0F0F0F0F0F0F56
:1003C0000F0F0F0F0F0F0F0F0F0F0F0F0F0F0F0F3D
:1003D0000F0F0F0F0F0F0F10101010101010101024
:1003E0001010101010100006080A0B0D0E0F10113F
:1003F00012131414151617171819191A1B1B1C1C85
:100400001D1D1E1E1F1F20202121222223232424E4
:100410002525262626272728282829292A2A2A2B5F
:100420002B2B2C2C2D2D2D2E2E2E2F2F2F303030F0
:10043000313131323232333333343434343535358B
:1004400036363637373737383838393939393A3A2E
:100450003A3B3B3B3B3C3C3C3C3D3D3D3D3E3E3ED8
:100460003E3F3F3F3F40000B101417191C1E202237
:10047000242627292A2C2D2F30313334353637398D
:100480003A3B3C3D3E3F4041424344454647484855
:10049000494A4B4C4D4E4E4F505152525354555564
:1004A00056575858595A5B5B5C5D5D5E5F5F606193
:1004B000616263636465656666676868696A6A6BDA
:1004C0006B6C6D6D6E6E6F6F707171727273737431
:1004D000747576767777787879797A7A7B7B7C7C95
:1004E0007D7D7E7E7F7F0010171C2024272A2D30E3
:1004F0003335373A3C3E4042444648494B4D4E50D6
:100500005253555658595B5C5D5F60616364656624
:1005100068696A6B6D6E6F707172737476777879D3
:100520007A7B7C7D7E7F80818283848586878889B3
:100530008A8B8B8C8D8E8F909192939494959697B5
:100540009899999A9B9C9D9E9E9FA0A1A2A2A3A4CC
:10055000A5A6A6A7A8A9A9AAABACACADAEAFAFB0F3
:10056000B1B1B2B3B4B4B5B6B6B7B8B9B9BABBBB2A
:10057000BCBDBDBEBFBFC0C1C1C2C3C3C4C5C5C66B
:10058000C7C7C8C8C9CACACBCCCCCDCECECFCFD0B6
:10059000D1D1D2D2D3D4D4D5D5D6D7D7D8D8D9DA09
:1005A000DADBDBDCDDDDDEDEDFDFE0E1E1E2E2E362
:1005B000E3E4E5E5E6E6E7E7E8E8E9EAEAEBEBECC1
:1005C000ECEDEDEEEEEFEFF0F1F1F2F2F3F3F4F427
:1005D000F5F5F6F6F7F7F8F8F9F9FAFAFBFBFCFC93
:1005E000FDFDFEFEFFFF7007780F74177C1F72275A
:1005F0007A2F76377E3F7147794F75577D5F7367E6
:100600007B6F6003680B64136C1B62236A2B663379
:100610006E3B6143694B65536D5B5005580D541536
:100620005C1D52255A2D56355E3D5145594D4001B0
:10063000480944114C1942214A2946314E393006A5
:10064000380E34163C1E32263A2E2002280A241276
:100650002C1A1004180C4276FC30825A825AFC3054
:1006600042768A7DF9184276FC306E6A1D47825ABE
:10067000825A1D476E6AFC304276F9188A7D627F85
:100680008C0C8A7DF9187D7A28254276FC30E3703F
:10069000573C6E6A1D47F2623451825A825A345175
:1006A000F2621D476E6A573CE370FC3042762825A3
:1006B0007D7AF9188A7D8C0C627FD97F4806627F2B
:1006C0008C0C9D7EC8128A7DF9182A7C1A1F7D7AAF
:1006D000282585781F2B4276FC30B673BA36E37036
:1006E000573CCA6DCE416E6A1D47D066404CF262DF
:1006F0003451D75EF655825A825AF655D75E345138
:10070000F262404CD0661D476E6ACE41CA6D573CBE
:10071000E370BA36B673FC3042761F2B85782825F5
:100720007D7A1A1F2A7CF9188A7DC8129D7E8C0C4E
:10073000627F4806D97F11241FBECFEFD8E0DEBF0D
:10074000CDBF11E0A0E0B1E0E2EFF0E402C005901F
:100750000D92A632B107D9F726E0A6E2B1E001C0BA
:100760001D92A931B207E1F70E944D120C94772037
:100770000C9400002F923F924F925F926F927F9263
:100780008F929F92AF92BF92CF92DF92EF92FF92A1
:100790000F931F93CF93DF93EC017B01FA018080CD
:1007A000912C80E091E0B4010E94EC1C6B018881E7
:1007B0000E94CC1C282F30E041E0841A91082815B3
:1007C000390509F408C18F5F082F10E03901660C64
:1007D000771CD301A20FB31FAE0FBF1F11963C9021
:1007E000832C912CA92EB12CDD242801440C551CFE
:1007F000D201A00FB11FAE0FBF1F11964C9150E058
:10080000481959094A9DC0014B9D900D5A9D900D64
:100810001124B6010E94EC1C860E971E97FCDEC0C8
:100820008FEF8816910411F00CF0CCC0630D2224D8
:100830002A94312C261A3108D301A20FB31FAE0F10
:10084000BF1F12967C90872C912CD201A00FB11F54
:10085000AE0FBF1F12964C9150E048195909A49E43
:10086000C001A59E900DB49E900D1124B6010E946A
:10087000EC1C860E971E4FEF8416910411F00CF0BD
:10088000A4C0760E88248A94912C871891082F5F33
:100890003F4FD901AA0FBB1FA20FB31FAE0FBF1F3F
:1008A0007C90272D30E00F5F1F4FD801AA0FBB1F90
:1008B000A00FB11FAE0FBF1F4C9150E0421B530B56
:1008C000A49EC001A59E900DB49E900D1124B6016A
:1008D0000E94EC1C260F371F2F3F310511F00CF042
:1008E00077C0760EEFEFF0E0E719F109498150E0AB
:1008F000249E9001259E300D349E300D1124A1E8D8
:10090000B0E80E94061D880F892F881F990B9195CA
:10091000082F0095849E9001859E300D949E300D89
:1009200011240E94061D880F892F881F990B91950D
:10093000182F1095E49F9001E59F300DF49F300D26
:1009400011240E94061D880F892F881F990B9195ED
:10095000482F40952A81029F900111240E94061D74
:10096000880F892F881F990B9195F70180832A8121
:10097000129F900111240E94061D880F892F881F45
:10098000990B919581832A81429F900111240E94A5
:10099000061D880F892F881F990B91958283DF91FF
:1009A000CF911F910F91FF90EF90DF90CF90BF906C
:1009B000AF909F908F907F906F905F904F903F90FF
:1009C0002F900895212C312C37CF812C912C5FCF83
:1009D000E0E0F0E08BCF00E010E0F8CE22242A9493
:1009E000312C2ACF9B01220F331F260F371F3C9A31
:1009F00048B14F7E58B150616FB7F8942115310559
:100A0000C9F0FC01820F931F219138E058B9000012
:100A100000C000C027FF48B9220F000000C000C07E
:100A200000C000C048B9000000C03A9579F7E81747
:100A3000F90751F76FBF89EF90E00197F1F700C018
:100A4000000008951F920F920FB60F921124AF92DB
:100A5000BF92CF92DF92EF92FF920F931F932F934B
:100A60003F934F935F936F937F938F939F93AF9336
:100A7000BF93CF93DF93EF93FF9380918800909182
:100A800089000197909389008093880080914601A6
:100A9000882329F0809146018150809346018091FE
:100AA0004601811115C0809148019091490101963C
:100AB00090934901809348018091480190914901A8
:100AC0008F3F910511F008F0F6C089E08093460150
:100AD00080910401882319F1815080930401809151
:100AE0000601813009F4ECC0FF91EF91DF91CF91C5
:100AF000BF91AF919F918F917F916F915F914F9136
:100B00003F912F911F910F91FF90EF90DF90CF9029
:100B1000BF90AF900F900FBE0F901F90189584E07C
:100B200080930401809107018F30C8F080915101BA
:100B3000811115C080913D01811104C6809145014C
:100B4000893428F08091450181508093450184E0EB
:100B500080933D0180910701813109F431C6189BD2
:100B600005C0309B03C0199910923C0118990DC023
:100B7000309B0BC0199B09C090913B019B3428F41A
:100B800081E080933A0180933C01189B0EC030991C
:100B90000CC0199B0AC090913B019B3430F482E059
:100BA00080933A0181E080933C0118990EC03099FE
:100BB0000CC0199B0AC090913B019B3430F483E038
:100BC00080933A0181E080933C01189963C0809141
:100BD0003A0190913C01811157C1913009F41AC436
:100BE00010923B0180913501813009F408C4809155
:100BF0004A01813009F401C580913C01813009F43A
:100C0000FAC42A9880914B01882309F478C0809116
:100C100032018F5F80933201873309F470C1809174
:100C20004B01813009F45EC1823029F48091310199
:100C3000883209F45CC180913001813009F061C0D3
:100C400080915101813009F492C5809142019091C7
:100C500043010E94D51F8091070180932F0190913D
:100C60000701981310C0CEE0D0E00E94D01FBE0153
:100C70000E94EC1C8F5F8093070180910701909187
:100C80002F01981791F31092510110923801109290
:100C9000300137C0309B9BCF199999CF90913B0180
:100CA0009B3408F094CF84E080933A0181E08093F4
:100CB0003C0184E0B1C3109249011092480105CF74
:100CC00080910B01863009F417C508F404C1873000
:100CD00009F40EC5883019F42B9A2C9A2D9A80911C
:100CE0000901823009F495C4833009F496C4813037
:100CF00019F4419A4298439810920601F5CE109249
:100D000031018091C804813009F458C31092380130
:100D100080913901813009F40CC48091080181303F
:100D200009F4A2C380910801823009F4D4C28091F1
:100D30000801833009F446C080910801873009F426
:100D400041C0809108018830E9F180910801843028
:100D500009F492C280910801853009F443C2809160
:100D60000801863009F4EEC180910801893009F448
:100D70006FC1809108018A3009F40DC1809108018A
:100D80008B3009F4C4C0809108018C3009F0A7CEE3
:100D900080915101813009F0A2CE80912B018931DF
:100DA00018F48F5F80932B01E4E5F1E0DF011197E8
:100DB0008C9311978C938083339623E0E430F20771
:100DC000A9F78DCE80915101813009F0BECF80917D
:100DD00037018F5F80933701813009F4AFC780916D
:100DE0002901813009F0B1CF8091410181110C942A
:100DF000380F80912B018093B70480912E0180934E
:100E0000270408E913E078E2E72E74E0F72EC4E542
:100E1000D1E0DD24DA9412C0209102039091030303
:100E200080910403FE01319720833197908388835A
:100E30002396F4E008321F0709F430C7D8018D91DA
:100E40008D0180930503D0920603F70181917F0104
:100E5000809307034CE051E062E073E085E093E0AB
:100E60000E94BA0380913E01813009F40CC78230A0
:100E700099F690910203209103032093020390932B
:100E8000030380910403CECF9111A7CE90913B0133
:100E90009111A6CE813009F445C5823009F4C4C74A
:100EA000843009F09DCE80914B018F5F80934B0180
:100EB00080914B01833010F010924B0180914B01D7
:100EC00081110C94B00F10924A0181E080930601C9
:100ED00010923A0185CE853009F001CF2B982C98DD
:100EE0002D9AFDCE80913101843109F0A4CE10926B
:100EF00031011092320181E080933001A1CE8091C6
:100F000031018F5F809331011092320188CE809140
:100F10005101813009F037CF80912B01823318F4D1
:100F20008F5F80932B01C4E5D1E010E00FEF13C079
:100F3000209102039091030380910403FE013197F5
:100F400020833197908388831F5F2396103909F49B
:100F50001ACF80912B011093050300930603809311
:100F600007034CE051E062E073E085E093E00E940B
:100F7000BA0380913E01813009F406C58230C1F682
:100F800090910203209103032093020390930303A3
:100F900080910403D3CF80915101813009F0EECECE
:100FA000209137012F5F2093370186E08093440121
:100FB00080E990E090934E0180934D01213009F437
:100FC00090C780912901813009F0D8CE0E94D01FAE
:100FD00060E970E00E94EC1C80932A010E94D01FFF
:100FE000209148013091490168E770E00E94EC1CB3
:100FF000280F209305038FEF809306038093070348
:101000004CE051E062E073E085E093E00E94BA03B7
:1010100080913E01813011F40C944B10823011F418
:101020000C943F104091020330910303209104037C
:1010300080912A0190E0FC01EE0FFF1FE80FF91FDD
:10104000EE5AFE4F4183308322831092290196CEBF
:1010500080915101813009F08CCE209137012F5FB2
:101060002093370186E08093440180E990E09093DB
:101070004E0180934D01213009F43DC78091290133
:10108000813009F076CEEBEFF5E06CEF75E0AFEF75
:10109000B5E00FEFFF24F39436C0E5010983ED01BD
:1010A0002197E880E901C80FD91FCE5ADE4FD880BA
:1010B0004E2D50E04D0D511D4F3F51050CF4D0C544
:1010C0000883E901C80FD91FCE5ADE4F2A813C910F
:1010D000832F90E0820F911D8F3F91050CF4BDC5C9
:1010E0000A83EB0188818111C8C5112309F4BAC6AE
:1010F0001150108335966B5F7F4F1596D6E0E9311E
:10110000FD0709F4EAC61081812F90E09C01220FAF
:10111000331F5901A80EB91EE501CE5ADE4F5E01FC
:10112000E980AD0142505109EA01D8804D2D50E0CF
:101130004E0D511D4F3F51050CF0AFCFED0CE501A9
:10114000E982ADCF80915101813009F00DCE58E296
:10115000E52E54E0F52EC4E5D1E08701DD24DA94D4
:1011600012C0209102039091030380910403FE01B9
:10117000319720833197908388832396B4E0083B8E
:101180001B0709F417C48091480190914901902FE1
:101190009E19980F90930503D0920603D801ED9104
:1011A0008D01F0E0EA5DFE4F8591949180930703F5
:1011B0004CE051E062E073E085E093E00E94BA0306
:1011C00080913E01813009F4EAC3823051F690915A
:1011D0000203209103032093020390930303809161
:1011E0000403C5CF80915101813009F0B8CD08E2E8
:1011F00014E0C4E5D1E0FF24FA9412C02091020368
:101200009091030380910403FE013197208331976D
:10121000908388832396B4E0083B1B0709F4F1C44C
:10122000809148019091490180930503F092060353
:10123000D801ED918D01F0E0EA5DFE4F859194912A
:10124000809307034CE051E062E073E085E093E0B7
:101250000E94BA0380913E01813009F48AC3823032
:1012600069F6909102032091030320930203909367
:10127000030380910403C8CF80915101813009F0AC
:1012800069CD209137012F5F2093370180ED97E0E2
:1012900090934E0180934D01213009F419C680913D
:1012A0002901813009F056CD0E94D01F60E970E01D
:1012B0000E94EC1C809326019927FC01EE0FFF1F72
:1012C000E80FF91FEE5AFE4F8FEF818380838283F0
:1012D000109229013FCD80915101813009F027CD35
:1012E000209137012F5F2093370188E490E090939D
:1012F0004E0180934D01213009F4F8C580912901F8
:10130000813009F014CD80912C0190912D018F38FE
:1013100091050CF066C69FE8981B90932A01809176
:10132000480190914901809305038FEF8093060354
:10133000809307034CE051E062E073E085E093E0C6
:101340000E94BA0380913E01813009F48AC682303E
:1013500009F46EC6609102035091030340910403A7
:1013600020912A0130E0F901EE0FFF1FE20FF31F79
:10137000EE5AFE4F6183508342838FE890E0821BD8
:10138000930BFC01EE0FFF1FE80FF91FEE5AFE4F03
:1013900061835083428380912C0190912D010196AD
:1013A00090932D0180932C018D31914024F0109267
:1013B0002D0110922C0110922901B9CC809151017C
:1013C0008111A4CC809137018F5F80933701909178
:1013D0000801992309F4BCC1823309F4BCC180918E
:1013E0003801833009F094CC81E080935101109250
:1013F000380110923701809339015A9A89CC1092A2
:101400004A0180913401882309F483C1815080937B
:101410003401EDCB90913B019F3530F49F5F909369
:101420003B019B3408F4DECB813009F4C2C4823026
:1014300009F464C5833009F4ACC4843009F0D2CB1C
:1014400080913E018F5F80933E01833009F4E2C5B5
:1014500088E08093360181E08093350110923A0153
:101460002B982C982D98BECB80915101813009F09A
:1014700059CC209137012F5F2093370180E990E00C
:1014800090934E0180934D01213009F41CC5809149
:101490002901813009F046CC80912C0190912D01D9
:1014A0008F3891050CF0A0C59FE8981B90932A01F6
:1014B0008091480190914901809305038FEF8093BB
:1014C0000603809307034CE051E062E073E085E09F
:1014D00093E00E94BA0380913E01813009F4B6C5C1
:1014E000823009F49AC540910203309103032091A0
:1014F000040380912A0190E0FC01EE0FFF1FE80F2A
:10150000F91FEE5AFE4F41833083228380912C01D4
:1015100090912D01019690932D0180932C018D3196
:10152000914024F010922D0110922C01109229016B
:10153000F9CBE4E5F1E0DF0111971C9211971C92C1
:1015400010823396D3E0E430FD07A9F708E913E0F1
:1015500080E9F801282F11922A95E9F798E2E92EFF
:1015600094E0F92ED7011D928A95E9F78091420106
:10157000909143010E94D51F0E94D01F6FEF70E031
:101580000E94EC1C80932E018FE890E090932D0137
:1015900080932C0110922B0110922A011092370196
:1015A000109229011092400110923F018091410157
:1015B0008111ACC081E080934101809108018330AA
:1015C00081F180910801873061F1809108018830B4
:1015D00041F180910801853009F4DCC28091080155
:1015E000863009F4A0C280910801893009F407C24D
:1015F0001092390192CB2A9A05CB2B982C982D98D2
:1016000090913301992309F47BC091509093330159
:10161000F3CA4198429A43986FCB41984298439AB3
:101620006BCB8FEF80932B010E94D01F6FEF70E088
:101630000E94EC1C80932E0110922A0110922D0121
:1016400010922C0180932801682F20E030E0CFEF2A
:10165000D0E070E0482F50E0FB017D974E175F0708
:101660000CF1635E7F4F6417750734F41BC0435E53
:101670005F4F4217530794F00E94D01FBE010E9493
:10168000EC1C8093280140912E0150E09C013327EF
:10169000BA016D517109261737074CF720912C01BB
:1016A00030912D01F901E753FB4F808380932E0188
:1016B0002F5F3F4F30932D0120932C0122333105B2
:1016C00014F4682FC6CF1092280180910801883049
:1016D00009F439C384E28093270180E9E701E82F08
:1016E0001992EA95E9F7D8011D928A95E9F771CF29
:1016F0002B9A2C982D98F3CA2B982C9A2D98EFCAD8
:101700009EE1909333018093060176CA10924101C5
:1017100054CF2B9928C02B9A2C9A2D9A81E0809334
:10172000340180913601811191C281E080930601DC
:101730001092350190914B01992309F458CA809376
:101740004A0155CA815080933D01811108CAF6C9EA
:10175000883009F044CE809138018F5F8093380142
:10176000109237013ECE2B982C982D98D7CF809190
:101770000801882309F4C5CA809142019091430170
:101780000E94D51F8091080180932F01909108013C
:10179000981310C0CAE0D0E00E94D01FBE010E9482
:1017A000EC1C8F5F809308018091080190912F01BC
:1017B000981791F381E08093390110923001A1CA0A
:1017C00081E080933D01809148019091490180938F
:1017D00005038FEF809306038DEC809307038091C0
:1017E00045016091020390E0FC01EE0FFF1FE80F3E
:1017F000F91FEE5AFE4F618380914501509103031A
:1018000090E0FC01EE0FFF1FE80FF91FEE5AFE4FAC
:101810005083809145014091040390E0FC01EE0F5C
:10182000FF1FE80FF91FEE5AFE4F4283209145013A
:101830008FE890E0DC01A21BB109FD01EE0FFF1F54
:10184000EA0FFB1FEE5AFE4F618320914501EC0128
:10185000C21BD109FE01EE0FFF1FEC0FFD1FEE5A58
:10186000FE4F508320914501FC01E21BF1099F01CD
:10187000EE0FFF1FE20FF31FEE5AFE4F428320913F
:101880004501293408F46BC920914501215020936A
:1018900045012091450130E0F901EE0FFF1FE20FF5
:1018A000F31FEE5AFE4F61832091450130E0F901AC
:1018B000EE0FFF1FE20FF31FEE5AFE4F50832091F1
:1018C000450130E0F901EE0FFF1FE20FF31FEE5A62
:1018D000FE4F428320914501DC01A21BB109FD01AD
:1018E000EE0FFF1FEA0FFB1FEE5AFE4F61832091A0
:1018F0004501EC01C21BD1099E01FE01EE0FFF1F45
:10190000E20FF31FEE5AFE4F508320914501821BD8
:101910009109FC01EE0FFF1FE80FF91FEE5AFE4F71
:1019200042831DC91092500110924F0180910B010A
:10193000882329F080910B01815080930B018091C5
:101940000B01843009F462C38091510181110BC0F5
:1019500090910A0180910B01989FC00111249093EE
:101960004E0180934D0181E08093060110923A016F
:1019700037C99091040380910303809304039093EB
:1019800003032091020340CC909104038091030350
:10199000809304039093030320910203CFCA909194
:1019A0000403809103038093040390930303209125
:1019B0000203DDCB809141018111C9C180912804CE
:1019C000809340018091980380933F014FE850E05D
:1019D00069E274E088E294E00E94E01F4FE850E082
:1019E00069E973E088E993E00E94E01F809140017B
:1019F0008093B70480913F0180932704B5C90FEF0E
:101A000015E0DCEFED2ED5E0FD2ECC24C394CFEF16
:101A1000D0E0DD24DA9480912A018E5E80932A0141
:101A2000F8013497808380914101811161C0D70111
:101A30001C92C09241010E94D01FBE010E94EC1C6A
:101A40008093280140912E0150E09C013327BA0178
:101A50006252710926173707ECF04E5D5F4F42174F
:101A6000530734F417C04E5D5F4F4217530794F08D
:101A70000E94D01FBE010E94EC1C8093280140915F
:101A80002E0150E09C013327BA01625271092617DA
:101A900037074CF780932E0180930503D0920603FD
:101AA000D09207034CE051E062E073E085E093E000
:101AB0000E94BA0380913E01813051F18230E9F0F9
:101AC000209102039091030380910403F80132975F
:101AD000208331969083D8018C930B5F1F4FB5E024
:101AE000EB0EF11CE6E00D311E0709F094CF80CD1E
:101AF000F701C082109241019ECF90910203209184
:101B00000303209302039093030380910403DECF29
:101B10009091040380910303809304039093030343
:101B200020910203D3CFC8E2D4E060E070E0CB01A3
:101B300017C0BE0168527440882777FD8095982FA2
:101B40000E94101E2BED3FE049EC50E40E949C1EC9
:101B500020E030E040E952E40E947A1D0E94FF1E1E
:101B600020E030E040E85FE30E94161D20E030E016
:101B700048EC51E40E949C1E20E030E046E952E42B
:101B80000E94161D0E94E21D6993E4E0C83BDE0737
:101B900081F629CDC8E2D4E060E070E0CB0117C047
:101BA000BE0168527440882777FD8095982F0E9467
:101BB000101E2BED3FE049EC50E40E949C1E20E0FB
:101BC00030E040E153E40E947A1D0E94FF1E20E0B5
:101BD00030E040E85FE30E94161D20E030E048EC72
:101BE00051E40E949C1E20E030E046E952E40E944D
:101BF000161D0E94E21D6993B4E0C83BDB0781F625
:101C0000EDCC809141018111EDC080912804809339
:101C100040018091980380933F014FE850E069E2D2
:101C200074E088E294E00E94E01F4FE850E069E928
:101C300073E088E993E00E94E01F80914001809367
:101C4000B70480913F018093270489C88150809315
:101C5000360181110C94F70568CD230F2A8341CA00
:101C6000412F50E0EA01CC0FDD1FC40FD51FCE5A23
:101C7000DE4F48814E0D488324CA1F3808F0ECC05F
:101C80001F5F108337CA90910403809103038093F0
:101C900004039093030320910203C4C880910801B8
:101CA000833009F47FC14091270180910801883079
:101CB00009F45BC180912A018F5F80932A01481744
:101CC000A8F410922A018FEF80932B0180912801B4
:101CD000E82FF0E0E753FB4F908190932E018F5F48
:101CE00080932801823310F01092280180914101E5
:101CF0008111C8C08091280480934001809198038D
:101D000080933F014FE850E069E274E088E294E09C
:101D10000E94E01F4FE850E069E973E088E993E032
:101D20000E94E01F809140018093B70480913F01A1
:101D300080932704109229010C94A5068093290111
:101D40001092370151C882E180932701C6CC80915F
:101D5000B704809340018091270480933F014FE8AE
:101D600050E068E274E089E294E00E94E01F4FE8EE
:101D700050E068E973E089E993E00E94E01F8091F8
:101D800040018093280480913F01809398030C9434
:101D9000B4068EE18093360181E080933501109284
:101DA0003A012B982C982D9810924C0180913A0171
:101DB00044CB909109019F5F909309019091090193
:101DC000943010F08093090188E08093360181E01F
:101DD0008093350110923A012B982C982D98809180
:101DE0003A0125CB8091B70480934001809127046C
:101DF00080933F014FE850E068E274E089E294E0AC
:101E00000E94E01F4FE850E068E973E089E993E041
:101E10000E94E01F809140018093280480913F013F
:101E2000809398030C94AF0680915101813009F49E
:101E3000DEC0809107018F5F8093070180910701C9
:101E4000823118F081E080930701109251011092C5
:101E500038011092370187CDEB01188280818150C3
:101E6000808348C9EB01F88280818F5F808342C9FB
:101E700080912B018093280480912E0180939803F8
:101E80000C9401078091B70480934001809127044E
:101E900080933F014FE850E068E274E089E294E00B
:101EA0000E94E01F4FE850E068E973E089E993E0A1
:101EB0000E94E01F809140018093280480913F019F
:101EC0008093980337CF2093290110923701E4CAF9
:101ED0002093290110923701E7C9109229010C942F
:101EE000B906209329011092370170C82093290167
:101EF0001092370108CA10923701C5C860910B01D2
:101F000086E090E00E94FA1F6091090185E090E070
:101F10000E94FA1F6091080184E090E00E94FA1F7D
:101F20006091070183E090E00E94FA1F60914B01ED
:101F300081E090E00E94FA1F60913E0180E090E015
:101F40000E94FA1F88E08093360181E0809335017A
:101F500010923A012B982C982D9880913A016ACAD8
:101F600081E080934A010C94680710912B01E42FC3
:101F7000F0E0C12FD0E0BF01655071092FEF30E0D4
:101F8000C9010E94EC1CC617D7070CF45CC065E0C1
:101F900070E06E1B7F0BC9010E94EC1C160F1093A2
:101FA0002B0188CE10912B0140912701E42FF0E006
:101FB000C12FD0E0BF01655071092FEF30E0C9019A
:101FC0000E94EC1CC617D7070CF456C065E070E001
:101FD0006E1B7F0BC9010E94EC1C160F10932B0186
:101FE00064CE91E7980F99C991E7980F5FCA8091E5
:101FF00008018F5F80930801809108018D3010F0F7
:102000001092080181E080933901ADCC88E0809383
:102010000B019ACC10923E011BCA309102034091F1
:10202000030340930203309303032091040361CA26
:1020300050910203609103036093020350930303E2
:10204000409104038DC910922B0134CE30910403CA
:102050002091030320930403309303034091020370
:1020600048CA5091040340910303409304035093E2
:1020700003036091020374C910922B0116CE3091B4
:102080000203409103034093020330930303209122
:1020900004030C9418083091040320910303209347
:1020A000040330930303409102030C9418081F9219
:1020B0000F920FB60F9211242F933F934F935F937C
:1020C0006F937F938F939F93AF93BF93CF93DF9340
:1020D000EF93FF9380918A0090918B0081509F4FE6
:1020E00090938B0080938A008091510120914F0141
:1020F000309150018111A8C080914D0190914E0105
:102100002817390708F46CC080911003811109C0A9
:1021100080910803882329F08091080381508093DF
:10212000080380911103811109C08091090388235C
:1021300029F0809109038150809309038091120353
:10214000811109C080910A03882329F080910A0334
:10215000815080930A0380911303811109C08091FB
:102160000B03882329F080910B03815080930B038C
:1021700080911403811109C080910C03882329F0F8
:1021800080910C03815080930C0380911503811181
:1021900009C080910D03882329F080910D0381509F
:1021A00080930D0380911603811109C080910E0365
:1021B000882329F080910E03815080930E03809133
:1021C0001703811109C080910F03882329F08091A2
:1021D0000F03815080930F031092500110924F0112
:1021E000809107018F3008F054C080914F01909189
:1021F000500101969093500180934F0180914201CC
:102200009091430101969093430180934201809104
:10221000420190914301019621F4109243011092E2
:102220004201FF91EF91DF91CF91BF91AF919F91CB
:102230008F917F916F915F914F913F912F910F906F
:102240000FBE0F901F90189580914D0190914E01F7
:102250002817390750F280910801813009F45FC0D6
:1022600080910801823009F45AC0809108018930B8
:1022700009F47FC0809108018A3009F47AC0809106
:102280000801843009F4ADC01092500110924F0142
:10229000ACCF80910701823108F0A7CF80E090E0B9
:1022A0004FE850E026C030914401231B11962C9337
:1022B000DF01A80FB91FAE5ABE4F2C9130914401D7
:1022C000231708F44BC030914401231B2C93E80FD3
:1022D000F91FEE5AFE4F2281309144012317E0F19D
:1022E00030914401231B228301968039910509F422
:1022F0007CCF20914501281799F1FC01EE0FFF1FBB
:10230000DF01A80FB91FAE5ABE4F11962C9111973D
:1023100030914401231738F611961C92C9CFC3E5BA
:10232000D1E0A2E5B1E0E4E5F1E08881882311F095
:10233000815088838C91882311F081508C93808107
:10234000882311F08150808323961396339673E08F
:10235000E430F70751F789CF1282C6CF1C92B7CF6E
:1023600020914501BA01621B71098617970729F66A
:10237000BBCFC3E5D1E0A2E5B1E0E4E5F1E01EC0EA
:1023800090914401891B88838C9190914401981706
:1023900000F590914401891B8C93808190914401B8
:1023A0009817E8F490914401891B80832396139633
:1023B000339683E0E430F80709F461CF8881909187
:1023C00044019817E8F218828C9190914401981773
:1023D00000F31C92808190914401981718F31082A9
:1023E000E5CFE4E5F1E0DF0111971C9211971C9213
:1023F0001082339623E0E430F207A9F745CF67E077
:1024000086E090E00E940C2061E085E090E00E9470
:102410000C2061E084E090E00E940C2061E083E009
:1024200090E00E940C2060E081E090E00E940C208F
:1024300060E080E090E00E940C206BE082E090E0A1
:102440000E940C2082E090E00E94F21F80934C01D9
:1024500086E090E00E94F21F80930B0185E090E0FF
:102460000E94F21F8093090184E090E00E94F21F15
:102470008093080183E090E00E94F21F809307019F
:1024800081E090E00E94F21F80934B0180E090E099
:102490000E94F21F80933E010895CF93DF93CDB742
:1024A000DEB729970FB6F894DEBF0FBECDBF81E02F
:1024B0008093810080916F00866080936F00289ADE
:1024C000299A409A5A98229A8CE384B98EE187B966
:1024D000529A82E090E00E94F21F80934C0180911A
:1024E0004C018B3011F00C94C51C86E090E00E94EA
:1024F000F21F80930B0185E090E00E94F21F809311
:10250000090184E090E00E94F21F8093080181E0BD
:1025100090E00E94F21F80934B0183E090E00E94C4
:10252000F21F8093070180E090E00E94F21F8093E9
:102530003E0180914B01882319F081E080934A018C
:1025400081E08093060190910A0180910B01989F90
:10255000C001112490934E0180934D0189E4809332
:10256000450178941A8219822BEF34E03C832B8347
:102570001FE8212E312C80914C01882311F40C94FA
:102580003618AB81BC81E0E0F1E01D923197E9F7AC
:1025900085E680937C002BEF34E03C832B83F901AC
:1025A00026EF20937A0080917A0084FFFCCF8091FF
:1025B00078009091790090588193919335E0EB3FAA
:1025C000F30779F710927A002F923F924F925F9221
:1025D000FF920F931F93CF93DF93CBEFD4E0E6EE00
:1025E000F1E0FF2440E86591759108811981970316
:1025F00020010E034F1C10019E035F08300C411C8C
:102600005F1CF8035F08300C411C5F1C4992599213
:102610004A9549F7DF91CF911F910F91FF905F90FD
:102620004F903F902F9011242F923F926F927F9264
:10263000CF93DF93E6EEF5E048E3A591BB27AA0F21
:10264000BB1FA550BB4F2D903C90C591DD27CC0FF3
:10265000DD1FC550DB4F688079807C926E922882A6
:1026600039824A9551F7DF91CF917F906F903F90DB
:102670002F902F923F924F925F926F927F928F9204
:102680009F92AF92BF92CF92DF92EF92FF920F9301
:102690001F93CF93DF93FF2400E1E02ECBEFD4E034
:1026A000688079804A805B80759467944301559473
:1026B0004794640C751C84189508AC80BD804E80CE
:1026C0005F80B594A794650155944794A40CB51CFC
:1026D000C418D508688579854A845B8475956795A3
:1026E0008B0155944794640D751D041915098C854B
:1026F0009D854E845F84959587959C01559447945C
:10270000840D951D24193509759467942301B5949A
:10271000A7946A0C7B1C4A185B0895948794540113
:10272000D594C7948C0C9D1CAC18BD087595679505
:102730006B0195958795680F791FC81AD90A75940A
:102740006794130175956795660E771E261A370AEA
:1027500042E85AE51503C001049FB00114039F0924
:10276000700D811D9F1D509F700D811D9F1D9594A3
:1027700087948401880E991E081B190B5594479461
:10278000D201D594C7944C0C5D1CAC19BD0935031E
:10279000C001249FB00134039F09700D811D9F1D4E
:1027A000529F700D811D9F1DB594A7946501A80EC1
:1027B000B91EC81AD90A6992799289929992499256
:1027C0005992A992B9922992399209931993A9938E
:1027D000B993C992D992EA9409F062CF00E2C02E6F
:1027E000DD2405E0902EE6E5F6E000E1A02EBB2416
:1027F00004E0E02EABEFB4E0ED01CA0DDB1D8E2C42
:102800002D903C90488059803594279431015594FF
:102810004794640C751C24183508299239927C92CF
:102820006E92AC0DBD1D1197EA94088119813C91FF
:102830002E91459155916591759115022001049F46
:10284000100114035F08300C411C5F1C509F300CBA
:10285000411C5F1C37023001269F200C311C461C96
:10286000571C36035F08300C411C5F1C729F300CF4
:10287000411C5F1C0E01CA19DB0928803980359480
:1028800027943101640C751C2418350868827982FC
:10289000E0012992399217022001069F10011603C8
:1028A0005F08300C411C5F1C709F300C411C5F1C8A
:1028B00035023001249F2018310846085708340398
:1028C0005F1C301841085F08529F301841085F08AC
:1028D0000D01AA19BB092D903C9035942794310124
:1028E000640C751C241835087C926E92D0012D92D0
:1028F0003C921297EA9409F098CFDE01AA19BB091D
:102900002D903C90488059803594279431015594FE
:102910004794640C751C24183508288239827C92EF
:102920006E92C50196958795C80FD91FCB3FD905E3
:1029300040F4DE01CA0DDB1DE82CEA19FB093496D0
:102940005FCF85FC06C0EA2CE6945601CC0CDD1C5A
:1029500051CFDF91CF911F910F91FF90EF90DF90BA
:10296000CF90BF90AF909F908F907F906F905F902F
:102970004F903F902F9011242F923F924F925F9251
:102980006F927F928F92FF920F931F93CF93DF935B
:10299000ABEFB4E0C8E1D3E0EBEFF5E04F01FF248B
:1029A00040E40D911D91980106C0F4010D911D9117
:1029B000329122914F0111022001009F10019803D2
:1029C0005F08300C411C5F1C33023001229F200C39
:1029D000311C461C571CBA035F08300C411C5F1C9D
:1029E0001127552061F018E0F201F03428F5330C7E
:1029F000EE1FFF1F330CEE1FFF1F1A951DC0442052
:102A000069F014E0F42DE32DF034B0F4220CEE1F45
:102A1000FF1F220CEE1FFF1F1A95F6CFF101F034B5
:102A200058F4F03160F4F13078F0F295E295EF70FF
:102A3000EF2BE695F1E008C0EF2FF2E005C0EE0FB6
:102A4000FF1FEF2FE068F1E0EA51FD4F04912227CC
:102A5000112321F0000F221F1A95E1F70993299302
:102A60004A9509F0A2CFDF91CF911F910F91FF906E
:102A70008F907F906F905F904F903F902F90112498
:102A8000612C712C412C512CC12CD12CE12CF12C1E
:102A900000E010E020E030E0812C912CE8E1F3E050
:102AA00041E050E080E090E03F832E83F987E887A3
:102AB00007C04034510549F14F5F5F4FE885F98504
:102AC00021913191F987E887BA01625071096F331A
:102AD000710578F76C5C7F4FFB010C94001D590168
:102AE000A80EB91E60EDA61667E4B60608F01FC270
:102AF000ADECBCEC0E94061D969587959695879542
:102B00008A0D9B1D40345105B9F62E813F8170928C
:102B1000B9046092B8045092BB044092BA04D092B7
:102B2000BD04C092BC04F092BF04E092BE041093B6
:102B3000C1040093C0043093C3042093C204909254
:102B4000C5048092C4049093C7048093C604809106
:102B50005101813009F487C580915101811152C220
:102B600080910901813009F40BC76091090170E07F
:102B700088EC90E00E94EC1CFB018091B8049091DD
:102B8000B904813D57E0950708F4F7C6805D97408A
:102B9000BF010E94D81C8B017093B9046093B804E4
:102BA0008091050190E08617970708F0E3C68091B1
:102BB00005016B01C81AD10809F4DCC68091BA047A
:102BC0009091BB04813D67E0960708F4D0C6805D14
:102BD0009740BF010E94D81C7093BB046093BA0455
:102BE0008091050190E08617970708F037C580911E
:102BF00005019B01281B3109F22E432F2C153D05A1
:102C000010F4FC2C4D2D8091BC049091BD04813DAD
:102C100077E0970708F41FC5805D9740BF010E94C9
:102C2000D81C7093BD046093BC048091050190E0B2
:102C30008617970728F4809105019B01281B31090D
:102C4000CF2CD42EC216D30608F469018091BE049D
:102C50009091BF04813DA7E09A0708F4F9C4805D14
:102C60009740BF010E94D81C7093BF046093BE04BC
:102C70008091050190E08617970728F4809105015F
:102C80009B01281B3109C216D30608F46901809103
:102C9000C0049091C104813DB7E09B0708F4D5C4FE
:102CA000805D9740BF010E94D81C7093C10460935F
:102CB000C0048091050190E08617970728F4809161
:102CC00005019B01281B3109C216D30608F46901CE
:102CD0008091C2049091C304813D47E0940708F4B9
:102CE000B1C4805D9740BF010E94D81C7093C3049B
:102CF0006093C2048091050190E08617970728F43D
:102D0000809105019B01281B31097601C216D3066B
:102D100008F479018091C4049091C504813D57E085
:102D2000950708F48CC4805D9740BF010E94D81CB1
:102D30007093C5046093C4048091050190E08617E8
:102D4000970728F4809105019B01281B3109E216A1
:102D5000F30608F479018091C6049091C704813D7F
:102D600067E0960708F47CC4805D9740BF010E942D
:102D7000D81C7093C7046093C6048091050190E04D
:102D80008617970728F4809105019B01281B3109BC
:102D9000FA82E982E216F30610F43A832983C80125
:102DA00000E021E0C12CD12C12E0E980FA80B22EA3
:102DB0001EC0FA01E85FFC4F208130E082179307C4
:102DC00008F44FC08083002309F44DC01C93C80E43
:102DD000D91E88E0B81609F46AC1AB2DB0E0AA0F7D
:102DE000BB1FA854BB4F8D919C91B3940F5F209152
:102DF0000901402F50E0213009F4B2C08E159F0523
:102E000008F4A2C08E199F099A01220F331FD9011D
:102E1000A854BB4F8D939C936091050170E0681797
:102E2000790740F48091050190E0F901E854FB4FE7
:102E300091838083DA01A05FBC4F6C91662309F413
:102E4000B8CF7FEF760F7C93FA01E85FFC4F2081CB
:102E500030E08217930708F0B5CF772311F0625066
:102E60006C930111B4CF1C92C80ED91EB6CF820E3E
:102E7000931EF0ED8F16F7E49F0608F41DCE7FEC4D
:102E8000872E77E4972E18CEEE81FF81E20FF31F95
:102E9000FF83EE83E03DF74408F40ECEEFECF7E459
:102EA000FF83EE8309CE020F131F003DF7E41F07D7
:102EB00008F402CE0FEC17E4FFCDE20EF31EE0EDB6
:102EC000EE16E7E4FE0608F4F7CDEFECEE2EE7E4AD
:102ED000FE2EF2CDC20ED31EB0EDCB16B7E4DB064C
:102EE00008F4EACDFFECCF2EF7E4DF2EE5CDB901F3
:102EF000640D751D603DA7E47A0708F52901569415
:102F000047945694479456944794460E571ED4CDF2
:102F1000B901660D771D603DF7E47F0758F439016C
:102F20007694679476946794660E771EC5CD8FEC81
:102F300097E4BFCD3FEC632E37E4732EBDCD2FEC6D
:102F4000422E27E4522EB8CDDA01AA0FBB1FA85497
:102F5000BB4F1D921C928091050180E090E06ACFEA
:102F6000813D77E0970708F49FC09C01205D3740C2
:102F7000A3E8BDE20E94061D9695879592958295DD
:102F80008F7089279F7089273FCFA092440120919D
:102F90004701285B213908F02FE88091470190E034
:102FA000C816D90608F033C3809145018217C0F4D2
:102FB00030E0F901EE0FFF1FE20FF31FEE5AFE4F54
:102FC000118210821282C101821B930BFC01EE0F51
:102FD000FF1FE80FF91FEE5AFE4F11821082128276
:102FE0001F5F193008F010E0013009F4D7C2BA941D
:102FF00009F093C0FFEF6F1A7F0A2FE1F20E38EF4E
:10300000F31280C0F89460E970E082E591E00E94DC
:10301000F20478948091BA049091BB04892B51F505
:103020008091BC049091BD04892B21F58091BE0450
:103030009091BF04892BF1F48091C0049091C10458
:10304000892BC1F48091C2049091C304892B91F41F
:103050008091C4049091C504892B61F481E0809330
:10306000C80480914C0181110C94C1120E94FF117F
:103070000C94C11280915101882321F010925001CB
:1030800010924F0190910A0180910B01989FC0010D
:10309000112490934E0180934D011092C804109218
:1030A00051015A980C94BB1280E090E0ADCE109282
:1030B0004701809107018F30A8F08091070182318C
:1030C00088F49601ABEABAEA0E94061D6C01D69418
:1030D000C794D694C79491E9C916D10418F090E921
:1030E000C92ED12C00E0612C712C11E0A12C5524AB
:1030F0005A94BFE88B2EEE24EA9483E0482EF02EFB
:10310000012F1A2D42E1B42E55E0A52E60E1962E36
:103110009301285F3C4F3F832E83E092060380910A
:10312000070190E0FC013197E131F10508F058CF3B
:10313000ED58FF4F0C94001DA092440120914701CF
:10314000285B213908F02FE88091470190E0C816EC
:10315000D90608F429CF8091470140E350E0481B8D
:103160005109CA01880F80930503E09207034CE0E0
:1031700051E062E073E085E093E02D830E94BA03A2
:1031800080913E012D81813009F44EC2823009F0D8
:1031900044C24091020350910303509302034093B1
:1031A000030330910403822F90E0FC01EE0FFF1F18
:1031B000E80FF91FEE5AFE4F518340833283B1016D
:1031C000681B790BFB01EE0FFF1FE60FF71FEE5A8E
:1031D000FE4F5183408332838091470190E08C15EC
:1031E0009D0509F0FDCE80914501281710F0209330
:1031F00045018091450190E0FC01EE0FFF1FE80FB3
:10320000F91FEE5AFE4F51828091450190E0FC017A
:10321000EE0FFF1FE80FF91FEE5AFE4F108280914C
:10322000450190E0FC01EE0FFF1FE80FF91FEE5A79
:10323000FE4F128280914501D101A81BB109FD0109
:10324000EE0FFF1FEA0FFB1FEE5AFE4F51828091D7
:103250004501F101E81BF109CF01EE0FFF1FE80F57
:10326000F91FEE5AFE4F1082809145019101281BF3
:103270003109F901EE0FFF1FE20FF31FEE5AFE4F67
:103280001282AECE80914801909149019091470100
:10329000980F90930503E12FF0E0E85FFC4FE08189
:1032A000F0E0EA55FE4F85919491809307034CE03E
:1032B00051E062E073E085E093E00E94BA03809100
:1032C0003E01813009F477C1823009F06DC130913F
:1032D00002034091030340930203309303032091C0
:1032E00004038091470190E0FC01EE0FFF1FE80FFF
:1032F000F91FEE5AFE4F41838091470190E0FC0197
:10330000EE0FFF1FE80FF91FEE5AFE4F308380913A
:10331000470190E0FC01EE0FFF1FE80FF91FEE5A86
:10332000FE4F22835DCEF0920503BFE1FB1609F448
:1033300030C3AE81BF81EC91F0E0EA55FE4F85913C
:103340009491809307034CE051E062E073E085E0E4
:1033500093E00E94BA0380913E01813009F443C199
:10336000823009F033C1309102034091030340934E
:10337000020330930303209104038091470101303D
:1033800009F42FC1B82DB81B8B2F01E090E0FC0190
:10339000EE0FFF1FE80FF91FEE5AFE4F41833083F7
:1033A00022831ECEEE81FF8180812FE330E0281B37
:1033B0003109C901880F80930503E08171CFEE8147
:1033C000FF8180812FE330E0281B3109C901880F7C
:1033D00080930503DF01AFCFEE81FF818081880FED
:1033E0008F57F6CF80914801909149019091470104
:1033F000980F909305039DCF8091480190914901CA
:103400008F0D80930503AE81BF8195CF80914801D8
:10341000909149018F0D809305033DCFF0920503F4
:10342000EFE1FE1238CF9092050335CF809148012D
:10343000909149018F0D80930503AE81BF81EC917E
:103440002FCFEE81FF818081880F8F5780930503F6
:10345000E08126CF809148019091490190914701E8
:10346000980F90930503AE81BF81EC9119CFF09234
:103470000503AFE1FA12F7CF90920503F4CF409223
:103480004401809148019091490180930503E092A5
:10349000070320914701285B213908F02FE84CE011
:1034A00051E062E073E085E093E02D830E94BA036F
:1034B00080913E012D81813009F4A0C0823041F419
:1034C000809102039091030390930203809303037E
:1034D0008091470190E08C159D0509F081CD809188
:1034E0004501281710F02093450180914501209156
:1034F000020390E0FC01EE0FFF1FE80FF91FEE5AE8
:10350000FE4F2183809145013091030390E0FC013F
:10351000EE0FFF1FE80FF91FEE5AFE4F3083809128
:1035200045014091040390E0FC01EE0FFF1FE80FFE
:10353000F91FEE5AFE4F428380914501B101681B8D
:103540007109FB01EE0FFF1FE60FF71FEE5AFE4F4A
:10355000218380914501D101A81BB109FD01EE0F26
:10356000FF1FEA0FFB1FEE5AFE4F3083809145018B
:10357000F101E81BF109CF01EE0FFF1FE80FF91F62
:10358000EE5AFE4F42832CCD809148019091490123
:1035900080930503AE81BF81EC9182CE809147017B
:1035A0008F5F8093470123CD409102033091030345
:1035B0002091040396CE30910403209103032093BD
:1035C000040330930303409102038BCE4091020326
:1035D000309103032091040380914701013009F0E9
:1035E000D1CE00E0D3CE3091040320910303209389
:1035F00004033093030340910203BFCE8091040380
:1036000090910303909304038093030361CF9091FF
:103610004701892F880F890FA6CD50910203409151
:10362000030330910403BFCD4091040330910303A1
:10363000309304034093030350910203B4CD80E020
:1036400090E073CB80E090E04ECB80E090E02ACB1E
:1036500080E090E006CB80E090E0E0CA9601CCCA22
:1036600080E090E083CB71ED671677E0770608F095
:103670005CC11092B9041092B80480910501809148
:10368000BA049091BB04813DA7E09A0708F02BC1D2
:103690001092BB041092BA04809105018091BC0481
:1036A0009091BD04813DB7E09B0708F0FAC01092ED
:1036B000BD041092BC04809105018091BE049091DC
:1036C000BF04813DE7E09E0708F0C9C01092BF0427
:1036D0001092BE04809105018091C0049091C104B4
:1036E000813DF7E09F0708F098C01092C104109246
:1036F000C004809105018091C2049091C304813D72
:1037000027E0920708F067C01092C3041092C20429
:10371000809105018091C4049091C504813D37E0FA
:103720009307B8F51092C5041092C4048091050166
:103730008091C6049091C704813D47E0940738F416
:103740001092C7041092C6048091050105CA9C011D
:10375000205D3740A3E8BDE20E94061D969587953F
:10376000929582958F7089279F7089279093C704BF
:103770008093C6042091050130E02817390708F02E
:10378000EBC98091050190E09093C7048093C60433
:10379000E3C99C01205D3740A3E8BDE20E94061DFD
:1037A00096958795929582958F7089279F70892726
:1037B0009093C5048093C4042091050130E028173C
:1037C000390708F0B5CF8091050190E09093C504CA
:1037D0008093C404ADCF9C01205D3740A3E8BDE2D7
:1037E0000E94061D96958795929582958F708927E0
:1037F0009F7089279093C3048093C2042091050190
:1038000030E02817390708F085CF8091050190E056
:103810009093C3048093C2047DCF9C01205D374008
:10382000A3E8BDE20E94061D969587959295829524
:103830008F7089279F7089279093C1048093C0045B
:103840002091050130E02817390708F054CF809106
:10385000050190E09093C1048093C0044CCF9C017B
:10386000205D3740A3E8BDE20E94061D969587952E
:10387000929582958F7089279F7089279093BF04B6
:103880008093BE042091050130E02817390708F025
:1038900023CF8091050190E09093BF048093BE04F4
:1038A0001BCF9C01205D3740A3E8BDE20E94061DAE
:1038B00096958795929582958F7089279F70892715
:1038C0009093BD048093BC042091050130E028173B
:1038D000390708F0F2CE8091050190E09093BD0485
:1038E0008093BC04EACE9C01205D3740A3E8BDE292
:1038F0000E94061D96958795929582958F708927CF
:103900009F7089279093BB048093BA04209105018E
:1039100030E02817390708F0C1CE8091050190E00A
:103920009093BB048093BA04B9CE9301205D3740D5
:10393000A3E8BDE20E94061D969587959295829513
:103940008F7089279F7089279093B9048093B8045A
:103950002091050130E02817390708F090CE8091BA
:10396000050190E09093B9048093B80488CE80E07C
:1039700090E02FC9C12CD12C21C980E090E008C96A
:103980008091B8049091B9040BCA0E94FF110C9465
:10399000991290920503CDCC991B79E004C0991F30
:1039A000961708F0961B881F7A95C9F78095089599
:1039B000AA1BBB1B51E107C0AA1FBB1FA617B70755
:1039C00010F0A61BB70B881F991F5A95A9F7809571
:1039D0009095BC01CD01089597FB072E16F4009435
:1039E00007D077FD09D00E94D81C07FC05D03EF413
:1039F000909581959F4F0895709561957F4F08959B
:103A0000EE0FFF1F0590F491E02D0994A29FB001E5
:103A1000B39FC001A39F700D811D1124911DB29F02
:103A2000700D811D1124911D08955058BB27AA27A0
:103A30000ED048C139D130F03ED120F031F49F3F53
:103A400011F41EF42EC10EF4E095E7FB24C1E92F1A
:103A50004AD180F3BA17620773078407950718F0F5
:103A600071F49EF562C10EF4E0950B2EBA2FA02DD5
:103A70000B01B90190010C01CA01A0011124FF271B
:103A8000591B99F0593F50F4503E68F11A16F04016
:103A9000A22F232F342F4427585FF3CF4695379515
:103AA0002795A795F0405395C9F77EF41F16BA0BDA
:103AB000620B730B840BBAF09150A1F0FF0FBB1F88
:103AC000661F771F881FC2F70EC0BA0F621F731FD1
:103AD000841F48F4879577956795B795F7959E3F2E
:103AE00008F0B3CF9395880F08F09927EE0F9795BC
:103AF000879508950CD0E6C0DED040F0D5D030F0E8
:103B000021F45F3F19F0C7C0511110C1CAC0EBD0FA
:103B100098F39923C9F35523B1F3951B550BBB2794
:103B2000AA2762177307840738F09F5F5F4F220F41
:103B3000331F441FAA1FA9F333D00E2E3AF0E0E83A
:103B400030D091505040E695001CCAF729D0FE2F86
:103B500027D0660F771F881FBB1F26173707480718
:103B6000AB07B0E809F0BB0B802DBF01FF279358CE
:103B70005F4F2AF09E3F510568F08DC0D7C05F3F70
:103B8000ECF3983EDCF3869577956795B795F795B6
:103B90009F5FC9F7880F911D9695879597F90895AE
:103BA000E1E0660F771F881FBB1F6217730784074A
:103BB000BA0720F0621B730B840BBA0BEE1F88F759
:103BC000E095089598D088F09F5790F0B92F9927E5
:103BD000B751A0F0D1F0660F771F881F991F1AF018
:103BE000BA95C9F712C0B13081F09FD0B1E0089505
:103BF0009CC0672F782F8827B85F39F0B93FCCF386
:103C0000869577956795B395D9F73EF4909580950D
:103C1000709561957F4F8F4F9F4F0895E89409C02D
:103C200097FB3EF490958095709561957F4F8F4FEF
:103C30009F4F9923A9F0F92F96E9BB279395F69505
:103C4000879577956795B795F111F8CFFAF4BB0F83
:103C500011F460FF1BC06F5F7F4F8F4F9F4F16C0E7
:103C6000882311F096E911C0772321F09EE8872F71
:103C7000762F05C0662371F096E8862F70E060E02D
:103C80002AF09A95660F771F881FDAF7880F9695A6
:103C9000879597F9089597F99F6780E870E060E04D
:103CA00008959FEF80EC089500240A9416161706D5
:103CB00018060906089500240A941216130614061D
:103CC00005060895092E0394000C11F4882352F080
:103CD000BB0F40F4BF2B11F460FF04C06F5F7F4F38
:103CE0008F4F9F4F089557FD9058440F551F59F01F
:103CF0005F3F71F04795880F97FB991F61F09F3FD9
:103D000079F087950895121613061406551FF2CF01
:103D10004695F1DF08C0161617061806991FF1CF51
:103D200086957105610508940895E894BB27662778
:103D30007727CB0197F908950BD0C4CFB5DF28F0D2
:103D4000BADF18F0952309F0A6CFABCF1124EECF40
:103D5000CADFA0F3959FD1F3950F50E0551F629FE6
:103D6000F001729FBB27F00DB11D639FAA27F00DD4
:103D7000B11DAA1F649F6627B00DA11D661F829FFB
:103D80002227B00DA11D621F739FB00DA11D621FE0
:103D9000839FA00D611D221F749F3327A00D611DFD
:103DA000231F849F600D211D822F762F6A2F1124DF
:103DB0009F5750408AF0E1F088234AF0EE0FFF1F32
:103DC000BB1F661F771F881F91505040A9F79E3F69
:103DD000510570F060CFAACF5F3FECF3983EDCF363
:103DE000869577956795B795F795E7959F5FC1F7A6
:103DF000FE2B880F911D9695879597F908959F93AF
:103E000005D00F9007FCEE5F28C04BCF74DFE8F3BE
:103E1000E894E0E0BB279F57F0F02AED3FE049EC43
:103E200006C0EE0FBB0F661F771F881F28F0B23A3F
:103E300062077307840728F0B25A620B730B840B76
:103E4000E3959A9572F7803830F49A95BB0F661F08
:103E5000771F881FD2F7904813C0EF93E0FF06C08A
:103E6000A2EA2AED3FE049EC5FEBF1DD2BDF0F909A
:103E7000039401FC9058E8E0F1E00EC09F3F31F060
:103E8000915020F4879577956795B795880F911D88
:103E90009695879597F908959F938F937F936F9346
:103EA000FF93EF939B01AC0147DFEF91FF9105D0AA
:103EB0002F913F914F915F913FCFDF93CF931F930E
:103EC0000F93FF92EF92DF927B018C01689405C003
:103ED000DA2EEF013DDFFE01E894A59125913591A1
:103EE00045915591AEF3EF01B2DDFE019701A801B6
:103EF000DA9479F7DF90EF90FF900F911F91CF91B7
:103F0000DF9108958F929F92AF92BF92CF92DF92EE
:103F1000EF92FF92CF93DF93EC01688179818A81E0
:103F20009B81611571058105910521F464E279EDAC
:103F30008BE597E02DE133EF41E050E00E94232034
:103F400049015A019B01AC01A7EAB1E40E94422059
:103F50006B017C01ACEEB4EFA50194010E945020EE
:103F6000C60ED71EE81EF91EF7FE06C081E0C81A6D
:103F7000D108E10880E8F80AC882D982EA82FB8287
:103F8000C6019F77DF91CF91FF90EF90DF90CF90A8
:103F9000BF90AF909F908F9008950E94821F0895C8
:103FA00080E091E00E94821F0895A0E0B0E080933D
:103FB000000190930101A0930201B09303010895C1
:103FC0006817790768F4FB01DC01E40FF51FA40F03
:103FD000B51F02C002900E9241505040D8F708958C
:103FE0000C941A20F999FECF92BD81BDF89A9927B9
:103FF00080B50895262FF999FECF92BD81BDF89A1C
:10400000019700B4021639F01FBA20BD0FB6F8941C
:10401000FA9AF99A0FBE0895262FF999FECF1FBA82
:1040200092BD81BD20BD0FB6F894FA9AF99A0FBEE1
:1040300001960895FB01DC0102C001900D924150F0
:104040005040D8F70895052E97FB1EF400940E9467
:104050003A2057FD07D00E94552007FC03D04EF4AC
:104060000C943A2050954095309521953F4F4F4FF5
:104070005F4F089590958095709561957F4F8F4F14
:104080009F4F08950E94061DA59F900DB49F900D0F
:10409000A49F800D911D11240895B7FF0C94422018
:1040A0000E944220821B930B0895A1E21A2EAA1BA4
:1040B000BB1BFD010DC0AA1FBB1FEE1FFF1FA217D8
:1040C000B307E407F50720F0A21BB30BE40BF50BD5
:1040D000661F771F881F991F1A9469F7609570955E
:1040E000809590959B01AC01BD01CF010895F89496
:0240F000FFCF00
:1040F20001000000043F01010101460708FF000022
:10410200FF8000FFFF0000FF0000FFFF0000FF80B4
:0641120000FFFF000000A9
:00000001FF
