:100000000C949B030C94B8030C94B8030C94B803A1
:100010000C94B8030C94B8030C94B8030C94B80374
:100020000C94B8030C94B8030C94B8030C942205F8
:100030000C9409110C94B8030C94B8030C94B803F5
:100040000C94B8030C94B8030C94B8030C94B80344
:100050000C94B8030C94B8030C94B8030C94B80334
:100060000C94B8030C94B8038E187D18701870188F
:1000700063186318631859185918591859185918DA
:100080005E164A184A184A184A184A184A184A184E
:100090004A184A183D183D183D183D183D183D189E
:1000A0003D183D183D183D183D183D183D183D18A8
:1000B0003D18741674167416741674167416741625
:1000C00074167416741674167416741674167416E0
:1000D00074167416741674167416741674167416D0
:1000E000741674167416291B1F1BD21AEF1BBA1B29
:1000F000E21B3C1AC81ABE1AB61A7D1AD01BC31BC3
:10010000D81BA019CB18331B05A84CCDB2D44EB9BF
:100110003836A9020C50B9918688083CA6AAAA2AAA
:10012000BE000000803F0000000000000000000052
:1001300000000000000000000000000000010101BC
:10014000010101010101010101010102020202029A
:100150000202020303030303040404040505050566
:100160000606060707080809090A0A0B0B0C0D0DFD
:100170000E0F1011121314151617181A1B1D1F201D
:10018000222426282A2D2F3235383B3E4245494D20
:1001900052565B60666B71777E858D949DA5AFB876
:1001A000C3CED9E5F2FF000000000000000000000F
:1001B0000000000101010101020202020303030425
:1001C000040505060708090A0B0C0D0F1113151776
:1001D0001A1D2024282D32383E454D56606B7785F8
:1001E00094A5B8CEE5FF000014005000B400400113
:1001F000F301CD02CD03F3043D06AD073F09F40A38
:10020000C90CBF0ED41007135515BE17411ADB1CBD
:100210008B1F502227250F28062B0A2E1931323426
:100220005237773AA03DCB40F5431C473F4A5C4DDF
:1002300070507A5378566759475C155FCF61756483
:1002400003677969D66B166E3A703F722674EB7548
:100250008F770F796D7AA57BB87CA57D6C7E0B7F3F
:10026000837FD37FFB7FFB7FD37F837F0B7F6C7E7E
:10027000A57DB87CA57B6D7A0F798F77EB75267499
:100280003F723A70166ED66B796903677564CF61F9
:10029000155F475C675978567A5370505C4D3F4AFA
:1002A0001C47F543CB40A03D773A523732341931E1
:1002B0000A2E062B0F28272550228B1FDB1C411AE4
:1002C000BE1755150713D410BF0EC90CF40A3F0909
:1002D000AD073D06F304CD03CD02F3014001B400A8
:1002E0005000140000000001010202020203030397
:1002F00003030304040404040404040505050505BC
:100300000505050505060606060606060606060692
:10031000060707070707070707070707070707086D
:10032000080808080808080808080808080808094C
:10033000090909090909090909090909090909092D
:10034000090A0A0A0A0A0A0A0A0A0A0A0A0A0A0A0E
:100350000A0A0A0A0A0B0B0B0B0B0B0B0B0B0B0BF2
:100360000B0B0B0B0B0B0B0B0B0B0B0C0C0C0C0CD8
:100370000C0C0C0C0C0C0C0C0C0C0C0C0C0C0C0CBD
:100380000C0C0C0D0D0D0D0D0D0D0D0D0D0D0D0DA0
:100390000D0D0D0D0D0D0D0D0D0D0D0D0D0E0E0E8A
:1003A0000E0E0E0E0E0E0E0E0E0E0E0E0E0E0E0E6D
:1003B0000E0E0E0E0E0E0E0E0E0F0F0F0F0F0F0F56
:1003C0000F0F0F0F0F0F0F0F0F0F0F0F0F0F0F0F3D
:1003D0000F0F0F0F0F0F0F10101010101010101024
:1003E0001010101010100006080A0B0D0E0F10113F
:1003F00012131414151617171819191A1B1B1C1C85
:100400001D1D1E1E1F1F20202121222223232424E4
:100410002525262626272728282829292A2A2A2B5F
:100420002B2B2C2C2D2D2D2E2E2E2F2F2F303030F0
:10043000313131323232333333343434343535358B
:1004400036363637373737383838393939393A3A2E
:100450003A3B3B3B3B3C3C3C3C3D3D3D3D3E3E3ED8
:100460003E3F3F3F3F40000B101417191C1E202237
:10047000242627292A2C2D2F30313334353637398D
:100480003A3B3C3D3E3F4041424344454647484855
:10049000494A4B4C4D4E4E4F505152525354555564
:1004A00056575858595A5B5B5C5D5D5E5F5F606193
:1004B000616263636465656666676868696A6A6BDA
:1004C0006B6C6D6D6E6E6F6F707171727273737431
:1004D000747576767777787879797A7A7B7B7C7C95
:1004E0007D7D7E7E7F7F0010171C2024272A2D30E3
:1004F0003335373A3C3E4042444648494B4D4E50D6
:100500005253555658595B5C5D5F60616364656624
:1005100068696A6B6D6E6F707172737476777879D3
:100520007A7B7C7D7E7F80818283848586878889B3
:100530008A8B8B8C8D8E8F909192939494959697B5
:100540009899999A9B9C9D9E9E9FA0A1A2A2A3A4CC
:10055000A5A6A6A7A8A9A9AAABACACADAEAFAFB0F3
:10056000B1B1B2B3B4B4B5B6B6B7B8B9B9BABBBB2A
:10057000BCBDBDBEBFBFC0C1C1C2C3C3C4C5C5C66B
:10058000C7C7C8C8C9CACACBCCCCCDCECECFCFD0B6
:10059000D1D1D2D2D3D4D4D5D5D6D7D7D8D8D9DA09
:1005A000DADBDBDCDDDDDEDEDFDFE0E1E1E2E2E362
:1005B000E3E4E5E5E6E6E7E7E8E8E9EAEAEBEBECC1
:1005C000ECEDEDEEEEEFEFF0F1F1F2F2F3F3F4F427
:1005D000F5F5F6F6F7F7F8F8F9F9FAFAFBFBFCFC93
:1005E000FDFDFEFEFFFF7007780F74177C1F72275A
:1005F0007A2F76377E3F7147794F75577D5F7367E6
:100600007B6F6003680B64136C1B62236A2B663379
:100610006E3B6143694B65536D5B5005580D541536
:100620005C1D52255A2D56355E3D5145594D4001B0
:10063000480944114C1942214A2946314E393006A5
:10064000380E34163C1E32263A2E2002280A241276
:100650002C1A1004180C4276FC30825A825AFC3054
:1006600042768A7DF9184276FC306E6A1D47825ABE
:10067000825A1D476E6AFC304276F9188A7D627F85
:100680008C0C8A7DF9187D7A28254276FC30E3703F
:10069000573C6E6A1D47F2623451825A825A345175
:1006A000F2621D476E6A573CE370FC3042762825A3
:1006B0007D7AF9188A7D8C0C627FD97F4806627F2B
:1006C0008C0C9D7EC8128A7DF9182A7C1A1F7D7AAF
:1006D000282585781F2B4276FC30B673BA36E37036
:1006E000573CCA6DCE416E6A1D47D066404CF262DF
:1006F0003451D75EF655825A825AF655D75E345138
:10070000F262404CD0661D476E6ACE41CA6D573CBE
:10071000E370BA36B673FC3042761F2B85782825F5
:100720007D7A1A1F2A7CF9188A7DC8129D7E8C0C4E
:10073000627F4806D97F11241FBECFEFD8E0DEBF0D
:10074000CDBF11E0A0E0B1E0E6EEF3E402C0059019
:100750000D92A632B107D9F723E0A6E2B1E001C0BD
:100760001D92A939B207E1F70E9452130C94F121AE
:100770000C9400002F923F924F925F926F927F9263
:100780008F929F92AF92BF92CF92DF92EF92FF92A1
:100790000F931F93CF93DF93EC017B01FA018080CD
:1007A000912C80E091E0B4010E94CE1E6B01888103
:1007B0000E94AE1E282F30E041E0841A91082815CF
:1007C000390509F408C18F5F082F10E03901660C64
:1007D000771CD301A20FB31FAE0FBF1F11963C9021
:1007E000832C912CA92EB12CDD242801440C551CFE
:1007F000D201A00FB11FAE0FBF1F11964C9150E058
:10080000481959094A9DC0014B9D900D5A9D900D64
:100810001124B6010E94CE1E860E971E97FCDEC0E4
:100820008FEF8816910411F00CF0CCC0630D2224D8
:100830002A94312C261A3108D301A20FB31FAE0F10
:10084000BF1F12967C90872C912CD201A00FB11F54
:10085000AE0FBF1F12964C9150E048195909A49E43
:10086000C001A59E900DB49E900D1124B6010E946A
:10087000CE1E860E971E4FEF8416910411F00CF0D9
:10088000A4C0760E88248A94912C871891082F5F33
:100890003F4FD901AA0FBB1FA20FB31FAE0FBF1F3F
:1008A0007C90272D30E00F5F1F4FD801AA0FBB1F90
:1008B000A00FB11FAE0FBF1F4C9150E0421B530B56
:1008C000A49EC001A59E900DB49E900D1124B6016A
:1008D0000E94CE1E260F371F2F3F310511F00CF05E
:1008E00077C0760EEFEFF0E0E719F109498150E0AB
:1008F000249E9001259E300D349E300D1124A1E8D8
:10090000B0E80E94E81E880F892F881F990B9195E7
:10091000082F0095849E9001859E300D949E300D89
:1009200011240E94E81E880F892F881F990B91952A
:10093000182F1095E49F9001E59F300DF49F300D26
:1009400011240E94E81E880F892F881F990B91950A
:10095000482F40952A81029F900111240E94E81E91
:10096000880F892F881F990B9195F70180832A8121
:10097000129F900111240E94E81E880F892F881F62
:10098000990B919581832A81429F900111240E94A5
:10099000E81E880F892F881F990B91958283DF911C
:1009A000CF911F910F91FF90EF90DF90CF90BF906C
:1009B000AF909F908F907F906F905F904F903F90FF
:1009C0002F900895212C312C37CF812C912C5FCF83
:1009D000E0E0F0E08BCF00E010E0F8CE22242A9493
:1009E000312C2ACF9B01220F331F260F371F3C9A31
:1009F00048B14F7E58B150616FB7F8942115310559
:100A0000C9F0FC01820F931F219138E058B9000012
:100A100000C000C027FF48B9220F000000C000C07E
:100A200000C000C048B9000000C03A9579F7E81747
:100A3000F90751F76FBF89EF90E00197F1F700C018
:100A4000000008951F920F920FB60F921124AF92DB
:100A5000BF92CF92DF92EF92FF920F931F932F934B
:100A60003F934F935F936F937F938F939F93AF9336
:100A7000BF93CF93DF93EF93FF9380918800909182
:100A800089000197909389008093880080914601A6
:100A9000882329F0809146018150809346018091FE
:100AA0004601811115C0809148019091490101963C
:100AB00090934901809348018091480190914901A8
:100AC0008F3F910511F008F0F6C089E08093460150
:100AD00080910401882319F1815080930401809151
:100AE0000601813009F4ECC0FF91EF91DF91CF91C5
:100AF000BF91AF919F918F917F916F915F914F9136
:100B00003F912F911F910F91FF90EF90DF90CF9029
:100B1000BF90AF900F900FBE0F901F90189584E07C
:100B200080930401809107018F30C8F080915101BA
:100B3000811115C080913D018111B0C680914501A0
:100B4000893028F08091450181508093450184E0EF
:100B500080933D0180910701813109F4DDC6189B26
:100B600005C0309B03C0199910923C0118990DC023
:100B7000309B0BC0199B09C090913B019B3428F41A
:100B800081E080933A0180933C01189B0EC030991C
:100B90000CC0199B0AC090913B019B3430F482E059
:100BA00080933A0181E080933C0118990EC03099FE
:100BB0000CC0199B0AC090913B019B3430F483E038
:100BC00080933A0181E080933C01189963C0809141
:100BD0003A0190913C018111ABC1913009F475C487
:100BE00010923B0180913501813009F463C48091FA
:100BF0004A01813009F4F9C480913C01813009F443
:100C0000F2C42A9880914B01882309F478C080911E
:100C100032018F5F80933201873309F4C5C180911F
:100C20004B01813009F4B3C1823029F48091310144
:100C3000883209F4B1C180913001813009F061C07E
:100C400080915101813009F43EC68091420190911A
:100C500043010E944F218091070180932F019091C1
:100C60000701981310C0CEE0D0E00E944A21BE01D7
:100C70000E94CE1E8F5F80930701809107019091A3
:100C80002F01981791F31092510110923801109290
:100C9000300137C0309B9BCF199999CF90913B0180
:100CA0009B3408F094CF84E080933A0181E08093F4
:100CB0003C0184E00CC4109249011092480105CF18
:100CC00080910B01863009F4BFC508F459C1873003
:100CD00009F4BEC5883019F42B9A2C9A2D9A80916C
:100CE0000901823009F441C5833009F442C58130DD
:100CF00019F4419A4298439810920601F5CE109249
:100D0000310180914802813009F4B3C31092380157
:100D1000C0913901C13009F474C480910801813057
:100D200009F4FDC380910801823009F430C3809139
:100D30000801833009F49AC080910801873009F4D2
:100D400095C080910801883009F490C08091080115
:100D5000843009F4EDC280910801853009F49EC207
:100D600080910801863009F449C2809108018930D8
:100D700009F4CAC1809108018A3009F461C18091E7
:100D800008018B3009F418C1809108018C3009F0FA
:100D9000A6CE80915101813009F0A1CE80912B0126
:100DA000893118F48F5F80932B01809353018093D6
:100DB0005201809354018093560180935501809392
:100DC0005701809359018093580180935A01809371
:100DD0005C0180935B0180935D0180935F01809350
:100DE0005E01809360018093620180936101809332
:100DF0006301809365018093640180936601809311
:100E00006801809367018093690180936B018093EF
:100E10006A0180936C0180936E0180936D018093D1
:100E20006F018093710180937001809372018093B0
:100E3000740180937301809375018093770180938F
:100E400076018093780180937A0180937901809371
:100E50007B0180937D0180937C0180937E01809350
:100E6000800180937F018093810139CE809151016F
:100E7000813009F06BCF809137018F5F809337010C
:100E8000813009F4B7C780912901813009F05ECF24
:100E90008091410181110C94051080912B01809368
:100EA000370280912E018093270208E112E078E258
:100EB000E72E72E0F72EC4E5D1E0DD24DA9412C00B
:100EC000209182019091830180918401FE013197EC
:100ED00020833197908388832396F2E008321F079E
:100EE00009F48DC7D8018D918D0180938501D09231
:100EF0008601F70181917F01809387014CE051E0E9
:100F000062E871E085E891E00E94BA0380913E01B9
:100F1000813009F464C7823099F690918201209162
:100F20008301209382019093830180918401CECF2D
:100F3000911153CE90913B01911152CE813009F421
:100F40009DC5823011F40C94C00F843009F048CE56
:100F500080914B018F5F80934B0180914B018330D7
:100F600010F010924B0180914B0181110C945C1098
:100F700010924A0181E08093060110923A0130CE2E
:100F8000853009F0ACCE2B982C982D9AA8CE809164
:100F90003101843109F04FCE1092310110923201AB
:100FA00081E0809330014CCE809131018F5F80933E
:100FB00031011092320133CE80915101813009F01C
:100FC000E3CE80912B01823318F48F5F80932B0145
:100FD000C4E5D1E010E00FEF13C0209182019091A1
:100FE000830180918401FE013197208331979083A2
:100FF0008883115F2396103F09F4C6CE80912B01A0
:101000001093850100938601809387014CE051E0A5
:1010100062E871E085E891E00E94BA0380913E01A8
:10102000813009F452C58230C1F69091820120913D
:101030008301209382019093830180918401D3CF17
:1010400080915101813009F09ACE209137012F5FB4
:101050002093370186E08093440180E190E09093F3
:101060004E0180934D01213011F40C942510809194
:101070002901813009F083CE0E944A218F70907837
:1010800097FF02C00C94031180932A010E944A2109
:10109000209148013091490168E770E00E94CE1E1E
:1010A000280F209385018FEF80938601809387011D
:1010B0004CE051E062E871E085E891E00E94BA03FB
:1010C00080913E01813011F40C94F210823011F0C5
:1010D0000C94EA1030918201409183014093820187
:1010E000309383012091840180912A0190E0FC01DA
:1010F000EE0FFF1FE80FF91FEE5AFE4F41833083BA
:101100002283109229013BCE80915101813009F058
:1011100031CE209137012F5F2093370186E08093F5
:10112000440180E190E090934E0180934D01213085
:1011300009F47AC780912901813009F01BCEABE711
:10114000B3E06CE773E0EFE7F3E00FEFFF24F39415
:1011500036C0E5010983EF012197E880E901C80F56
:10116000D91FCE5ADE4FD8804E2D50E04D0D511D67
:101170004F3F51050CF426C60883E901C80FD91F5B
:10118000CE5ADE4F2A813081832F90E0820F911D4D
:101190008F3F91050CF413C60A83EB0188818111FE
:1011A00008C6112309F404C711501C9315966B5FF0
:1011B0007F4F3596D3E0A939BD0709F442C71C918A
:1011C000812F90E09C01220F331F5901A80EB91EF8
:1011D000E501CE5ADE4F5E01E980AF014250510970
:1011E000EA01D8804D2D50E04E0D511D4F3F510565
:1011F0000CF0AFCFED0CE501E982ADCF809151014C
:10120000813009F0B2CD58E2E52E52E0F52EC4E56A
:10121000D1E08701DD24DA9412C0209182019091FF
:10122000830180918401FE0131972083319790835F
:1012300088832396B2E008331B0709F467C48091C2
:10124000480190914901902F9E19980F9093850124
:10125000D0928601D801ED918D01F0E0EA5DFE4F5C
:1012600085919491809387014CE051E062E871E0B0
:1012700085E891E00E94BA0380913E01813009F433
:101280002FC4823051F690918201209183012093E6
:1012900082019093830180918401C5CF8091510197
:1012A000813009F05DCD08E212E0C4E5D1E0FF2411
:1012B000FA9412C02091820190918301809184015F
:1012C000FE01319720833197908388832396B2E083
:1012D00008331B0709F43FC48091480190914901EC
:1012E00080938501F0928601D801ED918D01F0E0A7
:1012F000EA5DFE4F85919491809387014CE051E027
:1013000062E871E085E891E00E94BA0380913E01B5
:10131000813009F4F0C3823069F690918201209106
:101320008301209382019093830180918401C8CF2F
:1013300080915101813009F00ECD209137012F5F4E
:101340002093370180ED97E090934E0180934D01FB
:10135000213009F46CC680912901813009F0FBCC61
:101360000E944A218F70907897FD48C7809326018C
:101370009927FC01EE0FFF1FE80FF91FEE5AFE4FF1
:101380008FEF81838083828310922901E4CC809146
:101390005101813009F0CBCC209137012F5F209390
:1013A000370188E090E090934E0180934D01213009
:1013B00009F442C680912901813009F0B8CC8091AE
:1013C0002C0190912D018F3091050CF0CBC69FE040
:1013D000981B90932A018091480190914901809334
:1013E00085018FEF80938601809387014CE051E067
:1013F00062E871E085E891E00E94BA0380913E01C5
:10140000813009F4D1C6823009F4B2C660918201FC
:10141000509183014091840120912A0130E0F9012B
:10142000EE0FFF1FE20FF31FEE5AFE4F6183508352
:1014300042838FE090E0821B930BFC01EE0FFF1FB5
:10144000E80FF91FEE5AFE4F61835083428380916B
:101450002C0190912D01019690932D0180932C01E8
:101460004D9724F010922D0110922C011092290119
:101470005ECC80915101811149CC809137018F5F01
:101480008093370190910801992309F411C28233A6
:1014900009F411C280913801833009F039CC81E020
:1014A00080935101109238011092370180933901D5
:1014B0005A9A2ECC10924A0180913401882309F463
:1014C000D4C181508093340192CB90913B019F35E0
:1014D00030F49F5F90933B019B3408F483CB8130C1
:1014E00009F4E1C4823009F4B5C5833009F438C584
:1014F000843009F077CB80913E018F5F80933E016D
:10150000833009F42CC688E08093360181E0809313
:10151000350110923A012B982C982D9863CB80912D
:101520005101813009F0FECB209137012F5F2093CC
:10153000370180E190E090934E0180934D0121307E
:1015400009F46DC580912901813009F0EBCB8091C0
:101550002C0190912D018F3091050CF006C69FE073
:10156000981B90932A0180914801909149018093A2
:1015700085018FEF80938601809387014CE051E0D5
:1015800062E871E085E891E00E94BA0380913E0133
:10159000813009F414C6823009F4F5C54091820106
:1015A000309183012091840180912A0190E0FC0117
:1015B000EE0FFF1FE80FF91FEE5AFE4F41833083F5
:1015C000228380912C0190912D01019690932D0101
:1015D00080932C014D9724F010922D0110922C0134
:1015E000109229019FCB2A9A0DCB2B982C982D98DD
:1015F00090913301992309F432C1915090933301B2
:10160000FBCA109253011092520110925401109291
:1016100056011092550110925701109259011092E3
:10162000580110925A0110925C0110925B011092C5
:101630005D0110925F0110925E01109260011092A4
:101640006201109261011092630110926501109283
:101650006401109266011092680110926701109265
:10166000690110926B0110926A0110926C01109244
:101670006E0110926D0110926F0110927101109223
:101680007001109272011092740110927301109205
:1016900075011092770110927601109278011092E4
:1016A0007A011092790110927B0110927D011092C3
:1016B0007C0110927E011092800110927F011092A5
:1016C000810108E112E080E1F801482F11924A956A
:1016D000E9F798E2E92E92E0F92ED7011D928A955A
:1016E000E9F780914201909143010E944F210E94AD
:1016F0004A216FEF70E00E94CE1E80932E018FE092
:1017000090E090932D0180932C0110922B01109268
:101710002A01109237011092290110924001109273
:101720003F0180914101811197C0C0934101809197
:101730000801833011F1809108018730F1F0809128
:1017400008018830D1F080910801853009F4BCC2CD
:1017500080910801863009F4EEC280910801893039
:1017600009F41EC210923901D8CA4198429A43988E
:10177000C3CA41984298439ABFCA8FEF80932B0106
:101780000E944A216FEF70E00E94CE1E80932E01CE
:1017900010922A0110922D0110922C0180932801A1
:1017A000682F20E030E0CFEFD0E070E0482F50E02D
:1017B000FB017D974E175F070CF1635E7F4F641747
:1017C000750734F41BC0435E5F4F4217530794F014
:1017D0000E944A21BE010E94CE1E809328014091A2
:1017E0002E0150E09C013327BA016D517109261773
:1017F00037074CF720912C0130912D01F901E75B5F
:10180000FD4F808380932E012F5F3F4F30932D013A
:1018100020932C012233310514F4682FC6CF109287
:10182000280180910801883009F439C384E080934D
:10183000270180E1E701E82F1992EA95E9F7D8013D
:101840001D928A95E9F77FCF2B982C9A2D9847CA3D
:101850002B9A2C982D9843CA1092410168CF9EE193
:101860009093330180930601C7C92B991DC02B9A11
:101870002C9A2D9A81E08093340180913601811158
:1018800091C281E0809306011092350190914B0145
:10189000992309F4ACC980934A01A9C98150809366
:1018A0003D0181115CC94AC92B982C982D98E2CF33
:1018B000883009F0EFCD809138018F5F8093380137
:1018C00010923701E9CD80910801882309F419CAE3
:1018D00080914201909143010E944F218091080123
:1018E00080932F0190910801981310C0CAE0D0E0B6
:1018F0000E944A21BE010E94CE1E8F5F8093080184
:101900008091080190912F01981791F381E08093C5
:10191000390110923001F5C981E080933D01809139
:10192000480190914901809385018FEF8093860152
:101930008DEC80938701809145016091820190E058
:10194000FC01EE0FFF1FE80FF91FEE5AFE4F6183F7
:10195000809145015091830190E0FC01EE0FFF1F43
:10196000E80FF91FEE5AFE4F5083809145014091D8
:10197000840190E0FC01EE0FFF1FE80FF91FEE5A03
:10198000FE4F4283209145018FE090E0DC01A21BD5
:10199000B109FD01EE0FFF1FEA0FFB1FEE5AFE4FCC
:1019A000618320914501EC01C21BD109FE01EE0FBC
:1019B000FF1FEC0FFD1FEE5AFE4F50832091450193
:1019C000FC01E21BF1099F01EE0FFF1FE20FF31F65
:1019D000EE5AFE4F428320914501293008F4BFC8DA
:1019E000209145012150209345012091450130E08F
:1019F000F901EE0FFF1FE20FF31FEE5AFE4F618356
:101A00002091450130E0F901EE0FFF1FE20FF31FB7
:101A1000EE5AFE4F50832091450130E0F901EE0F60
:101A2000FF1FE20FF31FEE5AFE4F42832091450144
:101A3000DC01A21BB109FD01EE0FFF1FEA0FFB1F26
:101A4000EE5AFE4F618320914501EC01C21BD10982
:101A50009E01FE01EE0FFF1FE20FF31FEE5AFE4F35
:101A6000508320914501821B9109FC01EE0FFF1F5D
:101A7000E80FF91FEE5AFE4F428371C810925001D1
:101A800010924F0180910B01882329F080910B0166
:101A9000815080930B0180910B01843009F45BC36A
:101AA0008091510181110BC090910A0180910B012D
:101AB000989FC001112490934E0180934D0181E0C5
:101AC0008093060110923A018BC890918401809115
:101AD000830180938401909383012091820183CAC2
:101AE000909184018091830180938401909383017C
:101AF0002091820198CB9091840180918301809301
:101B000084019093830120918201DACB809141017D
:101B1000811104C2809128028093400180911802B3
:101B200080933F014FE050E069E272E088E292E08A
:101B30000E945A214FE050E069E172E088E192E0B2
:101B40000E945A21809140018093370280913F0189
:101B5000809327020AC9809141018111BDC1809102
:101B60002802809340018091180280933F014FE04A
:101B700050E069E272E088E292E00E945A214FE070
:101B800050E069E172E088E192E00E945A21809180
:101B900040018093370280913F0180932702E0C883
:101BA0000FE713E0DCE7ED2ED3E0FD2ECC24C39449
:101BB000CFEFD0E0DD24DA9480912A018E5F80930C
:101BC0002A01F8013497808380914101811161C01D
:101BD000D7011C92C09241010E944A21BE010E947D
:101BE000CE1E8093280140912E0150E09C013327A6
:101BF000BA016252710926173707ECF04E5D5F4F4C
:101C00004217530734F417C04E5D5F4F4217530716
:101C100094F00E944A21BE010E94CE1E80932801AA
:101C200040912E0150E09C013327BA0162527109A4
:101C3000261737074CF780932E0180938501D092A9
:101C40008601D09287014CE051E062E871E085E8BE
:101C500091E00E94BA0380913E01813051F18230BF
:101C6000E9F0209182019091830180918401F80133
:101C70003297208331969083D8018C930B5F1F4F4E
:101C8000B5E0EB0EF11CE3E00D391E0709F094CF2F
:101C900069CDF701C082109241019ECF90918201DF
:101CA000209183012093820190938301809184018C
:101CB000DECF909184018091830180938401909381
:101CC000830120918201D3CFC8E2D2E060E070E0CE
:101CD000CB0117C0BE0168527240882777FD8095FE
:101CE000982F0E948A1F2BED3FE049EC50E40E94A0
:101CF000162020E030E040E85DE30E9416200E94BC
:101D0000792020E030E040E85FE30E94F81E20E008
:101D100030E048EC51E40E94162020E030E046E933
:101D200052E40E94F81E0E945C1F6993B2E0C8331F
:101D3000DB0781F60DCDC8E2D2E060E070E0CB01B8
:101D400017C0BE0168527240882777FD8095982F92
:101D50000E948A1F2BED3FE049EC50E40E941620C0
:101D600020E030E040E05EE30E9416200E947920EF
:101D700020E030E040E85FE30E94F81E20E030E021
:101D800048EC51E40E94162020E030E046E952E49D
:101D90000E94F81E0E945C1F6993E2E0C833DE07D0
:101DA00081F6DBCC81508093360181110C94F705CC
:101DB00068CD1F3008F002C11F5F1C93F7C9230FC5
:101DC0002A83EBC9412F50E0EA01CC0FDD1FC40F7D
:101DD000D51FCE5ADE4F48814E0D4883CEC9909113
:101DE00084018091830180938401909383012091E9
:101DF00082016CC8809329011092370149C88091F3
:101E00000801833009F45DC14091270180910801E8
:101E1000883009F475C180912A018F5F80932A016F
:101E20004817A8F410922A018FEF80932B0180911C
:101E30002801E82FF0E0E75BFD4F908190932E01A1
:101E40008F5F80932801823310F0109228018091D7
:101E500041018111B9C08091280280934001809195
:101E6000180280933F014FE050E069E272E088E29F
:101E700092E00E945A214FE050E069E172E088E16F
:101E800092E00E945A218091400180933702809114
:101E90003F0180932702109229010C94A60682E04C
:101EA00080932701C6CC909109019F5F909309010F
:101EB00090910901943010F08093090188E080939B
:101EC000360181E08093350110923A012B982C98CD
:101ED0002D9880913A0106CB809137028093400182
:101EE0008091270280933F014FE050E068E272E06A
:101EF00089E292E00E945A214FE050E068E172E0EE
:101F000089E192E00E945A21809140018093280249
:101F100080913F01809318020C94B00680913702A3
:101F2000809340018091270280933F014FE050E071
:101F300068E272E089E292E00E945A214FE050E0AC
:101F400068E172E089E192E00E945A2180914001AB
:101F50008093280280913F01809318020C94B5066B
:101F60008EE18093360181E08093350110923A0131
:101F70002B982C982D9810924C0180913A01B8CA58
:101F800080915101813009F4D7C0809107018F5FA2
:101F90008093070180910701823118F081E08093DE
:101FA000070110925101109238011092370187CD2C
:101FB000EB01F8828C918F5F8C93F8C8EB0118824B
:101FC0008C9181508C93F2C88091370280934001AC
:101FD0008091270280933F014FE050E068E272E079
:101FE00089E292E00E945A214FE050E068E172E0FD
:101FF00089E192E00E945A21809140018093280259
:1020000080913F018093180246CF80912B018093ED
:10201000280280912E01809318020C94550720937A
:1020200029011092370193CA1092370188C8209372
:1020300029011092370194C9209329011092370188
:10204000BEC9109229010C94BA062093290110925E
:10205000370112C860910B0186E090E00E94742164
:102060006091090185E090E00E947421609108016F
:1020700084E090E00E9474216091070183E090E089
:102080000E94742160914B0181E090E00E947421D4
:1020900060913E0180E090E00E94742188E080938E
:1020A000360181E08093350110923A012B982C98EB
:1020B0002D9880913A0119CA81E080934A010C94CD
:1020C000BD0710912B0140912701E42FF0E0C12FB3
:1020D000D0E0BF01655071092FEF30E0C9010E94C7
:1020E000CE1EC617D7070CF45CC065E070E06E1B0F
:1020F0007F0BC9010E94CE1E160F10932B0186CEB6
:1021000010912B01E42FF0E0C12FD0E0BF0165500A
:1021100071092FEF30E0C9010E94CE1EC617D70704
:10212000ECF165E070E06E1B7F0BC9010E94CE1ED2
:10213000160F10932B016FCE809108018F5F809353
:102140000801809108018D3010F01092080181E0A3
:1021500080933901B4CC88E080930B01A1CC10921C
:102160003E01D1C991EF980F34C991EF980FF9C989
:1021700050918201609183016093820150938301A9
:102180004091840149C9309182014091830140937B
:102190008201309383012091840106CA10922B01A1
:1021A0003ACE10922B0132CE50918401409183019E
:1021B0004093840150938301609182012DC9309135
:1021C0008401209183012093840130938301409105
:1021D0008201EAC9409182013091830120918401FA
:1021E0000C94740830918401209183012093840120
:1021F00030938301409182010C9474080197806FA1
:102200009F6F0196B3C80197806F9F6F01960C94E2
:1022100044081F920F920FB60F9211242F933F93F1
:102220004F935F936F937F938F939F93AF93BF93DE
:10223000CF93DF93EF93FF9380918A0090918B006F
:1022400081509F4F90938B0080938A008091510121
:1022500020914F01309150018111A8C080914D0112
:1022600090914E012817390708F46CC080919001B5
:10227000811109C080918801882329F0809188010B
:1022800081508093880180919101811109C08091D2
:102290008901882329F080918901815080938901E7
:1022A00080919201811109C080918A01882329F0CF
:1022B00080918A01815080938A01809193018111DC
:1022C00009C080918B01882329F080918B01815076
:1022D00080938B0180919401811109C080918C01C0
:1022E000882329F080918C01815080938C0180910A
:1022F0009501811109C080918D01882329F0809179
:102300008D01815080938D0180919601811109C0CA
:1023100080918E01882329F080918E0181508093D5
:102320008E0180919701811109C080918F018823CE
:1023300029F080918F01815080938F01109250017C
:1023400010924F01809107018F3008F054C08091A6
:102350004F019091500101969093500180934F014D
:1023600080914201909143010196909343018093A3
:1023700042018091420190914301019621F4109213
:10238000430110924201FF91EF91DF91CF91BF91F4
:10239000AF919F918F917F916F915F914F913F91FD
:1023A0002F910F900FBE0F901F90189580914D01A7
:1023B00090914E012817390750F280910801813021
:1023C00009F45FC080910801823009F45AC08091FD
:1023D0000801893009F47FC0809108018A3009F42E
:1023E0007AC080910801843009F4ADC01092500188
:1023F00010924F01ACCF80910701823108F0A7CF36
:1024000080E090E04FE050E026C030914401231B73
:1024100011962C93DF01A80FB91FAE5ABE4F2C9115
:1024200030914401231708F44BC030914401231B21
:102430002C93E80FF91FEE5AFE4F22813091440190
:102440002317E0F130914401231B22830196803150
:10245000910509F47CCF20914501281799F1FC01E1
:10246000EE0FFF1FDF01A80FB91FAE5ABE4F119626
:102470002C91119730914401231738F611961C9234
:10248000C9CFC3E5D1E0A2E5B1E0E4E5F1E08881A0
:10249000882311F0815088838C91882311F081501A
:1024A0008C938081882311F081508083239613962A
:1024B000339671E0E438F70751F789CF1282C6CF1F
:1024C0001C92B7CF20914501BA01621B7109861792
:1024D000970729F6BBCFC3E5D1E0A2E5B1E0E4E57B
:1024E000F1E01EC090914401891B88838C919091EA
:1024F0004401981700F590914401891B8C938081C9
:10250000909144019817E8F490914401891B8083CD
:1025100023961396339681E0E438F80709F461CFE7
:102520008881909144019817E8F218828C919091DB
:102530004401981700F31C928081909144019817F0
:1025400018F31082E5CF10925301109252011092AD
:102550005401109256011092550110925701109299
:1025600059011092580110925A0110925C01109278
:102570005B0110925D0110925F0110925E0110925A
:102580006001109262011092610110926301109239
:102590006501109264011092660110926801109218
:1025A00067011092690110926B0110926A011092FA
:1025B0006C0110926E0110926D0110926F011092D9
:1025C00071011092700110927201109274011092B8
:1025D000730110927501109277011092760110929A
:1025E000780110927A011092790110927B01109279
:1025F0007D0110927C0110927E0110928001109258
:102600007F0110928101F2CE67E086E090E00E94A7
:10261000862161E085E090E00E94862161E084E00F
:1026200090E00E94862161E083E090E00E94862194
:1026300060E081E090E00E94862160E080E090E030
:102640000E9486216BE082E090E00E94862182E079
:1026500090E00E946C2180934C0186E090E00E9403
:102660006C2180930B0185E090E00E946C218093A7
:10267000090184E090E00E946C218093080183E0CE
:1026800090E00E946C218093070181E090E00E941D
:102690006C2180934B0180E090E00E946C2180933C
:1026A0003E010895CF93DF93CDB7DEB729970FB6DC
:1026B000F894DEBF0FBECDBF81E080938100809192
:1026C0006F00866080936F00289A299A409A5A98E2
:1026D000229A8CE384B98EE187B9529A82E090E025
:1026E0000E946C2180934C0180914C018B3011F041
:1026F0000C94661E86E090E00E946C2180930B0192
:1027000085E090E00E946C218093090184E090E0D4
:102710000E946C218093080181E090E00E946C216E
:1027200080934B0183E090E00E946C21809307012D
:1027300080E090E00E946C2180933E0180914B01EB
:10274000882319F081E080934A0181E0809306019B
:1027500090910A0180910B01989FC00111249093E0
:102760004E0180934D0189E08093450178941A824F
:1027700019822BE732E03C832B83AFE02A2E312CE9
:1027800080914C01882311F40C943E19AB81BC81DB
:10279000E0E0F1E01D923197E9F785E680937C0057
:1027A0002BE732E03C832B83F90126EF20937A005C
:1027B00080917A0084FFFCCF80917800909179001D
:1027C00090588193919333E0EB37F30779F71092A8
:1027D0007A002F923F924F925F92FF920F931F9336
:1027E000CF93DF93CBE7D2E0E6EEF1E0FF2440E8C1
:1027F0006591759108811981970320010E034F1C83
:1028000010019E035F08300C411C5F1CF8035F0839
:10281000300C411C5F1C499259924A9549F7DF914F
:10282000CF911F910F91FF905F904F903F902F900D
:1028300011242F923F926F927F92CF93DF93E6EE17
:10284000F5E048E3A591BB27AA0FBB1FA558BD4FD4
:102850002D903C90C591DD27CC0FDD1FC558DD4F75
:10286000688079807C926E92288239824A9551F7ED
:10287000DF91CF917F906F903F902F902F923F925A
:102880004F925F926F927F928F929F92AF92BF9280
:10289000CF92DF92EF92FF920F931F93CF93DF932C
:1028A000FF2400E1E02ECBE7D2E0688079804A8007
:1028B0005B8075946794430155944794640C751C30
:1028C00084189508AC80BD804E805F80B594A79435
:1028D000650155944794A40CB51CC418D5086885A7
:1028E00079854A845B84759567958B0155944794E7
:1028F000640D751D041915098C859D854E845F84B2
:10290000959587959C0155944794840D951D2419A0
:102910003509759467942301B594A7946A0C7B1CC0
:102920004A185B08959487945401D594C7948C0CED
:102930009D1CAC18BD08759567956B01959587959D
:10294000680F791FC81AD90A759467941301759591
:102950006795660E771E261A370A42E85AE5150370
:10296000C001049FB00114039F09700D811D9F1DBC
:10297000509F700D811D9F1D959487948401880E32
:10298000991E081B190B55944794D201D594C794EE
:102990004C0C5D1CAC19BD093503C001249FB0016E
:1029A00034039F09700D811D9F1D529F700D811D65
:1029B0009F1DB594A7946501A80EB91EC81AD90A1F
:1029C000699279928992999249925992A992B9926F
:1029D0002992399209931993A993B993C992D992DB
:1029E000EA9409F062CF00E2C02EDD2403E0902ECD
:1029F000E6E5F6E000E1A02EBB2404E0E02EABE724
:102A0000B2E0ED01CA0DDB1D8E2C2D903C9048806C
:102A1000598035942794310155944794640C751C62
:102A200024183508299239927C926E92AC0DBD1D06
:102A30001197EA94088119813C912E914591559105
:102A40006591759115022001049F100114035F0820
:102A5000300C411C5F1C509F300C411C5F1C370226
:102A60003001269F200C311C461C571C36035F0882
:102A7000300C411C5F1C729F300C411C5F1C0E010E
:102A8000CA19DB0928803980359427943101640CF8
:102A9000751C2418350868827982E00129923992E0
:102AA00017022001069F100116035F08300C411C1D
:102AB0005F1C709F300C411C5F1C35023001249F4D
:102AC000201831084608570834035F1C30184108A5
:102AD0005F08529F301841085F080D01AA19BB0911
:102AE0002D903C90359427943101640C751C24186A
:102AF00035087C926E92D0012D923C921297EA9406
:102B000009F098CFDE01AA19BB092D903C904880AE
:102B1000598035942794310155944794640C751C61
:102B200024183508288239827C926E92C5019695C8
:102B30008795C80FD91FCB37D90540F4DE01CA0DE0
:102B4000DB1DE82CEA19FB0934965FCF85FC06C033
:102B5000EA2CE6945601CC0CDD1C51CFDF91CF91CD
:102B60001F910F91FF90EF90DF90CF90BF90AF90AB
:102B70009F908F907F906F905F904F903F902F909D
:102B800011242F923F924F925F926F927F928F9279
:102B9000FF920F931F93CF93DF93ABE7B2E0C8E9A7
:102BA000D1E0EBE7F3E04F01FF2440E40D911D91EC
:102BB000980106C0F4010D911D91329122914F01AF
:102BC00011022001009F100198035F08300C411C86
:102BD0005F1C33023001229F200C311C461C571C05
:102BE000BA035F08300C411C5F1C1127552061F0AF
:102BF00018E0F201F03428F5330CEE1FFF1F330C00
:102C0000EE1FFF1F1A951DC0442069F014E0F42D3B
:102C1000E32DF034B0F4220CEE1FFF1F220CEE1F48
:102C2000FF1F1A95F6CFF101F03458F4F03160F43B
:102C3000F13078F0F295E295EF70EF2BE695F1E048
:102C400008C0EF2FF2E005C0EE0FFF1FEF2FE06886
:102C5000F1E0EA51FD4F04912227112321F0000FEA
:102C6000221F1A95E1F7099329934A9509F0A2CFFB
:102C7000DF91CF911F910F91FF908F907F906F9078
:102C80005F904F903F902F901124612C712C412C1C
:102C9000512CC12CD12CE12CF12C00E010E020E0D3
:102CA00030E0812C912CE8E9F1E041E050E080E057
:102CB00090E03F832E83F987E88707C040345105B1
:102CC00049F14F5F5F4FE885F98521913191F9878F
:102CD000E887BA01625071096F33710578F76C5C4F
:102CE0007F4FFB010C94E21E5901A80EB91E60ED46
:102CF000A61667E4B60608F020C2ADECBCEC0E9454
:102D0000E81E96958795969587958A0D9B1D40346C
:102D10005105B9F62E813F817092390260923802D6
:102D200050923B0240923A02D0923D02C0923C0245
:102D3000F0923F02E0923E02109341020093400263
:102D400030934302209342029092450280924402C3
:102D5000909347028093460280915101813009F49B
:102D600011C680915101811155C2809109018130B4
:102D700009F486C66091090170E088EC90E00E9439
:102D8000CE1EFB018091380290913902813D57E0BF
:102D9000950708F472C6805D9740BF010E94BA1E75
:102DA0008B0170933902609338028091050190E0A5
:102DB0008617970708F05EC6809105016B01C81A57
:102DC000D10809F457C680913A0290913B02813DA7
:102DD00067E0960708F44BC6805D9740BF010E94EC
:102DE000BA1E70933B0260933A028091050190E015
:102DF0008617970708F052C6809105019B01281B92
:102E00003109F22E432F2C153D0510F4FC2C4D2DCD
:102E100080913C0290913D02813D77E0970708F454
:102E20003AC6805D9740BF010E94BA1E70933D0272
:102E300060933C028091050190E08617970728F483
:102E4000809105019B01281B3109CF2CD42EC2167D
:102E5000D30608F4690180913E0290913F02813DC2
:102E6000A7E09A0708F414C6805D9740BF010E944E
:102E7000BA1E70933F0260933E028091050190E07C
:102E80008617970728F4809105019B01281B3109BB
:102E9000C216D30608F46901809140029091410264
:102EA000813DB7E09B0708F4F0C5805D9740BF0106
:102EB0000E94BA1E70934102609340028091050106
:102EC00090E08617970728F4809105019B01281B45
:102ED0003109C216D30608F469018091420290912B
:102EE0004302813D47E0940708F4DAC5805D9740CE
:102EF000BF010E94BA1E7093430260934202809108
:102F0000050190E08617970728F4809105019B0141
:102F1000281B31097601C216D30608F47901809185
:102F2000440290914502813D57E0950708F424C57D
:102F3000805D9740BF010E94BA1E70934502609366
:102F400044028091050190E08617970728F480914C
:102F500005019B01281B3109E216F30608F47901EB
:102F60008091460290914702813D67E0960708F400
:102F700006C5805D9740BF010E94BA1E709347024C
:102F8000609346028091050190E08617970728F428
:102F9000809105019B01281B3109FA82E982E21622
:102FA000F30610F43A832983C801E12C21E000E004
:102FB00010E032E0F32EC980DA80B22E1EC0FA0192
:102FC000E857FE4F208130E08217930708F44FC086
:102FD0008083EE2009F44DC0FC92080F191F88E091
:102FE000B81609F46CC1AB2DB0E0AA0FBB1FA85CEA
:102FF000BD4F8D919C91B394E394209109014E2D86
:1030000050E0213009F4B2C08C159D0508F4A2C02F
:103010008C199D099A01220F331FD901A85CBD4F5D
:103020008D939C936091050170E06817790740F4D7
:103030008091050190E0F901E85CFD4F9183808368
:10304000DA01A057BE4F6C91662309F4B8CF7FEF29
:10305000760F7C93FA01E857FE4F208130E082170B
:10306000930708F0B5CF772311F062506C93E1100D
:10307000B4CF1C92080F191FB6CF820E931EF0ED2D
:103080008F16F7E49F0608F41CCE3FEC832E37E43E
:10309000932E17CEEE81FF81E20FF31FFF83EE83A5
:1030A000E03DF74408F40DCEEFECF7E4FF83EE8348
:1030B00008CE020F131F003DF7E41F0708F401CEEE
:1030C0000FEC17E4FECDE20EF31EE0EDEE16E7E4A2
:1030D000FE0608F4F6CD6FECE62E67E4F62EF1CD91
:1030E000C20ED31EB0EDCB16B7E4DB0608F4E9CD73
:1030F0007FECC72E77E4D72EE4CDB901640D751DA2
:10310000603DA7E47A0708F5290156944794569440
:10311000479456944794460E571ED3CDB901660D79
:10312000771D603DF7E47F0758F439017694679482
:1031300076946794660E771EC4CD8FEC97E4BECD6F
:103140003FEC632E37E4732EBCCD2FEC422E27E4E8
:10315000522EB7CDDA01AA0FBB1FA85CBD4F1D923E
:103160001C928091050180E090E06ACF813D77E07C
:10317000970708F4A1C09C01205D3740A3E8BDE299
:103180000E94E81E96958795929582958F70892763
:103190009F7089273FCFA092440120914701285F6B
:1031A000213108F02FE08091470190E008171907BE
:1031B00008F051C3809145018217C0F430E0F90155
:1031C000EE0FFF1FE20FF31FEE5AFE4F1182108227
:1031D0001282C101821B930BFC01EE0FFF1FE80F4F
:1031E000F91FEE5AFE4F118210821282E394F8E02A
:1031F000FE1508F4E12C21E0F21609F4FAC2DA9483
:1032000009F08FC03FEF631A730A4FE1840E58EF45
:1032100085127AC0F89460E170E082E591E00E9446
:10322000F204789480913A0290913B02892B51F5F7
:1032300080913C0290913D02892B21F580913E02C4
:1032400090913F02892BF1F48091400290914102CC
:10325000892BC1F48091420290914302892B91F411
:103260008091440290914502892B61F481E0809322
:10327000480280914C0181110C94C6130E940413E2
:103280000C94C61380915101882321F010925001B3
:1032900010924F0190910A0180910B01989FC001FB
:1032A000112490934E0180934D0110924802109288
:1032B00051015A980C94C01380E090E0ABCE10926C
:1032C0004701809107018F3098F08091070182318A
:1032D00078F49801ABEABAEA0E94E81E8C011695D0
:1032E0000795169507950131110510F000E110E0E2
:1032F000812C612C712CFF24F394E12C44244A94FA
:103300006FE0C62E55245A9442E0D42E55E0A52EE7
:103310006FE1962E70E1B72E930128573E4F3F8301
:103320002E83509286018091070190E0FC01319735
:10333000E131F10508F05ACFED58FF4F0C94E21E31
:10334000A092440120914701285F213108F02FE02D
:103350008091470190E00817190708F42BCF80915E
:103360004701A0E3B0E0A81BB109CD01880F80930D
:103370008501509287014CE051E062E871E085E8F8
:1033800091E02D830E94BA0380913E012D8181300E
:1033900009F4D9C4823009F4CBC450918201409120
:1033A000830130918401822F90E0FC01EE0FFF1F1A
:1033B000E80FF91FEE5AFE4F518340833283F1012B
:1033C000E81BF90BCF01EE0FFF1FE80FF91FEE5AB4
:1033D000FE4F5183408332838091470190E08017F4
:1033E000910709F003CF80914501281710F0209331
:1033F00045018091450190E0FC01EE0FFF1FE80FB1
:10340000F91FEE5AFE4F41828091450190E0FC0188
:10341000EE0FFF1FE80FF91FEE5AFE4F108280914A
:10342000450190E0FC01EE0FFF1FE80FF91FEE5A77
:10343000FE4F1282809145019101281B3109C9017B
:10344000F901EE0FFF1FE80FF91FEE5AFE4F418200
:1034500080914501A101481B5109FA01EE0FFF1FA0
:10346000E40FF51FEE5AFE4F108280914501B10125
:10347000681B7109CB0177C280928501BFE18B1671
:1034800009F44CC4AE81BF81EC91F0E0EA55FE4FE7
:1034900085919491809387014CE051E062E871E05E
:1034A00085E891E00E94BA0380913E01813009F4E1
:1034B000B3C1823009F02BC4309182014091830165
:1034C000409382013093830120918401B1E0809187
:1034D0004701FB1609F49EC1EC2DE81B8E2FFF243B
:1034E000F39490E0FC01EE0FFF1FE80FF91FEE5A76
:1034F000FE4F41833083228379CEAE81BF818C9190
:10350000EFE3F0E0E81BF109CF01880F809385011C
:10351000EC91F0E0EA55FE4F8591949180938701FC
:103520004CE051E062E871E085E891E00E94BA0366
:1035300080913E01813009F47AC1823009F0F1C3F3
:103540003091820140918301409382013093830145
:1035500020918401F1E080914701FF1609F45AC1DE
:103560005C2D581B852FFF24F394BBCFAE81BF8108
:103570008C91880F8F578093850186CF8091480169
:103580009091490190914701980F909385017ACFCE
:103590008091480190914901880D80938501AE8109
:1035A000BF8172CF8091480190914901880D80932D
:1035B0008501AE81BF81EC91F0E0EA55FE4F859127
:1035C0009491809387014CE051E062E871E085E8D6
:1035D00091E00E94BA0380913E01813009F40FC14D
:1035E000823009F08DC33091820140918301409374
:1035F000820130938301209184018091470190E002
:10360000FC01EE0FFF1FE80FF91FEE5AFE4F41833A
:103610008091470190E0FC01EE0FFF1FE80FF91FBA
:10362000EE5AFE4F30838091470190E0FC01EE0F8F
:10363000FF1FE80FF91FEE5AFE4F2283D7CD80916E
:1036400048019091490180938501AE81BF81EC9141
:10365000B3CF809285019FE1891609F434C3AE810E
:10366000BF81EC91A9CF53E0509344018091480170
:1036700090914901809385015092870120914701E3
:10368000285F213108F02FE04CE051E062E871E062
:1036900085E891E02D830E94BA0380913E012D813F
:1036A000813009F4CFC0823041F480918201909141
:1036B000830190938201809383018091470190E080
:1036C0008017910709F092CD80914501281710F0DD
:1036D00020934501809145012091820190E0FC01F9
:1036E000EE0FFF1FE80FF91FEE5AFE4F2183809166
:1036F00045013091830190E0FC01EE0FFF1FE80FC0
:10370000F91FEE5AFE4F30838091450140918401AC
:1037100090E0FC01EE0FFF1FE80FF91FEE5AFE4F7D
:10372000428380914501B101681B7109CB01FB0106
:10373000EE0FFF1FE80FF91FEE5AFE4F2183809115
:103740004501D101A81BB109FD01EE0FFF1FEA0FD2
:10375000FB1FEE5AFE4F308380914501F101E81BBB
:10376000F109CF01EE0FFF1FE80FF91FEE5AFE4FD0
:1037700042833CCDEE81FF818081880F8F578093FB
:103780008501E08119CF8091480190914901880D10
:1037900080938501EE2DF0E0E857FE4FE0810CCFDD
:1037A000809285016FE18612F5CFB0928501F2CF4C
:1037B000809148019091490190914701980F909311
:1037C0008501E8CFEE81FF8180812FE330E0281B67
:1037D0003109C901880F80938501E081EDCE809188
:1037E00048019091490190914701980F909385016C
:1037F00036CF809147018F5F8093470100CD309194
:1038000084012091830120938401309383014091AE
:103810008201F3CEF12C65CE309184012091830199
:103820002093840130938301409182014FCE3091E7
:10383000840120918301209384013093830140917E
:10384000820188CE809184019091830190938401BC
:103850008093830132CF80914701899D802D11246F
:1038600080938501509287014CE051E062E871E05D
:1038700085E891E02D830E94BA0380913E012D815D
:10388000813009F432C2823009F424C2509182019D
:103890004091830130918401822F90E0FC01EE0F72
:1038A000FF1FE80FF91FEE5AFE4F5183408332830A
:1038B000D101A81BB90BFD01EE0FFF1FEA0FFB1F83
:1038C000EE5AFE4F5183408332838091470190E04E
:1038D0008017910709F08ACC80914501281710F0D4
:1038E000209345018091450190E0FC01EE0FFF1F00
:1038F000E80FF91FEE5AFE4F41828091450190E09A
:10390000FC01EE0FFF1FE80FF91FEE5AFE4F108269
:103910008091450190E0FC01EE0FFF1FE80FF91FB9
:10392000EE5AFE4F128280914501F101E81BF10928
:10393000CF01EE0FFF1FE80FF91FEE5AFE4F418235
:10394000809145019101281B3109F901EE0FFF1FFC
:10395000E20FF31FEE5AFE4F108280914501A10144
:10396000481B5109CA01FC01EE0FFF1FE80FF91FA8
:10397000EE5AFE4F12823ACC80E090E0DBCA80E043
:1039800090E0F9CA71ED671677E0770608F079C123
:1039900010923902109238028091050180913A020A
:1039A00090913B02813DA7E09A0708F048C1109230
:1039B0003B0210923A028091050180913C02909165
:1039C0003D02813DB7E09B0708F017C110923D0210
:1039D00010923C028091050180913E0290913F023D
:1039E000813DE7E09E0708F0E6C010923F0210928A
:1039F0003E02809105018091400290914102813DFB
:103A0000F7E09F0708F0B5C0109241021092400203
:103A1000809105018091420290914302813D27E00F
:103A2000920708F084C010924302109242028091E3
:103A300005018091440290914502813D37E0930752
:103A400008F053C010924502109244028091050183
:103A50008091460290914702813D47E0940718F516
:103A60001092470210924602809105017AC980E0C7
:103A700090E0B4C9C12CD12CA6C980E090E08DC9DA
:103A8000809138029091390290CA80E090E00FCA8C
:103A900080E090E0EBC980E090E0C5C99601B1C933
:103AA00080E090E025CA9C01205D3740A3E8BDE29C
:103AB0000E94E81E96958795929582958F7089272A
:103AC0009F708927909347028093460220910501B9
:103AD00030E02817390708F044C98091050190E0CB
:103AE00090934702809346023CC99C01205D374079
:103AF000A3E8BDE20E94E81E96958795929582956F
:103B00008F7089279F708927909345028093440284
:103B10002091050130E02817390708F099CF8091EE
:103B2000050190E0909345028093440291CF9C015F
:103B3000205D3740A3E8BDE20E94E81E9695879578
:103B4000929582958F7089279F7089279093430261
:103B5000809342022091050130E02817390708F0D0
:103B600068CF8091050190E09093430280934202D8
:103B700060CF9C01205D3740A3E8BDE20E94E81EB3
:103B800096958795929582958F7089279F70892742
:103B900090934102809340022091050130E0281764
:103BA000390708F037CF8091050190E090934102EA
:103BB000809340022FCF9C01205D3740A3E8BDE2F7
:103BC0000E94E81E96958795929582958F70892719
:103BD0009F70892790933F0280933E0220910501B8
:103BE00030E02817390708F006CF8091050190E0F2
:103BF00090933F0280933E02FECE9C01205D3740B1
:103C0000A3E8BDE20E94E81E96958795929582955D
:103C10008F7089279F70892790933D0280933C0283
:103C20002091050130E02817390708F0D5CE8091A2
:103C3000050190E090933D0280933C02CDCE9C0123
:103C4000205D3740A3E8BDE20E94E81E9695879567
:103C5000929582958F7089279F70892790933B0258
:103C600080933A022091050130E02817390708F0C7
:103C7000A4CE8091050190E090933B0280933A029C
:103C80009CCE9301205D3740A3E8BDE20E94E81E70
:103C900096958795929582958F7089279F70892731
:103CA00090933902809338022091050130E0281763
:103CB000390708F073CE8091050190E090933902A6
:103CC000809338026BCEB0928501C9CC0E94041358
:103CD0000C949E1340918201509183015093820174
:103CE0004093830130918401D7CD4091840130917C
:103CF0008301309384014093830150918201CCCDA4
:103D000040918201309183012091840176CC4091D1
:103D100082013091830120918401D8CBB09285013A
:103D2000B1CB40918201309183012091840112CC6A
:103D3000409182015091830150938201409383010D
:103D40003091840130CB40918401309183013093D4
:103D50008401409383015091820125CB991B79E026
:103D600004C0991F961708F0961B881F7A95C9F70B
:103D700080950895AA1BBB1B51E107C0AA1FBB1F5A
:103D8000A617B70710F0A61BB70B881F991F5A95E7
:103D9000A9F780959095BC01CD01089597FB072E5A
:103DA00016F4009407D077FD09D00E94BA1E07FCD4
:103DB00005D03EF4909581959F4F0895709561953B
:103DC0007F4F0895EE0FFF1F0590F491E02D0994A9
:103DD000A29FB001B39FC001A39F700D811D11244C
:103DE000911DB29F700D811D1124911D0895505891
:103DF000BB27AA270ED0E0C0D1D030F0D6D020F01B
:103E000031F49F3F11F41EF4C6C00EF4E095E7FBB9
:103E1000BCC0E92FE2D080F3BA17620773078407AA
:103E2000950718F071F49EF5FAC00EF4E0950B2E8C
:103E3000BA2FA02D0B01B90190010C01CA01A001FC
:103E40001124FF27591B99F0593F50F4503E68F157
:103E50001A16F040A22F232F342F4427585FF3CF98
:103E6000469537952795A795F0405395C9F77EF469
:103E70001F16BA0B620B730B840BBAF09150A1F0B2
:103E8000FF0FBB1F661F771F881FC2F70EC0BA0F38
:103E9000621F731F841F48F4879577956795B795C0
:103EA000F7959E3F08F0B3CF9395880F08F09927B8
:103EB000EE0F97958795089598D088F09F5790F0CA
:103EC000B92F9927B751A0F0D1F0660F771F881F3F
:103ED000991F1AF0BA95C9F712C0B13081F09FD07E
:103EE000B1E008959CC0672F782F8827B85F39F01C
:103EF000B93FCCF3869577956795B395D9F73EF49E
:103F000090958095709561957F4F8F4F9F4F089545
:103F1000E89409C097FB3EF4909580957095619563
:103F20007F4F8F4F9F4F9923A9F0F92F96E9BB2719
:103F30009395F695879577956795B795F111F8CF95
:103F4000FAF4BB0F11F460FF1BC06F5F7F4F8F4F00
:103F50009F4F16C0882311F096E911C0772321F0F6
:103F60009EE8872F762F05C0662371F096E8862F8E
:103F700070E060E02AF09A95660F771F881FDAF7E5
:103F8000880F9695879597F9089597F99F6780E828
:103F900070E060E008959FEF80EC089500240A949B
:103FA0001616170618060906089500240A94121614
:103FB0001306140605060895092E0394000C11F447
:103FC000882352F0BB0F40F4BF2B11F460FF04C0F4
:103FD0006F5F7F4F8F4F9F4F089557FD9058440F4D
:103FE000551F59F05F3F71F04795880F97FB991F58
:103FF00061F09F3F79F08795089512161306140615
:10400000551FF2CF4695F1DF08C0161617061806A1
:10401000991FF1CF86957105610508940895E8947C
:10402000BB2766277727CB0197F908950BD0C4CF1C
:10403000B5DF28F0BADF18F0952309F0A6CFABCF93
:104040001124EECFCADFA0F3959FD1F3950F50E076
:10405000551F629FF001729FBB27F00DB11D639F3A
:10406000AA27F00DB11DAA1F649F6627B00DA11DE0
:10407000661F829F2227B00DA11D621F739FB00D86
:10408000A11D621F839FA00D611D221F749F3327F6
:10409000A00D611D231F849F600D211D822F762F8F
:1040A0006A2F11249F5750408AF0E1F088234AF08C
:1040B000EE0FFF1FBB1F661F771F881F91505040D8
:1040C000A9F79E3F510570F060CFAACF5F3FECF398
:1040D000983EDCF3869577956795B795F795E795C4
:1040E0009F5FC1F7FE2B880F911D9695879597F9D5
:1040F00008959F9305D00F9007FCEE5F28C04BCF2B
:1041000074DFE8F3E894E0E0BB279F57F0F02AED76
:104110003FE049EC06C0EE0FBB0F661F771F881FFC
:1041200028F0B23A62077307840728F0B25A620B8C
:10413000730B840BE3959A9572F7803830F49A9557
:10414000BB0F661F771F881FD2F7904813C0EF93ED
:10415000E0FF06C0A2EA2AED3FE049EC5FEB59DE42
:104160002BDF0F90039401FC9058E8E0F1E00EC0C3
:104170009F3F31F0915020F4879577956795B795DB
:10418000880F911D9695879597F908959F938F9322
:104190007F936F93FF93EF939B01AC0147DFEF9108
:1041A000FF9105D02F913F914F915F913FCFDF93CA
:1041B000CF931F930F93FF92EF92DF927B018C01BD
:1041C000689405C0DA2EEF013DDFFE01E894A59169
:1041D0002591359145915591AEF3EF011ADEFE011F
:1041E0009701A801DA9479F7DF90EF90FF900F9193
:1041F0001F91CF91DF9108958F929F92AF92BF92BE
:10420000CF92DF92EF92FF92CF93DF93EC01688120
:1042100079818A819B81611571058105910521F460
:1042200064E279ED8BE597E02DE133EF41E050E07A
:104230000E949D2149015A019B01AC01A7EAB1E40A
:104240000E94BC216B017C01ACEEB4EFA50194018E
:104250000E94CA21C60ED71EE81EF91EF7FE06C030
:1042600081E0C81AD108E10880E8F80AC882D9823A
:10427000EA82FB82C6019F77DF91CF91FF90EF909A
:10428000DF90CF90BF90AF909F908F9008950E9445
:10429000FC20089580E091E00E94FC200895A0E0B9
:1042A000B0E08093000190930101A0930201B093CC
:1042B000030108956817790768F4FB01DC01E40F36
:1042C000F51FA40FB51F02C002900E92415050403E
:1042D000D8F708950C949421F999FECF92BD81BD31
:1042E000F89A992780B50895262FF999FECF92BDA7
:1042F00081BDF89A019700B4021639F01FBA20BDAB
:104300000FB6F894FA9AF99A0FBE0895262FF999E4
:10431000FECF1FBA92BD81BD20BD0FB6F894FA9AA8
:10432000F99A0FBE01960895FB01DC0102C00190CD
:104330000D9241505040D8F70895052E97FB1EF47A
:1043400000940E94B42157FD07D00E94CF2107FCA2
:1043500003D04EF40C94B42150954095309521959E
:104360003F4F4F4F5F4F08959095809570956195A1
:104370007F4F8F4F9F4F08950E94E81EA59F900D7D
:10438000B49F900DA49F800D911D11240895B7FF37
:104390000C94BC210E94BC21821B930B0895A1E2C6
:1043A0001A2EAA1BBB1BFD010DC0AA1FBB1FEE1FAF
:1043B000FF1FA217B307E407F50720F0A21BB30BFA
:1043C000E40BF50B661F771F881F991F1A9469F776
:1043D00060957095809590959B01AC01BD01CF01D2
:0643E0000895F894FFCFE0
:1043E60001000000043F01010101460708FF00002B
:1043F600FF8000FFFF0000FF0000FFFF0000FF80BE
:0644060000FFFF000000B2
:00000001FF
