:100000000C949B030C94B8030C94B8030C94B803A1
:100010000C94B8030C94B8030C94B8030C94B80374
:100020000C94B8030C94B8030C94B8030C942205F8
:100030000C9459100C94B8030C94B8030C94B803A6
:100040000C94B8030C94B8030C94B8030C94B80344
:100050000C94B8030C94B8030C94B8030C94B80334
:100060000C94B8030C94B8038B177A176D176D179F
:1000700060176017601756175617561756175617FA
:100080005B1547174717471747174717471747176E
:10009000471747173A173A173A173A173A173A17BE
:1000A0003A173A173A173A173A173A173A173A17C8
:1000B0003A17711571157115711571157115711545
:1000C0007115711571157115711571157115711500
:1000D00071157115711571157115711571157115F0
:1000E0007115711571153D1ACB1A1C1A301A271A81
:1000F000D8199919021AF819F219E519141A0C1AD3
:100100004819A618C817451A05A84CCDB2D44EB93F
:100110003836A9020C50B9918688083CA6AAAA2AAA
:10012000BE000000803F0000000000000000000052
:1001300000000000000000000000000000010101BC
:10014000010101010101010101010102020202029A
:100150000202020303030303040404040505050566
:100160000606060707080809090A0A0B0B0C0D0DFD
:100170000E0F1011121314151617181A1B1D1F201D
:10018000222426282A2D2F3235383B3E4245494D20
:1001900052565B60666B71777E858D949DA5AFB876
:1001A000C3CED9E5F2FF000000000000000000000F
:1001B0000000000101010101020202020303030425
:1001C000040505060708090A0B0C0D0F1113151776
:1001D0001A1D2024282D32383E454D56606B7785F8
:1001E00094A5B8CEE5FF000014005000B400400113
:1001F000F301CD02CD03F3043D06AD073F09F40A38
:10020000C90CBF0ED41007135515BE17411ADB1CBD
:100210008B1F502227250F28062B0A2E1931323426
:100220005237773AA03DCB40F5431C473F4A5C4DDF
:1002300070507A5378566759475C155FCF61756483
:1002400003677969D66B166E3A703F722674EB7548
:100250008F770F796D7AA57BB87CA57D6C7E0B7F3F
:10026000837FD37FFB7FFB7FD37F837F0B7F6C7E7E
:10027000A57DB87CA57B6D7A0F798F77EB75267499
:100280003F723A70166ED66B796903677564CF61F9
:10029000155F475C675978567A5370505C4D3F4AFA
:1002A0001C47F543CB40A03D773A523732341931E1
:1002B0000A2E062B0F28272550228B1FDB1C411AE4
:1002C000BE1755150713D410BF0EC90CF40A3F0909
:1002D000AD073D06F304CD03CD02F3014001B400A8
:1002E0005000140000000001010202020203030397
:1002F00003030304040404040404040505050505BC
:100300000505050505060606060606060606060692
:10031000060707070707070707070707070707086D
:10032000080808080808080808080808080808094C
:10033000090909090909090909090909090909092D
:10034000090A0A0A0A0A0A0A0A0A0A0A0A0A0A0A0E
:100350000A0A0A0A0A0B0B0B0B0B0B0B0B0B0B0BF2
:100360000B0B0B0B0B0B0B0B0B0B0B0C0C0C0C0CD8
:100370000C0C0C0C0C0C0C0C0C0C0C0C0C0C0C0CBD
:100380000C0C0C0D0D0D0D0D0D0D0D0D0D0D0D0DA0
:100390000D0D0D0D0D0D0D0D0D0D0D0D0D0E0E0E8A
:1003A0000E0E0E0E0E0E0E0E0E0E0E0E0E0E0E0E6D
:1003B0000E0E0E0E0E0E0E0E0E0F0F0F0F0F0F0F56
:1003C0000F0F0F0F0F0F0F0F0F0F0F0F0F0F0F0F3D
:1003D0000F0F0F0F0F0F0F10101010101010101024
:1003E0001010101010100006080A0B0D0E0F10113F
:1003F00012131414151617171819191A1B1B1C1C85
:100400001D1D1E1E1F1F20202121222223232424E4
:100410002525262626272728282829292A2A2A2B5F
:100420002B2B2C2C2D2D2D2E2E2E2F2F2F303030F0
:10043000313131323232333333343434343535358B
:1004400036363637373737383838393939393A3A2E
:100450003A3B3B3B3B3C3C3C3C3D3D3D3D3E3E3ED8
:100460003E3F3F3F3F40000B101417191C1E202237
:10047000242627292A2C2D2F30313334353637398D
:100480003A3B3C3D3E3F4041424344454647484855
:10049000494A4B4C4D4E4E4F505152525354555564
:1004A00056575858595A5B5B5C5D5D5E5F5F606193
:1004B000616263636465656666676868696A6A6BDA
:1004C0006B6C6D6D6E6E6F6F707171727273737431
:1004D000747576767777787879797A7A7B7B7C7C95
:1004E0007D7D7E7E7F7F0010171C2024272A2D30E3
:1004F0003335373A3C3E4042444648494B4D4E50D6
:100500005253555658595B5C5D5F60616364656624
:1005100068696A6B6D6E6F707172737476777879D3
:100520007A7B7C7D7E7F80818283848586878889B3
:100530008A8B8B8C8D8E8F909192939494959697B5
:100540009899999A9B9C9D9E9E9FA0A1A2A2A3A4CC
:10055000A5A6A6A7A8A9A9AAABACACADAEAFAFB0F3
:10056000B1B1B2B3B4B4B5B6B6B7B8B9B9BABBBB2A
:10057000BCBDBDBEBFBFC0C1C1C2C3C3C4C5C5C66B
:10058000C7C7C8C8C9CACACBCCCCCDCECECFCFD0B6
:10059000D1D1D2D2D3D4D4D5D5D6D7D7D8D8D9DA09
:1005A000DADBDBDCDDDDDEDEDFDFE0E1E1E2E2E362
:1005B000E3E4E5E5E6E6E7E7E8E8E9EAEAEBEBECC1
:1005C000ECEDEDEEEEEFEFF0F1F1F2F2F3F3F4F427
:1005D000F5F5F6F6F7F7F8F8F9F9FAFAFBFBFCFC93
:1005E000FDFDFEFEFFFF7007780F74177C1F72275A
:1005F0007A2F76377E3F7147794F75577D5F7367E6
:100600007B6F6003680B64136C1B62236A2B663379
:100610006E3B6143694B65536D5B5005580D541536
:100620005C1D52255A2D56355E3D5145594D4001B0
:10063000480944114C1942214A2946314E393006A5
:10064000380E34163C1E32263A2E2002280A241276
:100650002C1A1004180C4276FC30825A825AFC3054
:1006600042768A7DF9184276FC306E6A1D47825ABE
:10067000825A1D476E6AFC304276F9188A7D627F85
:100680008C0C8A7DF9187D7A28254276FC30E3703F
:10069000573C6E6A1D47F2623451825A825A345175
:1006A000F2621D476E6A573CE370FC3042762825A3
:1006B0007D7AF9188A7D8C0C627FD97F4806627F2B
:1006C0008C0C9D7EC8128A7DF9182A7C1A1F7D7AAF
:1006D000282585781F2B4276FC30B673BA36E37036
:1006E000573CCA6DCE416E6A1D47D066404CF262DF
:1006F0003451D75EF655825A825AF655D75E345138
:10070000F262404CD0661D476E6ACE41CA6D573CBE
:10071000E370BA36B673FC3042761F2B85782825F5
:100720007D7A1A1F2A7CF9188A7DC8129D7E8C0C4E
:10073000627F4806D97F11241FBECFEFD8E0DEBF0D
:10074000CDBF11E0A0E0B1E0E2E0F1E402C005902D
:100750000D92A632B107D9F723E0A6E2B1E001C0BD
:100760001D92A13CB207E1F70E944F120C947F202A
:100770000C9400002F923F924F925F926F927F9263
:100780008F929F92AF92BF92CF92DF92EF92FF92A1
:100790000F931F93CF93DF93EC017B01FA018080CD
:1007A000912C80E091E0B4010E94F41C6B018881DF
:1007B0000E94D41C282F30E041E0841A91082815AB
:1007C000390509F408C18F5F082F10E03901660C64
:1007D000771CD301A20FB31FAE0FBF1F11963C9021
:1007E000832C912CA92EB12CDD242801440C551CFE
:1007F000D201A00FB11FAE0FBF1F11964C9150E058
:10080000481959094A9DC0014B9D900D5A9D900D64
:100810001124B6010E94F41C860E971E97FCDEC0C0
:100820008FEF8816910411F00CF0CCC0630D2224D8
:100830002A94312C261A3108D301A20FB31FAE0F10
:10084000BF1F12967C90872C912CD201A00FB11F54
:10085000AE0FBF1F12964C9150E048195909A49E43
:10086000C001A59E900DB49E900D1124B6010E946A
:10087000F41C860E971E4FEF8416910411F00CF0B5
:10088000A4C0760E88248A94912C871891082F5F33
:100890003F4FD901AA0FBB1FA20FB31FAE0FBF1F3F
:1008A0007C90272D30E00F5F1F4FD801AA0FBB1F90
:1008B000A00FB11FAE0FBF1F4C9150E0421B530B56
:1008C000A49EC001A59E900DB49E900D1124B6016A
:1008D0000E94F41C260F371F2F3F310511F00CF03A
:1008E00077C0760EEFEFF0E0E719F109498150E0AB
:1008F000249E9001259E300D349E300D1124A1E8D8
:10090000B0E80E940E1D880F892F881F990B9195C2
:10091000082F0095849E9001859E300D949E300D89
:1009200011240E940E1D880F892F881F990B919505
:10093000182F1095E49F9001E59F300DF49F300D26
:1009400011240E940E1D880F892F881F990B9195E5
:10095000482F40952A81029F900111240E940E1D6C
:10096000880F892F881F990B9195F70180832A8121
:10097000129F900111240E940E1D880F892F881F3D
:10098000990B919581832A81429F900111240E94A5
:100990000E1D880F892F881F990B91958283DF91F7
:1009A000CF911F910F91FF90EF90DF90CF90BF906C
:1009B000AF909F908F907F906F905F904F903F90FF
:1009C0002F900895212C312C37CF812C912C5FCF83
:1009D000E0E0F0E08BCF00E010E0F8CE22242A9493
:1009E000312C2ACF9B01220F331F260F371F3C9A31
:1009F00048B14F7E58B150616FB7F8942115310559
:100A0000C9F0FC01820F931F219138E058B9000012
:100A100000C000C027FF48B9220F000000C000C07E
:100A200000C000C048B9000000C03A9579F7E81747
:100A3000F90751F76FBF89EF90E00197F1F700C018
:100A4000000008951F920F920FB60F921124AF92DB
:100A5000BF92CF92DF92EF92FF920F931F932F934B
:100A60003F934F935F936F937F938F939F93AF9336
:100A7000BF93CF93DF93EF93FF9380918800909182
:100A800089000197909389008093880080914601A6
:100A9000882329F0809146018150809346018091FE
:100AA0004601811115C0809148019091490101963C
:100AB00090934901809348018091480190914901A8
:100AC0008F3F910511F008F0F6C089E08093460150
:100AD00080910401882319F1815080930401809151
:100AE0000601813009F4ECC0FF91EF91DF91CF91C5
:100AF000BF91AF919F918F917F916F915F914F9136
:100B00003F912F911F910F91FF90EF90DF90CF9029
:100B1000BF90AF900F900FBE0F901F90189584E07C
:100B200080930401809107018F30C8F080915101BA
:100B3000811115C080913D0181110BC68091450145
:100B40008D3028F08091450181508093450184E0EB
:100B500080933D0180910701813109F45FC6189BA4
:100B600005C0309B03C0199910923C0118990DC023
:100B7000309B0BC0199B09C090913B019B3428F41A
:100B800081E080933A0180933C01189B0EC030991C
:100B90000CC0199B0AC090913B019B3430F482E059
:100BA00080933A0181E080933C0118990EC03099FE
:100BB0000CC0199B0AC090913B019B3430F483E038
:100BC00080933A0181E080933C01189963C0809141
:100BD0003A0190913C01811157C1913009F40BC445
:100BE00010923B0180913501813009F4F9C3809165
:100BF0004A01813009F478C380913C01813009F4C5
:100C000071C32A9880914B01882309F478C08091A0
:100C100032018F5F80933201873309F470C1809174
:100C20004B01813009F45EC1823029F48091310199
:100C3000883209F45CC180913001813009F061C0D3
:100C400080915101813009F499C5809142019091C0
:100C500043010E94DD1F8091070180932F01909135
:100C60000701981310C0CEE0D0E00E94D81FBE014B
:100C70000E94F41C8F5F809307018091070190917F
:100C80002F01981791F31092510110923801109290
:100C9000300137C0309B9BCF199999CF90913B0180
:100CA0009B3408F094CF84E080933A0181E08093F4
:100CB0003C0184E0A2C3109249011092480105CF83
:100CC00080910B01863009F41EC508F404C18730F9
:100CD00009F415C5883019F42B9A2C9A2D9A809115
:100CE0000901823009F49CC4833009F49DC4813029
:100CF00019F4419A4298439810920601F5CE109249
:100D0000310180917002813009F44AC31092380198
:100D100080913901813009F4FAC080910801813055
:100D200009F45EC180910801823009F4BDC380914D
:100D30000801833009F446C080910801873009F426
:100D400041C0809108018830E9F180910801843028
:100D500009F47BC380910801853009F417C48091A0
:100D60000801863009F4CCC280910801893009F469
:100D7000FBC1809108018A3009F497C18091080174
:100D80008B3009F46BC2809108018C3009F0A7CE3A
:100D900080915101813009F0A2CE80912B018931DF
:100DA00018F48F5F80932B01E4E5F1E0DF011197E8
:100DB0008C9311978C938083339641E0EC39F40740
:100DC000A9F78DCE80915101813009F0BECF80917D
:100DD00037018F5F80933701813009F466C78091B6
:100DE0002901813009F0B1CF8091410181110C942A
:100DF0003F0F80912B0180935F0280912E018093A1
:100E0000470200E312E078E4E72E72E0F72EC4E533
:100E1000D1E0DD24DA9412C020919A0190919B01D7
:100E200080919C01FE0131972083319790838883C4
:100E30002396F2E008341F0709F43CC7D8018D91CE
:100E40008D0180939D01D0929E01F70181917F01D8
:100E500080939F014CE051E06AE971E08DE991E0F7
:100E60000E94BA0380913E01813009F413C7823099
:100E700099F690919A0120919B0120939A01909369
:100E80009B0180919C01CECF9111A7CE90913B0107
:100E90009111A6CE813009F49AC4823009F4CBC7EF
:100EA000843009F09DCE80914B018F5F80934B0180
:100EB00080914B01833010F010924B0180914B01D7
:100EC00081110C94B70F10924A0181E080930601C2
:100ED00010923A0185CE853009F001CF2B982C98DD
:100EE0002D9AFDCE80913101843109F0A4CE10926B
:100EF00031011092320181E080933001A1CE8091C6
:100F000031018F5F809331011092320188CEE4E588
:100F1000F1E0DF0111971C9211971C921082339619
:100F2000D1E0EC39FD07A9F700E312E088E1F80110
:100F3000482F11924A95E9F798E4E92E92E0F92EAC
:100F4000D7011D928A95E9F7809142019091430162
:100F50000E94DD1F0E94D81F6FEF70E00E94F41CFA
:100F600080932E0187E190E090932D0180932C01D6
:100F700010922B0110922A01109237011092290130
:100F80001092400110923F01809141018111C5C32F
:100F900081E08093410180910801833009F448C3C6
:100FA00080910801873009F443C38091080188309B
:100FB00009F43EC380910801853009F402C580918F
:100FC0000801863009F4C8C580910801893009F408
:100FD0002FC51092390180910801813009F0A2CE0D
:100FE00080915101813009F09DCE209137012F5F12
:100FF0002093370188E190E090934E0180934D015A
:10100000213009F474C780912901813009F08ACE1A
:1010100080912C0190912D01873191050CF0E8C74A
:1010200097E1981B90932A01809148019091490182
:1010300080939D018FEF80939E0180939F014CE0F0
:1010400051E06AE971E08DE991E00E94BA03809174
:101050003E01813011F40C943010823009F4E4C761
:1010600040919A0130919B0120919C0180912A012D
:1010700090E0FC01EE0FFF1FE80FF91FEE5AFE4F44
:1010800041833083228380912C0190912D01019620
:1010900090932D0180932C018D9724F010922D01B7
:1010A00010922C01109229013DCE80915101813086
:1010B00009F064CE209137012F5F2093370186E03D
:1010C0008093440188E190E090934E0180934D011C
:1010D000213009F402C780912901813009F04ECEF8
:1010E0000E94D81F68E170E00E94F41C80932A01DE
:1010F0000E94D81F209148013091490168E770E0B3
:101100000E94F41C280F20939D018FEF80939E0175
:1011100080939F014CE051E06AE971E08DE991E034
:101120000E94BA0380913E01813009F4B0C7823039
:1011300009F0B8C730919A0140919B0140939A0100
:1011400030939B0120919C0180912A0190E0FC0149
:10115000EE0FFF1FE80FF91FEE5AFE4F4183308359
:101160002283109229010ACE80915101813009F029
:1011700000CE209137012F5F2093370186E08093C6
:10118000440188E190E090934E0180934D0121301D
:1011900009F4A0C680912901813009F0EACDA3EAC3
:1011A000B3E064EA73E0E7EAF3E00FEFFF24F394BF
:1011B00036C0E5010983EF012197E880E901C80FF6
:1011C000D91FCE5ADE4FD8804E2D50E04D0D511D07
:1011D0004F3F51050CF451C50883E901C80FD91FD1
:1011E000CE5ADE4F2A813081832F90E0820F911DED
:1011F0008F3F91050CF43EC50A83EB018881811174
:1012000033C5112309F42FC611501C9315966B5F3B
:101210007F4F3596D3E0A13CBD0709F46DC61C9104
:10122000812F90E09C01220F331F5901A80EB91E97
:10123000E501CE5ADE4F5E01E980AF01425051090F
:10124000EA01D8804D2D50E04E0D511D4F3F510504
:101250000CF0AFCFED0CE501E982ADCF80915101EB
:10126000813009F090CD80912B01823318F48F5F8B
:1012700080932B01C4E5D1E010E00FEF13C0209163
:101280009A0190919B0180919C01FE0131972083EE
:10129000319790838883165F2396103F09F473CDAE
:1012A00080912B0110939D0100939E0180939F01DB
:1012B0004CE051E06AE971E08DE991E00E94BA03E7
:1012C00080913E01813009F466C38230C1F690916D
:1012D0009A0120919B0120939A0190939B01809108
:1012E0009C01D3CF2A9A8ECC2B982C982D98909134
:1012F0003301992309F40BC29150909333017CCCB4
:1013000080915101813009F02FCD58E4E52E52E053
:10131000F52EC4E5D1E08701DD24DA9412C02091D6
:101320009A0190919B0180919C01FE01319720834D
:101330003197908388832396B2E000361B0709F427
:1013400067C48091480190914901902F9E19980F90
:1013500090939D01D0929E01D801ED918D01F0E016
:10136000EA5DFE4F8591949180939F014CE051E09E
:101370006AE971E08DE991E00E94BA0380913E0133
:10138000813009F413C3823051F690919A01209173
:101390009B0120939A0190939B0180919C01C5CF62
:1013A000809151018111B2CC809137018F5F809380
:1013B0003701909108019111D2C1883009F4D2C14E
:1013C00080913801833009F0A3CC81E080935101F2
:1013D0001092380110923701809339015A9A98CCB3
:1013E00010924A0180913401882309F499C18150F7
:1013F00080933401FCCB90913B019F3530F49F5F8B
:1014000090933B019B3408F4EDCB813009F4A6C4E2
:10141000823009F47AC5833009F4FDC4843009F0C0
:10142000E1CB80913E018F5F80933E01833009F4D0
:10143000F4C588E08093360181E0809335011092F5
:101440003A012B982C982D98CDCB80915101813069
:1014500009F080CC209137012F5F2093370180ED78
:1014600097E090934E0180934D01213009F43AC5E5
:1014700080912901813009F06DCC0E94D81F68E16C
:1014800070E00E94F41C809326019927FC01EE0F66
:10149000FF1FE80FF91FEE5AFE4F8FEF8183808305
:1014A00082831092290156CC80915101813009F03C
:1014B0003ECC209137012F5F209337018CE090E0E4
:1014C00090934E0180934D01213009F419C580910C
:1014D0002901813009F02BCC80912C0190912D01B4
:1014E000873191050CF096C597E1981B90932A01DE
:1014F000809148019091490180939D018FEF8093E5
:101500009E0180939F014CE051E06AE971E08DE912
:1015100091E00E94BA0380913E01813009F4ACC58C
:10152000823009F48CC560919A0150919B014091E1
:101530009C0120912A0130E0F901EE0FFF1FE20F1C
:10154000F31FEE5AFE4F61835083428387E190E0A0
:10155000821B930BFC01EE0FFF1FE80FF91FEE5AE1
:10156000FE4F61835083428380912C0190912D0125
:10157000019690932D0180932C018D9724F0109269
:101580002D0110922C0110922901D1CB8091510193
:10159000813009F0E4CB08E412E0C4E5D1E0FF2497
:1015A000FA9412C020919A0190919B0180919C0124
:1015B000FE01319720833197908388832396B2E090
:1015C00000361B0709F4FFC2809148019091490140
:1015D00080939D01F0929E01D801ED918D01F0E084
:1015E000EA5DFE4F8591949180939F014CE051E01C
:1015F0006AE971E08DE991E00E94BA0380913E01B1
:10160000813009F4BDC1823069F690919A01209130
:101610009B0120939A0190939B0180919C01C8CFDC
:101620004198429A439868CB41984298439A64CB38
:101630008FEF80932B010E94D81F6FEF70E00E9404
:10164000F41C80932E0110922A0110922D01109209
:101650002C0180932801682F20E030E0CFEFD0E00C
:1016600070E0482F50E0FB017D974E175F070CF1AB
:10167000635E7F4F6417750734F41BC0435E5F4F92
:101680004217530794F00E94D81FBE010E94F41C19
:101690008093280140912E0150E09C013327BA012C
:1016A0006D517109261737074CF720912C013091A5
:1016B0002D01F901EF58FD4F808380932E012F5F9C
:1016C0003F4F30932D0120932C012233310514F428
:1016D000682FC6CF1092280180910801883009F444
:1016E00039C386E08093270188E1E701E82F19924A
:1016F000EA95E9F7D8011D928A95E9F75BCC2B9A18
:101700002C982D98ECCA2B982C9A2D98E8CA9EE11B
:1017100090933301809306016FCA109241013BCC34
:101720002B9928C02B9A2C9A2D9A81E08093340112
:1017300080913601811191C281E08093060110925F
:10174000350190914B01992309F451CA80934A01C4
:101750004ECA815080933D01811101CAEFC9823385
:1017600009F02ECE809138018F5F8093380110925E
:10177000370128CE2B982C982D98D7CF809108012F
:10178000882309F4BECA80914201909143010E94CE
:10179000DD1F8091080180932F019091080198131B
:1017A00010C0CAE0D0E00E94D81FBE010E94F41C05
:1017B0008F5F809308018091080190912F01981705
:1017C00091F381E080933901109230019ACA10920E
:1017D000500110924F0180910B01882329F08091D4
:1017E0000B01815080930B0180910B01843009F42F
:1017F00017C48091510181110BC090910A01809111
:101800000B01989FC001112490934E0180934D01CC
:1018100081E08093060110923A01E2C981E0809351
:101820003D01809148019091490180939D018FEF86
:1018300080939E018DEC80939F0180914501609182
:101840009A0190E0FC01EE0FFF1FE80FF91FEE5A1E
:10185000FE4F61838091450150919B0190E0FC0116
:10186000EE0FFF1FE80FF91FEE5AFE4F50838091D5
:10187000450140919C0190E0FC01EE0FFF1FE80F35
:10188000F91FEE5AFE4F42832091450187E190E017
:10189000DC01A21BB109FD01EE0FFF1FEA0FFB1FC8
:1018A000EE5AFE4F618320914501EC01C21BD10924
:1018B000FE01EE0FFF1FEC0FFD1FEE5AFE4F50838F
:1018C00020914501FC01E21BF1099F01EE0FFF1F72
:1018D000E20FF31FEE5AFE4F4283209145012D3057
:1018E00008F43DC9209145012150209345012091E4
:1018F000450130E0F901EE0FFF1FE20FF31FEE5A32
:10190000FE4F61832091450130E0F901EE0FFF1F8A
:10191000E20FF31FEE5AFE4F50832091450130E055
:10192000F901EE0FFF1FE20FF31FEE5AFE4F428345
:1019300020914501DC01A21BB109FD01EE0FFF1F43
:10194000EA0FFB1FEE5AFE4F618320914501EC0127
:10195000C21BD1099E01FE01EE0FFF1FE20FF31F14
:10196000EE5AFE4F508320914501821B9109FC01E4
:10197000EE0FFF1FE80FF91FEE5AFE4F4283EFC82C
:1019800090919C0180919B0180939C0190939B017D
:1019900020919A010DCE90919C0180919B018093A2
:1019A0009C0190939B0120919A016FCC90919C0196
:1019B00080919B0180939C0190939B0120919A01BF
:1019C000B4CCC8E4D2E060E070E0CB0117C0BE0147
:1019D00068547240882777FD8095982F0E94181EC2
:1019E0002BED3FE049EC50E40E94A41E20E030E0E3
:1019F00040EC51E40E94821D0E94071F20E030E06D
:101A000040E85FE30E941E1D20E030E048EC51E416
:101A10000E94A41E20E030E046E952E40E941E1D10
:101A20000E94EA1D6993B2E0C036DB0781F6C7CA9F
:101A300007EA13E0D4EAED2ED3E0FD2ECC24C394C4
:101A4000CFEFD0E0DD24DA9480912A018D5F80937E
:101A50002A01F8013497808380914101811161C08E
:101A6000D7011C92C09241010E94D81FBE010E9462
:101A7000F41C8093280140912E0150E09C013327F3
:101A8000BA016252710926173707ECF04E5D5F4FBD
:101A90004217530734F417C04E5D5F4F4217530788
:101AA00094F00E94D81FBE010E94F41C809328016C
:101AB00040912E0150E09C013327BA016252710916
:101AC000261737074CF780932E0180939D01D09203
:101AD0009E01D0929F014CE051E06AE971E08DE9EE
:101AE00091E00E94BA0380913E01813051F1823031
:101AF000E9F020919A0190919B0180919C01F8015D
:101B00003297208331969083D8018C930B5F1F4FBF
:101B1000B5E0EB0EF11CE3E0053C1E0709F094CFA5
:101B200058CAF701C082109241019ECF90919A014C
:101B300020919B0120939A0190939B0180919C019D
:101B4000DECF90919C0180919B0180939C019093AA
:101B50009B0120919A01D3CFC8E4D2E060E070E00D
:101B6000CB0117C0BE0168547240882777FD80956D
:101B7000982F0E94181E2BED3FE049EC50E40E9484
:101B8000A41E20E030E040E451E40E94821D0E9447
:101B9000071F20E030E040E85FE30E941E1D20E0C8
:101BA00030E048EC51E40E94A41E20E030E046E919
:101BB00052E40E941E1D0E94EA1D6993E2E0C036B5
:101BC000DE0781F601CA809141018111E0C0809158
:101BD0004802809340018091300280933F0147E1A9
:101BE00050E069E472E088E492E00E94E81F47E177
:101BF00050E061E372E080E392E00E94E81F809190
:101C0000400180935F0280913F0180934702A7C803
:101C1000809141018111DDC0809148028093400193
:101C20008091300280933F0147E150E069E472E027
:101C300088E492E00E94E81F47E150E061E372E02F
:101C400080E392E00E94E81F8091400180935F0250
:101C500080913F018093470287C88150809336016D
:101C600081110C94F70568CD173108F002C11F5F90
:101C70001C93CCCA230F2A83C0CA412F50E0EA012B
:101C8000CC0FDD1FC40FD51FCE5ADE4F48814E0D3D
:101C90004883A3CA90919C0180919B0180939C01F1
:101CA00090939B0120919A01BDC8809329011092C5
:101CB00037019AC880910801833009F47AC14091B4
:101CC000270180910801883009F456C180912A01CA
:101CD0008F5F80932A014817A8F410922A018FEF92
:101CE00080932B0180912801E82FF0E0EF58FD4F01
:101CF000908190932E018F5F80932801823310F0A2
:101D000010922801809141018111C3C08091480245
:101D1000809340018091300280933F0147E150E081
:101D200069E472E088E492E00E94E81F47E150E035
:101D300061E372E080E392E00E94E81F809140013D
:101D400080935F0280913F018093470210922901A6
:101D50000C94A50683E080932701C6CC90910901DD
:101D60009F5F9093090190910901943010F0809346
:101D7000090188E08093360181E08093350110925B
:101D80003A012B982C982D9880913A0141CB809163
:101D90005F02809340018091470280933F0147E1B9
:101DA00050E068E472E089E492E00E94E81F47E1B5
:101DB00050E060E372E081E392E00E94E81F8091CE
:101DC00040018093480280913F01809330020C943F
:101DD000AF0680915F02809340018091470280931B
:101DE0003F0147E150E068E472E089E492E00E943C
:101DF000E81F47E150E060E372E081E392E00E9477
:101E0000E81F809140018093480280913F018093B8
:101E100030020C94B4068EE18093360181E0809309
:101E2000350110923A012B982C982D9810924C0164
:101E300080913A01F3CA80915101813009F4DBC0ED
:101E4000809107018F5F80930701809107018231A4
:101E500018F081E08093070110925101109238012F
:101E600010923701D5CCEB01F8828C918F5F8C9367
:101E7000CDC9EB0118828C9181508C93C7C9809198
:101E80002B018093480280912E01809330020C94A4
:101E9000010780915F028093400180914702809307
:101EA0003F0147E150E068E472E089E492E00E947B
:101EB000E81F47E150E060E372E081E392E00E94B6
:101EC000E81F809140018093480280913F018093F8
:101ED00030023CCF1092370162C920932901109241
:101EE0003701FEC82093290110923701C6CA2093FA
:101EF0002901109237018CC8109229010C94B9065F
:101F00002093290110923701E7CA60910B0186E006
:101F100090E00E9402206091090185E090E00E941B
:101F200002206091080184E090E00E94022060910C
:101F3000070183E090E00E94022060914B0181E064
:101F400090E00E94022060913E0180E090E00E94BB
:101F5000022088E08093360181E080933501109261
:101F60003A012B982C982D9880913A0154CA81E01F
:101F700080934A010C94680710912B01E42FF0E044
:101F8000C12FD0E0BF01655071092FEF30E0C901CA
:101F90000E94F41CC617D7070CF45CC065E070E023
:101FA0006E1B7F0BC9010E94F41C160F10932B01AE
:101FB0008DCE10912B0140912701E42FF0E0C12F2D
:101FC000D0E0BF01655071092FEF30E0C9010E94D8
:101FD000F41CC617D7070CF440C065E070E06E1B18
:101FE0007F0BC9010E94F41C160F10932B0169CEC0
:101FF00099EE980F17C8809108018F5F80930801B0
:10200000809108018D3010F01092080181E08093DA
:102010003901FECB99EE980F69CA10923E0109CAA8
:1020200088E080930B01E5CB30919A0140919B01B0
:1020300040939A0130939B0120919C0117C85091C5
:102040009A0160919B0160939A0150939B0140918A
:102050009C016FCA10922B0139CE10922B0131CE08
:1020600030919C0120919B0120939C0130939B0116
:1020700040919A010C94360850919C0140919B012B
:1020800040939C0150939B0160919A0152CA3091F8
:102090009C0120919B0120939C0130939B014091D6
:1020A0009A0152C840919A0130919B0120919C0164
:1020B0004BC81F920F920FB60F9211242F933F938C
:1020C0004F935F936F937F938F939F93AF93BF9340
:1020D000CF93DF93EF93FF9380918A0090918B00D1
:1020E00081509F4F90938B0080938A008091510183
:1020F00020914F01309150018111A8C080914D0174
:1021000090914E012817390708F46CC08091A801FE
:10211000811109C08091A001882329F08091A0013C
:1021200081508093A0018091A901811109C0809103
:10213000A101882329F08091A10181508093A10100
:102140008091AA01811109C08091A201882329F000
:102150008091A20181508093A2018091AB018111F5
:1021600009C08091A301882329F08091A3018150A7
:102170008093A3018091AC01811109C08091A401D9
:10218000882329F08091A40181508093A40180913B
:10219000AD01811109C08091A501882329F08091AA
:1021A000A50181508093A5018091AE01811109C0E4
:1021B0008091A601882329F08091A6018150809307
:1021C000A6018091AF01811109C08091A7018823E8
:1021D00029F08091A70181508093A70110925001AE
:1021E00010924F01809107018F3008F054C0809108
:1021F0004F019091500101969093500180934F01AF
:102200008091420190914301019690934301809304
:1022100042018091420190914301019621F4109274
:10222000430110924201FF91EF91DF91CF91BF9155
:10223000AF919F918F917F916F915F914F913F915E
:102240002F910F900FBE0F901F90189580914D0108
:1022500090914E012817390750F280910801813082
:1022600009F45FC080910801823009F45AC080915E
:102270000801893009F47FC0809108018A3009F48F
:102280007AC080910801843009F4ADC010925001E9
:1022900010924F01ACCF80910701823108F0A7CF97
:1022A00080E090E047E150E026C030914401231BDC
:1022B00011962C93DF01A80FB91FAE5ABE4F2C9177
:1022C00030914401231708F44BC030914401231B83
:1022D0002C93E80FF91FEE5AFE4F228130914401F2
:1022E0002317E0F130914401231B228301968831AA
:1022F000910509F47CCF20914501281799F1FC0143
:10230000EE0FFF1FDF01A80FB91FAE5ABE4F119687
:102310002C91119730914401231738F611961C9295
:10232000C9CFC3E5D1E0A2E5B1E0E4E5F1E0888101
:10233000882311F0815088838C91882311F081507B
:102340008C938081882311F081508083239613968B
:10235000339671E0EC39F70751F789CF1282C6CF77
:102360001C92B7CF20914501BA01621B71098617F3
:10237000970729F6BBCFC3E5D1E0A2E5B1E0E4E5DC
:10238000F1E01EC090914401891B88838C9190914B
:102390004401981700F590914401891B8C9380812A
:1023A000909144019817E8F490914401891B80832F
:1023B00023961396339681E0EC39F80709F461CF40
:1023C0008881909144019817E8F218828C9190913D
:1023D0004401981700F31C92808190914401981752
:1023E00018F31082E5CFE4E5F1E0DF0111971C92CC
:1023F00011971C921082339621E0EC39F207A9F76D
:1024000045CF67E086E090E00E94142061E085E01F
:1024100090E00E94142061E084E090E00E9414208B
:1024200061E083E090E00E94142060E081E090E0B1
:102430000E94142060E080E090E00E9414206BE095
:1024400082E090E00E94142082E090E00E94FA1F57
:1024500080934C0186E090E00E94FA1F80930B016C
:1024600085E090E00E94FA1F8093090184E090E0EB
:102470000E94FA1F8093080183E090E00E94FA1FF7
:102480008093070181E090E00E94FA1F80934B0146
:1024900080E090E00E94FA1F80933E010895CF9360
:1024A000DF93CDB7DEB72A970FB6F894DEBF0FBE25
:1024B000CDBF81E08093810080916F008660809322
:1024C0006F00289A299A409A5A98229A8CE384B9E4
:1024D0008EE187B9529A82E090E00E94FA1F8093C1
:1024E0004C0180914C018B3011F00C94B71C86E0AC
:1024F00090E00E94FA1F80930B0185E090E00E941B
:10250000FA1F8093090184E090E00E94FA1F8093F3
:10251000080181E090E00E94FA1F80934B0183E064
:1025200090E00E94FA1F8093070180E090E00E94F3
:10253000FA1F80933E0180914B01882319F081E0BE
:1025400080934A0181E08093060190910A01809175
:102550000B01989FC001112490934E0180934D016F
:102560008DE08093450178941B821A8223EA32E041
:102570003D832C8337E1232E312C80914C0188231D
:1025800011F40C943C18AC81BD81E0E0F1E01D92A7
:102590003197E9F785E680937C0023EA32E03D83BA
:1025A0002C83F90126EF20937A0080917A0084FF32
:1025B000FCCF80917800909179009058819391930D
:1025C00033E0E33AF30779F710927A002F923F92C3
:1025D0004F925F92FF920F931F93CF93DF93C3EAC3
:1025E000D2E0E6EEF1E0FF2440E8659175910881C4
:1025F0001981970320010E034F1C10019E035F08F1
:10260000300C411C5F1CF8035F08300C411C5F1C40
:10261000499259924A9549F7DF91CF911F910F91B5
:10262000FF905F904F903F902F9011242F923F92F8
:102630006F927F92CF93DF93E6EEF5E048E3A591AA
:10264000BB27AA0FBB1FAD55BD4F2D903C90C59128
:10265000DD27CC0FDD1FCD55DD4F688079807C9262
:102660006E92288239824A9551F7DF91CF917F90FF
:102670006F903F902F902F923F924F925F926F9268
:102680007F928F929F92AF92BF92CF92DF92EF9202
:10269000FF920F931F93CF93DF93FF2400E1E02E6F
:1026A000C3EAD2E0688079804A805B807594679441
:1026B000430155944794640C751C84189508AC80AC
:1026C000BD804E805F80B594A79465015594479472
:1026D000A40CB51CC418D508688579854A845B8428
:1026E000759567958B0155944794640D751D041974
:1026F00015098C859D854E845F84959587959C01F1
:1027000055944794840D951D241935097594679443
:102710002301B594A7946A0C7B1C4A185B08959416
:1027200087945401D594C7948C0C9D1CAC18BD089B
:10273000759567956B0195958795680F791FC81AF0
:10274000D90A75946794130175956795660E771E7F
:10275000261A370A42E85AE51503C001049FB00162
:1027600014039F09700D811D9F1D509F700D811DC9
:102770009F1D959487948401880E991E081B190B40
:1027800055944794D201D594C7944C0C5D1CAC1958
:10279000BD093503C001249FB00134039F09700DAA
:1027A000811D9F1D529F700D811D9F1DB594A79483
:1027B0006501A80EB91EC81AD90A69927992899240
:1027C000999249925992A992B99229923992099370
:1027D0001993A993B993C992D992EA9409F062CF57
:1027E00000E2C02EDD2403E0902EE6E5F6E000E1F5
:1027F000A02EBB2404E0E02EA3EAB2E0ED01CA0D56
:10280000DB1D8E2C2D903C90488059803594279468
:10281000310155944794640C751C2418350829928D
:1028200039927C926E92AC0DBD1D1197EA9408818D
:1028300019813C912E9145915591659175911502A3
:102840002001049F100114035F08300C411C5F1C21
:10285000509F300C411C5F1C37023001269F200C1A
:10286000311C461C571C36035F08300C411C5F1C92
:10287000729F300C411C5F1C0E01CA19DB092880B5
:102880003980359427943101640C751C241835085F
:1028900068827982E0012992399217022001069F0D
:1028A000100116035F08300C411C5F1C709F300C38
:1028B000411C5F1C35023001249F20183108460856
:1028C000570834035F1C301841085F08529F3018C6
:1028D00041085F080D01AA19BB092D903C90359461
:1028E00027943101640C751C241835087C926E9273
:1028F000D0012D923C921297EA9409F098CFDE0114
:10290000AA19BB092D903C90488059803594279492
:10291000310155944794640C751C2418350828829D
:1029200039827C926E92C50196958795C80FD91F02
:10293000C33AD90540F4DE01CA0DDB1DE82CEA19C3
:10294000FB0934965FCF85FC06C0EA2CE69456015D
:10295000CC0CDD1C51CFDF91CF911F910F91FF90D7
:10296000EF90DF90CF90BF90AF909F908F907F902F
:102970006F905F904F903F902F9011242F923F9235
:102980004F925F926F927F928F92FF920F931F935D
:10299000CF93DF93A3EAB2E0C0EBD1E0E3EAF3E048
:1029A0004F01FF2440E40D911D91980106C0F401F0
:1029B0000D911D91329122914F0111022001009F32
:1029C000100198035F08300C411C5F1C330230017A
:1029D000229F200C311C461C571CBA035F08300C88
:1029E000411C5F1C1127552061F018E0F201F03402
:1029F00028F5330CEE1FFF1F330CEE1FFF1F1A9537
:102A00001DC0442069F014E0F42DE32DF034B0F43F
:102A1000220CEE1FFF1F220CEE1FFF1F1A95F6CF90
:102A2000F101F03458F4F03160F4F13078F0F295BF
:102A3000E295EF70EF2BE695F1E008C0EF2FF2E0A2
:102A400005C0EE0FFF1FEF2FE068F1E0EA51FD4FE8
:102A500004912227112321F0000F221F1A95E1F77C
:102A6000099329934A9509F0A2CFDF91CF911F9145
:102A70000F91FF908F907F906F905F904F903F905D
:102A80002F901124612C712C412C512CC12CD12C54
:102A9000E12CF12C00E010E020E030E0812C912CC2
:102AA000E0EBF1E041E050E080E090E038872F83F8
:102AB000FA87E98707C04034510549F14F5F5F4FFE
:102AC000E985FA8521913191FA87E987BA01625047
:102AD00071096F33710578F76C5C7F4FFB010C94C3
:102AE000081D5901A80EB91E60EDA61667E4B606CA
:102AF00008F020C2ADECBCEC0E940E1D96958795A7
:102B0000969587958A0D9B1D40345105B9F62F8106
:102B10003885709261026092600250926302409226
:102B20006202D0926502C0926402F0926702E09263
:102B30006602109369020093680230936B0220933F
:102B40006A0290926D0280926C0290936F02809361
:102B50006E0280915101813009F476C58091510156
:102B6000811156C280910901813009F4EBC5609151
:102B7000090170E088EC90E00E94F41CFB01809158
:102B8000600290916102813D57E0950708F4D7C536
:102B9000805D9740BF010E94E01C8B017093610231
:102BA000609360028091050190E08617970708F016
:102BB000C3C5809105016B01C81AD10809F4BCC5D1
:102BC0008091620290916302813D67E0960708F46C
:102BD000B0C5805D9740BF010E94E01C7093630206
:102BE000609362028091050190E08617970708F0D4
:102BF00026C5809105019B01281B3109F22E432F28
:102C00002C153D0510F4FC2C4D2D80916402909103
:102C10006502813D77E0970708F40EC5805D974017
:102C2000BF010E94E01C7093650260936402809172
:102C3000050190E08617970728F4809105019B0114
:102C4000281B3109CF2CD42EC216D30608F46901F3
:102C50008091660290916702813DA7E09A0708F48F
:102C6000E8C4805D9740BF010E94E01C709367023A
:102C7000609366028091050190E08617970728F41B
:102C8000809105019B01281B3109C216D30608F467
:102C900069018091680290916902813DB7E09B07CC
:102CA00008F4C4C4805D9740BF010E94E01C70938B
:102CB0006902609368028091050190E0861797078A
:102CC00028F4809105019B01281B3109C216D30607
:102CD00008F4690180916A0290916B02813D47E09E
:102CE000940708F4A0C4805D9740BF010E94E01CD7
:102CF00070936B0260936A028091050190E08617E1
:102D0000970728F4809105019B01281B3109760162
:102D1000C216D30608F4790180916C0290916D027D
:102D2000813D57E0950708F47BC4805D9740BF0163
:102D30000E94E01C70936D0260936C02809105010B
:102D400090E08617970728F4809105019B01281BC6
:102D50003109E216F30608F4790180916E02909130
:102D60006F02813D67E0960708F46BC4805D974071
:102D7000BF010E94E01C70936F0260936E0280910D
:102D8000050190E08617970728F4809105019B01C3
:102D9000281B3109FB82EA82E216F30610F43B831A
:102DA0002A83C801E12C21E000E010E0A2E0FA2E25
:102DB000CA80DB80B22E1EC0FA01E056FE4F208191
:102DC00030E08217930708F44FC08083EE2009F4A7
:102DD0004DC0FC92080F191F88E0B81609F46DC1A8
:102DE000AB2DB0E0AA0FBB1FA05ABD4F8D919C9197
:102DF000B394E394209109014E2D50E0213009F461
:102E0000B2C08C159D0508F4A2C08C199D099A01C9
:102E1000220F331FD901A05ABD4F8D939C9360910F
:102E2000050170E06817790740F48091050190E092
:102E3000F901E05AFD4F91838083DA01A855BE4F16
:102E40006C91662309F4B8CF7FEF760F7C93FA017B
:102E5000E056FE4F208130E08217930708F0B5CF8F
:102E6000772311F062506C93E110B4CF1C92080FDD
:102E7000191FB6CF820E931EF0ED8F16F7E49F0652
:102E800008F41CCEEFEC8E2EE7E49E2E17CEEF81D9
:102E9000F885E20FF31FF887EF83E03DF74408F46D
:102EA0000DCEEFECF7E4F887EF8308CE020F131F87
:102EB000003DF7E41F0708F401CE0FEC17E4FECD48
:102EC000E20EF31EE0EDEE16E7E4FE0608F4F6CDA2
:102ED000FFECEF2EF7E4FF2EF1CDC20ED31EB0EDC6
:102EE000CB16B7E4DB0608F4E9CDAFECCA2EA7E4B5
:102EF000DA2EE4CDB901640D751D603DA7E47A07B3
:102F000008F529015694479456944794569447944B
:102F1000460E571ED3CDB901660D771D603DF7E40F
:102F20007F0758F439017694679476946794660E17
:102F3000771EC4CD8FEC97E4BECD3FEC632E37E413
:102F4000732EBCCD2FEC422E27E4522EB7CDDA01E2
:102F5000AA0FBB1FA05ABD4F1D921C928091050164
:102F600080E090E06ACF813D77E0970708F4A2C047
:102F70009C01205D3740A3E8BDE20E940E1D96959E
:102F80008795929582958F7089279F7089273FCF6B
:102F90004092440120914701245F293108F027E144
:102FA0008091470190E0A816B90608F033C38091DC
:102FB00045018217C0F430E0F901EE0FFF1FE20F68
:102FC000F31FEE5AFE4F118210821282C101821B42
:102FD000930BFC01EE0FFF1FE80FF91FEE5AFE4F97
:102FE0001182108212821F5F193008F010E0013048
:102FF00009F4DBC2DA9409F09AC08F2DF12E102F5C
:10300000082FFFEF6F1A7F0A015E083F09F080C0AA
:10301000F89468E170E082E591E00E94F20478940F
:103020008091620290916302892B51F58091640234
:1030300090916502892B21F580916602909167023B
:10304000892BF1F48091680290916902892BC1F477
:1030500080916A0290916B02892B91F480916C02AD
:1030600090916D02892B61F481E0809370028091D0
:103070004C0181110C94C3120E9401120C94C312D2
:1030800080915101882321F01092500110924F013C
:1030900090910A0180910B01989FC0011124909397
:1030A0004E0180934D0110927002109251015A9876
:1030B0000C94BD1280E090E0AACE1092470180915E
:1030C00007018F3098F080910701823178F49801E0
:1030D000ABEABAEA0E940E1D8C011695079516956B
:1030E00007950931110510F008E110E0C12C612CA1
:1030F000712CEE24E394F12C55245A94B7E1BB2EA5
:1031000085E0482E88248A94B98258010C2D1E2D02
:1031100043E0D42E55E1952E60E1E62E9301205632
:103120003E4F802F012F1F2D38872F83F82E80923E
:103130009E018091070190E0FC013197E131F1059A
:1031400008F051CFED58FF4F0C94081D40924401F8
:1031500020914701245F293108F027E18091470140
:1031600090E0A816B90608F422CF8091470140E309
:1031700050E0481B5109CA01880F80939D0180923D
:103180009F014CE051E06AE971E08DE991E02E8306
:103190000E94BA0380913E012E81813009F4F9C367
:1031A000823009F4EBC350919A0140919B01309118
:1031B0009C01822F90E0FC01EE0FFF1FE80FF91F2A
:1031C000EE5AFE4F518340833283B101681B790B65
:1031D000FB01EE0FFF1FE60FF71FEE5AFE4F518364
:1031E000408332838091470190E08A159B0509F066
:1031F000FACE80914501281710F020934501809167
:10320000450190E0FC01EE0FFF1FE80FF91FEE5A99
:10321000FE4F51828091450190E0FC01EE0FFF1FAF
:10322000E80FF91FEE5AFE4F10828091450190E0A1
:10323000FC01EE0FFF1FE80FF91FEE5AFE4F12823E
:1032400080914501D101A81BB109FD01EE0FFF1FBF
:10325000EA0FFB1FEE5AFE4F518280914501F101AA
:10326000E81BF109CF01EE0FFF1FE80FF91FEE5A1F
:10327000FE4F1082809145019101281B3109F9010F
:10328000EE0FFF1FE20FF31FEE5AFE4F1282ABCE7E
:10329000809148019091490190914701980F909336
:1032A0009D01E12FF0E0E056FE4FE081F0E0EA55AD
:1032B000FE4F8591949180939F014CE051E06AE923
:1032C00071E08DE991E00E94BA0380913E01813066
:1032D00009F478C1823009F06EC130919A014091B1
:1032E0009B0140939A0130939B0120919C01809116
:1032F000470190E0FC01EE0FFF1FE80FF91FEE5AA7
:10330000FE4F41838091470190E0FC01EE0FFF1FCB
:10331000E80FF91FEE5AFE4F30838091470190E08D
:10332000FC01EE0FFF1FE80FF91FEE5AFE4F22833C
:103330005ACEF0929D01BFE1FB1609F41CC3AF8188
:10334000B885EC91F0E0EA55FE4F85919491809319
:103350009F014CE051E06AE971E08DE991E00E9443
:10336000BA0380913E01813009F440C1823009F0F6
:1033700036C130919A0140919B0140939A0130935C
:103380009B0120919C0180914701013009F425C1E6
:10339000B981B81B8B2F01E090E0FC01EE0FFF1FFD
:1033A000E80FF91FEE5AFE4F4183308322831BCE74
:1033B000EF81F88580812FE330E0281B3109C901B6
:1033C000880F80939D01E08171CFEF81F885808126
:1033D0002FE330E0281B3109C901880F80939D013C
:1033E000DF01AFCFEF81F8858081880F8F57F6CF4F
:1033F000809148019091490190914701980F9093D5
:103400009D019DCF80914801909149018F0D80933E
:103410009D01AF81B88595CF809148019091490178
:103420008F0D80939D013DCFF0929D01EFE1FE1243
:1034300038CFE0929D0135CF8091480190914901AC
:103440008F0D80939D01AF81B885EC912FCFEF81D7
:10345000F8858081880F8F5780939D01E08126CF6A
:10346000809148019091490190914701980F909364
:103470009D01AF81B885EC9119CFF0929D019FE13C
:10348000F912F7CFE0929D01F4CF33E0309344017D
:10349000809148019091490180939D0180929F0104
:1034A00020914701245F293108F027E14CE051E0E9
:1034B0006AE971E08DE991E02E830E94BA03809160
:1034C0003E012E81813009F49CC0823041F480910C
:1034D0009A0190919B0190939A0180939B01809116
:1034E000470190E08A159B0509F07DCD809145014B
:1034F000281710F0209345018091450120919A01F1
:1035000090E0FC01EE0FFF1FE80FF91FEE5AFE4F8F
:1035100021838091450130919B0190E0FC01EE0FE9
:10352000FF1FE80FF91FEE5AFE4F308380914501CF
:1035300040919C0190E0FC01EE0FFF1FE80FF91F86
:10354000EE5AFE4F428380914501B101681B71091B
:10355000FB01EE0FFF1FE60FF71FEE5AFE4F218310
:1035600080914501D101A81BB109FD01EE0FFF1F9C
:10357000EA0FFB1FEE5AFE4F308380914501F101A7
:10358000E81BF109CF01EE0FFF1FE80FF91FEE5AFC
:10359000FE4F428328CD809148019091490180934C
:1035A0009D01AF81B885EC9181CE809147018F5FFD
:1035B000809347011FCD40919A0130919B0120914A
:1035C0009C0195CE30919C0120919B0120939C0100
:1035D00030939B0140919A018ACE00E0DDCE40916C
:1035E0009A0130919B0120919C01CDCE30919C019C
:1035F00020919B0120939C0130939B0140919A0163
:10360000C2CE80919C0190919B0190939C018093EC
:103610009B0165CF80914701899D802D1124ADCDFF
:1036200080E090E084CB80E090E05FCB80E090E0B1
:103630003BCB80E090E017CB80E090E0F1CA9601B0
:10364000DDCA80E090E094CB71ED671677E07706F5
:1036500008F06BC110926102109260028091050126
:103660008091620290916302813DA7E09A0708F081
:103670003AC110926302109262028091050180911A
:10368000640290916502813DB7E09B0708F009C193
:103690001092650210926402809105018091660289
:1036A00090916702813DE7E09E0708F0D8C0109234
:1036B00067021092660280910501809168029091E4
:1036C0006902813DF7E09F0708F0A7C010926902E8
:1036D000109268028091050180916A0290916B02BC
:1036E000813D27E0920708F076C010926B0210929D
:1036F0006A028091050180916C0290916D02813D7A
:1037000037E0930708F045C010926D0210926C02EA
:103710008091050180916E0290916F02813D47E09A
:103720009407A8F410926F0210926E028091050126
:1037300015CA80E090E04FCAC12CD12C41CA80E06C
:1037400090E028CA80916002909161022BCB9C018D
:10375000205D3740A3E8BDE20E940E1D9695879537
:10376000929582958F7089279F70892790936F0219
:1037700080936E022091050130E02817390708F088
:10378000EDC98091050190E090936F0280936E02E5
:10379000E5C99C01205D3740A3E8BDE20E940E1DF3
:1037A00096958795929582958F7089279F70892726
:1037B00090936D0280936C022091050130E02817F0
:1037C000390708F0A7CF8091050190E090936D0232
:1037D00080936C029FCF9C01205D3740A3E8BDE23F
:1037E0000E940E1D96958795929582958F708927D8
:1037F0009F70892790936B0280936A022091050144
:1038000030E02817390708F076CF8091050190E065
:1038100090936B0280936A026ECF9C01205D3740CB
:10382000A3E8BDE20E940E1D96958795929582951C
:103830008F7089279F70892790936902809368020F
:103840002091050130E02817390708F045CF809115
:10385000050190E090936902809368023DCF9C013E
:10386000205D3740A3E8BDE20E940E1D9695879526
:10387000929582958F7089279F7089279093670210
:10388000809366022091050130E02817390708F07F
:1038900014CF8091050190E09093670280936602B7
:1038A0000CCF9C01205D3740A3E8BDE20E940E1DB5
:1038B00096958795929582958F7089279F70892715
:1038C00090936502809364022091050130E02817EF
:1038D000390708F0E3CE8091050190E090936502EE
:1038E00080936402DBCE9C01205D3740A3E8BDE2FB
:1038F0000E940E1D96958795929582958F708927C7
:103900009F70892790936302809362022091050142
:1039100030E02817390708F0B2CE8091050190E019
:103920009093630280936202AACE9301205D374098
:10393000A3E8BDE20E940E1D96958795929582950B
:103940008F7089279F70892790936102809360020E
:103950002091050130E02817390708F081CE8091C9
:10396000050190E0909361028093600279CE0E94FD
:1039700001120C949B12E0929D01E1CC40919A01BE
:1039800050919B0150939A0140939B0130919C016F
:1039900010CC40919C0130919B0130939C0140934D
:1039A0009B0150919A0105CC991B79E004C0991FA5
:1039B000961708F0961B881F7A95C9F78095089589
:1039C000AA1BBB1B51E107C0AA1FBB1FA617B70745
:1039D00010F0A61BB70B881F991F5A95A9F7809561
:1039E0009095BC01CD01089597FB072E16F4009425
:1039F00007D077FD09D00E94E01C07FC05D03EF4FB
:103A0000909581959F4F0895709561957F4F08958A
:103A1000EE0FFF1F0590F491E02D0994A29FB001D5
:103A2000B39FC001A39F700D811D1124911DB29FF2
:103A3000700D811D1124911D08955058BB27AA2790
:103A40000ED048C139D130F03ED120F031F49F3F43
:103A500011F41EF42EC10EF4E095E7FB24C1E92F0A
:103A60004AD180F3BA17620773078407950718F0E5
:103A700071F49EF562C10EF4E0950B2EBA2FA02DC5
:103A80000B01B90190010C01CA01A0011124FF270B
:103A9000591B99F0593F50F4503E68F11A16F04006
:103AA000A22F232F342F4427585FF3CF4695379505
:103AB0002795A795F0405395C9F77EF41F16BA0BCA
:103AC000620B730B840BBAF09150A1F0FF0FBB1F78
:103AD000661F771F881FC2F70EC0BA0F621F731FC1
:103AE000841F48F4879577956795B795F7959E3F1E
:103AF00008F0B3CF9395880F08F09927EE0F9795AC
:103B0000879508950CD0E6C0DED040F0D5D030F0D7
:103B100021F45F3F19F0C7C0511110C1CAC0EBD0EA
:103B200098F39923C9F35523B1F3951B550BBB2784
:103B3000AA2762177307840738F09F5F5F4F220F31
:103B4000331F441FAA1FA9F333D00E2E3AF0E0E82A
:103B500030D091505040E695001CCAF729D0FE2F76
:103B600027D0660F771F881FBB1F26173707480708
:103B7000AB07B0E809F0BB0B802DBF01FF279358BE
:103B80005F4F2AF09E3F510568F08DC0D7C05F3F60
:103B9000ECF3983EDCF3869577956795B795F795A6
:103BA0009F5FC9F7880F911D9695879597F908959E
:103BB000E1E0660F771F881FBB1F6217730784073A
:103BC000BA0720F0621B730B840BBA0BEE1F88F749
:103BD000E095089598D088F09F5790F0B92F9927D5
:103BE000B751A0F0D1F0660F771F881F991F1AF008
:103BF000BA95C9F712C0B13081F09FD0B1E00895F5
:103C00009CC0672F782F8827B85F39F0B93FCCF375
:103C1000869577956795B395D9F73EF490958095FD
:103C2000709561957F4F8F4F9F4F0895E89409C01D
:103C300097FB3EF490958095709561957F4F8F4FDF
:103C40009F4F9923A9F0F92F96E9BB279395F695F5
:103C5000879577956795B795F111F8CFFAF4BB0F73
:103C600011F460FF1BC06F5F7F4F8F4F9F4F16C0D7
:103C7000882311F096E911C0772321F09EE8872F61
:103C8000762F05C0662371F096E8862F70E060E01D
:103C90002AF09A95660F771F881FDAF7880F969596
:103CA000879597F9089597F99F6780E870E060E03D
:103CB00008959FEF80EC089500240A9416161706C5
:103CC00018060906089500240A941216130614060D
:103CD00005060895092E0394000C11F4882352F070
:103CE000BB0F40F4BF2B11F460FF04C06F5F7F4F28
:103CF0008F4F9F4F089557FD9058440F551F59F00F
:103D00005F3F71F04795880F97FB991F61F09F3FC8
:103D100079F087950895121613061406551FF2CFF1
:103D20004695F1DF08C0161617061806991FF1CF41
:103D300086957105610508940895E894BB27662768
:103D40007727CB0197F908950BD0C4CFB5DF28F0C2
:103D5000BADF18F0952309F0A6CFABCF1124EECF30
:103D6000CADFA0F3959FD1F3950F50E0551F629FD6
:103D7000F001729FBB27F00DB11D639FAA27F00DC4
:103D8000B11DAA1F649F6627B00DA11D661F829FEB
:103D90002227B00DA11D621F739FB00DA11D621FD0
:103DA000839FA00D611D221F749F3327A00D611DED
:103DB000231F849F600D211D822F762F6A2F1124CF
:103DC0009F5750408AF0E1F088234AF0EE0FFF1F22
:103DD000BB1F661F771F881F91505040A9F79E3F59
:103DE000510570F060CFAACF5F3FECF3983EDCF353
:103DF000869577956795B795F795E7959F5FC1F796
:103E0000FE2B880F911D9695879597F908959F939E
:103E100005D00F9007FCEE5F28C04BCF74DFE8F3AE
:103E2000E894E0E0BB279F57F0F02AED3FE049EC33
:103E300006C0EE0FBB0F661F771F881F28F0B23A2F
:103E400062077307840728F0B25A620B730B840B66
:103E5000E3959A9572F7803830F49A95BB0F661FF8
:103E6000771F881FD2F7904813C0EF93E0FF06C07A
:103E7000A2EA2AED3FE049EC5FEBF1DD2BDF0F908A
:103E8000039401FC9058E8E0F1E00EC09F3F31F050
:103E9000915020F4879577956795B795880F911D78
:103EA0009695879597F908959F938F937F936F9336
:103EB000FF93EF939B01AC0147DFEF91FF9105D09A
:103EC0002F913F914F915F913FCFDF93CF931F93FE
:103ED0000F93FF92EF92DF927B018C01689405C0F3
:103EE000DA2EEF013DDFFE01E894A5912591359191
:103EF00045915591AEF3EF01B2DDFE019701A801A6
:103F0000DA9479F7DF90EF90FF900F911F91CF91A6
:103F1000DF9108958F929F92AF92BF92CF92DF92DE
:103F2000EF92FF92CF93DF93EC01688179818A81D0
:103F30009B81611571058105910521F464E279ED9C
:103F40008BE597E02DE133EF41E050E00E942B201C
:103F500049015A019B01AC01A7EAB1E40E944A2041
:103F60006B017C01ACEEB4EFA50194010E945820D6
:103F7000C60ED71EE81EF91EF7FE06C081E0C81A5D
:103F8000D108E10880E8F80AC882D982EA82FB8277
:103F9000C6019F77DF91CF91FF90EF90DF90CF9098
:103FA000BF90AF909F908F9008950E948A1F0895B0
:103FB00080E091E00E948A1F0895A0E0B0E0809325
:103FC000000190930101A0930201B09303010895B1
:103FD0006817790768F4FB01DC01E40FF51FA40FF3
:103FE000B51F02C002900E9241505040D8F708957C
:103FF0000C942220F999FECF92BD81BDF89A9927A1
:1040000080B50895262FF999FECF92BD81BDF89A0B
:10401000019700B4021639F01FBA20BD0FB6F8940C
:10402000FA9AF99A0FBE0895262FF999FECF1FBA72
:1040300092BD81BD20BD0FB6F894FA9AF99A0FBED1
:1040400001960895FB01DC0102C001900D924150E0
:104050005040D8F70895052E97FB1EF400940E9457
:10406000422057FD07D00E945D2007FC03D04EF48C
:104070000C94422050954095309521953F4F4F4FDD
:104080005F4F089590958095709561957F4F8F4F04
:104090009F4F08950E940E1DA59F900DB49F900DF7
:1040A000A49F800D911D11240895B7FF0C944A2000
:1040B0000E944A20821B930B0895A1E21A2EAA1B8C
:1040C000BB1BFD010DC0AA1FBB1FEE1FFF1FA217C8
:1040D000B307E407F50720F0A21BB30BE40BF50BC5
:1040E000661F771F881F991F1A9469F7609570954E
:1040F000809590959B01AC01BD01CF010895F89486
:02410000FFCFEF
:1041020001000000043F01010101460708FF000011
:10411200FF8000FFFF0000FF0000FFFF0000FF80A4
:0641220000FFFF00000099
:00000001FF
