:100000000C949B030C94B8030C94B8030C94B803A1
:100010000C94B8030C94B8030C94B8030C94B80374
:100020000C94B8030C94B8030C94B8030C942205F8
:100030000C9461100C94B8030C94B8030C94B8039E
:100040000C94B8030C94B8030C94B8030C94B80344
:100050000C94B8030C94B8030C94B8030C94B80334
:100060000C94B8030C94B80393178217751775177F
:100070006817681768175E175E175E175E175E17BA
:1000800063154F174F174F174F174F174F174F172E
:100090004F174F174217421742174217421742177E
:1000A0004217421742174217421742174217421788
:1000B0004217791579157915791579157915791505
:1000C00079157915791579157915791579157915C0
:1000D00079157915791579157915791579157915B0
:1000E0007915791579153D1ACA1A1C1A301A271A6A
:1000F000D8199D19021AF819F219E519141A0C1ACF
:100100005019AE18D017451A05A84CCDB2D44EB927
:100110003836A9020C50B9918688083CA6AAAA2AAA
:10012000BE000000803F0000000000000000000052
:1001300000000000000000000000000000010101BC
:10014000010101010101010101010102020202029A
:100150000202020303030303040404040505050566
:100160000606060707080809090A0A0B0B0C0D0DFD
:100170000E0F1011121314151617181A1B1D1F201D
:10018000222426282A2D2F3235383B3E4245494D20
:1001900052565B60666B71777E858D949DA5AFB876
:1001A000C3CED9E5F2FF000000000000000000000F
:1001B0000000000101010101020202020303030425
:1001C000040505060708090A0B0C0D0F1113151776
:1001D0001A1D2024282D32383E454D56606B7785F8
:1001E00094A5B8CEE5FF000014005000B400400113
:1001F000F301CD02CD03F3043D06AD073F09F40A38
:10020000C90CBF0ED41007135515BE17411ADB1CBD
:100210008B1F502227250F28062B0A2E1931323426
:100220005237773AA03DCB40F5431C473F4A5C4DDF
:1002300070507A5378566759475C155FCF61756483
:1002400003677969D66B166E3A703F722674EB7548
:100250008F770F796D7AA57BB87CA57D6C7E0B7F3F
:10026000837FD37FFB7FFB7FD37F837F0B7F6C7E7E
:10027000A57DB87CA57B6D7A0F798F77EB75267499
:100280003F723A70166ED66B796903677564CF61F9
:10029000155F475C675978567A5370505C4D3F4AFA
:1002A0001C47F543CB40A03D773A523732341931E1
:1002B0000A2E062B0F28272550228B1FDB1C411AE4
:1002C000BE1755150713D410BF0EC90CF40A3F0909
:1002D000AD073D06F304CD03CD02F3014001B400A8
:1002E0005000140000000001010202020203030397
:1002F00003030304040404040404040505050505BC
:100300000505050505060606060606060606060692
:10031000060707070707070707070707070707086D
:10032000080808080808080808080808080808094C
:10033000090909090909090909090909090909092D
:10034000090A0A0A0A0A0A0A0A0A0A0A0A0A0A0A0E
:100350000A0A0A0A0A0B0B0B0B0B0B0B0B0B0B0BF2
:100360000B0B0B0B0B0B0B0B0B0B0B0C0C0C0C0CD8
:100370000C0C0C0C0C0C0C0C0C0C0C0C0C0C0C0CBD
:100380000C0C0C0D0D0D0D0D0D0D0D0D0D0D0D0DA0
:100390000D0D0D0D0D0D0D0D0D0D0D0D0D0E0E0E8A
:1003A0000E0E0E0E0E0E0E0E0E0E0E0E0E0E0E0E6D
:1003B0000E0E0E0E0E0E0E0E0E0F0F0F0F0F0F0F56
:1003C0000F0F0F0F0F0F0F0F0F0F0F0F0F0F0F0F3D
:1003D0000F0F0F0F0F0F0F10101010101010101024
:1003E0001010101010100006080A0B0D0E0F10113F
:1003F00012131414151617171819191A1B1B1C1C85
:100400001D1D1E1E1F1F20202121222223232424E4
:100410002525262626272728282829292A2A2A2B5F
:100420002B2B2C2C2D2D2D2E2E2E2F2F2F303030F0
:10043000313131323232333333343434343535358B
:1004400036363637373737383838393939393A3A2E
:100450003A3B3B3B3B3C3C3C3C3D3D3D3D3E3E3ED8
:100460003E3F3F3F3F40000B101417191C1E202237
:10047000242627292A2C2D2F30313334353637398D
:100480003A3B3C3D3E3F4041424344454647484855
:10049000494A4B4C4D4E4E4F505152525354555564
:1004A00056575858595A5B5B5C5D5D5E5F5F606193
:1004B000616263636465656666676868696A6A6BDA
:1004C0006B6C6D6D6E6E6F6F707171727273737431
:1004D000747576767777787879797A7A7B7B7C7C95
:1004E0007D7D7E7E7F7F0010171C2024272A2D30E3
:1004F0003335373A3C3E4042444648494B4D4E50D6
:100500005253555658595B5C5D5F60616364656624
:1005100068696A6B6D6E6F707172737476777879D3
:100520007A7B7C7D7E7F80818283848586878889B3
:100530008A8B8B8C8D8E8F909192939494959697B5
:100540009899999A9B9C9D9E9E9FA0A1A2A2A3A4CC
:10055000A5A6A6A7A8A9A9AAABACACADAEAFAFB0F3
:10056000B1B1B2B3B4B4B5B6B6B7B8B9B9BABBBB2A
:10057000BCBDBDBEBFBFC0C1C1C2C3C3C4C5C5C66B
:10058000C7C7C8C8C9CACACBCCCCCDCECECFCFD0B6
:10059000D1D1D2D2D3D4D4D5D5D6D7D7D8D8D9DA09
:1005A000DADBDBDCDDDDDEDEDFDFE0E1E1E2E2E362
:1005B000E3E4E5E5E6E6E7E7E8E8E9EAEAEBEBECC1
:1005C000ECEDEDEEEEEFEFF0F1F1F2F2F3F3F4F427
:1005D000F5F5F6F6F7F7F8F8F9F9FAFAFBFBFCFC93
:1005E000FDFDFEFEFFFF7007780F74177C1F72275A
:1005F0007A2F76377E3F7147794F75577D5F7367E6
:100600007B6F6003680B64136C1B62236A2B663379
:100610006E3B6143694B65536D5B5005580D541536
:100620005C1D52255A2D56355E3D5145594D4001B0
:10063000480944114C1942214A2946314E393006A5
:10064000380E34163C1E32263A2E2002280A241276
:100650002C1A1004180C4276FC30825A825AFC3054
:1006600042768A7DF9184276FC306E6A1D47825ABE
:10067000825A1D476E6AFC304276F9188A7D627F85
:100680008C0C8A7DF9187D7A28254276FC30E3703F
:10069000573C6E6A1D47F2623451825A825A345175
:1006A000F2621D476E6A573CE370FC3042762825A3
:1006B0007D7AF9188A7D8C0C627FD97F4806627F2B
:1006C0008C0C9D7EC8128A7DF9182A7C1A1F7D7AAF
:1006D000282585781F2B4276FC30B673BA36E37036
:1006E000573CCA6DCE416E6A1D47D066404CF262DF
:1006F0003451D75EF655825A825AF655D75E345138
:10070000F262404CD0661D476E6ACE41CA6D573CBE
:10071000E370BA36B673FC3042761F2B85782825F5
:100720007D7A1A1F2A7CF9188A7DC8129D7E8C0C4E
:10073000627F4806D97F11241FBECFEFD8E0DEBF0D
:10074000CDBF11E0A0E0B1E0E4E5F0E402C0059027
:100750000D92A632B107D9F723E0A6E2B1E001C0BD
:100760001D92A93EB207E1F70E9457120C9428206F
:100770000C9400002F923F924F925F926F927F9263
:100780008F929F92AF92BF92CF92DF92EF92FF92A1
:100790000F931F93CF93DF93EC017B01FA018080CD
:1007A000912C80E091E0B4010E94051D6B018881CD
:1007B0000E94E51C282F30E041E0841A910828159A
:1007C000390509F408C18F5F082F10E03901660C64
:1007D000771CD301A20FB31FAE0FBF1F11963C9021
:1007E000832C912CA92EB12CDD242801440C551CFE
:1007F000D201A00FB11FAE0FBF1F11964C9150E058
:10080000481959094A9DC0014B9D900D5A9D900D64
:100810001124B6010E94051D860E971E97FCDEC0AE
:100820008FEF8816910411F00CF0CCC0630D2224D8
:100830002A94312C261A3108D301A20FB31FAE0F10
:10084000BF1F12967C90872C912CD201A00FB11F54
:10085000AE0FBF1F12964C9150E048195909A49E43
:10086000C001A59E900DB49E900D1124B6010E946A
:10087000051D860E971E4FEF8416910411F00CF0A3
:10088000A4C0760E88248A94912C871891082F5F33
:100890003F4FD901AA0FBB1FA20FB31FAE0FBF1F3F
:1008A0007C90272D30E00F5F1F4FD801AA0FBB1F90
:1008B000A00FB11FAE0FBF1F4C9150E0421B530B56
:1008C000A49EC001A59E900DB49E900D1124B6016A
:1008D0000E94051D260F371F2F3F310511F00CF028
:1008E00077C0760EEFEFF0E0E719F109498150E0AB
:1008F000249E9001259E300D349E300D1124A1E8D8
:10090000B0E80E941F1D880F892F881F990B9195B1
:10091000082F0095849E9001859E300D949E300D89
:1009200011240E941F1D880F892F881F990B9195F4
:10093000182F1095E49F9001E59F300DF49F300D26
:1009400011240E941F1D880F892F881F990B9195D4
:10095000482F40952A81029F900111240E941F1D5B
:10096000880F892F881F990B9195F70180832A8121
:10097000129F900111240E941F1D880F892F881F2C
:10098000990B919581832A81429F900111240E94A5
:100990001F1D880F892F881F990B91958283DF91E6
:1009A000CF911F910F91FF90EF90DF90CF90BF906C
:1009B000AF909F908F907F906F905F904F903F90FF
:1009C0002F900895212C312C37CF812C912C5FCF83
:1009D000E0E0F0E08BCF00E010E0F8CE22242A9493
:1009E000312C2ACF9B01220F331F260F371F3C9A31
:1009F00048B14F7E58B150616FB7F8942115310559
:100A0000C9F0FC01820F931F219138E058B9000012
:100A100000C000C027FF48B9220F000000C000C07E
:100A200000C000C048B9000000C03A9579F7E81747
:100A3000F90751F76FBF89EF90E00197F1F700C018
:100A4000000008951F920F920FB60F921124AF92DB
:100A5000BF92CF92DF92EF92FF920F931F932F934B
:100A60003F934F935F936F937F938F939F93AF9336
:100A7000BF93CF93DF93EF93FF9380918800909182
:100A800089000197909389008093880080914601A6
:100A9000882329F0809146018150809346018091FE
:100AA0004601811115C0809148019091490101963C
:100AB00090934901809348018091480190914901A8
:100AC0008F3F910511F008F0F6C089E08093460150
:100AD00080910401882319F1815080930401809151
:100AE0000601813009F4ECC0FF91EF91DF91CF91C5
:100AF000BF91AF919F918F917F916F915F914F9136
:100B00003F912F911F910F91FF90EF90DF90CF9029
:100B1000BF90AF900F900FBE0F901F90189584E07C
:100B200080930401809107018F30C8F080915101BA
:100B3000811115C080913D01811108C68091450148
:100B4000813128F08091450181508093450184E0F6
:100B500080933D0180910701813109F435C6189BCE
:100B600005C0309B03C0199910923C0118990DC023
:100B7000309B0BC0199B09C090913B019B3428F41A
:100B800081E080933A0180933C01189B0EC030991C
:100B90000CC0199B0AC090913B019B3430F482E059
:100BA00080933A0181E080933C0118990EC03099FE
:100BB0000CC0199B0AC090913B019B3430F483E038
:100BC00080933A0181E080933C01189963C0809141
:100BD0003A0190913C01811157C1913009F41FC431
:100BE00010923B0180913501813009F40DC4809150
:100BF0004A01813009F405C580913C01813009F436
:100C0000FEC42A9880914B01882309F478C0809112
:100C100032018F5F80933201873309F470C1809174
:100C20004B01813009F45EC1823029F48091310199
:100C3000883209F45CC180913001813009F061C0D3
:100C400080915101813009F496C5809142019091C3
:100C500043010E94861F8091070180932F0190918C
:100C60000701981310C0CEE0D0E00E94811FBE01A2
:100C70000E94051D8F5F809307018091070190916D
:100C80002F01981791F31092510110923801109290
:100C9000300137C0309B9BCF199999CF90913B0180
:100CA0009B3408F094CF84E080933A0181E08093F4
:100CB0003C0184E0B6C3109249011092480105CF6F
:100CC00080910B01863009F41BC508F404C18730FC
:100CD00009F412C5883019F42B9A2C9A2D9A809118
:100CE0000901823009F499C4833009F49AC481302F
:100CF00019F4419A4298439810920601F5CE109249
:100D0000310180919802813009F45DC3109238015D
:100D100080913901813009F410C48091080181303B
:100D200009F4A7C380910801823009F4DAC28091E6
:100D30000801833009F446C080910801873009F426
:100D400041C0809108018830E9F180910801843028
:100D500009F498C280910801853009F449C2809154
:100D60000801863009F4F4C180910801893009F442
:100D700075C1809108018A3009F40DC18091080184
:100D80008B3009F4C4C0809108018C3009F0A7CEE3
:100D900080915101813009F0A2CE80912B018931DF
:100DA00018F48F5F80932B01E4E5F1E0DF011197E8
:100DB0008C9311978C938083339641E0E43BF40746
:100DC000A9F78DCE80915101813009F0BECF80917D
:100DD00037018F5F80933701813009F463C78091B9
:100DE0002901813009F0B1CF8091410181110C942A
:100DF0005D0F80912B018093870280912E0180935B
:100E0000670208E412E078E6E72E72E0F72EC4E508
:100E1000D1E0DD24DA9412C02091B2019091B301A7
:100E20008091B401FE0131972083319790838883AC
:100E30002396F2E008361F0709F439C7D8018D91CF
:100E40008D018093B501D092B601F70181917F01A8
:100E50008093B7014CE051E062EB71E085EB91E0EB
:100E60000E94BA0380913E01813009F410C782309C
:100E700099F69091B2012091B3012093B201909321
:100E8000B3018091B401CECF9111A7CE90913B01D7
:100E90009111A6CE813009F449C5823009F4C8C742
:100EA000843009F09DCE80914B018F5F80934B0180
:100EB00080914B01833010F010924B0180914B01D7
:100EC00081110C94B40F10924A0181E080930601C5
:100ED00010923A0185CE853009F001CF2B982C98DD
:100EE0002D9AFDCE80913101843109F0A4CE10926B
:100EF00031011092320181E080933001A1CE8091C6
:100F000031018F5F809331011092320188CE809140
:100F10005101813009F037CF80912B01823318F4D1
:100F20008F5F80932B01C4E5D1E010E00FEF13C079
:100F30002091B2019091B3018091B401FE013197EB
:100F40002083319790838883195F2396103E09F49C
:100F50001ACF80912B011093B5010093B6018093B5
:100F6000B7014CE051E062EB71E085EB91E00E944B
:100F7000BA0380913E01813009F4FFC48230C1F68A
:100F80009091B2012091B3012093B2019093B301EB
:100F90008091B401D3CF80915101813009F0EECE20
:100FA000209137012F5F2093370186E08093440121
:100FB00080E290E090934E0180934D01213009F43E
:100FC0009CC780912901813009F0D8CE0E94811FF1
:100FD0008F71907897FF02C00C945B1080932A0168
:100FE0000E94811F209148013091490168E770E01B
:100FF0000E94051D280F2093B5018FEF8093B60145
:101000008093B7014CE051E062EB71E085EB91E039
:101010000E94BA0380913E01813011F40C944A1071
:10102000823011F00C9442103091B2014091B30122
:101030004093B2013093B3012091B40180912A0111
:1010400090E0FC01EE0FFF1FE80FF91FEE5AFE4F74
:101050004183308322831092290190CE80915101E7
:10106000813009F086CE209137012F5F2093370120
:1010700086E08093440180E290E090934E0180935B
:101080004D01213009F428C780912901813009F0F0
:1010900070CEABECB3E06CEC73E0EFECF3E00FEF91
:1010A000FF24F39436C0E5010983EF012197E8801E
:1010B000E901C80FD91FCE5ADE4FD8804E2D50E01F
:1010C0004D0D511D4F3F51050CF4D4C50883E90166
:1010D000C80FD91FCE5ADE4F2A813081832F90E06E
:1010E000820F911D8F3F91050CF4C1C50A83EB015E
:1010F00088818111B6C5112309F4B2C611501C9321
:1011000015966B5F7F4F3596D3E0A93EBD0709F476
:10111000F0C61C91812F90E09C01220F331F5901D2
:10112000A80EB91EE501CE5ADE4F5E01E980AF017F
:1011300042505109EA01D8804D2D50E04E0D511D0D
:101140004F3F51050CF0AFCFED0CE501E982ADCF7B
:1011500080915101813009F007CE58E6E52E52E02A
:10116000F52EC4E5D1E08701DD24DA9412C0209188
:10117000B2019091B3018091B401FE0131972083B7
:101180003197908388832396B2E008381B0709F4CF
:1011900015C48091480190914901902F9E19980F94
:1011A0009093B501D092B601D801ED918D01F0E098
:1011B000EA5DFE4F859194918093B7014CE051E038
:1011C00062EB71E085EB91E00E94BA0380913E01F1
:1011D000813009F4DDC3823051F69091B201209143
:1011E000B3012093B2019093B3018091B401C5CFB4
:1011F00080915101813009F0B2CD08E612E0C4E5DA
:10120000D1E0FF24FA9412C02091B2019091B30171
:101210008091B401FE0131972083319790838883B8
:101220002396B2E008381B0709F4EDC3809148010A
:10123000909149018093B501F092B601D801ED91EA
:101240008D01F0E0EA5DFE4F859194918093B701A6
:101250004CE051E062EB71E085EB91E00E94BA0353
:1012600080913E01813009F49EC3823069F69091ED
:10127000B2012091B3012093B2019093B301809108
:10128000B401C8CF80915101813009F063CD209124
:1012900037012F5F2093370180ED97E090934E0147
:1012A00080934D01213009F41AC6809129018130C3
:1012B00009F050CD0E94811F8F71907897FDF6C67E
:1012C000809326019927FC01EE0FFF1FE80FF91FFD
:1012D000EE5AFE4F8FEF8183808382831092290123
:1012E00039CD80915101813009F021CD2091370114
:1012F0002F5F2093370180E190E090934E0180931F
:101300004D01213009F4F0C580912901813009F0A7
:101310000ECD80912C0190912D018F3191050CF013
:1013200079C69FE1981B90932A0180914801909182
:1013300049018093B5018FEF8093B6018093B70187
:101340004CE051E062EB71E085EB91E00E94BA0362
:1013500080913E01813009F47FC6823009F460C675
:101360006091B2015091B3014091B40120912A01E2
:1013700030E0F901EE0FFF1FE20FF31FEE5AFE4FB0
:101380006183508342838FE190E0821B930BFC01C9
:10139000EE0FFF1FE80FF91FEE5AFE4F61835083D7
:1013A000428380912C0190912D01019690932D0103
:1013B00080932C01CD9724F010922D0110922C01D6
:1013C00010922901B4CC8091510181119FCC809160
:1013D00037018F5F8093370190910801992309F4B9
:1013E000BFC1823309F4BFC180913801833009F055
:1013F0008FCC81E080935101109238011092370117
:10140000809339015A9A84CC10924A018091340118
:10141000882309F482C1815080933401E8CB9091F4
:101420003B019F3530F49F5F90933B019B3408F460
:10143000D9CB813009F48FC4823009F463C583307D
:1014400009F4E6C4843009F0CDCB80913E018F5F72
:1014500080933E01833009F4DAC588E08093360139
:1014600081E08093350110923A012B982C982D98A9
:10147000B9CB80915101813009F054CC20913701D2
:101480002F5F2093370180E290E090934E0180938C
:101490004D01213009F41BC580912901813009F0EB
:1014A00041CC80912C0190912D018F3191050CF050
:1014B000B4C59FE1981B90932A01809148019091B7
:1014C00049018093B5018FEF8093B6018093B701F6
:1014D0004CE051E062EB71E085EB91E00E94BA03D1
:1014E00080913E01813009F4C2C5823009F4A3C560
:1014F0004091B2013091B3012091B40180912A0151
:1015000090E0FC01EE0FFF1FE80FF91FEE5AFE4FAF
:1015100041833083228380912C0190912D0101968B
:1015200090932D0180932C01CD9724F010922D01E2
:1015300010922C0110922901F5CBE4E5F1E0DF01D6
:1015400011971C9211971C9210823396D1E0E43BC4
:10155000FD07A9F708E412E080E2F801482F119294
:101560004A95E9F798E6E92E92E0F92ED7011D9207
:101570008A95E9F780914201909143010E94861F6C
:101580000E94811F6FEF70E00E94051D80932E0165
:101590008FE190E090932D0180932C0110922B010C
:1015A00010922A01109237011092290110924001E5
:1015B00010923F01809141018111ACC081E0809384
:1015C000410180910801833081F1809108018730C9
:1015D00061F180910801883041F1809108018530E6
:1015E00009F4CAC280910801863009F4FCC28091D6
:1015F0000801893009F42CC2109239018ECB2A9A45
:1016000001CB2B982C982D9890913301992309F4B4
:101610007BC0915090933301EFCA4198429A43980E
:101620006BCB41984298439A67CB8FEF80932B0105
:101630000E94811F6FEF70E00E94051D80932E01B4
:1016400010922A0110922D0110922C0180932801F2
:10165000682F20E030E0CFEFD0E070E0482F50E07E
:10166000FB017D974E175F070CF1635E7F4F641798
:10167000750734F41BC0435E5F4F4217530794F065
:101680000E94811FBE010E94051D80932801409188
:101690002E0150E09C013327BA016D5171092617C4
:1016A00037074CF720912C0130912D01F901E756B5
:1016B000FD4F808380932E012F5F3F4F30932D018C
:1016C00020932C012233310514F4682FC6CF1092D9
:1016D000280180910801883009F439C388E080939B
:1016E000270180E2E701E82F1992EA95E9F7D8018E
:1016F0001D928A95E9F771CF2B9A2C982D98EFCAF5
:101700002B982C9A2D98EBCA9EE1909333018093ED
:10171000060172CA1092410154CF2B991DC02B9A19
:101720002C9A2D9A81E080933401809136018111A9
:1017300091C281E0809306011092350190914B0196
:10174000992309F454CA80934A0151CA8150809365
:101750003D01811104CAF2C92B982C982D98E2CF33
:10176000883009F041CE809138018F5F8093380135
:10177000109237013BCE80910801882309F4C1CA39
:1017800080914201909143010E94861F809108013F
:1017900080932F0190910801981310C0CAE0D0E007
:1017A0000E94811FBE010E94051D8F5F809308016A
:1017B0008091080190912F01981791F381E0809317
:1017C0003901109230019DCA81E080933D018091E2
:1017D0004801909149018093B5018FEF8093B60144
:1017E0008DEC8093B701809145016091B20190E04A
:1017F000FC01EE0FFF1FE80FF91FEE5AFE4F618349
:10180000809145015091B30190E0FC01EE0FFF1F64
:10181000E80FF91FEE5AFE4F508380914501409129
:10182000B40190E0FC01EE0FFF1FE80FF91FEE5A24
:10183000FE4F4283209145018FE190E0DC01A21B25
:10184000B109FD01EE0FFF1FEA0FFB1FEE5AFE4F1D
:10185000618320914501EC01C21BD109FE01EE0F0D
:10186000FF1FEC0FFD1FEE5AFE4F508320914501E4
:10187000FC01E21BF1099F01EE0FFF1FE20FF31FB6
:10188000EE5AFE4F428320914501213108F467C989
:10189000209145012150209345012091450130E0E0
:1018A000F901EE0FFF1FE20FF31FEE5AFE4F6183A7
:1018B0002091450130E0F901EE0FFF1FE20FF31F09
:1018C000EE5AFE4F50832091450130E0F901EE0FB2
:1018D000FF1FE20FF31FEE5AFE4F42832091450196
:1018E000DC01A21BB109FD01EE0FFF1FEA0FFB1F78
:1018F000EE5AFE4F618320914501EC01C21BD109D4
:101900009E01FE01EE0FFF1FE20FF31FEE5AFE4F86
:10191000508320914501821B9109FC01EE0FFF1FAE
:10192000E80FF91FEE5AFE4F428319C91092500179
:1019300010924F0180910B01882329F080910B01B7
:10194000815080930B0180910B01843009F45BC3BB
:101950008091510181110BC090910A0180910B017E
:10196000989FC001112490934E0180934D0181E016
:101970008093060110923A0133C99091B40180918D
:10198000B3018093B4019093B3012091B201D6CA00
:101990009091B4018091B3018093B4019093B3010D
:1019A0002091B201EACB9091B4018091B301809370
:1019B000B4019093B3012091B2012CCC80914101EC
:1019C000811104C280916802809340018091480295
:1019D00080933F014FE150E069E672E088E692E0D3
:1019E0000E94911F4FE150E069E472E088E492E0C8
:1019F0000E94911F809140018093870280913F0156
:101A000080936702B1C9809141018111BDC180916C
:101A10006802809340018091480280933F014FE12A
:101A200050E069E672E088E692E00E94911F4FE183
:101A300050E069E472E088E492E00E94911F809196
:101A400040018093870280913F018093670287C99C
:101A50000FEC13E0DCECED2ED3E0FD2ECC24C39490
:101A6000CFEFD0E0DD24DA9480912A018C5F80935F
:101A70002A01F8013497808380914101811161C06E
:101A8000D7011C92C09241010E94811FBE010E9499
:101A9000051D8093280140912E0150E09C013327C1
:101AA000BA016252710926173707ECF04E5D5F4F9D
:101AB0004217530734F417C04E5D5F4F4217530768
:101AC00094F00E94811FBE010E94051D8093280191
:101AD00040912E0150E09C013327BA0162527109F6
:101AE000261737074CF780932E018093B501D092CB
:101AF000B601D092B7014CE051E062EB71E085EBAA
:101B000091E00E94BA0380913E01813051F1823010
:101B1000E9F02091B2019091B3018091B401F801F4
:101B20003297208331969083D8018C930B5F1F4F9F
:101B3000B5E0EB0EF11CE3E00D3E1E0709F094CF7B
:101B40005BCDF701C082109241019ECF9091B2010E
:101B50002091B3012093B2019093B3018091B4011D
:101B6000DECF9091B4018091B3018093B401909342
:101B7000B3012091B201D3CFC8E6D2E060E070E0BB
:101B8000CB0117C0BE0168567240882777FD80954B
:101B9000982F0E94C11D2BED3FE049EC50E40E94BC
:101BA0004D1E20E030E040E05DE30E944D1E0E94AB
:101BB000B01E20E030E040E85FE30E942F1D20E0EF
:101BC00030E048EC51E40E944D1E20E030E046E950
:101BD00052E40E942F1D0E94931D6993B2E0C83801
:101BE000DB0781F6FFCCC8E6D2E060E070E0CB0115
:101BF00017C0BE0168567240882777FD8095982FE0
:101C00000E94C11D2BED3FE049EC50E40E944D1EA7
:101C100020E030E040E85DE30E944D1E0E94B01ECF
:101C200020E030E040E85FE30E942F1D20E030E03C
:101C300048EC51E40E944D1E20E030E046E952E4B9
:101C40000E942F1D0E94931D6993E2E0C838DE07B1
:101C500081F6CDCC81508093360181110C94F7052B
:101C600068CD1F3108F002C11F5F1C9349CA230FC2
:101C70002A833DCA412F50E0EA01CC0FDD1FC40F7B
:101C8000D51FCE5ADE4F48814E0D488320CA909111
:101C9000B4018091B3018093B4019093B30120917A
:101CA000B201C0C880932901109237019DC880916C
:101CB0000801833009F45DC140912701809108013A
:101CC000883009F475C180912A018F5F80932A01C1
:101CD0004817A8F410922A018FEF80932B0180916E
:101CE0002801E82FF0E0E756FD4F908190932E01F8
:101CF0008F5F80932801823310F010922801809129
:101D000041018111B9C080916802809340018091A6
:101D1000480280933F014FE150E069E672E088E6B7
:101D200092E00E94911F4FE150E069E472E088E484
:101D300092E00E94911F80914001809387028091E0
:101D40003F0180936702109229010C94A50684E05C
:101D500080932701C6CC909109019F5F9093090160
:101D600090910901943010F08093090188E08093EC
:101D7000360181E08093350110923A012B982C981E
:101D80002D9880913A0158CB809187028093400131
:101D90008091670280933F014FE150E068E672E076
:101DA00089E692E00E94911F4FE150E068E472E002
:101DB00089E492E00E94911F809140018093680223
:101DC00080913F01809348020C94AF068091870276
:101DD000809340018091670280933F014FE150E082
:101DE00068E672E089E692E00E94911F4FE150E0C0
:101DF00068E472E089E492E00E94911F80914001C2
:101E00008093680280913F01809348020C94B4064D
:101E10008EE18093360181E08093350110923A0182
:101E20002B982C982D9810924C0180913A010ACB56
:101E300080915101813009F4D7C0809107018F5FF3
:101E40008093070180910701823118F081E080932F
:101E5000070110925101109238011092370187CD7D
:101E6000EB01F8828C918F5F8C934AC9EB01188249
:101E70008C9181508C9344C980918702809340015A
:101E80008091670280933F014FE150E068E672E085
:101E900089E692E00E94911F4FE150E068E472E011
:101EA00089E492E00E94911F809140018093680232
:101EB00080913F018093480246CF80912B0180930F
:101EC000680280912E01809348020C9401072093B0
:101ED000290110923701E5CA10923701DAC8209320
:101EE000290110923701E6C9209329011092370188
:101EF00010CA109229010C94B9062093290110925E
:101F0000370164C860910B0186E090E00E94AB1F2E
:101F10006091090185E090E00E94AB1F609108018B
:101F200084E090E00E94AB1F6091070183E090E0A5
:101F30000E94AB1F60914B0181E090E00E94AB1FBB
:101F400060913E0180E090E00E94AB1F88E08093AA
:101F5000360181E08093350110923A012B982C983C
:101F60002D9880913A016BCA81E080934A010C94CC
:101F7000680710912B0140912701E42FF0E0C12F59
:101F8000D0E0BF01655071092FEF30E0C9010E9418
:101F9000051DC617D7070CF45CC065E070E06E1B2A
:101FA0007F0BC9010E94051D160F10932B0186CED1
:101FB00010912B01E42FF0E0C12FD0E0BF0165505C
:101FC00071092FEF30E0C9010E94051DC617D70720
:101FD000ECF165E070E06E1B7F0BC9010E94051DEE
:101FE000160F10932B016FCE809108018F5F8093A5
:101FF0000801809108018D3010F01092080181E0F5
:1020000080933901B4CC88E080930B01A1CC10926D
:102010003E0123CA91EE980F86C991EE980F4BCAE4
:102020005091B2016091B3016093B2015093B3013A
:102030004091B4019BC93091B2014091B3014093EA
:10204000B2013093B3012091B40158CA10922B0110
:102050003ACE10922B0132CE5091B4014091B3018F
:102060004093B4015093B3016091B2017FC93091A4
:10207000B4012091B3012093B4013093B301409196
:10208000B2013CCA4091B2013091B3012091B40138
:102090000C941E083091B4012091B3012093B40137
:1020A0003093B3014091B2010C941E080197806EE9
:1020B0009F6F019605C90197806E9F6F01960C94E2
:1020C000EE071F920F920FB60F9211242F933F939A
:1020D0004F935F936F937F938F939F93AF93BF9330
:1020E000CF93DF93EF93FF9380918A0090918B00C1
:1020F00081509F4F90938B0080938A008091510173
:1021000020914F01309150018111A8C080914D0163
:1021100090914E012817390708F46CC08091C001D6
:10212000811109C08091B801882329F08091B801FC
:1021300081508093B8018091C101811109C08091C3
:10214000B901882329F08091B90181508093B901A8
:102150008091C201811109C08091BA01882329F0C0
:102160008091BA0181508093BA018091C30181119D
:1021700009C08091BB01882329F08091BB01815067
:102180008093BB018091C401811109C08091BC0181
:10219000882329F08091BC0181508093BC018091FB
:1021A000C501811109C08091BD01882329F080916A
:1021B000BD0181508093BD018091C601811109C08C
:1021C0008091BE01882329F08091BE0181508093C7
:1021D000BE018091C701811109C08091BF01882390
:1021E00029F08091BF0181508093BF01109250016E
:1021F00010924F01809107018F3008F054C08091F8
:102200004F019091500101969093500180934F019E
:1022100080914201909143010196909343018093F4
:1022200042018091420190914301019621F4109264
:10223000430110924201FF91EF91DF91CF91BF9145
:10224000AF919F918F917F916F915F914F913F914E
:102250002F910F900FBE0F901F90189580914D01F8
:1022600090914E012817390750F280910801813072
:1022700009F45FC080910801823009F45AC080914E
:102280000801893009F47FC0809108018A3009F47F
:102290007AC080910801843009F4ADC010925001D9
:1022A00010924F01ACCF80910701823108F0A7CF87
:1022B00080E090E04FE150E026C030914401231BC4
:1022C00011962C93DF01A80FB91FAE5ABE4F2C9167
:1022D00030914401231708F44BC030914401231B73
:1022E0002C93E80FF91FEE5AFE4F228130914401E2
:1022F0002317E0F130914401231B228301968032A1
:10230000910509F47CCF20914501281799F1FC0132
:10231000EE0FFF1FDF01A80FB91FAE5ABE4F119677
:102320002C91119730914401231738F611961C9285
:10233000C9CFC3E5D1E0A2E5B1E0E4E5F1E08881F1
:10234000882311F0815088838C91882311F081506B
:102350008C938081882311F081508083239613967B
:10236000339671E0E43BF70751F789CF1282C6CF6D
:102370001C92B7CF20914501BA01621B71098617E3
:10238000970729F6BBCFC3E5D1E0A2E5B1E0E4E5CC
:10239000F1E01EC090914401891B88838C9190913B
:1023A0004401981700F590914401891B8C9380811A
:1023B000909144019817E8F490914401891B80831F
:1023C00023961396339681E0E43BF80709F461CF36
:1023D0008881909144019817E8F218828C9190912D
:1023E0004401981700F31C92808190914401981742
:1023F00018F31082E5CFE4E5F1E0DF0111971C92BC
:1024000011971C921082339621E0E43BF207A9F762
:1024100045CF67E086E090E00E94BD1F61E085E067
:1024200090E00E94BD1F61E084E090E00E94BD1F2B
:1024300061E083E090E00E94BD1F60E081E090E0F9
:102440000E94BD1F60E080E090E00E94BD1F6BE035
:1024500082E090E00E94BD1F82E090E00E94A31FF6
:1024600080934C0186E090E00E94A31F80930B01B3
:1024700085E090E00E94A31F8093090184E090E032
:102480000E94A31F8093080183E090E00E94A31F95
:102490008093070181E090E00E94A31F80934B018D
:1024A00080E090E00E94A31F80933E010895CF93A7
:1024B000DF93CDB7DEB72A970FB6F894DEBF0FBE15
:1024C000CDBF81E08093810080916F008660809312
:1024D0006F00289A299A409A5A98229A8CE384B9D4
:1024E0008EE187B9529A82E090E00E94A31F809308
:1024F0004C0180914C018B3011F00C94C81C86E08B
:1025000090E00E94A31F80930B0185E090E00E9461
:10251000A31F8093090184E090E00E94A31F809391
:10252000080181E090E00E94A31F80934B0183E0AB
:1025300090E00E94A31F8093070180E090E00E943A
:10254000A31F80933E0180914B01882319F081E005
:1025500080934A0181E08093060190910A01809165
:102560000B01989FC001112490934E0180934D015F
:1025700081E18093450178941B821A822BEC32E032
:102580003D832C833FE1232E312C80914C01882305
:1025900011F40C944418AC81BD81E0E0F1E01D928F
:1025A0003197E9F785E680937C002BEC32E03D83A0
:1025B0002C83F90126EF20937A0080917A0084FF22
:1025C000FCCF8091780090917900905881939193FD
:1025D00033E0EB3CF30779F710927A002F923F92A9
:1025E0004F925F92FF920F931F93CF93DF93CBECA9
:1025F000D2E0E6EEF1E0FF2440E8659175910881B4
:102600001981970320010E034F1C10019E035F08E0
:10261000300C411C5F1CF8035F08300C411C5F1C30
:10262000499259924A9549F7DF91CF911F910F91A5
:10263000FF905F904F903F902F9011242F923F92E8
:102640006F927F92CF93DF93E6EEF5E048E3A5919A
:10265000BB27AA0FBB1FA553BD4F2D903C90C59122
:10266000DD27CC0FDD1FC553DD4F688079807C925C
:102670006E92288239824A9551F7DF91CF917F90EF
:102680006F903F902F902F923F924F925F926F9258
:102690007F928F929F92AF92BF92CF92DF92EF92F2
:1026A000FF920F931F93CF93DF93FF2400E1E02E5F
:1026B000CBECD2E0688079804A805B807594679427
:1026C000430155944794640C751C84189508AC809C
:1026D000BD804E805F80B594A79465015594479462
:1026E000A40CB51CC418D508688579854A845B8418
:1026F000759567958B0155944794640D751D041964
:1027000015098C859D854E845F84959587959C01E0
:1027100055944794840D951D241935097594679433
:102720002301B594A7946A0C7B1C4A185B08959406
:1027300087945401D594C7948C0C9D1CAC18BD088B
:10274000759567956B0195958795680F791FC81AE0
:10275000D90A75946794130175956795660E771E6F
:10276000261A370A42E85AE51503C001049FB00152
:1027700014039F09700D811D9F1D509F700D811DB9
:102780009F1D959487948401880E991E081B190B30
:1027900055944794D201D594C7944C0C5D1CAC1948
:1027A000BD093503C001249FB00134039F09700D9A
:1027B000811D9F1D529F700D811D9F1DB594A79473
:1027C0006501A80EB91EC81AD90A69927992899230
:1027D000999249925992A992B99229923992099360
:1027E0001993A993B993C992D992EA9409F062CF47
:1027F00000E2C02EDD2403E0902EE6E5F6E000E1E5
:10280000A02EBB2404E0E02EABECB2E0ED01CA0D3B
:10281000DB1D8E2C2D903C90488059803594279458
:10282000310155944794640C751C2418350829927D
:1028300039927C926E92AC0DBD1D1197EA9408817D
:1028400019813C912E914591559165917591150293
:102850002001049F100114035F08300C411C5F1C11
:10286000509F300C411C5F1C37023001269F200C0A
:10287000311C461C571C36035F08300C411C5F1C82
:10288000729F300C411C5F1C0E01CA19DB092880A5
:102890003980359427943101640C751C241835084F
:1028A00068827982E0012992399217022001069FFD
:1028B000100116035F08300C411C5F1C709F300C28
:1028C000411C5F1C35023001249F20183108460846
:1028D000570834035F1C301841085F08529F3018B6
:1028E00041085F080D01AA19BB092D903C90359451
:1028F00027943101640C751C241835087C926E9263
:10290000D0012D923C921297EA9409F098CFDE0103
:10291000AA19BB092D903C90488059803594279482
:10292000310155944794640C751C2418350828828D
:1029300039827C926E92C50196958795C80FD91FF2
:10294000CB3CD90540F4DE01CA0DDB1DE82CEA19A9
:10295000FB0934965FCF85FC06C0EA2CE69456014D
:10296000CC0CDD1C51CFDF91CF911F910F91FF90C7
:10297000EF90DF90CF90BF90AF909F908F907F901F
:102980006F905F904F903F902F9011242F923F9225
:102990004F925F926F927F928F92FF920F931F934D
:1029A000CF93DF93ABECB2E0C8ECD1E0EBECF3E01B
:1029B0004F01FF2440E40D911D91980106C0F401E0
:1029C0000D911D91329122914F0111022001009F22
:1029D000100198035F08300C411C5F1C330230016A
:1029E000229F200C311C461C571CBA035F08300C78
:1029F000411C5F1C1127552061F018E0F201F034F2
:102A000028F5330CEE1FFF1F330CEE1FFF1F1A9526
:102A10001DC0442069F014E0F42DE32DF034B0F42F
:102A2000220CEE1FFF1F220CEE1FFF1F1A95F6CF80
:102A3000F101F03458F4F03160F4F13078F0F295AF
:102A4000E295EF70EF2BE695F1E008C0EF2FF2E092
:102A500005C0EE0FFF1FEF2FE068F1E0EA51FD4FD8
:102A600004912227112321F0000F221F1A95E1F76C
:102A7000099329934A9509F0A2CFDF91CF911F9135
:102A80000F91FF908F907F906F905F904F903F904D
:102A90002F901124612C712C412C512CC12CD12C44
:102AA000E12CF12C00E010E020E030E0812C912CB2
:102AB000E8ECF1E041E050E080E090E038872F83DF
:102AC000FA87E98707C04034510549F14F5F5F4FEE
:102AD000E985FA8521913191FA87E987BA01625037
:102AE00071096F33710578F76C5C7F4FFB010C94B3
:102AF000191D5901A80EB91E60EDA61667E4B606A9
:102B000008F020C2ADECBCEC0E941F1D9695879585
:102B1000969587958A0D9B1D40345105B9F62F81F6
:102B20003885709289026092880250928B0240929E
:102B30008A02D0928D02C0928C02F0928F02E092B3
:102B40008E0210939102009390023093930220938F
:102B500092029092950280929402909397028093B1
:102B6000960280915101813009F47FC58091510115
:102B7000811156C280910901813009F4F4C5609138
:102B8000090170E088EC90E00E94051DFB01809136
:102B9000880290918902813D57E0950708F4E0C5CD
:102BA000805D9740BF010E94F11C8B0170938902E8
:102BB000609388028091050190E08617970708F0DE
:102BC000CCC5809105016B01C81AD10809F4C5C5AF
:102BD00080918A0290918B02813D67E0960708F40C
:102BE000B9C5805D9740BF010E94F11C70938B02B4
:102BF00060938A028091050190E08617970708F09C
:102C00002FC5809105019B01281B3109F22E432F0E
:102C10002C153D0510F4FC2C4D2D80918C029091CB
:102C20008D02813D77E0970708F417C5805D9740D6
:102C3000BF010E94F11C70938D0260938C02809101
:102C4000050190E08617970728F4809105019B0104
:102C5000281B3109CF2CD42EC216D30608F46901E3
:102C600080918E0290918F02813DA7E09A0708F42F
:102C7000F1C4805D9740BF010E94F11C70938F02E8
:102C800060938E028091050190E08617970728F4E3
:102C9000809105019B01281B3109C216D30608F457
:102CA00069018091900290919102813DB7E09B076C
:102CB00008F4CDC4805D9740BF010E94F11C709361
:102CC0009102609390028091050190E0861797072A
:102CD00028F4809105019B01281B3109C216D306F7
:102CE00008F469018091920290919302813D47E03E
:102CF000940708F4A9C4805D9740BF010E94F11CAD
:102D000070939302609392028091050190E0861780
:102D1000970728F4809105019B01281B3109760152
:102D2000C216D30608F4790180919402909195021D
:102D3000813D57E0950708F484C4805D9740BF014A
:102D40000E94F11C7093950260939402809105019A
:102D500090E08617970728F4809105019B01281BB6
:102D60003109E216F30608F47901809196029091F8
:102D70009702813D67E0960708F474C4805D974030
:102D8000BF010E94F11C709397026093960280919C
:102D9000050190E08617970728F4809105019B01B3
:102DA000281B3109FB82EA82E216F30610F43B830A
:102DB0002A83C801E12C21E000E010E0A2E0FA2E15
:102DC000CA80DB80B22E1EC0FA01E854FE4F20817B
:102DD00030E08217930708F44FC08083EE2009F497
:102DE0004DC0FC92080F191F88E0B81609F46DC198
:102DF000AB2DB0E0AA0FBB1FA857BD4F8D919C9182
:102E0000B394E394209109014E2D50E0213009F450
:102E1000B2C08C159D0508F4A2C08C199D099A01B9
:102E2000220F331FD901A857BD4F8D939C936091FA
:102E3000050170E06817790740F48091050190E082
:102E4000F901E857FD4F91838083DA01A054BE4F0A
:102E50006C91662309F4B8CF7FEF760F7C93FA016B
:102E6000E854FE4F208130E08217930708F0B5CF79
:102E7000772311F062506C93E110B4CF1C92080FCD
:102E8000191FB6CF820E931EF0ED8F16F7E49F0642
:102E900008F41CCEEFEC8E2EE7E49E2E17CEEF81C9
:102EA000F885E20FF31FF887EF83E03DF74408F45D
:102EB0000DCEEFECF7E4F887EF8308CE020F131F77
:102EC000003DF7E41F0708F401CE0FEC17E4FECD38
:102ED000E20EF31EE0EDEE16E7E4FE0608F4F6CD92
:102EE000FFECEF2EF7E4FF2EF1CDC20ED31EB0EDB6
:102EF000CB16B7E4DB0608F4E9CDAFECCA2EA7E4A5
:102F0000DA2EE4CDB901640D751D603DA7E47A07A2
:102F100008F529015694479456944794569447943B
:102F2000460E571ED3CDB901660D771D603DF7E4FF
:102F30007F0758F439017694679476946794660E07
:102F4000771EC4CD8FEC97E4BECD3FEC632E37E403
:102F5000732EBCCD2FEC422E27E4522EB7CDDA01D2
:102F6000AA0FBB1FA857BD4F1D921C92809105014F
:102F700080E090E06ACF813D77E0970708F4A2C037
:102F80009C01205D3740A3E8BDE20E941F1D96957D
:102F90008795929582958F7089279F7089273FCF5B
:102FA0009092440120914701205F213208F02FE1E7
:102FB0008091470190E0A816B90608F036C38091C9
:102FC00045018217C0F430E0F901EE0FFF1FE20F58
:102FD000F31FEE5AFE4F118210821282C101821B32
:102FE000930BFC01EE0FFF1FE80FF91FEE5AFE4F87
:102FF0001182108212821F5F193008F010E0013038
:1030000009F4D2C2DA9409F09AC08F2DF12E102F54
:10301000082FFFEF6F1A7F0A015E083F09F080C09A
:10302000F89460E270E082E591E00E94F204789406
:1030300080918A0290918B02892B51F580918C02AC
:1030400090918D02892B21F580918E0290918F02B3
:10305000892BF1F48091900290919102892BC1F417
:103060008091920290919302892B91F48091940225
:1030700090919502892B61F481E080939802809170
:103080004C0181110C94CB120E9409120C94CB12AA
:1030900080915101882321F01092500110924F012C
:1030A00090910A0180910B01989FC0011124909387
:1030B0004E0180934D0110929802109251015A983E
:1030C0000C94C51280E090E0AACE10924701809146
:1030D00007018F3098F080910701823178F49801D0
:1030E000ABEABAEA0E941F1D8C011695079516954A
:1030F00007950132110510F000E210E0C12C612C9F
:10310000712CEE24E394F12C55245A94BFE1BB2E8C
:1031100088248A9483E0482EB98258010C2D1E2DF4
:1031200044E0D42E55E0952E60E1E62E930128541C
:103130003E4F802F012F1F2D38872F83F82E80922E
:10314000B6018091070190E0FC013197E131F10572
:1031500008F051CFED58FF4F0C94191D9092440187
:1031600020914701205F213208F02FE18091470133
:1031700090E0A816B90608F422CF8091470140E3F9
:1031800050E0481B5109CA01880F8093B501809215
:10319000B7014CE051E062EB71E085EB91E02E83EA
:1031A0000E94BA0380913E012E81813009F402C44D
:1031B000823009F4F4C35091B2014091B3013091CF
:1031C000B401822F90E0FC01EE0FFF1FE80FF91F02
:1031D000EE5AFE4F518340833283B101681B790B55
:1031E000FB01EE0FFF1FE60FF71FEE5AFE4F518354
:1031F000408332838091470190E08A159B0509F056
:10320000FACE80914501281710F020934501809156
:10321000450190E0FC01EE0FFF1FE80FF91FEE5A89
:10322000FE4F51828091450190E0FC01EE0FFF1F9F
:10323000E80FF91FEE5AFE4F10828091450190E091
:10324000FC01EE0FFF1FE80FF91FEE5AFE4F12822E
:1032500080914501D101A81BB109FD01EE0FFF1FAF
:10326000EA0FFB1FEE5AFE4F518280914501F1019A
:10327000E81BF109CF01EE0FFF1FE80FF91FEE5A0F
:10328000FE4F1082809145019101281B3109F901FF
:10329000EE0FFF1FE20FF31FEE5AFE4F1282ABCE6E
:1032A000809148019091490190914701980F909326
:1032B000B501E12FF0E0E854FE4FE081F0E0EA557F
:1032C000FE4F859194918093B7014CE051E062EB01
:1032D00071E085EB91E00E94BA0380913E0181305C
:1032E00009F484C1823009F465C14091B201309182
:1032F000B3012091B4018091470190E0FC01EE0FF1
:10330000FF1FE80FF91FEE5AFE4F418380914701DE
:1033100090E0FC01EE0FFF1FE80FF91FEE5AFE4F81
:1033200030838091470190E0FC01EE0FFF1FE80F12
:10333000F91FEE5AFE4F22835ECEF092B501BFE137
:10334000FB1609F429C3AF81B885EC91F0E0EA558A
:10335000FE4F859194918093B7014CE051E062EB70
:1033600071E085EB91E00E94BA0380913E018130CB
:1033700009F447C1823009F428C14091B20130916B
:10338000B3012091B40180914701013009F42CC1AF
:10339000B981B81B8B2F01E090E0FC01EE0FFF1FFD
:1033A000E80FF91FEE5AFE4F41833083228323CE6C
:1033B000EF81F88580812FE330E0281B3109C901B6
:1033C000880F8093B501E08179CFEF81F885808106
:1033D0002FE330E0281B3109C901880F8093B50124
:1033E000DF01B3CFEF81F8858081880F8F57F6CF4B
:1033F000809148019091490190914701980F9093D5
:10340000B501A1CF80914801909149018F0D809322
:10341000B501AF81B88599CF80914801909149015C
:103420008F0D8093B50145CFF092B501EFE1FE120B
:1034300040CFE092B5013DCF809148019091490184
:103440008F0D8093B501AF81B885EC9137CFEF81B7
:10345000F8858081880F8F578093B501E0812ECF4A
:10346000809148019091490190914701980F909364
:10347000B501AF81B885EC9121CFF092B5019FE104
:10348000F912F7CFE092B501F4CF40924401809158
:103490004801909149018093B5018092B701209134
:1034A0004701205F213208F02FE14CE051E062EB50
:1034B00071E085EB91E02E830E94BA0380913E017A
:1034C0002E81813009F4A8C0823041F48091B2018C
:1034D0009091B3019093B2018093B3018091470121
:1034E00090E08A159B0509F086CD8091450128174B
:1034F00010F020934501809145012091B20190E0A8
:10350000FC01EE0FFF1FE80FF91FEE5AFE4F21835B
:10351000809145013091B30190E0FC01EE0FFF1F57
:10352000E80FF91FEE5AFE4F30838091450140911C
:10353000B40190E0FC01EE0FFF1FE80FF91FEE5AF7
:10354000FE4F428380914501B101681B7109FB0167
:10355000EE0FFF1FE60FF71FEE5AFE4F21838091FB
:103560004501D101A81BB109FD01EE0FFF1FEA0FB4
:10357000FB1FEE5AFE4F308380914501F101E81B9D
:10358000F109CF01EE0FFF1FE80FF91FEE5AFE4FB2
:10359000428331CD80914801909149018093B501DA
:1035A000AF81B885EC918ACE809147018F5F80937F
:1035B000470128CD3091B2014091B3014093B2014F
:1035C0003093B3012091B40196CE3091B201409175
:1035D000B3014093B2013093B3012091B4018091C3
:1035E0004701013009F0D4CE00E0D6CE3091B401CD
:1035F0002091B3012093B4013093B3014091B20103
:103600007ACE3091B4012091B3012093B40130936C
:10361000B3014091B201B7CE8091B4019091B30152
:103620009093B4018093B30159CF90914701892FB2
:10363000880F890F982F990F990F980F9093B501C4
:10364000A6CD80E090E07BCB80E090E056CB80E0A0
:1036500090E032CB80E090E00ECB80E090E0E8CAD2
:103660009601D4CA80E090E08BCB71ED671677E0CD
:10367000770608F06BC1109289021092880280913F
:10368000050180918A0290918B02813DA7E09A0703
:1036900008F03AC110928B0210928A0280910501C3
:1036A00080918C0290918D02813DB7E09B0708F0DC
:1036B00009C110928D0210928C02809105018091B7
:1036C0008E0290918F02813DE7E09E0708F0D8C0FE
:1036D00010928F0210928E028091050180919002CB
:1036E00090919102813DF7E09F0708F0A7C01092EA
:1036F0009102109290028091050180919202909126
:103700009302813D27E0920708F076C01092930261
:1037100010929202809105018091940290919502FD
:10372000813D37E0930708F045C010929502109252
:103730009402809105018091960290919702813DBB
:1037400047E09407A8F41092970210929602809195
:1037500005010CCA80E090E046CAC12CD12C38CAC1
:1037600080E090E01FCA809188029091890222CB6C
:103770009C01205D3740A3E8BDE20E941F1D969585
:103780008795929582958F7089279F70892790934E
:103790009702809396022091050130E0281739079F
:1037A00008F0E4C98091050190E09093970280931E
:1037B0009602DCC99C01205D3740A3E8BDE20E946F
:1037C0001F1D96958795929582958F7089279F707A
:1037D000892790939502809394022091050130E00F
:1037E0002817390708F0A7CF8091050190E0909342
:1037F0009502809394029FCF9C01205D3740A3E8FF
:10380000BDE20E941F1D96958795929582958F70B7
:1038100089279F7089279093930280939202209129
:10382000050130E02817390708F076CF80910501AF
:1038300090E090939302809392026ECF9C01205D62
:103840003740A3E8BDE20E941F1D9695879592958B
:1038500082958F7089279F7089279093910280931A
:1038600090022091050130E02817390708F045CF74
:103870008091050190E090939102809390023DCF5A
:103880009C01205D3740A3E8BDE20E941F1D969574
:103890008795929582958F7089279F70892790933D
:1038A0008F0280938E022091050130E0281739079E
:1038B00008F014CF8091050190E090938F028093DF
:1038C0008E020CCF9C01205D3740A3E8BDE20E9430
:1038D0001F1D96958795929582958F7089279F7069
:1038E000892790938D0280938C022091050130E00E
:1038F0002817390708F0E3CE8091050190E09093F6
:103900008D0280938C02DBCE9C01205D3740A3E8C2
:10391000BDE20E941F1D96958795929582958F70A6
:1039200089279F70892790938B0280938A02209128
:10393000050130E02817390708F0B2CE8091050163
:1039400090E090938B0280938A02AACE9301205D2F
:103950003740A3E8BDE20E941F1D9695879592957A
:1039600082958F7089279F70892790938902809311
:1039700088022091050130E02817390708F081CE30
:103980008091050190E0909389028093880279CE1E
:103990000E9409120C94A312E092B501D4CC40917C
:1039A000B2015091B3015093B2014093B3013091F1
:1039B000B40107CC4091B4013091B3013093B4010C
:1039C0004093B3015091B201FCCB991B79E004C044
:1039D000991F961708F0961B881F7A95C9F780954E
:1039E0000895AA1BBB1B51E107C0AA1FBB1FA61746
:1039F000B70710F0A61BB70B881F991F5A95A9F798
:103A000080959095BC01CD01089597FB072E16F483
:103A1000009407D077FD09D00E94F11C07FC05D067
:103A20003EF4909581959F4F0895709561957F4FD5
:103A30000895EE0FFF1F0590F491E02D0994A29FC9
:103A4000B001B39FC001A39F700D811D1124911D72
:103A5000B29F700D811D1124911D08955058BB27F0
:103A6000AA270ED0E0C0D1D030F0D6D020F031F46B
:103A70009F3F11F41EF4C6C00EF4E095E7FBBCC0F6
:103A8000E92FE2D080F3BA1762077307840795071E
:103A900018F071F49EF5FAC00EF4E0950B2EBA2FD3
:103AA000A02D0B01B90190010C01CA01A001112444
:103AB000FF27591B99F0593F50F4503E68F11A16F0
:103AC000F040A22F232F342F4427585FF3CF469581
:103AD00037952795A795F0405395C9F77EF41F16A3
:103AE000BA0B620B730B840BBAF09150A1F0FF0F6D
:103AF000BB1F661F771F881FC2F70EC0BA0F621F59
:103B0000731F841F48F4879577956795B795F79548
:103B10009E3F08F0B3CF9395880F08F09927EE0FDA
:103B200097958795089598D088F09F5790F0B92F72
:103B30009927B751A0F0D1F0660F771F881F991F02
:103B40001AF0BA95C9F712C0B13081F09FD0B1E038
:103B500008959CC0672F782F8827B85F39F0B93F48
:103B6000CCF3869577956795B395D9F73EF4909504
:103B70008095709561957F4F8F4F9F4F0895E89482
:103B800009C097FB3EF490958095709561957F4FA5
:103B90008F4F9F4F9923A9F0F92F96E9BB27939553
:103BA000F695879577956795B795F111F8CFFAF463
:103BB000BB0F11F460FF1BC06F5F7F4F8F4F9F4F94
:103BC00016C0882311F096E911C0772321F09EE8F2
:103BD000872F762F05C0662371F096E8862F70E058
:103BE00060E02AF09A95660F771F881FDAF7880F32
:103BF0009695879597F9089597F99F6780E870E003
:103C000060E008959FEF80EC089500240A94161652
:103C1000170618060906089500240A9412161306BA
:103C2000140605060895092E0394000C11F4882348
:103C300052F0BB0F40F4BF2B11F460FF04C06F5F64
:103C40007F4F8F4F9F4F089557FD9058440F551F3A
:103C500059F05F3F71F04795880F97FB991F61F00E
:103C60009F3F79F087950895121613061406551F85
:103C7000F2CF4695F1DF08C0161617061806991FF1
:103C8000F1CF86957105610508940895E894BB27E6
:103C900066277727CB0197F908950BD0C4CFB5DFFE
:103CA00028F0BADF18F0952309F0A6CFABCF112486
:103CB000EECFCADFA0F3959FD1F3950F50E0551FCB
:103CC000629FF001729FBB27F00DB11D639FAA2771
:103CD000F00DB11DAA1F649F6627B00DA11D661FC0
:103CE000829F2227B00DA11D621F739FB00DA11DE1
:103CF000621F839FA00D611D221F749F3327A00D9B
:103D0000611D231F849F600D211D822F762F6A2F36
:103D100011249F5750408AF0E1F088234AF0EE0FBB
:103D2000FF1FBB1F661F771F881F91505040A9F7C8
:103D30009E3F510570F060CFAACF5F3FECF3983EF5
:103D4000DCF3869577956795B795F795E7959F5F2F
:103D5000C1F7FE2B880F911D9695879597F90895C9
:103D60009F9305D00F9007FCEE5F28C04BCF74DF08
:103D7000E8F3E894E0E0BB279F57F0F02AED3FE03E
:103D800049EC06C0EE0FBB0F661F771F881F28F097
:103D9000B23A62077307840728F0B25A620B730BBA
:103DA000840BE3959A9572F7803830F49A95BB0F9F
:103DB000661F771F881FD2F7904813C0EF93E0FF6C
:103DC00006C0A2EA2AED3FE049EC5FEB59DE2BDFAB
:103DD0000F90039401FC9058E8E0F1E00EC09F3F83
:103DE00031F0915020F4879577956795B795880FB6
:103DF000911D9695879597F908959F938F937F933B
:103E00006F93FF93EF939B01AC0147DFEF91FF911D
:103E100005D02F913F914F915F913FCFDF93CF938B
:103E20001F930F93FF92EF92DF927B018C016894B6
:103E300005C0DA2EEF013DDFFE01E894A591259142
:103E4000359145915591AEF3EF011ADEFE019701D0
:103E5000A801DA9479F7DF90EF90FF900F911F910E
:103E6000CF91DF9108958F929F92AF92BF92CF92A0
:103E7000DF92EF92FF92CF93DF93EC01688179811B
:103E80008A819B81611571058105910521F464E2A8
:103E900079ED8BE597E02DE133EF41E050E00E94B2
:103EA000D41F49015A019B01AC01A7EAB1E40E9469
:103EB000F31F6B017C01ACEEB4EFA50194010E94ED
:103EC0000120C60ED71EE81EF91EF7FE06C081E0CF
:103ED000C81AD108E10880E8F80AC882D982EA82C3
:103EE000FB82C6019F77DF91CF91FF90EF90DF902B
:103EF000CF90BF90AF909F908F9008950E94331FF6
:103F0000089580E091E00E94331F0895A0E0B0E0A2
:103F10008093000190930101A0930201B0930301EB
:103F200008956817790768F4FB01DC01E40FF51FB9
:103F3000A40FB51F02C002900E9241505040D8F716
:103F400008950C94CB1FF999FECF92BD81BDF89ACC
:103F5000992780B50895262FF999FECF92BD81BD8E
:103F6000F89A019700B4021639F01FBA20BD0FB6B7
:103F7000F894FA9AF99A0FBE0895262FF999FECF70
:103F80001FBA92BD81BD20BD0FB6F894FA9AF99A76
:103F90000FBE01960895FB01DC0102C001900D9255
:103FA00041505040D8F70895052E97FB1EF4009419
:103FB0000E94EB1F57FD07D00E94062007FC03D08C
:103FC0004EF40C94EB1F50954095309521953F4F42
:103FD0004F4F5F4F089590958095709561957F4FF5
:103FE0008F4F9F4F08950E941F1DA59F900DB49F56
:103FF000900DA49F800D911D11240895B7FF0C947E
:10400000F31F0E94F31F821B930B0895A1E21A2E47
:10401000AA1BBB1BFD010DC0AA1FBB1FEE1FFF1F6C
:10402000A217B307E407F50720F0A21BB30BE40BBC
:10403000F50B661F771F881F991F1A9469F7609503
:104040007095809590959B01AC01BD01CF010895BD
:04405000F894FFCF12
:1040540001000000043F01010101460708FF0000C0
:10406400FF8000FFFF0000FF0000FFFF0000FF8053
:0640740000FFFF00000048
:00000001FF
