:100000000C949B030C94B8030C94B8030C94B803A1
:100010000C94B8030C94B8030C94B8030C94B80374
:100020000C94B8030C94B8030C94B8030C942205F8
:100030000C9457100C94B8030C94B8030C94B803A8
:100040000C94B8030C94B8030C94B8030C94B80344
:100050000C94B8030C94B8030C94B8030C94B80334
:100060000C94B8030C94B803891778176B176B17A7
:100070005E175E175E17541754175417541754170A
:10008000591545174517451745174517451745177E
:1000900045174517381738173817381738173817CE
:1000A00038173817381738173817381738173817D8
:1000B00038176F156F156F156F156F156F156F1555
:1000C0006F156F156F156F156F156F156F156F1510
:1000D0006F156F156F156F156F156F156F156F1500
:1000E0006F156F156F152F1ABC1A0E1A221A191ACE
:1000F000CA199119F419EA19E419D719061AFE193F
:1001000044199F18C617361A05A84CCDB2D44EB95B
:100110003836A9020C50B9918688083CA6AAAA2AAA
:10012000BE000000803F0000000000000000000052
:1001300000000000000000000000000000010101BC
:10014000010101010101010101010102020202029A
:100150000202020303030303040404040505050566
:100160000606060707080809090A0A0B0B0C0D0DFD
:100170000E0F1011121314151617181A1B1D1F201D
:10018000222426282A2D2F3235383B3E4245494D20
:1001900052565B60666B71777E858D949DA5AFB876
:1001A000C3CED9E5F2FF000000000000000000000F
:1001B0000000000101010101020202020303030425
:1001C000040505060708090A0B0C0D0F1113151776
:1001D0001A1D2024282D32383E454D56606B7785F8
:1001E00094A5B8CEE5FF000014005000B400400113
:1001F000F301CD02CD03F3043D06AD073F09F40A38
:10020000C90CBF0ED41007135515BE17411ADB1CBD
:100210008B1F502227250F28062B0A2E1931323426
:100220005237773AA03DCB40F5431C473F4A5C4DDF
:1002300070507A5378566759475C155FCF61756483
:1002400003677969D66B166E3A703F722674EB7548
:100250008F770F796D7AA57BB87CA57D6C7E0B7F3F
:10026000837FD37FFB7FFB7FD37F837F0B7F6C7E7E
:10027000A57DB87CA57B6D7A0F798F77EB75267499
:100280003F723A70166ED66B796903677564CF61F9
:10029000155F475C675978567A5370505C4D3F4AFA
:1002A0001C47F543CB40A03D773A523732341931E1
:1002B0000A2E062B0F28272550228B1FDB1C411AE4
:1002C000BE1755150713D410BF0EC90CF40A3F0909
:1002D000AD073D06F304CD03CD02F3014001B400A8
:1002E0005000140000000001010202020203030397
:1002F00003030304040404040404040505050505BC
:100300000505050505060606060606060606060692
:10031000060707070707070707070707070707086D
:10032000080808080808080808080808080808094C
:10033000090909090909090909090909090909092D
:10034000090A0A0A0A0A0A0A0A0A0A0A0A0A0A0A0E
:100350000A0A0A0A0A0B0B0B0B0B0B0B0B0B0B0BF2
:100360000B0B0B0B0B0B0B0B0B0B0B0C0C0C0C0CD8
:100370000C0C0C0C0C0C0C0C0C0C0C0C0C0C0C0CBD
:100380000C0C0C0D0D0D0D0D0D0D0D0D0D0D0D0DA0
:100390000D0D0D0D0D0D0D0D0D0D0D0D0D0E0E0E8A
:1003A0000E0E0E0E0E0E0E0E0E0E0E0E0E0E0E0E6D
:1003B0000E0E0E0E0E0E0E0E0E0F0F0F0F0F0F0F56
:1003C0000F0F0F0F0F0F0F0F0F0F0F0F0F0F0F0F3D
:1003D0000F0F0F0F0F0F0F10101010101010101024
:1003E0001010101010100006080A0B0D0E0F10113F
:1003F00012131414151617171819191A1B1B1C1C85
:100400001D1D1E1E1F1F20202121222223232424E4
:100410002525262626272728282829292A2A2A2B5F
:100420002B2B2C2C2D2D2D2E2E2E2F2F2F303030F0
:10043000313131323232333333343434343535358B
:1004400036363637373737383838393939393A3A2E
:100450003A3B3B3B3B3C3C3C3C3D3D3D3D3E3E3ED8
:100460003E3F3F3F3F40000B101417191C1E202237
:10047000242627292A2C2D2F30313334353637398D
:100480003A3B3C3D3E3F4041424344454647484855
:10049000494A4B4C4D4E4E4F505152525354555564
:1004A00056575858595A5B5B5C5D5D5E5F5F606193
:1004B000616263636465656666676868696A6A6BDA
:1004C0006B6C6D6D6E6E6F6F707171727273737431
:1004D000747576767777787879797A7A7B7B7C7C95
:1004E0007D7D7E7E7F7F0010171C2024272A2D30E3
:1004F0003335373A3C3E4042444648494B4D4E50D6
:100500005253555658595B5C5D5F60616364656624
:1005100068696A6B6D6E6F707172737476777879D3
:100520007A7B7C7D7E7F80818283848586878889B3
:100530008A8B8B8C8D8E8F909192939494959697B5
:100540009899999A9B9C9D9E9E9FA0A1A2A2A3A4CC
:10055000A5A6A6A7A8A9A9AAABACACADAEAFAFB0F3
:10056000B1B1B2B3B4B4B5B6B6B7B8B9B9BABBBB2A
:10057000BCBDBDBEBFBFC0C1C1C2C3C3C4C5C5C66B
:10058000C7C7C8C8C9CACACBCCCCCDCECECFCFD0B6
:10059000D1D1D2D2D3D4D4D5D5D6D7D7D8D8D9DA09
:1005A000DADBDBDCDDDDDEDEDFDFE0E1E1E2E2E362
:1005B000E3E4E5E5E6E6E7E7E8E8E9EAEAEBEBECC1
:1005C000ECEDEDEEEEEFEFF0F1F1F2F2F3F3F4F427
:1005D000F5F5F6F6F7F7F8F8F9F9FAFAFBFBFCFC93
:1005E000FDFDFEFEFFFF7007780F74177C1F72275A
:1005F0007A2F76377E3F7147794F75577D5F7367E6
:100600007B6F6003680B64136C1B62236A2B663379
:100610006E3B6143694B65536D5B5005580D541536
:100620005C1D52255A2D56355E3D5145594D4001B0
:10063000480944114C1942214A2946314E393006A5
:10064000380E34163C1E32263A2E2002280A241276
:100650002C1A1004180C4276FC30825A825AFC3054
:1006600042768A7DF9184276FC306E6A1D47825ABE
:10067000825A1D476E6AFC304276F9188A7D627F85
:100680008C0C8A7DF9187D7A28254276FC30E3703F
:10069000573C6E6A1D47F2623451825A825A345175
:1006A000F2621D476E6A573CE370FC3042762825A3
:1006B0007D7AF9188A7D8C0C627FD97F4806627F2B
:1006C0008C0C9D7EC8128A7DF9182A7C1A1F7D7AAF
:1006D000282585781F2B4276FC30B673BA36E37036
:1006E000573CCA6DCE416E6A1D47D066404CF262DF
:1006F0003451D75EF655825A825AF655D75E345138
:10070000F262404CD0661D476E6ACE41CA6D573CBE
:10071000E370BA36B673FC3042761F2B85782825F5
:100720007D7A1A1F2A7CF9188A7DC8129D7E8C0C4E
:10073000627F4806D97F11241FBECFEFD8E0DEBF0D
:10074000CDBF11E0A0E0B1E0EEEFF0E402C0059013
:100750000D92A632B107D9F724E0A6E2B1E001C0BC
:100760001D92A131B207E1F70E944D120C947D2039
:100770000C9400002F923F924F925F926F927F9263
:100780008F929F92AF92BF92CF92DF92EF92FF92A1
:100790000F931F93CF93DF93EC017B01FA018080CD
:1007A000912C80E091E0B4010E94F21C6B018881E1
:1007B0000E94D21C282F30E041E0841A91082815AD
:1007C000390509F408C18F5F082F10E03901660C64
:1007D000771CD301A20FB31FAE0FBF1F11963C9021
:1007E000832C912CA92EB12CDD242801440C551CFE
:1007F000D201A00FB11FAE0FBF1F11964C9150E058
:10080000481959094A9DC0014B9D900D5A9D900D64
:100810001124B6010E94F21C860E971E97FCDEC0C2
:100820008FEF8816910411F00CF0CCC0630D2224D8
:100830002A94312C261A3108D301A20FB31FAE0F10
:10084000BF1F12967C90872C912CD201A00FB11F54
:10085000AE0FBF1F12964C9150E048195909A49E43
:10086000C001A59E900DB49E900D1124B6010E946A
:10087000F21C860E971E4FEF8416910411F00CF0B7
:10088000A4C0760E88248A94912C871891082F5F33
:100890003F4FD901AA0FBB1FA20FB31FAE0FBF1F3F
:1008A0007C90272D30E00F5F1F4FD801AA0FBB1F90
:1008B000A00FB11FAE0FBF1F4C9150E0421B530B56
:1008C000A49EC001A59E900DB49E900D1124B6016A
:1008D0000E94F21C260F371F2F3F310511F00CF03C
:1008E00077C0760EEFEFF0E0E719F109498150E0AB
:1008F000249E9001259E300D349E300D1124A1E8D8
:10090000B0E80E940C1D880F892F881F990B9195C4
:10091000082F0095849E9001859E300D949E300D89
:1009200011240E940C1D880F892F881F990B919507
:10093000182F1095E49F9001E59F300DF49F300D26
:1009400011240E940C1D880F892F881F990B9195E7
:10095000482F40952A81029F900111240E940C1D6E
:10096000880F892F881F990B9195F70180832A8121
:10097000129F900111240E940C1D880F892F881F3F
:10098000990B919581832A81429F900111240E94A5
:100990000C1D880F892F881F990B91958283DF91F9
:1009A000CF911F910F91FF90EF90DF90CF90BF906C
:1009B000AF909F908F907F906F905F904F903F90FF
:1009C0002F900895212C312C37CF812C912C5FCF83
:1009D000E0E0F0E08BCF00E010E0F8CE22242A9493
:1009E000312C2ACF9B01220F331F260F371F3C9A31
:1009F00048B14F7E58B150616FB7F8942115310559
:100A0000C9F0FC01820F931F219138E058B9000012
:100A100000C000C027FF48B9220F000000C000C07E
:100A200000C000C048B9000000C03A9579F7E81747
:100A3000F90751F76FBF89EF90E00197F1F700C018
:100A4000000008951F920F920FB60F921124AF92DB
:100A5000BF92CF92DF92EF92FF920F931F932F934B
:100A60003F934F935F936F937F938F939F93AF9336
:100A7000BF93CF93DF93EF93FF9380918800909182
:100A800089000197909389008093880080914601A6
:100A9000882329F0809146018150809346018091FE
:100AA0004601811115C0809148019091490101963C
:100AB00090934901809348018091480190914901A8
:100AC0008F3F910511F008F0F6C089E08093460150
:100AD00080910401882319F1815080930401809151
:100AE0000601813009F4ECC0FF91EF91DF91CF91C5
:100AF000BF91AF919F918F917F916F915F914F9136
:100B00003F912F911F910F91FF90EF90DF90CF9029
:100B1000BF90AF900F900FBE0F901F90189584E07C
:100B200080930401809107018F30C8F080915101BA
:100B3000811115C080913D01811108C68091450148
:100B4000853128F08091450181508093450184E0F2
:100B500080933D0180910701813109F435C6189BCE
:100B600005C0309B03C0199910923C0118990DC023
:100B7000309B0BC0199B09C090913B019B3428F41A
:100B800081E080933A0180933C01189B0EC030991C
:100B90000CC0199B0AC090913B019B3430F482E059
:100BA00080933A0181E080933C0118990EC03099FE
:100BB0000CC0199B0AC090913B019B3430F483E038
:100BC00080933A0181E080933C01189963C0809141
:100BD0003A0190913C01811157C1913009F41EC432
:100BE00010923B0180913501813009F40CC4809151
:100BF0004A01813009F405C580913C01813009F436
:100C0000FEC42A9880914B01882309F478C0809112
:100C100032018F5F80933201873309F470C1809174
:100C20004B01813009F45EC1823029F48091310199
:100C3000883209F45CC180913001813009F061C0D3
:100C400080915101813009F496C5809142019091C3
:100C500043010E94DB1F8091070180932F01909137
:100C60000701981310C0CEE0D0E00E94D61FBE014D
:100C70000E94F21C8F5F8093070180910701909181
:100C80002F01981791F31092510110923801109290
:100C9000300137C0309B9BCF199999CF90913B0180
:100CA0009B3408F094CF84E080933A0181E08093F4
:100CB0003C0184E0B5C3109249011092480105CF70
:100CC00080910B01863009F41BC508F404C18730FC
:100CD00009F412C5883019F42B9A2C9A2D9A809118
:100CE0000901823009F499C4833009F49AC481302F
:100CF00019F4419A4298439810920601F5CE109249
:100D000031018091C002813009F45CC31092380136
:100D100080913901813009F410C48091080181303B
:100D200009F4A6C380910801823009F4D8C28091E9
:100D30000801833009F446C080910801873009F426
:100D400041C0809108018830E9F180910801843028
:100D500009F496C280910801853009F447C2809158
:100D60000801863009F4F2C180910801893009F444
:100D700073C1809108018A3009F40DC18091080186
:100D80008B3009F4C4C0809108018C3009F0A7CEE3
:100D900080915101813009F0A2CE80912B018931DF
:100DA00018F48F5F80932B01E4E5F1E0DF011197E8
:100DB0008C9311978C938083339641E0EC3CF4073D
:100DC000A9F78DCE80915101813009F0BECF80917D
:100DD00037018F5F80933701813009F463C78091B9
:100DE0002901813009F0B1CF8091410181110C942A
:100DF0005D0F80912B018093AF0280912E01809333
:100E0000870200E612E078E8E72E72E0F72EC4E5EC
:100E1000D1E0DD24DA9412C02091CA019091CB0177
:100E20008091CC01FE013197208331979083888394
:100E30002396F2E008381F0709F439C7D8018D91CD
:100E40008D018093CD01D092CE01F70181917F0178
:100E50008093CF014CE051E06AEC71E08DEC91E0C1
:100E60000E94BA0380913E01813009F410C782309C
:100E700099F69091CA012091CB012093CA019093D9
:100E8000CB018091CC01CECF9111A7CE90913B01A7
:100E90009111A6CE813009F449C5823009F4C8C742
:100EA000843009F09DCE80914B018F5F80934B0180
:100EB00080914B01833010F010924B0180914B01D7
:100EC00081110C94B40F10924A0181E080930601C5
:100ED00010923A0185CE853009F001CF2B982C98DD
:100EE0002D9AFDCE80913101843109F0A4CE10926B
:100EF00031011092320181E080933001A1CE8091C6
:100F000031018F5F809331011092320188CE809140
:100F10005101813009F037CF80912B01823318F4D1
:100F20008F5F80932B01C4E5D1E010E00FEF13C079
:100F30002091CA019091CB018091CC01FE013197A3
:100F400020833197908388831A5F2396103F09F49A
:100F50001ACF80912B011093CD010093CE01809385
:100F6000CF014CE051E06AEC71E08DEC91E00E9421
:100F7000BA0380913E01813009F40AC58230C1F67E
:100F80009091CA012091CB012093CA019093CB018B
:100F90008091CC01D3CF80915101813009F0EECE08
:100FA000209137012F5F2093370186E08093440121
:100FB00088E290E090934E0180934D01213009F436
:100FC00097C780912901813009F0D8CE0E94D61FA1
:100FD00068E270E00E94F21C80932A010E94D61FF2
:100FE000209148013091490168E770E00E94F21CAD
:100FF000280F2093CD018FEF8093CE018093CF01F6
:101000004CE051E06AEC71E08DEC91E00E94BA0393
:1010100080913E01813011F40C944B10823011F01C
:101020000C9443103091CA014091CB014093CA0106
:101030003093CB012091CC0180912A0190E0FC01FA
:10104000EE0FFF1FE80FF91FEE5AFE4F418330836A
:1010500022831092290192CE80915101813009F0B2
:1010600088CE209137012F5F2093370186E080934F
:10107000440188E290E090934E0180934D0121302D
:1010800009F429C780912901813009F072CEA3EFBC
:10109000B3E064EF73E0E7EFF3E00FEFFF24F394C6
:1010A00036C0E5010983EF012197E880E901C80F07
:1010B000D91FCE5ADE4FD8804E2D50E04D0D511D18
:1010C0004F3F51050CF4D6C50883E901C80FD91F5D
:1010D000CE5ADE4F2A813081832F90E0820F911DFE
:1010E0008F3F91050CF4C3C50A83EB018881811100
:1010F000B8C5112309F4B4C611501C9315966B5F43
:101100007F4F3596D4E0A131BD0709F4E0C61C91AC
:10111000812F90E09C01220F331F5901A80EB91EA8
:10112000E501CE5ADE4F5E01E980AF014250510920
:10113000EA01D8804D2D50E04E0D511D4F3F510515
:101140000CF0AFCFED0CE501E982ADCF80915101FC
:10115000813009F009CE58E8E52E52E0F52EC4E5BD
:10116000D1E08701DD24DA9412C02091CA01909168
:10117000CB018091CC01FE01319720833197908380
:1011800088832396B2E0003B1B0709F417C48091C3
:10119000480190914901902F9E19980F9093CD018D
:1011A000D092CE01D801ED918D01F0E0EA5DFE4FC5
:1011B000859194918093CF014CE051E06AEC71E00D
:1011C0008DEC91E00E94BA0380913E01813009F4D8
:1011D000EAC3823051F69091CA012091CB0120934D
:1011E000CA019093CB018091CC01C5CF8091510170
:1011F000813009F0B4CD08E812E0C4E5D1E0FF2465
:10120000FA9412C02091CA019091CB018091CC0137
:10121000FE01319720833197908388832396B2E033
:10122000003B1B0709F4F1C48091480190914901EA
:101230008093CD01F092CE01D801ED918D01F0E0C7
:10124000EA5DFE4F859194918093CF014CE051E08F
:101250006AEC71E08DEC91E00E94BA0380913E014E
:10126000813009F48AC3823069F69091CA012091D5
:10127000CB012093CA019093CB018091CC01C8CFC0
:1012800080915101813009F065CD209137012F5FA8
:101290002093370180ED97E090934E0180934D01AC
:1012A000213009F420C680912901813009F052CD06
:1012B0000E94D61F68E270E00E94F21C8093260113
:1012C0009927FC01EE0FFF1FE80FF91FEE5AFE4FA2
:1012D0008FEF818380838283109229013BCD80919F
:1012E0005101813009F023CD209137012F5F2093E8
:1012F000370184E190E090934E0180934D012130BD
:1013000009F4FBC580912901813009F010CD80914D
:101310002C0190912D01873291050CF078C697E24F
:10132000981B90932A0180914801909149018093E4
:10133000CD018FEF8093CE018093CF014CE051E03F
:101340006AEC71E08DEC91E00E94BA0380913E015D
:10135000813009F48DC6823009F463C66091CA01F8
:101360005091CB014091CC0120912A0130E0F9014C
:10137000EE0FFF1FE20FF31FEE5AFE4F6183508303
:10138000428387E290E0821B930BFC01EE0FFF1F6C
:10139000E80FF91FEE5AFE4F61835083428380911C
:1013A0002C0190912D01019690932D0180932C0199
:1013B0008D34910524F010922D0110922C01109281
:1013C0002901B5CC809151018111A0CC80913701C8
:1013D0008F5F8093370190910801992309F4BCC174
:1013E000823309F4BCC180913801833009F090CC7C
:1013F00081E080935101109238011092370180935F
:1014000039015A9A85CC10924A018091340188237F
:1014100009F483C1815080933401E9CB90913B0161
:101420009F3530F49F5F90933B019B3408F4DACBF7
:10143000813009F4C2C4823009F464C5833009F4F0
:10144000ACC4843009F0CECB80913E018F5F809395
:101450003E01833009F4D8C588E08093360181E0ED
:101460008093350110923A012B982C982D98BACB85
:1014700080915101813009F055CC209137012F5FC7
:101480002093370188E290E090934E0180934D01C4
:10149000213009F423C580912901813009F042CC23
:1014A00080912C0190912D01873291050CF0B6C5E9
:1014B00097E2981B90932A018091480190914901ED
:1014C0008093CD018FEF8093CE018093CF014CE0CC
:1014D00051E06AEC71E08DEC91E00E94BA038091DA
:1014E0003E01813009F4B9C5823009F4A5C54091A7
:1014F000CA013091CB012091CC0180912A0190E06A
:10150000FC01EE0FFF1FE80FF91FEE5AFE4F41835B
:101510003083228380912C0190912D01019690932C
:101520002D0180932C018D34910524F010922D0112
:1015300010922C0110922901F5CBE4E5F1E0DF01D6
:1015400011971C9211971C9210823396D1E0EC3CBB
:10155000FD07A9F700E612E088E2F801482F119292
:101560004A95E9F798E8E92E92E0F92ED7011D9205
:101570008A95E9F780914201909143010E94DB1F17
:101580000E94D61F6FEF70E00E94F21C80932E0124
:1015900087E290E090932D0180932C0110922B0113
:1015A00010922A01109237011092290110924001E5
:1015B00010923F01809141018111ACC081E0809384
:1015C000410180910801833081F1809108018730C9
:1015D00061F180910801883041F1809108018530E6
:1015E00009F4DCC280910801863009F4A0C2809120
:1015F0000801893009F407C2109239018ECB2A9A6A
:1016000001CB2B982C982D9890913301992309F4B4
:101610007BC0915090933301EFCA4198429A43980E
:101620006BCB41984298439A67CB8FEF80932B0105
:101630000E94D61F6FEF70E00E94F21C80932E0173
:1016400010922A0110922D0110922C0180932801F2
:10165000682F20E030E0CFEFD0E070E0482F50E07E
:10166000FB017D974E175F070CF1635E7F4F641798
:10167000750734F41BC0435E5F4F4217530794F065
:101680000E94D61FBE010E94F21C80932801409147
:101690002E0150E09C013327BA016D5171092617C4
:1016A00037074CF720912C0130912D01F901EF53B0
:1016B000FD4F808380932E012F5F3F4F30932D018C
:1016C00020932C012233310514F4682FC6CF1092D9
:1016D000280180910801883009F439C38AE0809399
:1016E000270188E2E701E82F1992EA95E9F7D80186
:1016F0001D928A95E9F771CF2B9A2C982D98EFCAF5
:101700002B982C9A2D98EBCA9EE1909333018093ED
:10171000060172CA1092410154CF2B9928C02B9A0E
:101720002C9A2D9A81E080933401809136018111A9
:1017300091C281E0809306011092350190914B0196
:10174000992309F454CA80934A0151CA8150809365
:101750003D01811104CAF2C9883009F044CE80915C
:1017600038018F5F80933801109237013ECE2B985D
:101770002C982D98D7CF80910801882309F4C1CAED
:1017800080914201909143010E94DB1F80910801EA
:1017900080932F0190910801981310C0CAE0D0E007
:1017A0000E94D61FBE010E94F21C8F5F8093080129
:1017B0008091080190912F01981791F381E0809317
:1017C0003901109230019DCA81E080933D018091E2
:1017D0004801909149018093CD018FEF8093CE0114
:1017E0008DEC8093CF01809145016091CA0190E01A
:1017F000FC01EE0FFF1FE80FF91FEE5AFE4F618349
:10180000809145015091CB0190E0FC01EE0FFF1F4C
:10181000E80FF91FEE5AFE4F508380914501409129
:10182000CC0190E0FC01EE0FFF1FE80FF91FEE5A0C
:10183000FE4F42832091450187E290E0DC01A21B2C
:10184000B109FD01EE0FFF1FEA0FFB1FEE5AFE4F1D
:10185000618320914501EC01C21BD109FE01EE0F0D
:10186000FF1FEC0FFD1FEE5AFE4F508320914501E4
:10187000FC01E21BF1099F01EE0FFF1FE20FF31FB6
:10188000EE5AFE4F428320914501253108F467C985
:10189000209145012150209345012091450130E0E0
:1018A000F901EE0FFF1FE20FF31FEE5AFE4F6183A7
:1018B0002091450130E0F901EE0FFF1FE20FF31F09
:1018C000EE5AFE4F50832091450130E0F901EE0FB2
:1018D000FF1FE20FF31FEE5AFE4F42832091450196
:1018E000DC01A21BB109FD01EE0FFF1FEA0FFB1F78
:1018F000EE5AFE4F618320914501EC01C21BD109D4
:101900009E01FE01EE0FFF1FE20FF31FEE5AFE4F86
:10191000508320914501821B9109FC01EE0FFF1FAE
:10192000E80FF91FEE5AFE4F428319C91092500179
:1019300010924F0180910B01882329F080910B01B7
:10194000815080930B0180910B01843009F462C3B4
:101950008091510181110BC090910A0180910B017E
:10196000989FC001112490934E0180934D0181E016
:101970008093060110923A0133C99091CC01809175
:10198000CB018093CC019093CB012091CA0140CC34
:101990009091CC018091CB018093CC019093CB01AD
:1019A0002091CA01CBCA9091CC018091CB01809348
:1019B000CC019093CB012091CA01DDCB80914101F4
:1019C0008111C9C180918802809340018091600299
:1019D00080933F0147E250E069E872E088E892E0D6
:1019E0000E94E61F47E250E061E672E080E692E086
:1019F0000E94E61F809140018093AF0280913F01D9
:101A000080938702B1C907EF13E0D4EFED2ED3E046
:101A1000FD2ECC24C394CFEFD0E0DD24DA94809166
:101A20002A018B5F80932A01F8013497808380918B
:101A30004101811161C0D7011C92C09241010E94F5
:101A4000D61FBE010E94F21C8093280140912E01F6
:101A500050E09C013327BA016252710926173707FB
:101A6000ECF04E5D5F4F4217530734F417C04E5DE4
:101A70005F4F4217530794F00E94D61FBE010E9489
:101A8000F21C8093280140912E0150E09C013327E5
:101A9000BA0162527109261737074CF780932E015D
:101AA0008093CD01D092CE01D092CF014CE051E095
:101AB0006AEC71E08DEC91E00E94BA0380913E01E6
:101AC000813051F18230E9F02091CA019091CB012F
:101AD0008091CC01F8013297208331969083D80110
:101AE0008C930B5F1F4FB5E0EB0EF11CE4E005316A
:101AF0001E0709F094CF80CDF701C08210924101FA
:101B00009ECF9091CA012091CB012093CA0190935E
:101B1000CB018091CC01DECF9091CC018091CB01A3
:101B20008093CC019093CB012091CA01D3CFC8E818
:101B3000D2E060E070E0CB0117C0BE01685872408F
:101B4000882777FD8095982F0E94161E2BED3FE089
:101B500049EC50E40E94A21E20E030E040EA51E44B
:101B60000E94801D0E94051F20E030E040E85FE3F6
:101B70000E941C1D20E030E048EC51E40E94A21EAF
:101B800020E030E046E952E40E941C1D0E94E81D5E
:101B90006993E2E0C03BDE0781F629CDC8E8D2E0D8
:101BA00060E070E0CB0117C0BE0168587240882722
:101BB00077FD8095982F0E94161E2BED3FE049EC93
:101BC00050E40E94A21E20E030E040E252E40E9475
:101BD000801D0E94051F20E030E040E85FE30E9486
:101BE0001C1D20E030E048EC51E40E94A21E20E0E1
:101BF00030E046E952E40E941C1D0E94E81D6993F2
:101C0000B2E0C03BDB0781F6EDCC80914101811150
:101C1000EDC08091880280934001809160028093A2
:101C20003F0147E250E069E872E088E892E00E94F4
:101C3000E61F47E250E061E672E080E692E00E9433
:101C4000E61F809140018093AF0280913F01809315
:101C5000870285C881508093360181110C94F70565
:101C600068CD173208F002C11F5F1C9347CA230FCB
:101C70002A833BCA412F50E0EA01CC0FDD1FC40F7D
:101C8000D51FCE5ADE4F48814E0D48831ECA909113
:101C9000CC018091CB018093CC019093CB0120911A
:101CA000CA01C0C880932901109237019DC8809154
:101CB0000801833009F47AC140912701809108011D
:101CC000883009F456C180912A018F5F80932A01E0
:101CD0004817A8F410922A018FEF80932B0180916E
:101CE0002801E82FF0E0EF53FD4F908190932E01F3
:101CF0008F5F80932801823310F010922801809129
:101D000041018111B9C08091880280934001809186
:101D1000600280933F0147E250E069E872E088E8A2
:101D200092E00E94E61F47E250E061E672E080E642
:101D300092E00E94E61F809140018093AF02809163
:101D40003F0180938702109229010C94A50685E03B
:101D500080932701C6CC8091AF028093400180918F
:101D6000870280933F0147E250E068E872E089E82B
:101D700092E00E94E61F47E250E060E672E081E6F2
:101D800092E00E94E61F809140018093880280913A
:101D90003F01809360020C94B4068EE1809336017B
:101DA00081E08093350110923A012B982C982D9860
:101DB00010924C0180913A0144CB909109019F5FB0
:101DC0009093090190910901943010F080930901DA
:101DD00088E08093360181E08093350110923A01CA
:101DE0002B982C982D9880913A0125CB8091AF02A9
:101DF000809340018091870280933F0147E250E049
:101E000068E872E089E892E00E94E61F47E250E04D
:101E100060E672E081E692E00E94E61F8091400158
:101E20008093880280913F01809360020C94AF06FA
:101E300080915101813009F4D8C0809107018F5FF2
:101E40008093070180910701823118F081E080932F
:101E5000070110925101109238011092370187CD7D
:101E6000EB01F8828C918F5F8C9348C9EB0118824B
:101E70008C9181508C9342C98091AF028093400134
:101E80008091870280933F0147E250E068E872E06A
:101E900089E892E00E94E61F47E250E060E672E0C7
:101EA00081E692E00E94E61F8091400180938802C3
:101EB00080913F018093600246CF80912B018093F7
:101EC000880280912E01809360020C940107109289
:101ED00029010C94B90610923701D9C82093290121
:101EE00010923701DDCA2093290110923701E0C911
:101EF000209329011092370169C82093290110927B
:101F0000370105CA60910B0186E090E00E94002035
:101F10006091090185E090E00E9400206091080135
:101F200084E090E00E9400206091070183E090E04F
:101F30000E94002060914B0181E090E00E9400200F
:101F400060913E0180E090E00E94002088E0809354
:101F5000360181E08093350110923A012B982C983C
:101F60002D9880913A016ACA81E080934A010C94CD
:101F7000680710912B01E42FF0E0C12FD0E0BF01E2
:101F8000655071092FEF30E0C9010E94F21CC6179D
:101F9000D7070CF45CC065E070E06E1B7F0BC901D5
:101FA0000E94F21C160F10932B018DCE10912B0165
:101FB00040912701E42FF0E0C12FD0E0BF01655030
:101FC00071092FEF30E0C9010E94F21CC617D70734
:101FD0000CF440C065E070E06E1B7F0BC9010E94ED
:101FE000F21C160F10932B0169CE809108018F5FB0
:101FF00080930801809108018D3010F01092080143
:1020000081E080933901B3CC10923E0125CA99ED4D
:10201000980F87C988E080930B019ACC99ED980FAF
:1020200049CA5091CA016091CB016093CA01509393
:10203000CB014091CC0198C93091CA014091CB01AC
:102040004093CA013093CB012091CC0156CA109223
:102050002B0139CE10922B0131CE3091CC01209141
:10206000CB012093CC013093CB014091CA0145CAEA
:102070005091CC014091CB014093CC015093CB01C6
:102080006091CA0171C94091CA013091CB01209180
:10209000CC010C941C083091CC012091CB012093F1
:1020A000CC013093CB014091CA010C941C081F92C3
:1020B0000F920FB60F9211242F933F934F935F937C
:1020C0006F937F938F939F93AF93BF93CF93DF9340
:1020D000EF93FF9380918A0090918B0081509F4FE6
:1020E00090938B0080938A008091510120914F0141
:1020F000309150018111A8C080914D0190914E0105
:102100002817390708F46CC08091D801811109C0E3
:102110008091D001882329F08091D0018150809353
:10212000D0018091D901811109C08091D10188230A
:1021300029F08091D10181508093D1018091DA0101
:10214000811109C08091D201882329F08091D201A8
:1021500081508093D2018091DB01811109C080916F
:10216000D301882329F08091D30181508093D3013A
:102170008091DC01811109C08091D401882329F06C
:102180008091D40181508093D4018091DD0181112F
:1021900009C08091D501882329F08091D501815013
:1021A0008093D5018091DE01811109C08091D60113
:1021B000882329F08091D60181508093D6018091A7
:1021C000DF01811109C08091D701882329F0809116
:1021D000D70181508093D7011092500110924F0186
:1021E000809107018F3008F054C080914F01909189
:1021F000500101969093500180934F0180914201CC
:102200009091430101969093430180934201809104
:10221000420190914301019621F4109243011092E2
:102220004201FF91EF91DF91CF91BF91AF919F91CB
:102230008F917F916F915F914F913F912F910F906F
:102240000FBE0F901F90189580914D0190914E01F7
:102250002817390750F280910801813009F45FC0D6
:1022600080910801823009F45AC0809108018930B8
:1022700009F47FC0809108018A3009F47AC0809106
:102280000801843009F4ADC01092500110924F0142
:10229000ACCF80910701823108F0A7CF80E090E0B9
:1022A00047E250E026C030914401231B11962C9345
:1022B000DF01A80FB91FAE5ABE4F2C9130914401D7
:1022C000231708F44BC030914401231B2C93E80FD3
:1022D000F91FEE5AFE4F2281309144012317E0F19D
:1022E00030914401231B228301968832910509F421
:1022F0007CCF20914501281799F1FC01EE0FFF1FBB
:10230000DF01A80FB91FAE5ABE4F11962C9111973D
:1023100030914401231738F611961C92C9CFC3E5BA
:10232000D1E0A2E5B1E0E4E5F1E08881882311F095
:10233000815088838C91882311F081508C93808107
:10234000882311F08150808323961396339671E091
:10235000EC3CF70751F789CF1282C6CF1C92B7CF5A
:1023600020914501BA01621B71098617970729F66A
:10237000BBCFC3E5D1E0A2E5B1E0E4E5F1E01EC0EA
:1023800090914401891B88838C9190914401981706
:1023900000F590914401891B8C93808190914401B8
:1023A0009817E8F490914401891B80832396139633
:1023B000339681E0EC3CF80709F461CF8881909175
:1023C00044019817E8F218828C9190914401981773
:1023D00000F31C92808190914401981718F31082A9
:1023E000E5CFE4E5F1E0DF0111971C9211971C9213
:1023F0001082339621E0EC3CF207A9F745CF67E065
:1024000086E090E00E94122061E085E090E00E946A
:10241000122061E084E090E00E94122061E083E0FD
:1024200090E00E94122060E081E090E00E94122083
:1024300060E080E090E00E9412206BE082E090E09B
:102440000E94122082E090E00E94F81F80934C01CD
:1024500086E090E00E94F81F80930B0185E090E0F9
:102460000E94F81F8093090184E090E00E94F81F09
:102470008093080183E090E00E94F81F8093070199
:1024800081E090E00E94F81F80934B0180E090E093
:102490000E94F81F80933E010895CF93DF93CDB73C
:1024A000DEB729970FB6F894DEBF0FBECDBF81E02F
:1024B0008093810080916F00866080936F00289ADE
:1024C000299A409A5A98229A8CE384B98EE187B966
:1024D000529A82E090E00E94F81F80934C01809114
:1024E0004C018B3011F00C94C01C86E090E00E94EF
:1024F000F81F80930B0185E090E00E94F81F809305
:10250000090184E090E00E94F81F8093080181E0B7
:1025100090E00E94F81F80934B0183E090E00E94BE
:10252000F81F8093070180E090E00E94F81F8093DD
:102530003E0180914B01882319F081E080934A018C
:1025400081E08093060190910A0180910B01989F90
:10255000C001112490934E0180934D0185E1809339
:10256000450178941A82198223EF32E03C832B8351
:10257000A7E22A2E312C80914C01882311F40C946F
:102580003918AB81BC81E0E0F1E01D923197E9F7A9
:1025900085E680937C0023EF32E03C832B83F901B6
:1025A00026EF20937A0080917A0084FFFCCF8091FF
:1025B00078009091790090588193919333E0E33FB4
:1025C000F30779F710927A002F923F924F925F9221
:1025D000FF920F931F93CF93DF93C3EFD2E0E6EE0A
:1025E000F1E0FF2440E86591759108811981970316
:1025F00020010E034F1C10019E035F08300C411C8C
:102600005F1CF8035F08300C411C5F1C4992599213
:102610004A9549F7DF91CF911F910F91FF905F90FD
:102620004F903F902F9011242F923F926F927F9264
:10263000CF93DF93E6EEF5E048E3A591BB27AA0F21
:10264000BB1FAD50BD4F2D903C90C591DD27CC0FE9
:10265000DD1FCD50DD4F688079807C926E9228829C
:1026600039824A9551F7DF91CF917F906F903F90DB
:102670002F902F923F924F925F926F927F928F9204
:102680009F92AF92BF92CF92DF92EF92FF920F9301
:102690001F93CF93DF93FF2400E1E02EC3EFD2E03E
:1026A000688079804A805B80759467944301559473
:1026B0004794640C751C84189508AC80BD804E80CE
:1026C0005F80B594A794650155944794A40CB51CFC
:1026D000C418D508688579854A845B8475956795A3
:1026E0008B0155944794640D751D041915098C854B
:1026F0009D854E845F84959587959C01559447945C
:10270000840D951D24193509759467942301B5949A
:10271000A7946A0C7B1C4A185B0895948794540113
:10272000D594C7948C0C9D1CAC18BD087595679505
:102730006B0195958795680F791FC81AD90A75940A
:102740006794130175956795660E771E261A370AEA
:1027500042E85AE51503C001049FB00114039F0924
:10276000700D811D9F1D509F700D811D9F1D9594A3
:1027700087948401880E991E081B190B5594479461
:10278000D201D594C7944C0C5D1CAC19BD0935031E
:10279000C001249FB00134039F09700D811D9F1D4E
:1027A000529F700D811D9F1DB594A7946501A80EC1
:1027B000B91EC81AD90A6992799289929992499256
:1027C0005992A992B9922992399209931993A9938E
:1027D000B993C992D992EA9409F062CF00E2C02E6F
:1027E000DD2403E0902EE6E5F6E000E1A02EBB2418
:1027F00004E0E02EA3EFB2E0ED01CA0DDB1D8E2C4C
:102800002D903C90488059803594279431015594FF
:102810004794640C751C24183508299239927C92CF
:102820006E92AC0DBD1D1197EA94088119813C91FF
:102830002E91459155916591759115022001049F46
:10284000100114035F08300C411C5F1C509F300CBA
:10285000411C5F1C37023001269F200C311C461C96
:10286000571C36035F08300C411C5F1C729F300CF4
:10287000411C5F1C0E01CA19DB0928803980359480
:1028800027943101640C751C2418350868827982FC
:10289000E0012992399217022001069F10011603C8
:1028A0005F08300C411C5F1C709F300C411C5F1C8A
:1028B00035023001249F2018310846085708340398
:1028C0005F1C301841085F08529F301841085F08AC
:1028D0000D01AA19BB092D903C9035942794310124
:1028E000640C751C241835087C926E92D0012D92D0
:1028F0003C921297EA9409F098CFDE01AA19BB091D
:102900002D903C90488059803594279431015594FE
:102910004794640C751C24183508288239827C92EF
:102920006E92C50196958795C80FD91FC33FD905EB
:1029300040F4DE01CA0DDB1DE82CEA19FB093496D0
:102940005FCF85FC06C0EA2CE6945601CC0CDD1C5A
:1029500051CFDF91CF911F910F91FF90EF90DF90BA
:10296000CF90BF90AF909F908F907F906F905F902F
:102970004F903F902F9011242F923F924F925F9251
:102980006F927F928F92FF920F931F93CF93DF935B
:10299000A3EFB2E0C0EED1E0E3EFF3E04F01FF249C
:1029A00040E40D911D91980106C0F4010D911D9117
:1029B000329122914F0111022001009F10019803D2
:1029C0005F08300C411C5F1C33023001229F200C39
:1029D000311C461C571CBA035F08300C411C5F1C9D
:1029E0001127552061F018E0F201F03428F5330C7E
:1029F000EE1FFF1F330CEE1FFF1F1A951DC0442052
:102A000069F014E0F42DE32DF034B0F4220CEE1F45
:102A1000FF1F220CEE1FFF1F1A95F6CFF101F034B5
:102A200058F4F03160F4F13078F0F295E295EF70FF
:102A3000EF2BE695F1E008C0EF2FF2E005C0EE0FB6
:102A4000FF1FEF2FE068F1E0EA51FD4F04912227CC
:102A5000112321F0000F221F1A95E1F70993299302
:102A60004A9509F0A2CFDF91CF911F910F91FF906E
:102A70008F907F906F905F904F903F902F90112498
:102A8000612C712C412C512CC12CD12CE12CF12C1E
:102A900000E010E020E030E0812C912CE0EEF1E04D
:102AA00041E050E080E090E03F832E83F987E887A3
:102AB00007C04034510549F14F5F5F4FE885F98504
:102AC00021913191F987E887BA01625071096F331A
:102AD000710578F76C5C7F4FFB010C94061D590162
:102AE000A80EB91E60EDA61667E4B60608F020C26F
:102AF000ADECBCEC0E940C1D96958795969587953C
:102B00008A0D9B1D40345105B9F62E813F8170928C
:102B1000B1026092B0025092B3024092B202D092DF
:102B2000B502C092B402F092B702E092B6021093DE
:102B3000B9020093B8023093BB022093BA0290927C
:102B4000BD028092BC029093BF028093BE0280912E
:102B50005101813009F482C580915101811155C222
:102B600080910901813009F406C76091090170E084
:102B700088EC90E00E94F21CFB018091B0029091E1
:102B8000B102813D57E0950708F4F2C6805D974099
:102B9000BF010E94DE1C8B017093B1026093B002F2
:102BA0008091050190E08617970708F0DEC68091B6
:102BB00005016B01C81AD10809F4D7C68091B20289
:102BC0009091B302813D67E0960708F4CBC6805D23
:102BD0009740BF010E94DE1C7093B3026093B20263
:102BE0008091050190E08617970708F032C5809123
:102BF00005019B01281B3109F22E432F2C153D05A1
:102C000010F4FC2C4D2D8091B4029091B502813DC1
:102C100077E0970708F41AC5805D9740BF010E94CE
:102C2000DE1C7093B5026093B4028091050190E0C0
:102C30008617970728F4809105019B01281B31090D
:102C4000CF2CD42EC216D30608F469018091B602A7
:102C50009091B702813DA7E09A0708F4F4C4805D23
:102C60009740BF010E94DE1C7093B7026093B602CA
:102C70008091050190E08617970728F4809105015F
:102C80009B01281B3109C216D30608F46901809103
:102C9000B8029091B902813DB7E09B0708F4D0C417
:102CA000805D9740BF010E94DE1C7093B902609363
:102CB000B8028091050190E08617970728F480916B
:102CC00005019B01281B3109C216D30608F46901CE
:102CD0008091BA029091BB02813D47E0940708F4CD
:102CE000ACC4805D9740BF010E94DE1C7093BB02A4
:102CF0006093BA028091050190E08617970728F447
:102D0000809105019B01281B31097601C216D3066B
:102D100008F479018091BC029091BD02813D57E099
:102D2000950708F487C4805D9740BF010E94DE1CB0
:102D30007093BD026093BC028091050190E08617FC
:102D4000970728F4809105019B01281B3109E216A1
:102D5000F30608F479018091BE029091BF02813D93
:102D600067E0960708F477C4805D9740BF010E9432
:102D7000DE1C7093BF026093BE028091050190E05B
:102D80008617970728F4809105019B01281B3109BC
:102D9000FA82E982E216F30610F43A832983C80125
:102DA000E12C21E000E010E032E0F32EC980DA806F
:102DB000B22E1EC0FA01E053FE4F208130E0821790
:102DC000930708F44FC08083EE2009F44DC0FC92B5
:102DD000080F191F88E0B81609F46CC1AB2DB0E0DC
:102DE000AA0FBB1FA055BD4F8D919C91B394E39446
:102DF000209109014E2D50E0213009F4B2C08C150C
:102E00009D0508F4A2C08C199D099A01220F331F59
:102E1000D901A055BD4F8D939C936091050170E041
:102E20006817790740F48091050190E0F901E055B9
:102E3000FD4F91838083DA01A852BE4F6C916623C7
:102E400009F4B8CF7FEF760F7C93FA01E053FE4F81
:102E5000208130E08217930708F0B5CF772311F077
:102E600062506C93E110B4CF1C92080F191FB6CFBB
:102E7000820E931EF0ED8F16F7E49F0608F41CCE29
:102E80003FEC832E37E4932E17CEEE81FF81E20FC5
:102E9000F31FFF83EE83E03DF74408F40DCEEFEC23
:102EA000F7E4FF83EE8308CE020F131F003DF7E423
:102EB0001F0708F401CE0FEC17E4FECDE20EF31E5F
:102EC000E0EDEE16E7E4FE0608F4F6CD6FECE62E34
:102ED00067E4F62EF1CDC20ED31EB0EDCB16B7E4EB
:102EE000DB0608F4E9CD7FECC72E77E4D72EE4CDDE
:102EF000B901640D751D603DA7E47A0708F5290145
:102F0000569447945694479456944794460E571EA9
:102F1000D3CDB901660D771D603DF7E47F0758F406
:102F200039017694679476946794660E771EC4CDC3
:102F30008FEC97E4BECD3FEC632E37E4732EBCCD0F
:102F40002FEC422E27E4522EB7CDDA01AA0FBB1F79
:102F5000A055BD4F1D921C928091050180E090E02C
:102F60006ACF813D77E0970708F4A1C09C01205DFE
:102F70003740A3E8BDE20E940C1D96958795929577
:102F800082958F7089279F7089273FCF6092440177
:102F9000209147012C5E293208F027E280914701F9
:102FA00090E0C816D90608F03DC38091450182170C
:102FB000D0F4822F90E0FC01EE0FFF1FE80FF91F05
:102FC000EE5AFE4F118210821282A101481B590B4A
:102FD000CA01FA01EE0FFF1FE80FF91FEE5AFE4F6C
:102FE0001182108212828394F8E0F81508F4812C83
:102FF000113009F4CBC2FA9409F092C02FEF421AB3
:10300000520A015E083F09F084C0F89468E270E05B
:1030100082E591E00E94F20478948091B20290914E
:10302000B302892B51F58091B4029091B502892B9E
:1030300021F58091B6029091B702892BF1F480912D
:10304000B8029091B902892BC1F48091BA02909193
:10305000BB02892B91F48091BC029091BD02892B17
:1030600061F481E08093C00280914C0181110C9445
:10307000C1120E94FF110C94C1128091510188234A
:1030800021F01092500110924F0190910A0180910D
:103090000B01989FC001112490934E0180934D0124
:1030A0001092C002109251015A980C94BB1280E009
:1030B00090E0ABCE10924701809107018F3098F0DD
:1030C00080910701823178F49801ABEABAEA0E9454
:1030D0000C1D8C011695079516950795093211055B
:1030E00010F008E210E0A12CE12CF12CCC24C394C8
:1030F000812C99249A9460E1762EBB24BA9473E0D3
:10310000572EE5E06E2EC8011C2D0A2DA52C270197
:103110006C0145E0F42E920120533E4F3F832E83F5
:10312000B092CE018091070190E0FC013197E1312E
:10313000F10508F058CFED58FF4F0C94061D609232
:103140004401209147012C5E293208F027E280914A
:10315000470190E0C816D90608F427CF80914701AF
:10316000E0E3F0E0E81BF109CF01880F8093CD0187
:10317000B092CF014CE051E06AEC71E08DEC91E04F
:103180002D830E94BA0380913E012D81813009F484
:10319000FBC3823009F432C25091CA014091CB0185
:1031A0003091CC01822F90E0FC01EE0FFF1FE80F61
:1031B000F91FEE5AFE4F518340833283B101681BE1
:1031C000790BCB01FB01EE0FFF1FE80FF91FEE5A41
:1031D000FE4F5183408332838091470190E08C15EC
:1031E0009D0509F000CF80914501281710F020932C
:1031F00045018091450190E0FC01EE0FFF1FE80FB3
:10320000F91FEE5AFE4F91828091450190E0FC013A
:10321000EE0FFF1FE80FF91FEE5AFE4F108280914C
:10322000450190E0FC01EE0FFF1FE80FF91FEE5A79
:10323000FE4F128280914501D101A81BB109CD0139
:10324000FD01EE0FFF1FE80FF91FEE5AFE4F9182AE
:1032500080914501F101E81BF109CF01EE0FFF1F3D
:10326000E80FF91FEE5AFE4F10828091450191013F
:10327000281B3109C901F901EE0FFF1FE80FF91FE3
:10328000EE5AFE4F1282AFCE8091480190914901D3
:1032900090914701980F9093CD01E82DF0E0E05315
:1032A000FE4FE081F0E0EA55FE4F859194918093C6
:1032B000CF014CE051E06AEC71E08DEC91E00E94AE
:1032C000BA0380913E01813009F482C1823009F451
:1032D00063C14091CA013091CB012091CC01809112
:1032E000470190E0FC01EE0FFF1FE80FF91FEE5AB7
:1032F000FE4F41838091470190E0FC01EE0FFF1FDC
:10330000E80FF91FEE5AFE4F30838091470190E09D
:10331000FC01EE0FFF1FE80FF91FEE5AFE4F22834C
:1033200062CE0093CD010F3109F439C3AE81BF8164
:10333000EC91F0E0EA55FE4F859194918093CF0196
:103340004CE051E06AEC71E08DEC91E00E94BA0330
:1033500080913E01813009F446C1823009F427C1D1
:103360004091CA013091CB012091CC01113009F478
:103370002BC19091470187E2891B11E090E0FC018D
:10338000EE0FFF1FE80FF91FEE5AFE4F4183308307
:10339000228329CEEE81FF8180812FE330E0281B3C
:1033A0003109C901880F8093CD01E0817BCFEE8187
:1033B000FF8180812FE330E0281B3109C901880F8C
:1033C0008093CD01DF01B4CFEE81FF818081880F32
:1033D0008F57F6CF80914801909149019091470114
:1033E000980F9093CD01A2CF80914801909149010F
:1033F000800F8093CD01AE81BF819ACF809148012B
:1034000090914901800F8093CD0147CF0093CD016A
:103410000F3109F042CF7092CD013FCF809148012A
:1034200090914901800F8093CD01AE81BF81EC91D5
:1034300039CFEE81FF818081880F8F578093CD0136
:10344000E08130CF809148019091490190914701EE
:10345000980F9093CD01AE81BF81EC9123CF009363
:10346000CD010F31C1F77092CD01F5CFA09244018B
:1034700080914801909149018093CD01B092CF0194
:10348000209147012C5E293208F027E24CE051E000
:103490006AEC71E08DEC91E02D830E94BA0380917B
:1034A0003E012D81813009F4B4C0823041F4809115
:1034B000CA019091CB019093CA018093CB01809176
:1034C000470190E08C159D0509F08DCD8091450157
:1034D000281710F020934501809145014091CA01C1
:1034E00090E0FC01EE0FFF1FE80FF91FEE5AFE4FB0
:1034F0004183809145013091CB0190E0FC01EE0FBA
:10350000FF1FE80FF91FEE5AFE4F308380914501EF
:103510002091CC0190E0FC01EE0FFF1FE80FF91F96
:10352000EE5AFE4F228380914501B101681B71095B
:10353000FB01EE0FFF1FE60FF71FEE5AFE4F418310
:1035400080914501D101A81BB109CD01FD01EE0F0C
:10355000FF1FE80FF91FEE5AFE4F3083809145019F
:10356000F101E81BF109CF01EE0FFF1FE80FF91F72
:10357000EE5AFE4F228337CD809148019091490148
:103580008093CD01AE81BF81EC918CCE80914701BB
:103590008F5F809347012FCD3091CA014091CB01BD
:1035A0004093CA013093CB012091CC0198CE309149
:1035B000CA014091CB014093CA013093CB012091C5
:1035C000CC01113009F0D5CE8091470110E0D6CE64
:1035D0003091CC012091CB012093CC013093CB01D1
:1035E0004091CA017CCE3091CC012091CB01209337
:1035F000CC013093CB014091CA01B8CE4091CA01B1
:103600005091CB015093CA014093CB013091CC0132
:10361000C9CD8091CC019091CB019093CC01809346
:10362000CB014DCF90914701892F880F890F880FCB
:10363000880F9CCD80E090E078CB80E090E053CB89
:1036400080E090E02FCB80E090E00BCB80E090E03A
:10365000E5CA9601D1CA80E090E088CB71ED67168B
:1036600077E0770608F05CC11092B1021092B002C8
:10367000809105018091B2029091B302813DA7E053
:103680009A0708F02BC11092B3021092B2028091F7
:1036900005018091B4029091B502813DB7E09B078E
:1036A00008F0FAC01092B5021092B40280910501A0
:1036B0008091B6029091B702813DE7E09E0708F045
:1036C000C9C01092B7021092B60280910501809194
:1036D000B8029091B902813DF7E09F0708F098C0C9
:1036E0001092B9021092B802809105018091BA023D
:1036F0009091BB02813D27E0920708F067C01092CD
:10370000BB021092BA02809105018091BC02909197
:10371000BD02813D37E09307B8F51092BD021092CB
:10372000BC02809105018091BE029091BF02813D53
:1037300047E0940738F41092BF021092BE028091C5
:1037400005010ACA9C01205D3740A3E8BDE20E9442
:103750000C1D96958795929582958F7089279F70FD
:1037600089279093BF028093BE022091050130E02B
:103770002817390708F0F0C98091050190E090936F
:10378000BF028093BE02E8C99C01205D3740A3E8D8
:10379000BDE20E940C1D96958795929582958F703B
:1037A00089279F7089279093BD028093BC02209146
:1037B000050130E02817390708F0B5CF80910501E1
:1037C00090E09093BD028093BC02ADCF9C01205D40
:1037D0003740A3E8BDE20E940C1D9695879592950F
:1037E00082958F7089279F7089279093BB02809361
:1037F000BA022091050130E02817390708F085CF7B
:103800008091050190E09093BB028093BA027DCF36
:103810009C01205D3740A3E8BDE20E940C1D9695F7
:103820008795929582958F7089279F7089279093AD
:10383000B9028093B8022091050130E028173907BA
:1038400008F054CF8091050190E09093B9028093E5
:10385000B8024CCF9C01205D3740A3E8BDE20E9436
:103860000C1D96958795929582958F7089279F70EC
:1038700089279093B7028093B6022091050130E02A
:103880002817390708F023CF8091050190E0909325
:10389000B7028093B6021BCF9C01205D3740A3E89E
:1038A000BDE20E940C1D96958795929582958F702A
:1038B00089279F7089279093B5028093B402209145
:1038C000050130E02817390708F0F2CE8091050194
:1038D00090E09093B5028093B402EACE9C01205D03
:1038E0003740A3E8BDE20E940C1D969587959295FE
:1038F00082958F7089279F7089279093B302809358
:10390000B2022091050130E02817390708F0C1CE36
:103910008091050190E09093B3028093B202B9CEFA
:103920009301205D3740A3E8BDE20E940C1D9695EF
:103930008795929582958F7089279F70892790939C
:10394000B1028093B0022091050130E028173907B9
:1039500008F090CE8091050190E09093B1028093A1
:10396000B00288CE80E090E034C9C12CD12C26C9A9
:1039700080E090E00DC98091B0029091B10210CA30
:103980000E94FF110C9499124091CC013091CB010F
:103990003093CC014093CB015091CA0103CC70927B
:1039A000CD01C4CC991B79E004C0991F961708F08B
:1039B000961B881F7A95C9F780950895AA1BBB1B93
:1039C00051E107C0AA1FBB1FA617B70710F0A61B1F
:1039D000B70B881F991F5A95A9F780959095BC0140
:1039E000CD01089597FB072E16F4009407D077FDBC
:1039F00009D00E94DE1C07FC05D03EF4909581950D
:103A00009F4F0895709561957F4F0895EE0FFF1FAA
:103A10000590F491E02D0994A29FB001B39FC001DD
:103A2000A39F700D811D1124911DB29F700D811DEA
:103A30001124911D08955058BB27AA270ED048C1C4
:103A400039D130F03ED120F031F49F3F11F41EF413
:103A50002EC10EF4E095E7FB24C1E92F4AD180F393
:103A6000BA17620773078407950718F071F49EF57B
:103A700062C10EF4E0950B2EBA2FA02D0B01B901F7
:103A800090010C01CA01A0011124FF27591B99F0D4
:103A9000593F50F4503E68F11A16F040A22F232FE0
:103AA000342F4427585FF3CF469537952795A79530
:103AB000F0405395C9F77EF41F16BA0B620B730BD7
:103AC000840BBAF09150A1F0FF0FBB1F661F771F48
:103AD000881FC2F70EC0BA0F621F731F841F48F4FD
:103AE000879577956795B795F7959E3F08F0B3CF83
:103AF0009395880F08F09927EE0F9795879508956D
:103B00000CD0E6C0DED040F0D5D030F021F45F3FDD
:103B100019F0C7C0511110C1CAC0EBD098F3992356
:103B2000C9F35523B1F3951B550BBB27AA27621781
:103B30007307840738F09F5F5F4F220F331F441FC6
:103B4000AA1FA9F333D00E2E3AF0E0E830D09150FE
:103B50005040E695001CCAF729D0FE2F27D0660FEB
:103B6000771F881FBB1F261737074807AB07B0E82A
:103B700009F0BB0B802DBF01FF2793585F4F2AF040
:103B80009E3F510568F08DC0D7C05F3FECF3983E73
:103B9000DCF3869577956795B795F7959F5FC9F79D
:103BA000880F911D9695879597F90895E1E0660F26
:103BB000771F881FBB1F621773078407BA0720F09F
:103BC000621B730B840BBA0BEE1F88F7E095089508
:103BD00098D088F09F5790F0B92F9927B751A0F04F
:103BE000D1F0660F771F881F991F1AF0BA95C9F791
:103BF00012C0B13081F09FD0B1E008959CC0672F12
:103C0000782F8827B85F39F0B93FCCF38695779540
:103C10006795B395D9F73EF4909580957095619529
:103C20007F4F8F4F9F4F0895E89409C097FB3EF454
:103C300090958095709561957F4F8F4F9F4F9923F9
:103C4000A9F0F92F96E9BB279395F6958795779577
:103C50006795B795F111F8CFFAF4BB0F11F460FF37
:103C60001BC06F5F7F4F8F4F9F4F16C0882311F08F
:103C700096E911C0772321F09EE8872F762F05C0A3
:103C8000662371F096E8862F70E060E02AF09A953E
:103C9000660F771F881FDAF7880F9695879597F933
:103CA000089597F99F6780E870E060E008959FEFBE
:103CB00080EC089500240A941616170618060906C3
:103CC000089500240A941216130614060506089592
:103CD000092E0394000C11F4882352F0BB0F40F41A
:103CE000BF2B11F460FF04C06F5F7F4F8F4F9F4F5A
:103CF000089557FD9058440F551F59F05F3F71F0DC
:103D00004795880F97FB991F61F09F3F79F0879542
:103D10000895121613061406551FF2CF4695F1DFCB
:103D200008C0161617061806991FF1CF869571055B
:103D3000610508940895E894BB2766277727CB018F
:103D400097F908950BD0C4CFB5DF28F0BADF18F08B
:103D5000952309F0A6CFABCF1124EECFCADFA0F395
:103D6000959FD1F3950F50E0551F629FF001729F10
:103D7000BB27F00DB11D639FAA27F00DB11DAA1F2F
:103D8000649F6627B00DA11D661F829F2227B00D7C
:103D9000A11D621F739FB00DA11D621F839FA00D07
:103DA000611D221F749F3327A00D611D231F849F57
:103DB000600D211D822F762F6A2F11249F575040AE
:103DC0008AF0E1F088234AF0EE0FFF1FBB1F661F49
:103DD000771F881F91505040A9F79E3F510570F002
:103DE00060CFAACF5F3FECF3983EDCF386957795E2
:103DF0006795B795F795E7959F5FC1F7FE2B880FFD
:103E0000911D9695879597F908959F9305D00F90EA
:103E100007FCEE5F28C04BCF74DFE8F3E894E0E0E6
:103E2000BB279F57F0F02AED3FE049EC06C0EE0FAC
:103E3000BB0F661F771F881F28F0B23A620773070F
:103E4000840728F0B25A620B730B840BE3959A95A2
:103E500072F7803830F49A95BB0F661F771F881F62
:103E6000D2F7904813C0EF93E0FF06C0A2EA2AED14
:103E70003FE049EC5FEBF1DD2BDF0F90039401FC99
:103E80009058E8E0F1E00EC09F3F31F0915020F4EF
:103E9000879577956795B795880F911D9695879526
:103EA00097F908959F938F937F936F93FF93EF9369
:103EB0009B01AC0147DFEF91FF9105D02F913F911E
:103EC0004F915F913FCFDF93CF931F930F93FF925B
:103ED000EF92DF927B018C01689405C0DA2EEF012E
:103EE0003DDFFE01E894A5912591359145915591CD
:103EF000AEF3EF01B2DDFE019701A801DA9479F784
:103F0000DF90EF90FF900F911F91CF91DF91089577
:103F10008F929F92AF92BF92CF92DF92EF92FF92D9
:103F2000CF93DF93EC01688179818A819B81611550
:103F300071058105910521F464E279ED8BE597E047
:103F40002DE133EF41E050E00E94292049015A0160
:103F50009B01AC01A7EAB1E40E9448206B017C01FF
:103F6000ACEEB4EFA50194010E945620C60ED71EF8
:103F7000E81EF91EF7FE06C081E0C81AD108E10864
:103F800080E8F80AC882D982EA82FB82C6019F775C
:103F9000DF91CF91FF90EF90DF90CF90BF90AF90E7
:103FA0009F908F9008950E94881F089580E091E06F
:103FB0000E94881F0895A0E0B0E0809300019093D4
:103FC0000101A0930201B0930301089568177907D6
:103FD00068F4FB01DC01E40FF51FA40FB51F02C05C
:103FE00002900E9241505040D8F708950C94202032
:103FF000F999FECF92BD81BDF89A992780B50895B1
:10400000262FF999FECF92BD81BDF89A019700B491
:10401000021639F01FBA20BD0FB6F894FA9AF99A31
:104020000FBE0895262FF999FECF1FBA92BD81BD0C
:1040300020BD0FB6F894FA9AF99A0FBE019608952A
:10404000FB01DC0102C001900D9241505040D8F7B5
:104050000895052E97FB1EF400940E94402057FD02
:1040600007D00E945B2007FC03D04EF40C94402044
:1040700050954095309521953F4F4F4F5F4F089594
:1040800090958095709561957F4F8F4F9F4F0895C4
:104090000E940C1DA59F900DB49F900DA49F800DB4
:1040A000911D11240895B7FF0C9448200E944820C8
:1040B000821B930B0895A1E21A2EAA1BBB1BFD01C4
:1040C0000DC0AA1FBB1FEE1FFF1FA217B307E407F7
:1040D000F50720F0A21BB30BE40BF50B661F771F4F
:1040E000881F991F1A9469F760957095809590952F
:0E40F0009B01AC01BD01CF010895F894FFCFF4
:1040FE0001000000043F01010101460708FF000016
:10410E00FF8000FFFF0000FF0000FFFF0000FF80A8
:06411E0000FFFF0000009D
:00000001FF
