:100000000C949B030C94B8030C94B8030C94B803A1
:100010000C94B8030C94B8030C94B8030C94B80374
:100020000C94B8030C94B8030C94B8030C942205F8
:100030000C9463100C94B8030C94B8030C94B8039C
:100040000C94B8030C94B8030C94B8030C94B80344
:100050000C94B8030C94B8030C94B8030C94B80334
:100060000C94B8030C94B8039A1789177C177C1763
:100070007217721772176317631763176317631783
:1000800069155617561756175617561756175617F7
:100090005617561749174917491749174917491746
:1000A0004917491749174917491749174917491750
:1000B00049177F157F157F157F157F157F157F15D4
:1000C0007F157F157F157F157F157F157F157F1590
:1000D0007F157F157F157F157F157F157F157F1580
:1000E0007F157F157F153F1ACD1A1E1A321A291A4D
:1000F000DC19A219041AFA19F419E819161A0E1AB9
:100100005519AC18D717471A05A84CCDB2D44EB91B
:100110003836A9020C50B9918688083CA6AAAA2AAA
:10012000BE000000803F0000000000000000000052
:1001300000000000000000000000000000010101BC
:10014000010101010101010101010102020202029A
:100150000202020303030303040404040505050566
:100160000606060707080809090A0A0B0B0C0D0DFD
:100170000E0F1011121314151617181A1B1D1F201D
:10018000222426282A2D2F3235383B3E4245494D20
:1001900052565B60666B71777E858D949DA5AFB876
:1001A000C3CED9E5F2FF000000000000000000000F
:1001B0000000000101010101020202020303030425
:1001C000040505060708090A0B0C0D0F1113151776
:1001D0001A1D2024282D32383E454D56606B7785F8
:1001E00094A5B8CEE5FF000014005000B400400113
:1001F000F301CD02CD03F3043D06AD073F09F40A38
:10020000C90CBF0ED41007135515BE17411ADB1CBD
:100210008B1F502227250F28062B0A2E1931323426
:100220005237773AA03DCB40F5431C473F4A5C4DDF
:1002300070507A5378566759475C155FCF61756483
:1002400003677969D66B166E3A703F722674EB7548
:100250008F770F796D7AA57BB87CA57D6C7E0B7F3F
:10026000837FD37FFB7FFB7FD37F837F0B7F6C7E7E
:10027000A57DB87CA57B6D7A0F798F77EB75267499
:100280003F723A70166ED66B796903677564CF61F9
:10029000155F475C675978567A5370505C4D3F4AFA
:1002A0001C47F543CB40A03D773A523732341931E1
:1002B0000A2E062B0F28272550228B1FDB1C411AE4
:1002C000BE1755150713D410BF0EC90CF40A3F0909
:1002D000AD073D06F304CD03CD02F3014001B400A8
:1002E0005000140000000001010202020203030397
:1002F00003030304040404040404040505050505BC
:100300000505050505060606060606060606060692
:10031000060707070707070707070707070707086D
:10032000080808080808080808080808080808094C
:10033000090909090909090909090909090909092D
:10034000090A0A0A0A0A0A0A0A0A0A0A0A0A0A0A0E
:100350000A0A0A0A0A0B0B0B0B0B0B0B0B0B0B0BF2
:100360000B0B0B0B0B0B0B0B0B0B0B0C0C0C0C0CD8
:100370000C0C0C0C0C0C0C0C0C0C0C0C0C0C0C0CBD
:100380000C0C0C0D0D0D0D0D0D0D0D0D0D0D0D0DA0
:100390000D0D0D0D0D0D0D0D0D0D0D0D0D0E0E0E8A
:1003A0000E0E0E0E0E0E0E0E0E0E0E0E0E0E0E0E6D
:1003B0000E0E0E0E0E0E0E0E0E0F0F0F0F0F0F0F56
:1003C0000F0F0F0F0F0F0F0F0F0F0F0F0F0F0F0F3D
:1003D0000F0F0F0F0F0F0F10101010101010101024
:1003E0001010101010100006080A0B0D0E0F10113F
:1003F00012131414151617171819191A1B1B1C1C85
:100400001D1D1E1E1F1F20202121222223232424E4
:100410002525262626272728282829292A2A2A2B5F
:100420002B2B2C2C2D2D2D2E2E2E2F2F2F303030F0
:10043000313131323232333333343434343535358B
:1004400036363637373737383838393939393A3A2E
:100450003A3B3B3B3B3C3C3C3C3D3D3D3D3E3E3ED8
:100460003E3F3F3F3F40000B101417191C1E202237
:10047000242627292A2C2D2F30313334353637398D
:100480003A3B3C3D3E3F4041424344454647484855
:10049000494A4B4C4D4E4E4F505152525354555564
:1004A00056575858595A5B5B5C5D5D5E5F5F606193
:1004B000616263636465656666676868696A6A6BDA
:1004C0006B6C6D6D6E6E6F6F707171727273737431
:1004D000747576767777787879797A7A7B7B7C7C95
:1004E0007D7D7E7E7F7F0010171C2024272A2D30E3
:1004F0003335373A3C3E4042444648494B4D4E50D6
:100500005253555658595B5C5D5F60616364656624
:1005100068696A6B6D6E6F707172737476777879D3
:100520007A7B7C7D7E7F80818283848586878889B3
:100530008A8B8B8C8D8E8F909192939494959697B5
:100540009899999A9B9C9D9E9E9FA0A1A2A2A3A4CC
:10055000A5A6A6A7A8A9A9AAABACACADAEAFAFB0F3
:10056000B1B1B2B3B4B4B5B6B6B7B8B9B9BABBBB2A
:10057000BCBDBDBEBFBFC0C1C1C2C3C3C4C5C5C66B
:10058000C7C7C8C8C9CACACBCCCCCDCECECFCFD0B6
:10059000D1D1D2D2D3D4D4D5D5D6D7D7D8D8D9DA09
:1005A000DADBDBDCDDDDDEDEDFDFE0E1E1E2E2E362
:1005B000E3E4E5E5E6E6E7E7E8E8E9EAEAEBEBECC1
:1005C000ECEDEDEEEEEFEFF0F1F1F2F2F3F3F4F427
:1005D000F5F5F6F6F7F7F8F8F9F9FAFAFBFBFCFC93
:1005E000FDFDFEFEFFFF7007780F74177C1F72275A
:1005F0007A2F76377E3F7147794F75577D5F7367E6
:100600007B6F6003680B64136C1B62236A2B663379
:100610006E3B6143694B65536D5B5005580D541536
:100620005C1D52255A2D56355E3D5145594D4001B0
:10063000480944114C1942214A2946314E393006A5
:10064000380E34163C1E32263A2E2002280A241276
:100650002C1A1004180C4276FC30825A825AFC3054
:1006600042768A7DF9184276FC306E6A1D47825ABE
:10067000825A1D476E6AFC304276F9188A7D627F85
:100680008C0C8A7DF9187D7A28254276FC30E3703F
:10069000573C6E6A1D47F2623451825A825A345175
:1006A000F2621D476E6A573CE370FC3042762825A3
:1006B0007D7AF9188A7D8C0C627FD97F4806627F2B
:1006C0008C0C9D7EC8128A7DF9182A7C1A1F7D7AAF
:1006D000282585781F2B4276FC30B673BA36E37036
:1006E000573CCA6DCE416E6A1D47D066404CF262DF
:1006F0003451D75EF655825A825AF655D75E345138
:10070000F262404CD0661D476E6ACE41CA6D573CBE
:10071000E370BA36B673FC3042761F2B85782825F5
:100720007D7A1A1F2A7CF9188A7DC8129D7E8C0C4E
:10073000627F4806D97F11241FBECFEFD8E0DEBF0D
:10074000CDBF11E0A0E0B1E0E8E4F0E402C0059024
:100750000D92A632B107D9F724E0A6E2B1E001C0BC
:100760001D92A938B207E1F70E9459120C94222079
:100770000C9400002F923F924F925F926F927F9263
:100780008F929F92AF92BF92CF92DF92EF92FF92A1
:100790000F931F93CF93DF93EC017B01FA018080CD
:1007A000912C80E091E0B4010E94FF1C6B018881D4
:1007B0000E94DF1C282F30E041E0841A91082815A0
:1007C000390509F408C18F5F082F10E03901660C64
:1007D000771CD301A20FB31FAE0FBF1F11963C9021
:1007E000832C912CA92EB12CDD242801440C551CFE
:1007F000D201A00FB11FAE0FBF1F11964C9150E058
:10080000481959094A9DC0014B9D900D5A9D900D64
:100810001124B6010E94FF1C860E971E97FCDEC0B5
:100820008FEF8816910411F00CF0CCC0630D2224D8
:100830002A94312C261A3108D301A20FB31FAE0F10
:10084000BF1F12967C90872C912CD201A00FB11F54
:10085000AE0FBF1F12964C9150E048195909A49E43
:10086000C001A59E900DB49E900D1124B6010E946A
:10087000FF1C860E971E4FEF8416910411F00CF0AA
:10088000A4C0760E88248A94912C871891082F5F33
:100890003F4FD901AA0FBB1FA20FB31FAE0FBF1F3F
:1008A0007C90272D30E00F5F1F4FD801AA0FBB1F90
:1008B000A00FB11FAE0FBF1F4C9150E0421B530B56
:1008C000A49EC001A59E900DB49E900D1124B6016A
:1008D0000E94FF1C260F371F2F3F310511F00CF02F
:1008E00077C0760EEFEFF0E0E719F109498150E0AB
:1008F000249E9001259E300D349E300D1124A1E8D8
:10090000B0E80E94191D880F892F881F990B9195B7
:10091000082F0095849E9001859E300D949E300D89
:1009200011240E94191D880F892F881F990B9195FA
:10093000182F1095E49F9001E59F300DF49F300D26
:1009400011240E94191D880F892F881F990B9195DA
:10095000482F40952A81029F900111240E94191D61
:10096000880F892F881F990B9195F70180832A8121
:10097000129F900111240E94191D880F892F881F32
:10098000990B919581832A81429F900111240E94A5
:10099000191D880F892F881F990B91958283DF91EC
:1009A000CF911F910F91FF90EF90DF90CF90BF906C
:1009B000AF909F908F907F906F905F904F903F90FF
:1009C0002F900895212C312C37CF812C912C5FCF83
:1009D000E0E0F0E08BCF00E010E0F8CE22242A9493
:1009E000312C2ACF9B01220F331F260F371F3C9A31
:1009F00048B14F7E58B150616FB7F8942115310559
:100A0000C9F0FC01820F931F219138E058B9000012
:100A100000C000C027FF48B9220F000000C000C07E
:100A200000C000C048B9000000C03A9579F7E81747
:100A3000F90751F76FBF89EF90E00197F1F700C018
:100A4000000008951F920F920FB60F921124AF92DB
:100A5000BF92CF92DF92EF92FF920F931F932F934B
:100A60003F934F935F936F937F938F939F93AF9336
:100A7000BF93CF93DF93EF93FF9380918800909182
:100A800089000197909389008093880080914601A6
:100A9000882329F0809146018150809346018091FE
:100AA0004601811115C0809148019091490101963C
:100AB00090934901809348018091480190914901A8
:100AC0008F3F910511F008F0F6C089E08093460150
:100AD00080910401882319F1815080930401809151
:100AE0000601813009F4ECC0FF91EF91DF91CF91C5
:100AF000BF91AF919F918F917F916F915F914F9136
:100B00003F912F911F910F91FF90EF90DF90CF9029
:100B1000BF90AF900F900FBE0F901F90189584E07C
:100B200080930401809107018F30C8F080915101BA
:100B3000811115C080913D0181110DC68091450143
:100B4000813228F08091450181508093450184E0F5
:100B500080933D0180910701813109F43AC6189BC9
:100B600005C0309B03C0199910923C0118990DC023
:100B7000309B0BC0199B09C090913B019B3428F41A
:100B800081E080933A0180933C01189B0EC030991C
:100B90000CC0199B0AC090913B019B3430F482E059
:100BA00080933A0181E080933C0118990EC03099FE
:100BB0000CC0199B0AC090913B019B3430F483E038
:100BC00080933A0181E080933C01189963C0809141
:100BD0003A0190913C01811157C1913009F424C42C
:100BE00010923B0180913501813009F412C480914B
:100BF0004A01813009F40BC580913C01813009F430
:100C000004C52A9880914B01882309F478C080910B
:100C100032018F5F80933201873309F470C1809174
:100C20004B01813009F45EC1823029F48091310199
:100C3000883209F45CC180913001813009F061C0D3
:100C400080915101813009F49BC5809142019091BE
:100C500043010E94801F8091070180932F01909192
:100C60000701981310C0CEE0D0E00E947B1FBE01A8
:100C70000E94FF1C8F5F8093070180910701909174
:100C80002F01981791F31092510110923801109290
:100C9000300137C0309B9BCF199999CF90913B0180
:100CA0009B3408F094CF84E080933A0181E08093F4
:100CB0003C0184E0BBC3109249011092480105CF6A
:100CC00080910B01863009F420C508F404C18730F7
:100CD00009F417C5883019F42B9A2C9A2D9A809113
:100CE0000901823009F49FC4833009F4A0C4813023
:100CF00019F4419A4298439810920601F5CE109249
:100D0000310180913803813009F462C310923801B7
:100D100080913901813009F416C480910801813035
:100D200009F4ACC380910801823009F4DEC28091DD
:100D30000801833009F446C080910801873009F426
:100D400041C0809108018830E9F180910801843028
:100D500009F49CC280910801853009F44DC280914C
:100D60000801863009F4F8C180910801893009F43E
:100D700079C1809108018A3009F411C1809108017C
:100D80008B3009F4C4C0809108018C3009F0A7CEE3
:100D900080915101813009F0A2CE80912B018931DF
:100DA00018F48F5F80932B01E4E5F1E0DF011197E8
:100DB0008C9311978C938083339642E0E431F4074F
:100DC000A9F78DCE80915101813009F0BECF80917D
:100DD00037018F5F80933701813009F4B8C7809164
:100DE0002901813009F0B1CF8091410181110C942A
:100DF0005E0F80912B018093270380912E018093B9
:100E0000E70208EA12E078EEE72E72E0F72EC4E57A
:100E1000D1E0DD24DA9412C02091120290911302E5
:100E200080911402FE01319720833197908388834B
:100E30002396F2E0083E1F0709F439C7D8018D91C7
:100E40008D0180931502D0921602F70181917F01E6
:100E5000809317024CE051E062E172E085E192E09C
:100E60000E94BA0380913E01813009F415C7823097
:100E700099F69091120220911302209312029093FE
:100E8000130280911402CECF9111A7CE90913B0115
:100E90009111A6CE813009F44EC5823009F4C9C73C
:100EA000843009F09DCE80914B018F5F80934B0180
:100EB00080914B01833010F010924B0180914B01D7
:100EC00081110C94B50F10924A0181E080930601C4
:100ED00010923A0185CE853009F001CF2B982C98DD
:100EE0002D9AFDCE80913101843109F0A4CE10926B
:100EF00031011092320181E080933001A1CE8091C6
:100F000031018F5F809331011092320188CE809140
:100F10005101813009F037CF80912B01823318F4D1
:100F20008F5F80932B0104E511E0E801FF24FA9420
:100F300014C0209112029091130280911402FE01BC
:100F4000319720833197908388832396E2E0C431E0
:100F5000DE0709F418CF80912B019C2F901B9093F2
:100F60001502F0921602809317024CE051E062E104
:100F700072E085E192E00E94BA0380913E018130E7
:100F800009F416C58230A9F690911202209113023D
:100F9000209312029093130280911402D0CF80917B
:100FA0005101813009F0EACE209137012F5F209363
:100FB000370186E08093440180E490E090934E01F5
:100FC00080934D01213009F48BC780912901813034
:100FD00009F0D4CE0E947B1F8F73907897FF02C0D8
:100FE0000C945D1080932A010E947B1F2091480180
:100FF0003091490168E770E00E94FF1C280F2093A0
:1010000015028FEF80931602809317024CE051E097
:1010100062E172E085E192E00E94BA0380913E01B4
:10102000813011F40C944C10823011F00C94441067
:101030003091120240911302409312023093130236
:101040002091140280912A0190E0FC01EE0FFF1F15
:10105000E80FF91FEE5AFE4F41833083228310922E
:1010600029018CCE80915101813009F082CE2091EE
:1010700037012F5F2093370186E08093440180E49D
:1010800090E090934E0180934D01213009F425C7E3
:1010900080912901813009F06CCEABE6B4E06CE6BA
:1010A00074E0EFE6F4E00FEFFF24F39436C0E501BF
:1010B0000983EF012197E880E901C80FD91FCE5AB3
:1010C000DE4FD8804E2D50E04D0D511D4F3F510544
:1010D0000CF4CFC50883E901C80FD91FCE5ADE4FE3
:1010E0002A813081832F90E0820F911D8F3F9105DF
:1010F0000CF4BCC50A83EB0188818111C7C511239B
:1011000009F4AFC611501C9315966B5F7F4F35964F
:10111000D4E0A938BD0709F4EDC61C91812F90E0F9
:101120009C01220F331F5901A80EB91EE501CE5AAA
:10113000DE4F5E01E980AF0142505109EA01D880DB
:101140004D2D50E04E0D511D4F3F51050CF0AFCFCE
:10115000ED0CE501E982ADCF80915101813009F0BC
:1011600003CE58EEE52E52E0F52EC4E5D1E087011E
:10117000DD24DA9412C02091120290911302809122
:101180001402FE0131972083319790838883239640
:10119000B3E008321B0709F406C58091480190911D
:1011A0004901902F9E19980F90931502D092160224
:1011B000D801ED918D01F0E0EA5DFE4F85919491AB
:1011C000809317024CE051E062E172E085E192E029
:1011D0000E94BA0380913E01813009F4D3C382306A
:1011E00051F69091120220911302209312029093D3
:1011F000130280911402C5CF80915101813009F012
:10120000AECD08EE12E0C4E5D1E0FF24FA9412C09E
:10121000209112029091130280911402FE013197E5
:1012200020833197908388832396B3E008321B078D
:1012300009F494C48091480190914901809315026A
:10124000F0921602D801ED918D01F0E0EA5DFE4FBB
:1012500085919491809317024CE051E062E172E035
:1012600085E192E00E94BA0380913E01813009F449
:1012700094C3823069F69091120220911302209358
:1012800012029093130280911402C8CF80915101F1
:10129000813009F05FCD209137012F5F2093370116
:1012A00080ED97E090934E0180934D01213009F439
:1012B00025C680912901813009F04CCD0E947B1F09
:1012C0008F73907897FDF4C6809326019927FC01CF
:1012D000EE0FFF1FE80FF91FEE5AFE4F8FEF8183CD
:1012E000808382831092290135CD80915101813014
:1012F00009F01DCD209137012F5F2093370180E247
:1013000090E090934E0180934D01213009F4E0C5A7
:1013100080912901813009F00ACD80912C019091B2
:101320002D018F3391050CF064C69FE3981B9093B9
:101330002A018091480190914901809315028FEF15
:1013400080931602809317024CE051E062E172E054
:1013500085E192E00E94BA0380913E01813009F458
:1013600088C6823009F469C6609112025091130256
:101370004091140220912A0130E0F901EE0FFF1F85
:10138000E20FF31FEE5AFE4F6183508342838FE3D7
:1013900090E0821B930BFC01EE0FFF1FE80FF91F7B
:1013A000EE5AFE4F61835083428380912C019091CD
:1013B0002D01019690932D0180932C018D3791057D
:1013C00024F010922D0110922C0110922901AFCC23
:1013D0008091510181119ACC809137018F5F809368
:1013E000370190910801992309F4BFC1823309F4B0
:1013F000BFC180913801833009F08ACC81E08093AD
:1014000051011092380110923701809339015A9A94
:101410007FCC10924A0180913401882309F482C163
:10142000815080933401E3CB90913B019F3530F4A0
:101430009F5F90933B019B3408F4D4CB813009F437
:101440009BC4823009F45FC5833009F485C48430BD
:1014500009F0C8CB80913E018F5F80933E018330BD
:1014600009F4C4C588E08093360181E0809335019A
:1014700010923A012B982C982D98B4CB8091510161
:10148000813009F04FCC209137012F5F2093370135
:1014900080E490E090934E0180934D01213009F457
:1014A00024C580912901813009F03CCC80912C0128
:1014B00090912D018F3391050CF09EC59FE3981BF1
:1014C00090932A01809148019091490180931502DF
:1014D0008FEF80931602809317024CE051E062E197
:1014E00072E085E192E00E94BA0380913E01813072
:1014F00009F4B4C5823009F495C5409112023091C7
:1015000013022091140280912A0190E0FC01EE0F59
:10151000FF1FE80FF91FEE5AFE4F418330832283ED
:1015200080912C0190912D01019690932D01809333
:101530002C018D37910524F010922D0110922C0171
:1015400010922901EFCBE4E5F1E0DF0111971C9245
:1015500011971C9210823396D2E0E431FD07A9F76F
:1015600008EA12E080E4F801482F11924A95E9F761
:1015700098EEE92E92E0F92ED7011D928A95E9F7AF
:1015800080914201909143010E94801F0E947B1F25
:101590006FEF70E00E94FF1C80932E018FE390E0BC
:1015A00090932D0180932C0110922B0110922A010F
:1015B00010923701109229011092400110923F01C0
:1015C000809141018111ABC081E080934101809104
:1015D0000801833081F180910801873061F18091A9
:1015E0000801883041F180910801853009F400C379
:1015F00080910801863009F47AC28091080189300F
:1016000009F4E1C11092390188CB2A9AFBCA2B98C0
:101610002C982D9890913301992309F47AC0915018
:1016200090933301E9CA4198429A439865CB419817
:101630004298439A61CB8FEF80932B010E947B1FCE
:101640006FEF70E00E94FF1C80932E0110922A0120
:1016500010922D0110922C0180932801682F20E018
:1016600030E0CFEFD0E070E0482F50E0FB017D97F5
:101670004E175F070CF1635E7F4F6417750734F4F4
:101680001BC0435E5F4F4217530794F00E947B1FBD
:10169000BE010E94FF1C8093280140912E0150E062
:1016A0009C013327BA016D517109261737074CF792
:1016B00020912C0130912D01F901E75CFC4F8083D2
:1016C00080932E012F5F3F4F30932D0120932C01EB
:1016D0002233310514F4682FC6CF1092280180916F
:1016E0000801883009F080E18093270180E4E70158
:1016F000E82F1992EA95E9F7D8011D928A95E9F742
:1017000072CF2B9A2C982D98EACA2B982C9A2D9848
:10171000E6CA9EE190933301809306016DCA109250
:10172000410155CF2B9B1DC02B982C982D9881E003
:101730008093340180913601811191C281E08093C0
:1017400006011092350190914B01992309F44FCA7B
:1017500080934A014CCA815080933D018111FFC999
:10176000EDC92B9A2C9A2D9AE2CF883009F041CE00
:10177000809138018F5F80933801109237013BCE02
:1017800080910801882309F4BCCA8091420190919C
:1017900043010E94801F8091080180932F01909146
:1017A0000801981310C0CAE0D0E00E947B1FBE0160
:1017B0000E94FF1C8F5F8093080180910801909127
:1017C0002F01981791F381E0809339011092300135
:1017D00098CA81E080933D01809148019091490130
:1017E000809315028FEF809316028DEC8093170281
:1017F000809145016091120290E0FC01EE0FFF1F05
:10180000E80FF91FEE5AFE4F618380914501509118
:10181000130290E0FC01EE0FFF1FE80FF91FEE5AD4
:10182000FE4F5083809145014091140290E0FC01ED
:10183000EE0FFF1FE80FF91FEE5AFE4F4283209173
:1018400045018FE390E0DC01A21BB109FD01EE0F21
:10185000FF1FEA0FFB1FEE5AFE4F618320914501E7
:10186000EC01C21BD109FE01EE0FFF1FEC0FFD1FA3
:10187000EE5AFE4F508320914501FC01E21BF10915
:101880009F01EE0FFF1FE20FF31FEE5AFE4F428340
:1018900020914501213208F462C92091450121506F
:1018A000209345012091450130E0F901EE0FFF1F23
:1018B000E20FF31FEE5AFE4F61832091450130E0A5
:1018C000F901EE0FFF1FE20FF31FEE5AFE4F508398
:1018D0002091450130E0F901EE0FFF1FE20FF31FE9
:1018E000EE5AFE4F428320914501DC01A21BB10953
:1018F000FD01EE0FFF1FEA0FFB1FEE5AFE4F618343
:1019000020914501EC01C21BD1099E01FE01EE0FA1
:10191000FF1FE20FF31FEE5AFE4F50832091450147
:10192000821B9109FC01EE0FFF1FE80FF91FEE5A11
:10193000FE4F428314C91092500110924F018091C2
:101940000B01882329F080910B01815080930B01BA
:1019500080910B01843009F452C3809151018111AF
:101960000BC090910A0180910B01989FC001112436
:1019700090934E0180934D0181E080930601109277
:101980003A012EC99091140280911302809314029F
:101990009093130220911202F4CB90911402809143
:1019A000130280931402909313022091120236CCFA
:1019B0009091140280911302809314029093130269
:1019C00020911202BCCA0FE614E0DCE6ED2ED4E052
:1019D000FD2ECC24C394CFEFD0E0DD24DA948091A7
:1019E0002A01885F80932A01F801349780838091CF
:1019F0004101811161C0D7011C92C09241010E9436
:101A00007B1FBE010E94FF1C8093280140912E0184
:101A100050E09C013327BA0162527109261737073B
:101A2000ECF04E5D5F4F4217530734F417C04E5D24
:101A30005F4F4217530794F00E947B1FBE010E9424
:101A4000FF1C8093280140912E0150E09C01332718
:101A5000BA0162527109261737074CF780932E019D
:101A600080931502D0921602D09217024CE051E0FA
:101A700062E172E085E192E00E94BA0380913E014A
:101A8000813051F18230E9F02091120290911302DD
:101A900080911402F8013297208331969083D80107
:101AA0008C930B5F1F4FB5E0EB0EF11CE4E00D389B
:101AB0001E0709F094CFA6CDF701C0821092410114
:101AC0009ECF9091120220911302209312029093C4
:101AD000130280911402DECF9091140280911302C0
:101AE000809314029093130220911202D3CFC8EE78
:101AF000D2E060E070E0CB0117C0BE01685E7240CA
:101B0000882777FD8095982F0E94BB1D2BED3FE025
:101B100049EC50E40E94471E20E030E040E05DE3E5
:101B20000E94471E0E94AA1E20E030E040E85FE3CA
:101B30000E94291D20E030E048EC51E40E94471E3D
:101B400020E030E046E952E40E94291D0E948D1DEC
:101B50006993E3E0C832DE0781F64FCD8091410101
:101B6000811123C18091E802809340018091A802F5
:101B700080933F014FE350E069EE72E088EE92E01F
:101B80000E948B1F4FE350E069EA72E088EA92E01E
:101B90000E948B1F809140018093270380913F0119
:101BA0008093E702DCC880914101811120C18091BE
:101BB000E802809340018091A80280933F014FE3A7
:101BC00050E069EE72E088EE92E00E948B1F4FE3D6
:101BD00050E069EA72E088EA92E00E948B1F8091EF
:101BE00040018093270380913F018093E702BCC8A6
:101BF000C8EED2E060E070E0CB0117C0BE01685EC5
:101C00007240882777FD8095982F0E94BB1D2BED91
:101C10003FE049EC50E40E94471E20E030E040E8FD
:101C20005CE30E94471E0E94AA1E20E030E040E8CC
:101C30005FE30E94291D20E030E048EC51E40E945F
:101C4000471E20E030E046E952E40E94291D0E9430
:101C50008D1D6993B3E0C832DB0781F6C9CC815092
:101C60008093360181110C94F70568CD230F2A83E8
:101C700042CA412F50E0EA01CC0FDD1FC40FD51F2F
:101C8000CE5ADE4F48814E0D488325CA1F3308F0D7
:101C9000EEC01F5F1C9338CA90911402809113020A
:101CA000809314029093130220911202BBC880917A
:101CB0000801833009F47BC140912701809108011C
:101CC000883009F457C180912A018F5F80932A01DF
:101CD0004817A8F410922A018FEF80932B0180916E
:101CE0002801E82FF0E0E75CFC4F908190932E01F3
:101CF0008F5F80932801823310F010922801809129
:101D000041018111BAC08091E80280934001809125
:101D1000A80280933F014FE350E069EE72E088EE45
:101D200092E00E948B1F4FE350E069EA72E088EA7C
:101D300092E00E948B1F8091400180932703809145
:101D40003F018093E702109229010C94A50680932D
:101D500029011092370148C88EE18093360181E055
:101D60008093350110923A012B982C982D9810925F
:101D70004C0180913A016BCB909109019F5F909348
:101D8000090190910901943010F08093090188E0D5
:101D90008093360181E08093350110923A012B98AF
:101DA0002C982D9880913A014CCB809127038093F9
:101DB00040018091E70280933F014FE350E068EEDD
:101DC00072E089EE92E00E948B1F4FE350E068EAD8
:101DD00072E089EA92E00E948B1F8091400180931B
:101DE000E80280913F018093A8020C94AF06809195
:101DF0002703809340018091E70280933F014FE3E6
:101E000050E068EE72E089EE92E00E948B1F4FE393
:101E100050E068EA72E089EA92E00E948B1F8091AC
:101E200040018093E80280913F018093A8020C94C6
:101E3000B40680915101813009F4E5C08091070119
:101E40008F5F8093070180910701823118F081E054
:101E500080930701109251011092380110923701BE
:101E60008BCDEB01F8828C918F5F8C934DC9EB0188
:101E700018828C9181508C9347C98091270380935D
:101E800040018091E70280933F014FE350E068EE0C
:101E900072E089EE92E00E948B1F4FE350E068EA07
:101EA00072E089EA92E00E948B1F8091400180934A
:101EB000E80280913F018093A80245CF80912B01D9
:101EC0008093E80280912E018093A8020C94010770
:101ED000209329011092370120CA10923701DDC8E2
:101EE000209329011092370175C82093290110927F
:101EF0003701DCCA109229010C94B90620932901FC
:101F000010923701DBC960910B0186E090E00E94DE
:101F1000A51F6091090185E090E00E94A51F6091D6
:101F2000080184E090E00E94A51F6091070183E012
:101F300090E00E94A51F60914B0181E090E00E941B
:101F4000A51F60913E0180E090E00E94A51F88E0FF
:101F50008093360181E08093350110923A012B98ED
:101F60002C982D9880913A016FCA81E080934A01A4
:101F70000C94680710912B01E42FF0E0C12FD0E002
:101F8000BF01655071092FEF30E0C9010E94FF1CAD
:101F9000C617D7070CF45CC065E070E06E1B7F0BC2
:101FA000C9010E94FF1C160F10932B018CCE1091BB
:101FB0002B0140912701E42FF0E0C12FD0E0BF01B9
:101FC000655071092FEF30E0C9010E94FF1CC61750
:101FD000D7070CF440C065E070E06E1B7F0BC901B1
:101FE0000E94FF1C160F10932B0168CE10923E0129
:101FF00039CA91EC980F9BC991EC980F61CA88E09F
:1020000080930B01AACC809108018F5F8093080117
:10201000809108018D3010F01092080181E08093CA
:102020003901AACC3091120240911302409312025E
:10203000309313022091140266CA509112026091EB
:10204000130260931202509313024091140292C93A
:1020500010922B0138CE10922B0130CE3091140209
:102060002091130220931402309313024091120224
:102070004ACA5091140240911302409314025093A3
:1020800013026091120276C940911202309113023C
:10209000209114020C942208309114022091130212
:1020A0002093140230931302409112020C942208E0
:1020B0000197806C9F6F019607C90197806C9F6F95
:1020C00001960C94F2071F920F920FB60F921124F3
:1020D0002F933F934F935F936F937F938F939F9330
:1020E000AF93BF93CF93DF93EF93FF9380918A00D9
:1020F00090918B0081509F4F90938B0080938A002A
:102100008091510120914F01309150018111A8C05F
:1021100080914D0190914E012817390708F46CC049
:1021200080912002811109C080911802882329F032
:1021300080911802815080931802809121028111B0
:1021400009C080911902882329F0809119028150D9
:102150008093190280912202811109C080911A0294
:10216000882329F080911A02815080931A0280916D
:102170002302811109C080911B02882329F08091DC
:102180001B02815080931B0280912402811109C09F
:1021900080911C02882329F080911C028150809339
:1021A0001C0280912502811109C080911D028823A3
:1021B00029F080911D02815080931D02809126029A
:1021C000811109C080911E02882329F080911E028E
:1021D000815080931E0280912702811109C0809155
:1021E0001F02882329F080911F02815080931F02D3
:1021F0001092500110924F01809107018F3008F02A
:1022000054C080914F0190915001019690935001DC
:1022100080934F01809142019091430101969093E8
:1022200043018093420180914201909143010196C4
:1022300021F41092430110924201FF91EF91DF913E
:10224000CF91BF91AF919F918F917F916F915F914E
:102250004F913F912F910F900FBE0F901F901895A7
:1022600080914D0190914E012817390750F28091CD
:102270000801813009F45FC080910801823009F4BF
:102280005AC080910801893009F47FC0809108010B
:102290008A3009F47AC080910801843009F4ADC015
:1022A0001092500110924F01ACCF80910701823102
:1022B00008F0A7CF80E090E04FE350E026C03091D7
:1022C0004401231B11962C93DF01A80FB91FAE5AAE
:1022D000BE4F2C9130914401231708F44BC030912C
:1022E0004401231B2C93E80FF91FEE5AFE4F228165
:1022F000309144012317E0F130914401231B2283E4
:1023000001968034910509F47CCF2091450128176E
:1023100099F1FC01EE0FFF1FDF01A80FB91FAE5AA4
:10232000BE4F11962C91119730914401231738F626
:1023300011961C92C9CFC3E5D1E0A2E5B1E0E4E576
:10234000F1E08881882311F0815088838C91882363
:1023500011F081508C938081882311F0815080830B
:1023600023961396339672E0E431F70751F789CF3D
:102370001282C6CF1C92B7CF20914501BA01621BD1
:1023800071098617970729F6BBCFC3E5D1E0A2E50F
:10239000B1E0E4E5F1E01EC090914401891B88831F
:1023A0008C9190914401981700F590914401891BFC
:1023B0008C938081909144019817E8F490914401A6
:1023C000891B808323961396339682E0E431F807C5
:1023D00009F461CF8881909144019817E8F218823E
:1023E0008C9190914401981700F31C9280819091F8
:1023F0004401981718F31082E5CFE4E5F1E0DF011E
:1024000011971C9211971C921082339622E0E431AE
:10241000F207A9F745CF67E086E090E00E94B71F7A
:1024200061E085E090E00E94B71F61E084E090E009
:102430000E94B71F61E083E090E00E94B71F60E058
:1024400081E090E00E94B71F60E080E090E00E9491
:10245000B71F6BE082E090E00E94B71F82E090E03F
:102460000E949D1F80934C0186E090E00E949D1F7A
:1024700080930B0185E090E00E949D1F80930901ED
:1024800084E090E00E949D1F8093080183E090E02B
:102490000E949D1F8093070181E090E00E949D1F94
:1024A00080934B0180E090E00E949D1F80933E014D
:1024B0000895CF93DF93CDB7DEB72B970FB6F8947F
:1024C000DEBF0FBECDBF81E08093810080916F00A1
:1024D000866080936F00289A299A409A5A98229A87
:1024E0008CE384B98EE187B9529A82E090E00E9431
:1024F0009D1F80934C0180914C018B3011F00C9406
:10250000D11C86E090E00E949D1F80930B0185E026
:1025100090E00E949D1F8093090184E090E00E945A
:102520009D1F8093080181E090E00E949D1F809391
:102530004B0183E090E00E949D1F8093070180E0A3
:1025400090E00E949D1F80933E0180914B01882363
:1025500019F081E080934A0181E080930601909117
:102560000A0180910B01989FC001112490934E01A4
:1025700080934D0181E28093450178941C821B82F7
:102580002BE633E03E832D8344244A94AFE32A2E86
:10259000312C55245A9480914C01882311F40C94C9
:1025A0004A18AD81BE81E0E0F1E01D923197E9F774
:1025B00085E680937C002BE633E03E832D83F90192
:1025C00026EF20937A0080917A0084FFFCCF8091DF
:1025D00078009091790090588193919334E0EB3694
:1025E000F30779F710927A002F923F924F925F9201
:1025F000FF920F931F93CF93DF93CBE6D3E0E6EEEA
:10260000F1E0FF2440E865917591088119819703F5
:1026100020010E034F1C10019E035F08300C411C6B
:102620005F1CF8035F08300C411C5F1C49925992F3
:102630004A9549F7DF91CF911F910F91FF905F90DD
:102640004F903F902F9011242F923F926F927F9244
:10265000CF93DF93E6EEF5E048E3A591BB27AA0F01
:10266000BB1FA559BC4F2D903C90C591DD27CC0FC9
:10267000DD1FC559DC4F688079807C926E9228827C
:1026800039824A9551F7DF91CF917F906F903F90BB
:102690002F902F923F924F925F926F927F928F92E4
:1026A0009F92AF92BF92CF92DF92EF92FF920F93E1
:1026B0001F93CF93DF93FF2400E1E02ECBE6D3E01E
:1026C000688079804A805B80759467944301559453
:1026D0004794640C751C84189508AC80BD804E80AE
:1026E0005F80B594A794650155944794A40CB51CDC
:1026F000C418D508688579854A845B847595679583
:102700008B0155944794640D751D041915098C852A
:102710009D854E845F84959587959C01559447943B
:10272000840D951D24193509759467942301B5947A
:10273000A7946A0C7B1C4A185B08959487945401F3
:10274000D594C7948C0C9D1CAC18BD0875956795E5
:102750006B0195958795680F791FC81AD90A7594EA
:102760006794130175956795660E771E261A370ACA
:1027700042E85AE51503C001049FB00114039F0904
:10278000700D811D9F1D509F700D811D9F1D959483
:1027900087948401880E991E081B190B5594479441
:1027A000D201D594C7944C0C5D1CAC19BD093503FE
:1027B000C001249FB00134039F09700D811D9F1D2E
:1027C000529F700D811D9F1DB594A7946501A80EA1
:1027D000B91EC81AD90A6992799289929992499236
:1027E0005992A992B9922992399209931993A9936E
:1027F000B993C992D992EA9409F062CF00E2C02E4F
:10280000DD2404E0902EE6E5F6E000E1A02EBB24F6
:1028100004E0E02EABE6B3E0ED01CA0DDB1D8E2C2B
:102820002D903C90488059803594279431015594DF
:102830004794640C751C24183508299239927C92AF
:102840006E92AC0DBD1D1197EA94088119813C91DF
:102850002E91459155916591759115022001049F26
:10286000100114035F08300C411C5F1C509F300C9A
:10287000411C5F1C37023001269F200C311C461C76
:10288000571C36035F08300C411C5F1C729F300CD4
:10289000411C5F1C0E01CA19DB0928803980359460
:1028A00027943101640C751C2418350868827982DC
:1028B000E0012992399217022001069F10011603A8
:1028C0005F08300C411C5F1C709F300C411C5F1C6A
:1028D00035023001249F2018310846085708340378
:1028E0005F1C301841085F08529F301841085F088C
:1028F0000D01AA19BB092D903C9035942794310104
:10290000640C751C241835087C926E92D0012D92AF
:102910003C921297EA9409F098CFDE01AA19BB09FC
:102920002D903C90488059803594279431015594DE
:102930004794640C751C24183508288239827C92CF
:102940006E92C50196958795C80FD91FCB36D905CC
:1029500040F4DE01CA0DDB1DE82CEA19FB093496B0
:102960005FCF85FC06C0EA2CE6945601CC0CDD1C3A
:1029700051CFDF91CF911F910F91FF90EF90DF909A
:10298000CF90BF90AF909F908F907F906F905F900F
:102990004F903F902F9011242F923F924F925F9231
:1029A0006F927F928F92FF920F931F93CF93DF933B
:1029B000ABE6B3E0C8E2D2E0EBE6F4E04F01FF247F
:1029C00040E40D911D91980106C0F4010D911D91F7
:1029D000329122914F0111022001009F10019803B2
:1029E0005F08300C411C5F1C33023001229F200C19
:1029F000311C461C571CBA035F08300C411C5F1C7D
:102A00001127552061F018E0F201F03428F5330C5D
:102A1000EE1FFF1F330CEE1FFF1F1A951DC0442031
:102A200069F014E0F42DE32DF034B0F4220CEE1F25
:102A3000FF1F220CEE1FFF1F1A95F6CFF101F03495
:102A400058F4F03160F4F13078F0F295E295EF70DF
:102A5000EF2BE695F1E008C0EF2FF2E005C0EE0F96
:102A6000FF1FEF2FE068F1E0EA51FD4F04912227AC
:102A7000112321F0000F221F1A95E1F709932993E2
:102A80004A9509F0A2CFDF91CF911F910F91FF904E
:102A90008F907F906F905F904F903F902F90112478
:102AA000612C712CC12CD12CE12CF12C00E010E018
:102AB00020E030E0A12CB12C812C912CE8E2F2E056
:102AC00041E050E080E090E039872887FB87EA8783
:102AD00007C04034510551F14F5F5F4FEA85FB85D8
:102AE00021913191FB87EA87BA01625071096F33F6
:102AF000710578F76C5C7F4FFB010C94131DF90195
:102B0000E80FF91FFA83E983E03D67E4F60708F070
:102B100020C2ADECBCEC0E94191D96958795969548
:102B200087958E0F9F1F40345105B1F62885398552
:102B30007092290360922803D0922B03C0922A033B
:102B4000F0922D03E0922C0310932F0300932E0399
:102B50003093310320933003B0923303A0923203B9
:102B60009092350380923403909337038093360319
:102B700080915101813009F482C580915101811108
:102B800055C280910901813009F406C7609109019D
:102B900070E088EC90E00E94FF1CFB01809128030C
:102BA00090912903813D57E0950708F4F2C6805DB6
:102BB0009740BF010E94EB1C8B0170932903609327
:102BC00028038091050190E08617970708F0DEC67C
:102BD000809105016B01C81AD10809F4D7C680910C
:102BE0002A0390912B03813D67E0960708F4CBC63A
:102BF000805D9740BF010E94EB1C70932B03609394
:102C00002A038091050190E08617970708F032C5E6
:102C1000809105019B01281B3109F22E432F2C15B1
:102C20003D0510F4FC2C4D2D80912C0390912D032B
:102C3000813D77E0970708F41AC5805D9740BF0192
:102C40000E94EB1C70932D0360932C03809105016F
:102C500090E08617970728F4809105019B01281BB7
:102C60003109CF2CD42EC216D30608F46901809105
:102C70002E0390912F03813DA7E09A0708F4F4C436
:102C8000805D9740BF010E94EB1C70932F036093FF
:102C90002E038091050190E08617970728F4809114
:102CA00005019B01281B3109C216D30608F46901EE
:102CB0008091300390913103813DB7E09B0708F488
:102CC000D0C4805D9740BF010E94EB1C709331031C
:102CD000609330038091050190E08617970728F4F0
:102CE000809105019B01281B3109C216D30608F407
:102CF00069018091320390913303813D47E094074D
:102D000008F4ACC4805D9740BF010E94EB1C709337
:102D10003303609332038091050190E08617970793
:102D200028F4809105019B01281B31097601C21608
:102D3000D30608F479018091340390913503813DE5
:102D400057E0950708F487C4805D9740BF010E9453
:102D5000EB1C70933503609334038091050190E080
:102D60008617970728F4809105019B01281B3109DC
:102D7000E216F30608F47901809136039091370347
:102D8000813D67E0960708F477C4805D9740BF01F6
:102D90000E94EB1C7093370360933603809105010A
:102DA00090E08617970728F4809105019B01281B66
:102DB0003109FC82EB82E216F30610F43C832B838C
:102DC000C801E12C21E000E010E032E0F32ECB80DE
:102DD000DC80B22E1EC0FA01E85EFD4F208130E09B
:102DE0008217930708F44FC08083EE2009F44DC08A
:102DF000FC92080F191F88E0B81609F46CC1AB2DBE
:102E0000B0E0AA0FBB1FA85DBC4F8D919C91B394FD
:102E1000E394209109014E2D50E0213009F4B2C015
:102E20008C159D0508F4A2C08C199D099A01220FEA
:102E3000331FD901A85DBC4F8D939C936091050110
:102E400070E06817790740F48091050190E0F9017E
:102E5000E85DFC4F91838083DA01A05EBD4F6C91E9
:102E6000662309F4B8CF7FEF760F7C93FA01E85E12
:102E7000FD4F208130E08217930708F0B5CF77230C
:102E800011F062506C93E110B4CF1C92080F191F1F
:102E9000B6CF820E931E20ED821627E4920608F428
:102EA0001BCE3FEC832E37E4932E16CEA20EB31E1C
:102EB000F0EDAF16F7E4BF0608F40ECE6FECA62EC9
:102EC00067E4B62E09CEE885F985E20FF31FF9878E
:102ED000E887E03DF74408F4FFCDEFECF7E4F9872D
:102EE000E887FACD020F131F003DE7E41E0708F440
:102EF000F3CD0FEC17E4F0CDE20EF31EB0EDEB16C0
:102F0000B7E4FB0608F4E8CD7FECE72E77E4F72E74
:102F1000E3CDB9016C0D7D1D603DA7E47A0708F58E
:102F20006901D694C794D694C794D694C794C60E14
:102F3000D71ED2CDB901660D771D603DF7E47F073E
:102F400058F439017694679476946794660E771EE8
:102F5000C3CD8FEC97E4BDCD3FEC632E37E4732EE9
:102F6000BBCD2FECC22E27E4D22EB6CDDA01AA0FAC
:102F7000BB1FA85DBC4F1D921C928091050180E093
:102F800090E06ACF813D77E0970708F4A1C09C01EB
:102F9000205D3740A3E8BDE20E94191D96958795F4
:102FA000929582958F7089279F7089273FCF809255
:102FB000440120914701205E213408F02FE38091E5
:102FC000470190E06816790608F03DC380914501FD
:102FD0008217D0F4822F90E0FC01EE0FFF1FE80F64
:102FE000F91FEE5AFE4F118210821282A101481B76
:102FF000590BCA01FA01EE0FFF1FE80FF91FEE5A35
:10300000FE4F1182108212821F5F193008F010E00B
:10301000013009F4CCC2FA9409F08FC0FFEFAF1A67
:10302000BF0A2FE1C20E38EFC31280C0F89460E4EB
:1030300070E082E591E00E94F204789480912A0386
:1030400090912B03892B51F580912C0390912D03A6
:10305000892B21F580912E0390912F03892BF1F478
:103060008091300390913103892BC1F48091320318
:1030700090913303892B91F480913403909135031F
:10308000892B61F481E08093380380914C01811198
:103090000C94D1120E940B120C94D1128091510108
:1030A000882321F01092500110924F0190910A0153
:1030B00080910B01989FC001112490934E01809341
:1030C0004D0110923803109251015A980C94CB1272
:1030D00080E090E0ABCE10924701809107018F30E5
:1030E00098F080910701823178F49801ABEABAEA4E
:1030F0000E94191D8C0116950795169507950134A8
:10310000110510F000E410E0C12CE12CF12CDD24BD
:10311000D394A12C63E0762E75E0872EE0E1BE2EDD
:10312000972C38010D2D1A2DDB2C570148E0F42E79
:103130009501285E3D4F3A83298350921602809173
:10314000070190E0FC013197E131F10508F05CCF17
:10315000ED58FF4F0C94131D8092440120914701BC
:10316000205E213408F02FE38091470190E068163B
:10317000790608F42BCF80914701E0E3F0E0E81BEB
:10318000F109CF01880F80931502509217024CE08D
:1031900051E062E172E085E192E02F830E94BA0380
:1031A00080913E012F81813009F439C2823009F0CB
:1031B000FCC34091120250911302509312024093AB
:1031C000130230911402822F90E0FC01EE0FFF1FDA
:1031D000E80FF91FEE5AFE4F518340833283B1014D
:1031E000681B790BCB01FB01EE0FFF1FE80FF91FE6
:1031F000EE5AFE4F5183408332838091470190E025
:103200008615970509F000CF80914501281710F029
:10321000209345018091450190E0FC01EE0FFF1FD6
:10322000E80FF91FEE5AFE4F41828091450190E070
:10323000FC01EE0FFF1FE80FF91FEE5AFE4F108240
:103240008091450190E0FC01EE0FFF1FE80FF91F90
:10325000EE5AFE4F128280914501D101A81BB1099F
:10326000CD01FD01EE0FFF1FE80FF91FEE5AFE4FD3
:10327000418280914501F101E81BF109CF01EE0F78
:10328000FF1FE80FF91FEE5AFE4F10828091450193
:103290009101281B3109C901F901EE0FFF1FE80F49
:1032A000F91FEE5AFE4F1282AFCE809148019091E5
:1032B000490190914701980F90931502E12FF0E09A
:1032C000E85EFD4FE081F0E0EA55FE4F8591949174
:1032D000809317024CE051E062E172E085E192E0F8
:1032E0000E94BA0380913E01813009F471C182309D
:1032F00009F463C14091120230911302209114022B
:103300008091470190E0FC01EE0FFF1FE80FF91FCD
:10331000EE5AFE4F41838091470190E0FC01EE0F91
:10332000FF1FE80FF91FEE5AFE4F308380914701CF
:1033300090E0FC01EE0FFF1FE80FF91FEE5AFE4F61
:10334000228362CEC0921502BFE1CB1609F434C3CA
:10335000A981BA81EC91F0E0EA55FE4F85919491F4
:10336000809317024CE051E062E172E085E192E067
:103370000E94BA0380913E01813009F445C1823038
:1033800009F431C1409112023091130220911402CC
:10339000013009F435C1909147018FE3891B01E0A9
:1033A00090E0FC01EE0FFF1FE80FF91FEE5AFE4FF1
:1033B00041833083228328CEE981FA818081910183
:1033C000281B3109C901880F80931502E0817BCF4A
:1033D000E981FA8180819101281B3109C901880F97
:1033E00080931502DF01B6CFE981FA818081880FD1
:1033F0008F57F6CF809148019091490190914701F4
:10340000980F90931502A4CF8091480190914901A3
:103410008C0D80931502A981BA819CCF80914801BF
:10342000909149018C0D8093150248CFC0921502EE
:10343000BFE1CB1243CFD092150240CF809148011B
:10344000909149018C0D80931502A981BA81EC916C
:103450003ACFE981FA818081880F8F5780931502D6
:10346000E08131CF809148019091490190914701CD
:10347000980F90931502A981BA81EC9124CFC09244
:1034800015029FE1C912F7CFD0921502F4CF9092A6
:103490004401809148019091490180931502509216
:1034A000170220914701205E213408F02FE34CE001
:1034B00051E062E172E085E192E02F830E94BA035D
:1034C00080913E012F81813009F4B4C0823041F4F3
:1034D0008091120290911302909312028093130232
:1034E0008091470190E08615970509F08DCD809178
:1034F0004501281710F02093450180914501409126
:10350000120290E0FC01EE0FFF1FE80FF91FEE5AC8
:10351000FE4F4183809145012091130290E0FC0110
:10352000EE0FFF1FE80FF91FEE5AFE4F2083809128
:1035300045013091140290E0FC01EE0FFF1FE80FEF
:10354000F91FEE5AFE4F328380914501B101681B8D
:103550007109FB01EE0FFF1FE60FF71FEE5AFE4F3A
:10356000418380914501D101A81BB109CD01FD0125
:10357000EE0FFF1FE80FF91FEE5AFE4F20838091D8
:103580004501F101E81BF109CF01EE0FFF1FE80F24
:10359000F91FEE5AFE4F328337CD8091480190914A
:1035A000490180931502A981BA81EC918CCE80915A
:1035B00047018F5F809347012ECD309112024091D9
:1035C000130240931202309313022091140298CEFA
:1035D00030911402209113022093140230931302AD
:1035E000409112028DCE309112024091130240930D
:1035F00012023093130220911402013009F0CBCE55
:103600008091470100E0CCCE30911402209113024A
:10361000209314023093130240911202B9CE4091CC
:10362000140230911302309314024093130250910C
:103630001202C9CD8091140290911302909314024A
:10364000809313024DCF90914701892F880F880FE7
:10365000880F891B98CD80E090E078CB80E090E0E7
:1036600053CB80E090E02FCB80E090E00BCB80E06C
:1036700090E0E5CA9601D1CA80E090E088CB71ED78
:10368000671677E0770608F05CC110922903109264
:1036900028038091050180912A0390912B03813D9D
:1036A000A7E09A0708F02BC110922B0310922A036F
:1036B0008091050180912C0390912D03813DB7E00D
:1036C0009B0708F0FAC010922D0310922C038091F2
:1036D000050180912E0390912F03813DE7E09E0725
:1036E00008F0C9C010922F0310922E03809105019B
:1036F0008091300390913103813DF7E09F0708F0FE
:1037000098C010923103109230038091050180918E
:10371000320390913303813D27E0920708F067C0A0
:10372000109233031092320380910501809134038B
:1037300090913503813D37E09307B8F5109235033A
:1037400010923403809105018091360390913703E4
:10375000813D47E0940738F4109237031092360306
:10376000809105010ACA9C01205D3740A3E8BDE2B3
:103770000E94191D96958795929582958F7089273D
:103780009F7089279093370380933603209105011A
:1037900030E02817390708F0F0C98091050190E062
:1037A0009093370380933603E8C99C01205D37402E
:1037B000A3E8BDE20E94191D969587959295829582
:1037C0008F7089279F7089279093350380933403E6
:1037D0002091050130E02817390708F0B5CF809116
:1037E000050190E09093350380933403ADCF9C01A5
:1037F000205D3740A3E8BDE20E94191D969587958C
:10380000929582958F7089279F70892790933303B3
:10381000809332032091050130E02817390708F022
:1038200085CF8091050190E090933303809332031C
:103830007DCF9C01205D3740A3E8BDE20E94191DA9
:1038400096958795929582958F7089279F70892785
:1038500090933103809330032091050130E02817C5
:10386000390708F054CF8091050190E0909331031F
:10387000809330034CCF9C01205D3740A3E8BDE22C
:103880000E94191D96958795929582958F7089272C
:103890009F70892790932F0380932E032091050119
:1038A00030E02817390708F023CF8091050190E018
:1038B00090932F0380932E031BCF9C01205D3740F4
:1038C000A3E8BDE20E94191D969587959295829571
:1038D0008F7089279F70892790932D0380932C03E5
:1038E0002091050130E02817390708F0F2CE8091C9
:1038F000050190E090932D0380932C03EACE9C0168
:10390000205D3740A3E8BDE20E94191D969587957A
:10391000929582958F7089279F70892790932B03AA
:1039200080932A032091050130E02817390708F019
:10393000C1CE8091050190E090932B0380932A03E0
:10394000B9CE9301205D3740A3E8BDE20E94191D66
:1039500096958795929582958F7089279F70892774
:1039600090932903809328032091050130E02817C4
:10397000390708F090CE8091050190E090932903DB
:103980008093280388CE80E090E034C9C12CD12CEC
:1039900026C980E090E00DC9809128039091290309
:1039A00010CA0E940B120C94A51250911202409161
:1039B00013023091140207CCD0921502C9CC991B86
:1039C00079E004C0991F961708F0961B881F7A9516
:1039D000C9F780950895AA1BBB1B51E107C0AA1F18
:1039E000BB1FA617B70710F0A61BB70B881F991FA0
:1039F0005A95A9F780959095BC01CD01089597FB44
:103A0000072E16F4009407D077FD09D00E94EB1C16
:103A100007FC05D03EF4909581959F4F08957095D1
:103A200061957F4F0895EE0FFF1F0590F491E02DF3
:103A30000994A29FB001B39FC001A39F700D811D87
:103A40001124911DB29F700D811D1124911D0895A7
:103A50005058BB27AA270ED0E0C0D1D030F0D6D026
:103A600020F031F49F3F11F41EF4C6C00EF4E0952F
:103A7000E7FBBCC0E92FE2D080F3BA1762077307F7
:103A80008407950718F071F49EF5FAC00EF4E095DE
:103A90000B2EBA2FA02D0B01B90190010C01CA0108
:103AA000A0011124FF27591B99F0593F50F4503EB3
:103AB00068F11A16F040A22F232F342F4427585FA5
:103AC000F3CF469537952795A795F0405395C9F7BD
:103AD0007EF41F16BA0B620B730B840BBAF0915075
:103AE000A1F0FF0FBB1F661F771F881FC2F70EC014
:103AF000BA0F621F731F841F48F4879577956795E7
:103B0000B795F7959E3F08F0B3CF9395880F08F0CF
:103B10009927EE0F97958795089598D088F09F572D
:103B200090F0B92F9927B751A0F0D1F0660F771F09
:103B3000881F991F1AF0BA95C9F712C0B13081F0E9
:103B40009FD0B1E008959CC0672F782F8827B85F79
:103B500039F0B93FCCF3869577956795B395D9F74A
:103B60003EF490958095709561957F4F8F4F9F4F54
:103B70000895E89409C097FB3EF490958095709560
:103B800061957F4F8F4F9F4F9923A9F0F92F96E9A9
:103B9000BB279395F695879577956795B795F1111E
:103BA000F8CFFAF4BB0F11F460FF1BC06F5F7F4FBB
:103BB0008F4F9F4F16C0882311F096E911C07723CD
:103BC00021F09EE8872F762F05C0662371F096E8D6
:103BD000862F70E060E02AF09A95660F771F881FA5
:103BE000DAF7880F9695879597F9089597F99F6763
:103BF00080E870E060E008959FEF80EC0895002475
:103C00000A941616170618060906089500240A9441
:103C100012161306140605060895092E0394000CC7
:103C200011F4882352F0BB0F40F4BF2B11F460FF56
:103C300004C06F5F7F4F8F4F9F4F089557FD90587F
:103C4000440F551F59F05F3F71F04795880F97FB60
:103C5000991F61F09F3F79F087950895121613061A
:103C60001406551FF2CF4695F1DF08C01616170649
:103C70001806991FF1CF869571056105089408957E
:103C8000E894BB2766277727CB0197F908950BD0D7
:103C9000C4CFB5DF28F0BADF18F0952309F0A6CF1E
:103CA000ABCF1124EECFCADFA0F3959FD1F3950FD0
:103CB00050E0551F629FF001729FBB27F00DB11DB0
:103CC000639FAA27F00DB11DAA1F649F6627B00D40
:103CD000A11D661F829F2227B00DA11D621F739F29
:103CE000B00DA11D621F839FA00D611D221F749F37
:103CF0003327A00D611D231F849F600D211D822F7E
:103D0000762F6A2F11249F5750408AF0E1F08823C4
:103D10004AF0EE0FFF1FBB1F661F771F881F9150D1
:103D20005040A9F79E3F510570F060CFAACF5F3F8A
:103D3000ECF3983EDCF3869577956795B795F79504
:103D4000E7959F5FC1F7FE2B880F911D969587958C
:103D500097F908959F9305D00F9007FCEE5F28C058
:103D60004BCF74DFE8F3E894E0E0BB279F57F0F017
:103D70002AED3FE049EC06C0EE0FBB0F661F771F30
:103D8000881F28F0B23A62077307840728F0B25AF6
:103D9000620B730B840BE3959A9572F7803830F4BD
:103DA0009A95BB0F661F771F881FD2F7904813C0E4
:103DB000EF93E0FF06C0A2EA2AED3FE049EC5FEB9B
:103DC00059DE2BDF0F90039401FC9058E8E0F1E0FE
:103DD0000EC09F3F31F0915020F4879577956795FD
:103DE000B795880F911D9695879597F908959F939C
:103DF0008F937F936F93FF93EF939B01AC0147DF0A
:103E0000EF91FF9105D02F913F914F915F913FCF5F
:103E1000DF93CF931F930F93FF92EF92DF927B017B
:103E20008C01689405C0DA2EEF013DDFFE01E894B5
:103E3000A5912591359145915591AEF3EF011ADE8B
:103E4000FE019701A801DA9479F7DF90EF90FF90D7
:103E50000F911F91CF91DF9108958F929F92AF9212
:103E6000BF92CF92DF92EF92FF92CF93DF93EC015C
:103E7000688179818A819B81611571058105910530
:103E800021F464E279ED8BE597E02DE133EF41E039
:103E900050E00E94CE1F49015A019B01AC01A7EAE4
:103EA000B1E40E94ED1F6B017C01ACEEB4EFA50103
:103EB00094010E94FB1FC60ED71EE81EF91EF7FED6
:103EC00006C081E0C81AD108E10880E8F80AC88273
:103ED000D982EA82FB82C6019F77DF91CF91FF9062
:103EE000EF90DF90CF90BF90AF909F908F9008950C
:103EF0000E942D1F089580E091E00E942D1F0895DB
:103F0000A0E0B0E08093000190930101A093020132
:103F1000B093030108956817790768F4FB01DC0189
:103F2000E40FF51FA40FB51F02C002900E9241507E
:103F30005040D8F708950C94C51FF999FECF92BD53
:103F400081BDF89A992780B50895262FF999FECF5B
:103F500092BD81BDF89A019700B4021639F01FBADC
:103F600020BD0FB6F894FA9AF99A0FBE0895262F3D
:103F7000F999FECF1FBA92BD81BD20BD0FB6F8944E
:103F8000FA9AF99A0FBE01960895FB01DC0102C06E
:103F900001900D9241505040D8F70895052E97FB9F
:103FA0001EF400940E94E51F57FD07D00E940020D8
:103FB00007FC03D04EF40C94E51F509540953095C6
:103FC00021953F4F4F4F5F4F089590958095709585
:103FD00061957F4F8F4F9F4F08950E94191DA59F98
:103FE000900DB49F900DA49F800D911D11240895F4
:103FF000B7FF0C94ED1F0E94ED1F821B930B0895D9
:10400000A1E21A2EAA1BBB1BFD010DC0AA1FBB1FDC
:10401000EE1FFF1FA217B307E407F50720F0A21B4E
:10402000B30BE40BF50B661F771F881F991F1A94BB
:1040300069F760957095809590959B01AC01BD01E5
:08404000CF010895F894FFCFB1
:1040480001000000043F01010101460708FF0000CC
:10405800FF8000FFFF0000FF0000FFFF0000FF805F
:0640680000FFFF00000054
:00000001FF
