:100000000C949B030C94B8030C94B8030C94B803A1
:100010000C94B8030C94B8030C94B8030C94B80374
:100020000C94B8030C94B8030C94B8030C942205F8
:100030000C945A100C94B8030C94B8030C94B803A5
:100040000C94B8030C94B8030C94B8030C94B80344
:100050000C94B8030C94B8030C94B8030C94B80334
:100060000C94B8030C94B8038C177B176E176E179B
:1000700061176117611757175717571757175717F2
:100080005C15481748174817481748174817481766
:10009000481748173B173B173B173B173B173B17B6
:1000A0003B173B173B173B173B173B173B173B17C0
:1000B0003B1772157215721572157215721572153D
:1000C00072157215721572157215721572157215F8
:1000D00072157215721572157215721572157215E8
:1000E000721572157215321AC01A111A251A1C1AB5
:1000F000CD199319F719ED19E719DA19091A011A27
:1001000046199F18C9173A1A05A84CCDB2D44EB952
:100110003836A9020C50B9918688083CA6AAAA2AAA
:10012000BE000000803F0000000000000000000052
:1001300000000000000000000000000000010101BC
:10014000010101010101010101010102020202029A
:100150000202020303030303040404040505050566
:100160000606060707080809090A0A0B0B0C0D0DFD
:100170000E0F1011121314151617181A1B1D1F201D
:10018000222426282A2D2F3235383B3E4245494D20
:1001900052565B60666B71777E858D949DA5AFB876
:1001A000C3CED9E5F2FF000000000000000000000F
:1001B0000000000101010101020202020303030425
:1001C000040505060708090A0B0C0D0F1113151776
:1001D0001A1D2024282D32383E454D56606B7785F8
:1001E00094A5B8CEE5FF000014005000B400400113
:1001F000F301CD02CD03F3043D06AD073F09F40A38
:10020000C90CBF0ED41007135515BE17411ADB1CBD
:100210008B1F502227250F28062B0A2E1931323426
:100220005237773AA03DCB40F5431C473F4A5C4DDF
:1002300070507A5378566759475C155FCF61756483
:1002400003677969D66B166E3A703F722674EB7548
:100250008F770F796D7AA57BB87CA57D6C7E0B7F3F
:10026000837FD37FFB7FFB7FD37F837F0B7F6C7E7E
:10027000A57DB87CA57B6D7A0F798F77EB75267499
:100280003F723A70166ED66B796903677564CF61F9
:10029000155F475C675978567A5370505C4D3F4AFA
:1002A0001C47F543CB40A03D773A523732341931E1
:1002B0000A2E062B0F28272550228B1FDB1C411AE4
:1002C000BE1755150713D410BF0EC90CF40A3F0909
:1002D000AD073D06F304CD03CD02F3014001B400A8
:1002E0005000140000000001010202020203030397
:1002F00003030304040404040404040505050505BC
:100300000505050505060606060606060606060692
:10031000060707070707070707070707070707086D
:10032000080808080808080808080808080808094C
:10033000090909090909090909090909090909092D
:10034000090A0A0A0A0A0A0A0A0A0A0A0A0A0A0A0E
:100350000A0A0A0A0A0B0B0B0B0B0B0B0B0B0B0BF2
:100360000B0B0B0B0B0B0B0B0B0B0B0C0C0C0C0CD8
:100370000C0C0C0C0C0C0C0C0C0C0C0C0C0C0C0CBD
:100380000C0C0C0D0D0D0D0D0D0D0D0D0D0D0D0DA0
:100390000D0D0D0D0D0D0D0D0D0D0D0D0D0E0E0E8A
:1003A0000E0E0E0E0E0E0E0E0E0E0E0E0E0E0E0E6D
:1003B0000E0E0E0E0E0E0E0E0E0F0F0F0F0F0F0F56
:1003C0000F0F0F0F0F0F0F0F0F0F0F0F0F0F0F0F3D
:1003D0000F0F0F0F0F0F0F10101010101010101024
:1003E0001010101010100006080A0B0D0E0F10113F
:1003F00012131414151617171819191A1B1B1C1C85
:100400001D1D1E1E1F1F20202121222223232424E4
:100410002525262626272728282829292A2A2A2B5F
:100420002B2B2C2C2D2D2D2E2E2E2F2F2F303030F0
:10043000313131323232333333343434343535358B
:1004400036363637373737383838393939393A3A2E
:100450003A3B3B3B3B3C3C3C3C3D3D3D3D3E3E3ED8
:100460003E3F3F3F3F40000B101417191C1E202237
:10047000242627292A2C2D2F30313334353637398D
:100480003A3B3C3D3E3F4041424344454647484855
:10049000494A4B4C4D4E4E4F505152525354555564
:1004A00056575858595A5B5B5C5D5D5E5F5F606193
:1004B000616263636465656666676868696A6A6BDA
:1004C0006B6C6D6D6E6E6F6F707171727273737431
:1004D000747576767777787879797A7A7B7B7C7C95
:1004E0007D7D7E7E7F7F0010171C2024272A2D30E3
:1004F0003335373A3C3E4042444648494B4D4E50D6
:100500005253555658595B5C5D5F60616364656624
:1005100068696A6B6D6E6F707172737476777879D3
:100520007A7B7C7D7E7F80818283848586878889B3
:100530008A8B8B8C8D8E8F909192939494959697B5
:100540009899999A9B9C9D9E9E9FA0A1A2A2A3A4CC
:10055000A5A6A6A7A8A9A9AAABACACADAEAFAFB0F3
:10056000B1B1B2B3B4B4B5B6B6B7B8B9B9BABBBB2A
:10057000BCBDBDBEBFBFC0C1C1C2C3C3C4C5C5C66B
:10058000C7C7C8C8C9CACACBCCCCCDCECECFCFD0B6
:10059000D1D1D2D2D3D4D4D5D5D6D7D7D8D8D9DA09
:1005A000DADBDBDCDDDDDEDEDFDFE0E1E1E2E2E362
:1005B000E3E4E5E5E6E6E7E7E8E8E9EAEAEBEBECC1
:1005C000ECEDEDEEEEEFEFF0F1F1F2F2F3F3F4F427
:1005D000F5F5F6F6F7F7F8F8F9F9FAFAFBFBFCFC93
:1005E000FDFDFEFEFFFF7007780F74177C1F72275A
:1005F0007A2F76377E3F7147794F75577D5F7367E6
:100600007B6F6003680B64136C1B62236A2B663379
:100610006E3B6143694B65536D5B5005580D541536
:100620005C1D52255A2D56355E3D5145594D4001B0
:10063000480944114C1942214A2946314E393006A5
:10064000380E34163C1E32263A2E2002280A241276
:100650002C1A1004180C4276FC30825A825AFC3054
:1006600042768A7DF9184276FC306E6A1D47825ABE
:10067000825A1D476E6AFC304276F9188A7D627F85
:100680008C0C8A7DF9187D7A28254276FC30E3703F
:10069000573C6E6A1D47F2623451825A825A345175
:1006A000F2621D476E6A573CE370FC3042762825A3
:1006B0007D7AF9188A7D8C0C627FD97F4806627F2B
:1006C0008C0C9D7EC8128A7DF9182A7C1A1F7D7AAF
:1006D000282585781F2B4276FC30B673BA36E37036
:1006E000573CCA6DCE416E6A1D47D066404CF262DF
:1006F0003451D75EF655825A825AF655D75E345138
:10070000F262404CD0661D476E6ACE41CA6D573CBE
:10071000E370BA36B673FC3042761F2B85782825F5
:100720007D7A1A1F2A7CF9188A7DC8129D7E8C0C4E
:10073000627F4806D97F11241FBECFEFD8E0DEBF0D
:10074000CDBF11E0A0E0B1E0EAEFF0E402C0059017
:100750000D92A632B107D9F724E0A6E2B1E001C0BC
:100760001D92A93DB207E1F70E9450120C947B2024
:100770000C9400002F923F924F925F926F927F9263
:100780008F929F92AF92BF92CF92DF92EF92FF92A1
:100790000F931F93CF93DF93EC017B01FA018080CD
:1007A000912C80E091E0B4010E94F01C6B018881E3
:1007B0000E94D01C282F30E041E0841A91082815AF
:1007C000390509F408C18F5F082F10E03901660C64
:1007D000771CD301A20FB31FAE0FBF1F11963C9021
:1007E000832C912CA92EB12CDD242801440C551CFE
:1007F000D201A00FB11FAE0FBF1F11964C9150E058
:10080000481959094A9DC0014B9D900D5A9D900D64
:100810001124B6010E94F01C860E971E97FCDEC0C4
:100820008FEF8816910411F00CF0CCC0630D2224D8
:100830002A94312C261A3108D301A20FB31FAE0F10
:10084000BF1F12967C90872C912CD201A00FB11F54
:10085000AE0FBF1F12964C9150E048195909A49E43
:10086000C001A59E900DB49E900D1124B6010E946A
:10087000F01C860E971E4FEF8416910411F00CF0B9
:10088000A4C0760E88248A94912C871891082F5F33
:100890003F4FD901AA0FBB1FA20FB31FAE0FBF1F3F
:1008A0007C90272D30E00F5F1F4FD801AA0FBB1F90
:1008B000A00FB11FAE0FBF1F4C9150E0421B530B56
:1008C000A49EC001A59E900DB49E900D1124B6016A
:1008D0000E94F01C260F371F2F3F310511F00CF03E
:1008E00077C0760EEFEFF0E0E719F109498150E0AB
:1008F000249E9001259E300D349E300D1124A1E8D8
:10090000B0E80E940A1D880F892F881F990B9195C6
:10091000082F0095849E9001859E300D949E300D89
:1009200011240E940A1D880F892F881F990B919509
:10093000182F1095E49F9001E59F300DF49F300D26
:1009400011240E940A1D880F892F881F990B9195E9
:10095000482F40952A81029F900111240E940A1D70
:10096000880F892F881F990B9195F70180832A8121
:10097000129F900111240E940A1D880F892F881F41
:10098000990B919581832A81429F900111240E94A5
:100990000A1D880F892F881F990B91958283DF91FB
:1009A000CF911F910F91FF90EF90DF90CF90BF906C
:1009B000AF909F908F907F906F905F904F903F90FF
:1009C0002F900895212C312C37CF812C912C5FCF83
:1009D000E0E0F0E08BCF00E010E0F8CE22242A9493
:1009E000312C2ACF9B01220F331F260F371F3C9A31
:1009F00048B14F7E58B150616FB7F8942115310559
:100A0000C9F0FC01820F931F219138E058B9000012
:100A100000C000C027FF48B9220F000000C000C07E
:100A200000C000C048B9000000C03A9579F7E81747
:100A3000F90751F76FBF89EF90E00197F1F700C018
:100A4000000008951F920F920FB60F921124AF92DB
:100A5000BF92CF92DF92EF92FF920F931F932F934B
:100A60003F934F935F936F937F938F939F93AF9336
:100A7000BF93CF93DF93EF93FF9380918800909182
:100A800089000197909389008093880080914601A6
:100A9000882329F0809146018150809346018091FE
:100AA0004601811115C0809148019091490101963C
:100AB00090934901809348018091480190914901A8
:100AC0008F3F910511F008F0F6C089E08093460150
:100AD00080910401882319F1815080930401809151
:100AE0000601813009F4ECC0FF91EF91DF91CF91C5
:100AF000BF91AF919F918F917F916F915F914F9136
:100B00003F912F911F910F91FF90EF90DF90CF9029
:100B1000BF90AF900F900FBE0F901F90189584E07C
:100B200080930401809107018F30C8F080915101BA
:100B3000811115C080913D01811110C68091450140
:100B4000893228F08091450181508093450184E0ED
:100B500080933D0180910701813109F43DC6189BC6
:100B600005C0309B03C0199910923C0118990DC023
:100B7000309B0BC0199B09C090913B019B3428F41A
:100B800081E080933A0180933C01189B0EC030991C
:100B90000CC0199B0AC090913B019B3430F482E059
:100BA00080933A0181E080933C0118990EC03099FE
:100BB0000CC0199B0AC090913B019B3430F483E038
:100BC00080933A0181E080933C01189963C0809141
:100BD0003A0190913C01811157C1913009F422C42E
:100BE00010923B0180913501813009F410C480914D
:100BF0004A01813009F40DC580913C01813009F42E
:100C000006C52A9880914B01882309F478C0809109
:100C100032018F5F80933201873309F470C1809174
:100C20004B01813009F45EC1823029F48091310199
:100C3000883209F45CC180913001813009F061C0D3
:100C400080915101813009F49EC5809142019091BB
:100C500043010E94D91F8091070180932F01909139
:100C60000701981310C0CEE0D0E00E94D41FBE014F
:100C70000E94F01C8F5F8093070180910701909183
:100C80002F01981791F31092510110923801109290
:100C9000300137C0309B9BCF199999CF90913B0180
:100CA0009B3408F094CF84E080933A0181E08093F4
:100CB0003C0184E0B9C3109249011092480105CF6C
:100CC00080910B01863009F423C508F404C18730F4
:100CD00009F41AC5883019F42B9A2C9A2D9A809110
:100CE0000901823009F4A1C4833009F4A2C481301F
:100CF00019F4419A4298439810920601F5CE109249
:100D0000310180918803813009F460C31092380169
:100D100080913901813009F418C480910801813033
:100D200009F4AAC380910801823009F4D8C28091E5
:100D30000801833009F446C080910801873009F426
:100D400041C0809108018830E9F180910801843028
:100D500009F496C280910801853009F447C2809158
:100D60000801863009F4F2C180910801893009F444
:100D700073C1809108018A3009F411C18091080182
:100D80008B3009F4C4C0809108018C3009F0A7CEE3
:100D900080915101813009F0A2CE80912B018931DF
:100DA00018F48F5F80932B01E4E5F1E0DF011197E8
:100DB0008C9311978C938083339642E0E434F4074C
:100DC000A9F78DCE80915101813009F0BECF80917D
:100DD00037018F5F80933701813009F46BC78091B1
:100DE0002901813009F0B1CF8091410181110C942A
:100DF000650F80912B018093770380912E01809362
:100E0000270308ED12E078E2E72E73E0F72EC4E541
:100E1000D1E0DD24DA9412C0209142029091430285
:100E200080914402FE01319720833197908388831B
:100E30002396F3E008321F0709F441C7D8018D91CA
:100E40008D0180934502D0924602F70181917F0186
:100E5000809347024CE051E062E472E085E492E066
:100E60000E94BA0380913E01813009F418C7823094
:100E700099F690914202209143022093420290936E
:100E8000430280914402CECF9111A7CE90913B01B5
:100E90009111A6CE813009F451C5823009F4D0C732
:100EA000843009F09DCE80914B018F5F80934B0180
:100EB00080914B01833010F010924B0180914B01D7
:100EC00081110C948A0F10924A0181E080930601EF
:100ED00010923A0185CE853009F001CF2B982C98DD
:100EE0002D9AFDCE80913101843109F0A4CE10926B
:100EF00031011092320181E080933001A1CE8091C6
:100F000031018F5F809331011092320188CE809140
:100F10005101813009F037CF90912B01923318F4B1
:100F20009F5F90932B0104E511E0E801FF24FA9400
:100F300014C0209142029091430280914402FE012C
:100F4000319720833197908388832396E2E0C434DD
:100F5000DE0709F418CF90912B018C2F801B809312
:100F60004502F0924602909347024CE051E062E461
:100F700072E085E492E00E94BA0380913E018130E4
:100F800009F40EC58230A9F69091420220914302E5
:100F9000209342029093430280914402D0CF8091EB
:100FA0005101813009F0EACE209137012F5F209363
:100FB000370186E08093440180E590E090934E01F4
:100FC00080934D01213009F49BC780912901813024
:100FD00009F0D4CE0E94D41F60E570E00E94F01C9E
:100FE00080932A010E94D41F209148013091490129
:100FF00068E770E00E94F01C280F209345028FEFF5
:1010000080934602809347024CE051E062E472E034
:1010100085E492E00E94BA0380913E01813011F490
:101020000C944E10823011F40C9442104091420204
:10103000309143022091440280912A0190E0FC010A
:10104000EE0FFF1FE80FF91FEE5AFE4F418330836A
:1010500022831092290192CE80915101813009F0B2
:1010600088CE209137012F5F2093370186E080934F
:10107000440180E590E090934E0180934D01213032
:1010800009F431C780912901813009F072CEEBEB70
:10109000F4E06CEB74E0AFEBB4E00FEFFF24F394FB
:1010A00036C0E5010983ED012197E880E901C80F09
:1010B000D91FCE5ADE4FD8804E2D50E04D0D511D18
:1010C0004F3F51050CF4DEC50883E901C80FD91F55
:1010D000CE5ADE4F2A813C91832F90E0820F911DE2
:1010E0008F3F91050CF4CBC50A83EB0188818111F8
:1010F000C0C5112309F4BCC61150108335966B5F2F
:101100007F4F1596D4E0E93DFD0709F4E8C610814C
:10111000812F90E09C01220F331F5901A80EB91EA8
:10112000E501CE5ADE4F5E01E980AD014250510922
:10113000EA01D8804D2D50E04E0D511D4F3F510515
:101140000CF0AFCFED0CE501E982ADCF80915101FC
:10115000813009F009CE58E2E52E53E0F52EC4E5C2
:10116000D1E08701DD24DA9412C0209142029091EF
:10117000430280914402FE0131972083319790838E
:1011800088832396B3E008371B0709F41FC48091B6
:10119000480190914901902F9E19980F9093450214
:1011A000D0924602D801ED918D01F0E0EA5DFE4F4C
:1011B00085919491809347024CE051E062E472E0A3
:1011C00085E492E00E94BA0380913E01813009F4E7
:1011D000F2C3823051F69091420220914302209353
:1011E00042029093430280914402C5CF8091510105
:1011F000813009F0B4CD08E213E0C4E5D1E0FF246A
:10120000FA9412C0209142029091430280914402CC
:10121000FE01319720833197908388832396B3E032
:1012200008371B0709F4F9C48091480190914901DE
:1012300080934502F0924602D801ED918D01F0E0D5
:10124000EA5DFE4F85919491809347024CE051E016
:1012500062E472E085E492E00E94BA0380913E016C
:10126000813009F492C3823069F690914202209154
:101270004302209342029093430280914402C8CFDC
:1012800080915101813009F065CD209137012F5FA8
:101290002093370180ED97E090934E0180934D01AC
:1012A000213009F428C680912901813009F052CDFE
:1012B0000E94D41F60E570E00E94F01C809326011C
:1012C0009927FC01EE0FFF1FE80FF91FEE5AFE4FA2
:1012D0008FEF818380838283109229013BCD80919F
:1012E0005101813009F023CD209137012F5F2093E8
:1012F000370188E290E090934E0180934D012130B8
:1013000009F403C680912901813009F010CD809144
:101310002C0190912D018F3491050CF070C69FE443
:10132000981B90932A0180914801909149018093E4
:1013300045028FEF80934602809347024CE051E0D4
:1013400062E472E085E492E00E94BA0380913E017B
:10135000813009F477C6823009F06AC650914202A2
:1013600060914302609342025093430240914402D1
:1013700020912A0130E0F901EE0FFF1FE20FF31F69
:10138000EE5AFE4F6183508342838FE490E0821BCC
:10139000930BFC01EE0FFF1FE80FF91FEE5AFE4FF3
:1013A00061835083428380912C0190912D0101969D
:1013B00090932D0180932C018D39910524F010928A
:1013C0002D0110922C0110922901B1CC8091510174
:1013D00081119CCC809137018F5F80933701909170
:1013E0000801992309F4C0C1823309F4C0C1809176
:1013F0003801833009F08CCC81E080935101109248
:10140000380110923701809339015A9A81CC109299
:101410004A0180913401882309F484C1815080936A
:101420003401E5CB90913B019F3530F49F5F909361
:101430003B019B3408F4D6CB813009F4C6C482301A
:1014400009F46DC5833009F4B0C4843009F0CACB07
:1014500080913E018F5F80933E01833009F4CCC5BB
:1014600088E08093360181E08093350110923A0143
:101470002B982C982D98B6CB80915101813009F092
:1014800051CC209137012F5F2093370180E590E008
:1014900090934E0180934D01213009F427C580912E
:1014A0002901813009F03ECC80912C0190912D01D1
:1014B0008F3491050CF0A6C59FE4981B90932A01E8
:1014C0008091480190914901809345028FEF80936C
:1014D0004602809347024CE051E062E472E085E40A
:1014E00092E00E94BA0380913E01813009F4B5C5B3
:1014F000823009F0BDC530914202409143024093D1
:101500004202309343022091440280912A0190E0EC
:10151000FC01EE0FFF1FE80FF91FEE5AFE4F41834B
:101520003083228380912C0190912D01019690931C
:101530002D0180932C018D39910524F010922D01FD
:1015400010922C0110922901EDCBE4E5F1E0DF01CE
:1015500011971C9211971C9210823396D2E0E434BA
:10156000FD07A9F708ED12E080E5F801482F119278
:101570004A95E9F798E2E92E93E0F92ED7011D92FA
:101580008A95E9F780914201909143010E94D91F09
:101590000E94D41F6FEF70E00E94F01C80932E0118
:1015A0008FE490E090932D0180932C0110922B01F9
:1015B00010922A01109237011092290110924001D5
:1015C00010923F01809141018111C5C081E080935B
:1015D000410180910801833081F1809108018730B9
:1015E00061F180910801883041F1809108018530D6
:1015F00009F4DCC280910801863009F4A0C2809110
:101600000801893009F407C21092390186CB2A9A61
:10161000F9CA2B982C982D9890913301992309F4AD
:101620007BC0915090933301E7CA4198429A439806
:1016300063CB41984298439A5FCB8FEF80932B0105
:101640000E94D41F6FEF70E00E94F01C80932E0167
:1016500010922A0110922D0110922C0180932801E2
:10166000682F20E030E0CFEFD0E070E0482F50E06E
:10167000FB017D974E175F070CF1635E7F4F641788
:10168000750734F41BC0435E5F4F4217530794F055
:101690000E94D41FBE010E94F01C8093280140913B
:1016A0002E0150E09C013327BA016D5171092617B4
:1016B00037074CF720912C0130912D01F901E757A4
:1016C000FC4F808380932E012F5F3F4F30932D017D
:1016D00020932C012233310514F4682FC6CF1092C9
:1016E000280180910801883009F439C384E180938E
:1016F000270180E5E701E82F1992EA95E9F7D8017B
:101700001D928A95E9F771CF2B9A2C982D98E7CAEC
:101710002B982C9A2D98E3CA9EE1909333018093E5
:1017200006016ACA2B992BC02B9A2C9A2D9A81E01C
:101730008093340180913601811194C281E08093BD
:1017400006011092350190914B01992309F44FCA7B
:1017500080934A014CCA109241013BCF8150809343
:101760003D018111FCC9EAC9883009F040CE809161
:1017700038018F5F80933801109237013ACE2B9851
:101780002C982D98D4CF80910801882309F4B9CAE8
:1017900080914201909143010E94D91F80910801DC
:1017A00080932F0190910801981310C0CAE0D0E0F7
:1017B0000E94D41FBE010E94F01C8F5F809308011D
:1017C0008091080190912F01981791F381E0809307
:1017D00039011092300195CA81E080933D018091DA
:1017E000480190914901809345028FEF8093460212
:1017F0008DEC80934702809145016091420290E018
:10180000FC01EE0FFF1FE80FF91FEE5AFE4F618338
:10181000809145015091430290E0FC01EE0FFF1FC3
:10182000E80FF91FEE5AFE4F508380914501409119
:10183000440290E0FC01EE0FFF1FE80FF91FEE5A83
:10184000FE4F4283209145018FE490E0DC01A21B12
:10185000B109FD01EE0FFF1FEA0FFB1FEE5AFE4F0D
:10186000618320914501EC01C21BD109FE01EE0FFD
:10187000FF1FEC0FFD1FEE5AFE4F508320914501D4
:10188000FC01E21BF1099F01EE0FFF1FE20FF31FA6
:10189000EE5AFE4F428320914501293208F45FC978
:1018A000209145012150209345012091450130E0D0
:1018B000F901EE0FFF1FE20FF31FEE5AFE4F618397
:1018C0002091450130E0F901EE0FFF1FE20FF31FF9
:1018D000EE5AFE4F50832091450130E0F901EE0FA2
:1018E000FF1FE20FF31FEE5AFE4F42832091450186
:1018F000DC01A21BB109FD01EE0FFF1FEA0FFB1F68
:10190000EE5AFE4F618320914501EC01C21BD109C3
:101910009E01FE01EE0FFF1FE20FF31FEE5AFE4F76
:10192000508320914501821B9109FC01EE0FFF1F9E
:10193000E80FF91FEE5AFE4F428311C91092500171
:1019400010924F0180910B01882329F080910B01A7
:10195000815080930B0180910B01843009F455C3B1
:101960008091510181110BC090910A0180910B016E
:10197000989FC001112490934E0180934D0181E006
:101980008093060110923A012BC9909144028091F4
:10199000430280934402909343022091420238CC48
:1019A00090914402809143028093440290934302B9
:1019B00020914202C4CA90914402809143028093D4
:1019C00044029093430220914202D5CB8091410181
:1019D0008111C9C180912803809340018091D80270
:1019E00080933F014FE450E069E273E088E293E0C6
:1019F0000E94E41F4FE450E069ED72E088ED92E050
:101A00000E94E41F809140018093770380913F0101
:101A100080932703A9C90FEB14E0DCEBED2ED4E093
:101A2000FD2ECC24C394CFEFD0E0DD24DA94809156
:101A30002A01865F80932A01F80134978083809180
:101A40004101811161C0D7011C92C09241010E94E5
:101A5000D41FBE010E94F01C8093280140912E01EA
:101A600050E09C013327BA016252710926173707EB
:101A7000ECF04E5D5F4F4217530734F417C04E5DD4
:101A80005F4F4217530794F00E94D41FBE010E947B
:101A9000F01C8093280140912E0150E09C013327D7
:101AA000BA0162527109261737074CF780932E014D
:101AB00080934502D0924602D09247024CE051E01A
:101AC00062E472E085E492E00E94BA0380913E01F4
:101AD000813051F18230E9F020914202909143022D
:101AE00080914402F8013297208331969083D80187
:101AF0008C930B5F1F4FB5E0EB0EF11CE4E00D3D46
:101B00001E0709F094CF80CDF701C08210924101E9
:101B10009ECF9091420220914302209342029093E3
:101B2000430280914402DECF9091440280914302AF
:101B3000809344029093430220914202D3CFC8E2A3
:101B4000D3E060E070E0CB0117C0BE016852734083
:101B5000882777FD8095982F0E94141E2BED3FE07B
:101B600049EC50E40E94A01E20E030E040E252E444
:101B70000E947E1D0E94031F20E030E040E85FE3EA
:101B80000E941A1D20E030E048EC51E40E94A01EA3
:101B900020E030E046E952E40E941A1D0E94E61D52
:101BA0006993E3E0C837DE0781F629CDC8E2D3E0C8
:101BB00060E070E0CB0117C0BE0168527340882717
:101BC00077FD8095982F0E94141E2BED3FE049EC85
:101BD00050E40E94A01E20E030E040EA52E40E945F
:101BE0007E1D0E94031F20E030E040E85FE30E947A
:101BF0001A1D20E030E048EC51E40E94A01E20E0D5
:101C000030E046E952E40E941A1D0E94E61D6993E5
:101C1000B3E0C837DB0781F6EDCC8091410181113B
:101C2000EDC080912803809340018091D802809379
:101C30003F014FE450E069E273E088E293E00E94E4
:101C4000E41F4FE450E069ED72E088ED92E00E94FD
:101C5000E41F809140018093770380913F0180933E
:101C600027037DC881508093360181110C94F705BC
:101C700065CD1F3408F002C11F5F10833FCA230FD8
:101C80002A8333CA412F50E0EA01CC0FDD1FC40F75
:101C9000D51FCE5ADE4F48814E0D488316CA90910B
:101CA0004402809143028093440290934302209126
:101CB0004202B8C8809329011092370195C88091DB
:101CC0000801833009F47AC140912701809108010D
:101CD000883009F456C180912A018F5F80932A01D0
:101CE0004817A8F410922A018FEF80932B0180915E
:101CF0002801E82FF0E0E757FC4F908190932E01E8
:101D00008F5F80932801823310F010922801809118
:101D100041018111B9C080912803809340018091D5
:101D2000D80280933F014FE450E069E273E088E21B
:101D300093E00E94E41F4FE450E069ED72E088ED0B
:101D400092E00E94E41F809140018093770380918C
:101D50003F0180932703109229010C94A5068AE085
:101D600080932701C6CC80917703809340018091B6
:101D7000270380933F014FE450E068E273E089E27B
:101D800093E00E94E41F4FE450E068ED72E089EDBB
:101D900092E00E94E41F809140018093280380918B
:101DA0003F018093D8020C94B4068EE180933601F3
:101DB00081E08093350110923A012B982C982D9850
:101DC00010924C0180913A0140CB909109019F5FA4
:101DD0009093090190910901943010F080930901CA
:101DE00088E08093360181E08093350110923A01BA
:101DF0002B982C982D9880913A0121CB80917703D4
:101E0000809340018091270380933F014FE450E08D
:101E100068E273E089E293E00E94E41F4FE450E03F
:101E200068ED72E089ED92E00E94E41F809140012C
:101E30008093280380913F018093D8020C94AF06D1
:101E400080915101813009F4E4C0809107018F5FD6
:101E50008093070180910701823118F081E080931F
:101E6000070110925101109238011092370187CD6D
:101E7000EB01F88280818F5F808340C9EB0118827B
:101E80008081815080833AC980917703809340019B
:101E90008091270380933F014FE450E068E273E0B4
:101EA00089E293E00E94E41F4FE450E068ED72E0A5
:101EB00089ED92E00E94E41F809140018093280305
:101EC00080913F018093D80246CF80912B0180936F
:101ED000280380912E018093D8020C940107109260
:101EE00029010C94B90610923701D1C82093290119
:101EF00010923701D9CA2093290110923701D8C90D
:101F0000209329011092370165C82093290110926E
:101F10003701FDC981E080934A010C946807609104
:101F20000B0186E090E00E94FE1F6091090185E0B0
:101F300090E00E94FE1F6091080184E090E00E9402
:101F4000FE1F6091070183E090E00E94FE1F6091F8
:101F50004B0181E090E00E94FE1F60913E0180E015
:101F600090E00E94FE1F88E08093360181E080931C
:101F7000350110923A012B982C982D9880913A01B6
:101F800061CA10912B01E42FF0E0C12FD0E0BF0116
:101F9000655071092FEF30E0C9010E94F01CC6178F
:101FA000D7070CF46CC065E070E06E1B7F0BC901B5
:101FB0000E94F01C160F10932B018DCE10912B0157
:101FC00040912701E42FF0E0C12FD0E0BF01655020
:101FD00071092FEF30E0C9010E94F01CC617D70726
:101FE00074F165E070E06E1B7F0BC9010E94F01C6C
:101FF000160F10932B016ACE10923E0131CA91EB5D
:10200000980F8FC991EB980F59CA88E080930B0104
:10201000A7CC809108018F5F80930801809108010F
:102020008D3010F01092080181E080933901A7CC27
:1020300060914202509143024091440299C910922A
:102040002B0144CE509144024091430240934402FC
:1020500050934302609142028BC930914402209117
:1020600043022093440230934302409142024DCAFE
:1020700040914202309143022091440246CA10929C
:102080002B0129CE309142024091430240934202FB
:1020900030934302209144020C941C083091440276
:1020A0002091430220934402309343024091420224
:1020B0000C941C081F920F920FB60F9211242F93AD
:1020C0003F934F935F936F937F938F939F93AF93C0
:1020D000BF93CF93DF93EF93FF9380918A0090910A
:1020E0008B0081509F4F90938B0080938A0080914A
:1020F000510120914F01309150018111A8C0809170
:102100004D0190914E012817390708F46CC0809159
:102110005002811109C080914802882329F08091E2
:10212000480281508093480280915102811109C078
:1021300080914902882329F080914902815080933F
:10214000490280915202811109C080914A0288237C
:1021500029F080914A02815080934A028091530273
:10216000811109C080914B02882329F080914B0294
:10217000815080934B0280915402811109C080915B
:102180004C02882329F080914C02815080934C02AC
:1021900080915502811109C080914D02882329F058
:1021A00080914D02815080934D02809156028111A1
:1021B00009C080914E02882329F080914E028150FF
:1021C00080934E0280915702811109C080914F0285
:1021D000882329F080914F02815080934F02109202
:1021E000500110924F01809107018F3008F054C0C8
:1021F00080914F01909150010196909350018093EE
:102200004F018091420190914301019690934301C7
:10221000809342018091420190914301019621F403
:102220001092430110924201FF91EF91DF91CF9103
:10223000BF91AF919F918F917F916F915F914F91DE
:102240003F912F910F900FBE0F901F901895809186
:102250004D0190914E012817390750F280910801E5
:10226000813009F45FC080910801823009F45AC0BE
:1022700080910801893009F47FC0809108018A307B
:1022800009F47AC080910801843009F4ADC010923D
:10229000500110924F01ACCF80910701823108F0BC
:1022A000A7CF80E090E04FE450E026C03091440199
:1022B000231B11962C93DF01A80FB91FAE5ABE4FF6
:1022C0002C9130914401231708F44BC03091440104
:1022D000231B2C93E80FF91FEE5AFE4F22813091F9
:1022E00044012317E0F130914401231B228301961E
:1022F0008035910509F47CCF20914501281799F18B
:10230000FC01EE0FFF1FDF01A80FB91FAE5ABE4F31
:1023100011962C91119730914401231738F611969C
:102320001C92C9CFC3E5D1E0A2E5B1E0E4E5F1E05C
:102330008881882311F0815088838C91882311F043
:1023400081508C938081882311F081508083239663
:102350001396339672E0E434F70751F789CF12826F
:10236000C6CF1C92B7CF20914501BA01621B7109FB
:102370008617970729F6BBCFC3E5D1E0A2E5B1E008
:10238000E4E5F1E01EC090914401891B88838C91A3
:1023900090914401981700F590914401891B8C930A
:1023A0008081909144019817E8F490914401891B31
:1023B000808323961396339682E0E434F80709F479
:1023C00061CF8881909144019817E8F218828C912E
:1023D00090914401981700F31C92808190914401E0
:1023E000981718F31082E5CFE4E5F1E0DF011197CB
:1023F0001C9211971C921082339622E0E434F2076B
:10240000A9F745CF67E086E090E00E94102061E0E8
:1024100085E090E00E94102061E084E090E00E945E
:10242000102061E083E090E00E94102060E081E0F5
:1024300090E00E94102060E080E090E00E94102078
:102440006BE082E090E00E94102082E090E00E9429
:10245000F61F80934C0186E090E00E94F61F809367
:102460000B0185E090E00E94F61F8093090184E053
:1024700090E00E94F61F8093080183E090E00E94A4
:10248000F61F8093070181E090E00E94F61F809381
:102490004B0180E090E00E94F61F80933E0108957A
:1024A000CF93DF93CDB7DEB72A970FB6F894DEBF90
:1024B0000FBECDBF81E08093810080916F00866068
:1024C00080936F00289A299A409A5A98229A8CE30E
:1024D00084B98EE187B9529A82E090E00E94F61F9B
:1024E00080934C0180914C018B3011F00C94C91CED
:1024F00086E090E00E94F61F80930B0185E090E05B
:102500000E94F61F8093090184E090E00E94F61F6C
:102510008093080181E090E00E94F61F80934B01B8
:1025200083E090E00E94F61F8093070180E090E036
:102530000E94F61F80933E0180914B01882319F081
:1025400081E080934A0181E08093060190910A0125
:1025500080910B01989FC001112490934E018093AC
:102560004D0189E28093450178941A8219822BEB00
:1025700033E03C832B83AFE42A2E312C80914C0135
:10258000882311F40C943B18AB81BC81E0E0F1E0AE
:102590001D923197E9F785E680937C002BEB33E0C1
:1025A0003C832B83F90126EF20937A0080917A00F7
:1025B00084FFFCCF809178009091790090588193AE
:1025C000919334E0EB3BF30779F710927A002F9266
:1025D0003F924F925F92FF920F931F93CF93DF939F
:1025E000CBEBD3E0E6EEF1E0FF2440E86591759196
:1025F00008811981970320010E034F1C10019E03CF
:102600005F08300C411C5F1CF8035F08300C411C54
:102610005F1C499259924A9549F7DF91CF911F91DA
:102620000F91FF905F904F903F902F9011242F9229
:102630003F926F927F92CF93DF93E6EEF5E048E30F
:10264000A591BB27AA0FBB1FA554BC4F2D903C9052
:10265000C591DD27CC0FDD1FC554DC4F6880798024
:102660007C926E92288239824A9551F7DF91CF9100
:102670007F906F903F902F902F923F924F925F925A
:102680006F927F928F929F92AF92BF92CF92DF9282
:10269000EF92FF920F931F93CF93DF93FF2400E1FC
:1026A000E02ECBEBD3E0688079804A805B80759424
:1026B0006794430155944794640C751C84189508DD
:1026C000AC80BD804E805F80B594A7946501559421
:1026D0004794A40CB51CC418D508688579854A842C
:1026E0005B84759567958B0155944794640D751DB2
:1026F000041915098C859D854E845F849595879571
:102700009C0155944794840D951D241935097594A1
:1027100067942301B594A7946A0C7B1C4A185B0844
:10272000959487945401D594C7948C0C9D1CAC1837
:10273000BD08759567956B0195958795680F791F0D
:10274000C81AD90A75946794130175956795660E32
:10275000771E261A370A42E85AE51503C001049F7E
:10276000B00114039F09700D811D9F1D509F700DB6
:10277000811D9F1D959487948401880E991E081BC6
:10278000190B55944794D201D594C7944C0C5D1CF9
:10279000AC19BD093503C001249FB00134039F0962
:1027A000700D811D9F1D529F700D811D9F1DB59441
:1027B000A7946501A80EB91EC81AD90A6992799220
:1027C0008992999249925992A992B99229923992F1
:1027D00009931993A993B993C992D992EA9409F0EC
:1027E00062CF00E2C02EDD2404E0902EE6E5F6E0A4
:1027F00000E1A02EBB2404E0E02EABEBB3E0ED0142
:10280000CA0DDB1D8E2C2D903C904880598035944C
:102810002794310155944794640C751C241835088D
:10282000299239927C926E92AC0DBD1D1197EA945B
:10283000088119813C912E91459155916591759131
:1028400015022001049F100114035F08300C411C85
:102850005F1C509F300C411C5F1C37023001269FCB
:10286000200C311C461C571C36035F08300C411CE1
:102870005F1C729F300C411C5F1C0E01CA19DB09E2
:1028800028803980359427943101640C751C2418F4
:10289000350868827982E001299239921702200175
:1028A000069F100116035F08300C411C5F1C709FCF
:1028B000300C411C5F1C35023001249F2018310868
:1028C0004608570834035F1C301841085F08529FC0
:1028D000301841085F080D01AA19BB092D903C90E2
:1028E000359427943101640C751C241835087C92AA
:1028F0006E92D0012D923C921297EA9409F098CFF3
:10290000DE01AA19BB092D903C904880598035946E
:102910002794310155944794640C751C241835088C
:10292000288239827C926E92C50196958795C80F50
:10293000D91FCB3BD90540F4DE01CA0DDB1DE82CC5
:10294000EA19FB0934965FCF85FC06C0EA2CE694B1
:102950005601CC0CDD1C51CFDF91CF911F910F910F
:10296000FF90EF90DF90CF90BF90AF909F908F90AF
:102970007F906F905F904F903F902F9011242F92F7
:102980003F924F925F926F927F928F92FF920F933E
:102990001F93CF93DF93ABEBB3E0C8E5D2E0EBEB53
:1029A000F4E04F01FF2440E40D911D91980106C011
:1029B000F4010D911D91329122914F0111022001DC
:1029C000009F100198035F08300C411C5F1C33020C
:1029D0003001229F200C311C461C571CBA035F0893
:1029E000300C411C5F1C1127552061F018E0F201EA
:1029F000F03428F5330CEE1FFF1F330CEE1FFF1FC2
:102A00001A951DC0442069F014E0F42DE32DF03434
:102A1000B0F4220CEE1FFF1F220CEE1FFF1F1A95B1
:102A2000F6CFF101F03458F4F03160F4F13078F081
:102A3000F295E295EF70EF2BE695F1E008C0EF2FED
:102A4000F2E005C0EE0FFF1FEF2FE068F1E0EA5162
:102A5000FD4F04912227112321F0000F221F1A9508
:102A6000E1F7099329934A9509F0A2CFDF91CF911D
:102A70001F910F91FF908F907F906F905F904F907C
:102A80003F902F901124612C712C412C512CC12C82
:102A9000D12CE12CF12C00E010E020E030E0812C82
:102AA000912CE8E5F2E041E050E080E090E03887EA
:102AB0002F83FA87E98707C04034510549F14F5FFA
:102AC0005F4FE985FA8521913191FA87E987BA014B
:102AD000625071096F33710578F76C5C7F4FFB01B1
:102AE0000C94041D5901A80EB91E60EDA61667E4EA
:102AF000B60608F020C2ADECBCEC0E940A1D96950B
:102B00008795969587958A0D9B1D40345105B9F69A
:102B10002F813885709279036092780350927B03FD
:102B200040927A03D0927D03C0927C03F0927F039F
:102B3000E0927E031093810300938003309383031C
:102B4000209382039092850380928403909387035D
:102B50008093860380915101813009F488C580916A
:102B60005101811154C280910901813009F40CC7CF
:102B70006091090170E088EC90E00E94F01CFB017C
:102B80008091780390917903813D57E0950708F48F
:102B9000F8C6805D9740BF010E94DC1C8B017093DA
:102BA0007903609378038091050190E08617970779
:102BB00008F0E4C6809105016B01C81AD10809F438
:102BC000DDC680917A0390917B03813D67E0960793
:102BD00008F4D1C6805D9740BF010E94DC1C709351
:102BE0007B0360937A038091050190E08617970735
:102BF00008F038C5809105019B01281B3109F22E90
:102C0000432F2C153D0510F4FC2C4D2D80917C0399
:102C100090917D03813D77E0970708F420C5805DA2
:102C20009740BF010E94DC1C70937D0360937C037E
:102C30008091050190E08617970728F4809105019F
:102C40009B01281B3109CF2CD42EC216D30608F4C1
:102C5000690180917E0390917F03813DA7E09A07EF
:102C600008F4FAC4805D9740BF010E94DC1C709399
:102C70007F0360937E038091050190E0861797079C
:102C800028F4809105019B01281B3109C216D30647
:102C900008F469018091800390918103813DB7E040
:102CA0009B0708F4D6C4805D9740BF010E94DC1CDE
:102CB00070938103609380038091050190E08617F3
:102CC000970728F4809105019B01281B3109C21642
:102CD000D30608F469018091820390918303813DBA
:102CE00047E0940708F4B2C4805D9740BF010E949A
:102CF000DC1C70938303609382038091050190E054
:102D00008617970728F4809105019B01281B31093C
:102D10007601C216D30608F479018091840390915C
:102D20008503813D57E0950708F48DC4805D974089
:102D3000BF010E94DC1C7093850360938403809123
:102D4000050190E08617970728F4809105019B0103
:102D5000281B3109E216F30608F4790180918603F5
:102D600090918703813D67E0960708F47DC4805DFC
:102D70009740BF010E94DC1C709387036093860319
:102D80008091050190E08617970728F4809105014E
:102D90009B01281B3109FA82E982E216F30610F43E
:102DA0003A832983C801E12C21E000E010E032E001
:102DB000F32EC980DA80B22E1EC0FA01E85BFD4F07
:102DC000208130E08217930708F44FC08083EE2003
:102DD00009F44DC0FC92080F191F88E0B81609F4D9
:102DE0006BC1AB2DB0E0AA0FBB1FA858BC4F8D9193
:102DF0009C91B394E394209109014E2D50E0213031
:102E000009F4B2C08C159D0508F4A2C08C199D0967
:102E10009A01220F331FD901A858BC4F8D939C9360
:102E20006091050170E06817790740F48091050111
:102E300090E0F901E858FC4F91838083DA01A05BB0
:102E4000BD4F6C91662309F4B8CF7FEF760F7C936A
:102E5000FA01E85BFD4F208130E08217930708F00C
:102E6000B5CF772311F062506C93E110B4CF1C9270
:102E7000080F191FB6CF820E931EF0ED8F16F7E4E0
:102E80009F0608F41CCE3FEC832E37E4932E17CE1A
:102E9000EF81F885E20FF31FF887EF83E03DF744F9
:102EA00008F40DCEEFECF7E4F887EF8308CE020FBD
:102EB000131F003DF7E41F0708F401CE0FEC17E4E1
:102EC000FECDE20EF31EE0EDEE16E7E4FE0608F49A
:102ED000F6CD6FECE62E67E4F62EF1CDC20ED31ED2
:102EE000B0EDCB16B7E4DB0608F4E9CD7FECC72ED6
:102EF00077E4D72EE4CDB901640D751D603DA7E4DC
:102F00007A0708F5290156944794569447945694A5
:102F10004794460E571ED3CDB901660D771D603D0F
:102F2000F7E47F0758F439017694679476946794B0
:102F3000660E771EC4CD8FEC97E4BECD3FEC632EBA
:102F400037E4732EBCCD2FEC422E27E4522EB7CDA2
:102F5000DA01AA0FBB1FA858BC4F1D921C9280918A
:102F6000050180E090E06ACF813D77E0970708F4A3
:102F7000A0C09C01205D3740A3E8BDE20E940A1D6D
:102F800096958795929582958F7089279F7089274E
:102F90003FCF6092440120914701285D213508F020
:102FA0002FE48091470190E04816590608F033C39A
:102FB000809145018217C8F4822F90E0FC01EE0F4A
:102FC000FF1FE80FF91FEE5AFE4F11821082128286
:102FD000A101481B590BFA01EE0FFF1FE40FF51F6B
:102FE000EE5AFE4F1182108212821F5F193008F0D4
:102FF00010E0013009F4CEC2CA9409F091C0FFEF8D
:10300000EF1AFF0A2FE1A20E38EFA31280C0F89446
:1030100060E570E082E591E00E94F204789480918E
:103020007A0390917B03892B51F580917C039091D9
:103030007D03892B21F580917E0390917F03892B5D
:10304000F1F48091800390918103892BC1F48091E8
:10305000820390918303892B91F480918403909152
:103060008503892B61F481E08093880380914C0172
:1030700081110C94C4120E9402120C94C41280910B
:103080005101882321F01092500110924F0190912C
:103090000A0180910B01989FC001112490934E0169
:1030A00080934D0110928803109251015A980C940C
:1030B000BE1280E090E0ACCE1092470180910701F3
:1030C0008F3098F080910701823178F49801ABEA53
:1030D000BAEA0E940A1D8C01169507951695079568
:1030E0000135110510F000E510E0A12CE12CF12CC8
:1030F00088248394D12C77247A94BB24BA9463E0F7
:10310000562E75E0672E5D822801082D1D2D4AE0A0
:10311000C42E50E1952E9701285B3D4F38872F83B1
:10312000B09246028091070190E0FC013197E131B5
:10313000F10508F05ACFED58FF4F0C94041D609232
:10314000440120914701285D213508F02FE480914A
:10315000470190E04816590608F42ACF80914701AC
:10316000E0E3F0E0E81BF109CF01880F809345020E
:10317000B09247024CE051E062E472E085E492E0F4
:103180002E830E94BA0380913E012E81813009F482
:103190004FC2823009F045C2409142025091430231
:1031A000509342024093430230914402822F90E0B8
:1031B000FC01EE0FFF1FE80FF91FEE5AFE4F51837F
:1031C00040833283B101681B790BCB01FB01EE0F09
:1031D000FF1FE80FF91FEE5AFE4F518340833283E1
:1031E0008091470190E08415950509F0FECE80910D
:1031F0004501281710F0209345018091450190E08A
:10320000FC01EE0FFF1FE80FF91FEE5AFE4F71820F
:103210008091450190E0FC01EE0FFF1FE80FF91FC0
:10322000EE5AFE4F10828091450190E0FC01EE0FB6
:10323000FF1FE80FF91FEE5AFE4F128280914501E1
:10324000D101A81BB109FD01EE0FFF1FEA0FFB1F03
:10325000EE5AFE4F718280914501F101E81BF109A0
:10326000CF01EE0FFF1FE80FF91FEE5AFE4F10823D
:10327000809145019101281B3109F901EE0FFF1FD3
:10328000E20FF31FEE5AFE4F1282AFCE809148013B
:103290009091490190914701980F90934502E12F39
:1032A000F0E0E85BFD4FE081F0E0EA55FE4F8591EC
:1032B0009491809347024CE051E062E472E085E42F
:1032C00092E00E94BA0380913E01813009F473C1FB
:1032D000823009F465C1409142023091430220914D
:1032E00044028091470190E0FC01EE0FFF1FE80FC0
:1032F000F91FEE5AFE4F41838091470190E0FC0197
:10330000EE0FFF1FE80FF91FEE5AFE4F308380913A
:10331000470190E0FC01EE0FFF1FE80FF91FEE5A86
:10332000FE4F228362CEA0924502BFE1AB1609F4A4
:1033300034C3AF81B885EC91F0E0EA55FE4F85913A
:103340009491809347024CE051E062E472E085E49E
:1033500092E00E94BA0380913E01813009F447C196
:10336000823009F433C140914202309143022091EE
:103370004402013009F437C1909147018FE4891B61
:1033800001E090E0FC01EE0FFF1FE80FF91FEE5A7D
:10339000FE4F41833083228328CEEF81F8858081E0
:1033A0002FE330E0281B3109C901880F80934502C3
:1033B000E0817ACFEF81F88580812FE330E0281B10
:1033C0003109C901880F80934502DF01B4CFEF8135
:1033D000F8858081880F8F57F6CF809148019091B2
:1033E000490190914701980F90934502A2CF809197
:1033F0004801909149018A0D80934502AF81B885BB
:103400009ACF80914801909149018A0D809345029D
:1034100046CFA0924502BFE1AB1241CF9092450248
:103420003ECF80914801909149018A0D80934502D9
:10343000AF81B885EC9138CFEF81F8858081880F16
:103440008F5780934502E0812FCF80914801909162
:10345000490190914701980F90934502AF81B8853B
:10346000EC9122CFA09245029FE1A912F7CF909252
:103470004502F4CF2D812093440180914801909121
:10348000490180934502B092470220914701285D8F
:10349000213508F02FE44CE051E062E472E085E46D
:1034A00092E02E830E94BA0380913E012E818130EA
:1034B00009F4A8C0823041F4809142029091430205
:1034C00090934202809343028091470190E08415DB
:1034D000950509F08ACD80914501281710F02093B9
:1034E0004501809145014091420290E0FC01EE0FC0
:1034F000FF1FE80FF91FEE5AFE4F418380914501EF
:103500003091430290E0FC01EE0FFF1FE80FF91F1E
:10351000EE5AFE4F3083809145012091440290E0A5
:10352000FC01EE0FFF1FE80FF91FEE5AFE4F22833A
:1035300080914501B101681B7109FB01EE0FFF1F6E
:10354000E60FF71FEE5AFE4F418380914501D101EE
:10355000A81BB109FD01EE0FFF1FEA0FFB1FEE5A7A
:10356000FE4F308380914501F101E81BF109CF0145
:10357000EE0FFF1FE80FF91FEE5AFE4F228335CDE5
:10358000809148019091490180934502AF81B885AF
:10359000EC918ACE809147018F5F809347012CCDBB
:1035A00030914202409143024093420230934302E1
:1035B0002091440296CE3091440220914302209300
:1035C000440230934302409142028BCE309142023A
:1035D00040914302409342023093430220914402BF
:1035E000013009F0C9CE8091470100E0CACE309188
:1035F00044022091430220934402309343024091BD
:103600004202B7CE809144029091430290934402CB
:103610008093430259CF90914701892F880F890FDA
:10362000A4CD509142024091430230914402BECD5C
:10363000409144023091430230934402409343024C
:1036400050914202B3CD80E090E072CB80E090E0F8
:103650004DCB80E090E029CB80E090E005CB80E08E
:1036600090E0DFCA9601CBCA80E090E082CB71ED9A
:10367000671677E0770608F05CC110927903109224
:1036800078038091050180917A0390917B03813DBD
:10369000A7E09A0708F02BC110927B0310927A03DF
:1036A0008091050180917C0390917D03813DB7E07D
:1036B0009B0708F0FAC010927D0310927C03809162
:1036C000050180917E0390917F03813DE7E09E0795
:1036D00008F0C9C010927F0310927E03809105010B
:1036E0008091800390918103813DF7E09F0708F06E
:1036F00098C01092810310928003809105018091FF
:10370000820390918303813D27E0920708F067C010
:1037100010928303109282038091050180918403AB
:1037200090918503813D37E09307B8F510928503AA
:103730001092840380910501809186039091870304
:10374000813D47E0940738F4109287031092860376
:103750008091050104CA9C01205D3740A3E8BDE2C9
:103760000E940A1D96958795929582958F7089275C
:103770009F7089279093870380938603209105018A
:1037800030E02817390708F0EAC98091050190E078
:103790009093870380938603E2C99C01205D3740A4
:1037A000A3E8BDE20E940A1D9695879592958295A1
:1037B0008F7089279F708927909385038093840356
:1037C0002091050130E02817390708F0B5CF809126
:1037D000050190E09093850380938403ADCF9C0115
:1037E000205D3740A3E8BDE20E940A1D96958795AB
:1037F000929582958F7089279F7089279093830374
:10380000809382032091050130E02817390708F0E2
:1038100085CF8091050190E090938303809382038C
:103820007DCF9C01205D3740A3E8BDE20E940A1DC8
:1038300096958795929582958F7089279F70892795
:1038400090938103809380032091050130E0281735
:10385000390708F054CF8091050190E090938103DF
:10386000809380034CCF9C01205D3740A3E8BDE2EC
:103870000E940A1D96958795929582958F7089274B
:103880009F70892790937F0380937E032091050189
:1038900030E02817390708F023CF8091050190E028
:1038A00090937F0380937E031BCF9C01205D374064
:1038B000A3E8BDE20E940A1D969587959295829590
:1038C0008F7089279F70892790937D0380937C0355
:1038D0002091050130E02817390708F0F2CE8091D9
:1038E000050190E090937D0380937C03EACE9C01D8
:1038F000205D3740A3E8BDE20E940A1D969587959A
:10390000929582958F7089279F70892790937B036A
:1039100080937A032091050130E02817390708F0D9
:10392000C1CE8091050190E090937B0380937A0350
:10393000B9CE9301205D3740A3E8BDE20E940A1D85
:1039400096958795929582958F7089279F70892784
:1039500090937903809378032091050130E0281734
:10396000390708F090CE8091050190E0909379039B
:103970008093780388CE80E090E02EC9C12CD12CB2
:1039800020C980E090E007C9809178039091790385
:103990000ACA0E9402120C949C1290924502C9CC51
:1039A000991B79E004C0991F961708F0961B881F91
:1039B0007A95C9F780950895AA1BBB1B51E107C0F2
:1039C000AA1FBB1FA617B70710F0A61BB70B881FAF
:1039D000991F5A95A9F780959095BC01CD0108953E
:1039E00097FB072E16F4009407D077FD09D00E94AC
:1039F000DC1C07FC05D03EF4909581959F4F0895FF
:103A0000709561957F4F0895EE0FFF1F0590F4911B
:103A1000E02D0994A29FB001B39FC001A39F700D38
:103A2000811D1124911DB29F700D811D1124911DC6
:103A300008955058BB27AA270ED048C139D130F07D
:103A40003ED120F031F49F3F11F41EF42EC10EF44C
:103A5000E095E7FB24C1E92F4AD180F3BA1762074A
:103A600073078407950718F071F49EF562C10EF490
:103A7000E0950B2EBA2FA02D0B01B90190010C017E
:103A8000CA01A0011124FF27591B99F0593F50F496
:103A9000503E68F11A16F040A22F232F342F4427EE
:103AA000585FF3CF469537952795A795F0405395E6
:103AB000C9F77EF41F16BA0B620B730B840BBAF0B6
:103AC0009150A1F0FF0FBB1F661F771F881FC2F721
:103AD0000EC0BA0F621F731F841F48F48795779535
:103AE0006795B795F7959E3F08F0B3CF9395880FEC
:103AF00008F09927EE0F9795879508950CD0E6C0AA
:103B0000DED040F0D5D030F021F45F3F19F0C7C0CF
:103B1000511110C1CAC0EBD098F39923C9F35523B2
:103B2000B1F3951B550BBB27AA27621773078407B0
:103B300038F09F5F5F4F220F331F441FAA1FA9F366
:103B400033D00E2E3AF0E0E830D091505040E69558
:103B5000001CCAF729D0FE2F27D0660F771F881FB9
:103B6000BB1F261737074807AB07B0E809F0BB0BA8
:103B7000802DBF01FF2793585F4F2AF09E3F5105CC
:103B800068F08DC0D7C05F3FECF3983EDCF38695BC
:103B900077956795B795F7959F5FC9F7880F911D42
:103BA0009695879597F90895E1E0660F771F881F2E
:103BB000BB1F621773078407BA0720F0621B730BE1
:103BC000840BBA0BEE1F88F7E095089598D088F023
:103BD0009F5790F0B92F9927B751A0F0D1F0660FF9
:103BE000771F881F991F1AF0BA95C9F712C0B13014
:103BF00081F09FD0B1E008959CC0672F782F88276F
:103C0000B85F39F0B93FCCF3869577956795B39552
:103C1000D9F73EF490958095709561957F4F8F4FC1
:103C20009F4F0895E89409C097FB3EF490958095C6
:103C3000709561957F4F8F4F9F4F9923A9F0F92F72
:103C400096E9BB279395F695879577956795B795F0
:103C5000F111F8CFFAF4BB0F11F460FF1BC06F5FD6
:103C60007F4F8F4F9F4F16C0882311F096E911C0E8
:103C7000772321F09EE8872F762F05C0662371F009
:103C800096E8862F70E060E02AF09A95660F771F1D
:103C9000881FDAF7880F9695879597F9089597F911
:103CA0009F6780E870E060E008959FEF80EC0895E2
:103CB00000240A941616170618060906089500240B
:103CC0000A9412161306140605060895092E039485
:103CD000000C11F4882352F0BB0F40F4BF2B11F4F9
:103CE00060FF04C06F5F7F4F8F4F9F4F089557FD58
:103CF0009058440F551F59F05F3F71F04795880F5A
:103D000097FB991F61F09F3F79F0879508951216F0
:103D100013061406551FF2CF4695F1DF08C016169C
:103D200017061806991FF1CF86957105610508944D
:103D30000895E894BB2766277727CB0197F9089564
:103D40000BD0C4CFB5DF28F0BADF18F0952309F007
:103D5000A6CFABCF1124EECFCADFA0F3959FD1F34E
:103D6000950F50E0551F629FF001729FBB27F00D29
:103D7000B11D639FAA27F00DB11DAA1F649F66277E
:103D8000B00DA11D661F829F2227B00DA11D621FCD
:103D9000739FB00DA11D621F839FA00D611D221F87
:103DA000749F3327A00D611D231F849F600D211D6B
:103DB000822F762F6A2F11249F5750408AF0E1F00E
:103DC00088234AF0EE0FFF1FBB1F661F771F881F57
:103DD00091505040A9F79E3F510570F060CFAACF97
:103DE0005F3FECF3983EDCF3869577956795B79542
:103DF000F795E7959F5FC1F7FE2B880F911D96956C
:103E0000879597F908959F9305D00F9007FCEE5F73
:103E100028C04BCF74DFE8F3E894E0E0BB279F575E
:103E2000F0F02AED3FE049EC06C0EE0FBB0F661F35
:103E3000771F881F28F0B23A62077307840728F0BB
:103E4000B25A620B730B840BE3959A9572F7803824
:103E500030F49A95BB0F661F771F881FD2F79048E2
:103E600013C0EF93E0FF06C0A2EA2AED3FE049EC61
:103E70005FEBF1DD2BDF0F90039401FC9058E8E03D
:103E8000F1E00EC09F3F31F0915020F48795779577
:103E90006795B795880F911D9695879597F9089521
:103EA0009F938F937F936F93FF93EF939B01AC014D
:103EB00047DFEF91FF9105D02F913F914F915F9197
:103EC0003FCFDF93CF931F930F93FF92EF92DF9239
:103ED0007B018C01689405C0DA2EEF013DDFFE0105
:103EE000E894A5912591359145915591AEF3EF0157
:103EF000B2DDFE019701A801DA9479F7DF90EF9027
:103F0000FF900F911F91CF91DF9108958F929F9213
:103F1000AF92BF92CF92DF92EF92FF92CF93DF9357
:103F2000EC01688179818A819B8161157105810528
:103F3000910521F464E279ED8BE597E02DE133EF13
:103F400041E050E00E94272049015A019B01AC0149
:103F5000A7EAB1E40E9446206B017C01ACEEB4EF0D
:103F6000A50194010E945420C60ED71EE81EF91E1A
:103F7000F7FE06C081E0C81AD108E10880E8F80A17
:103F8000C882D982EA82FB82C6019F77DF91CF91F6
:103F9000FF90EF90DF90CF90BF90AF909F908F9069
:103FA00008950E94861F089580E091E00E94861F78
:103FB0000895A0E0B0E08093000190930101A093E8
:103FC0000201B093030108956817790768F4FB01B3
:103FD000DC01E40FF51FA40FB51F02C002900E9282
:103FE00041505040D8F708950C941E20F999FECF07
:103FF00092BD81BDF89A992780B50895262FF99929
:10400000FECF92BD81BDF89A019700B4021639F037
:104010001FBA20BD0FB6F894FA9AF99A0FBE089508
:10402000262FF999FECF1FBA92BD81BD20BD0FB6D4
:10403000F894FA9AF99A0FBE01960895FB01DC01F3
:1040400002C001900D9241505040D8F70895052EBE
:1040500097FB1EF400940E943E2057FD07D00E945B
:10406000592007FC03D04EF40C943E205095409507
:10407000309521953F4F4F4F5F4F08959095809514
:10408000709561957F4F8F4F9F4F08950E940A1D35
:10409000A59F900DB49F900DA49F800D911D11249C
:1040A0000895B7FF0C9446200E944620821B930B74
:1040B0000895A1E21A2EAA1BBB1BFD010DC0AA1F69
:1040C000BB1FEE1FFF1FA217B307E407F50720F081
:1040D000A21BB30BE40BF50B661F771F881F991FFC
:1040E0001A9469F760957095809590959B01AC0145
:0A40F000BD01CF010895F894FFCF41
:1040FA0001000000043F01010101460708FF00001A
:10410A00FF8000FFFF0000FF0000FFFF0000FF80AC
:06411A0000FFFF000000A1
:00000001FF
