:100000000C949B030C94B8030C94B8030C94B803A1
:100010000C94B8030C94B8030C94B8030C94B80374
:100020000C94B8030C94B8030C94B8030C942205F8
:100030000C9456100C94B8030C94B8030C94B803A9
:100040000C94B8030C94B8030C94B8030C94B80344
:100050000C94B8030C94B8030C94B8030C94B80334
:100060000C94B8030C94B803881777176A176A17AB
:100070005D175D175D175317531753175317531712
:100080005815441744174417441744174417441786
:1000900044174417371737173717371737173717D6
:1000A00037173717371737173717371737173717E0
:1000B00037176E156E156E156E156E156E156E155D
:1000C0006E156E156E156E156E156E156E156E1518
:1000D0006E156E156E156E156E156E156E156E1508
:1000E0006E156E156E152E1ABC1A0D1A211A181AD5
:1000F000C9198F19F319E919E319D619051AFD1948
:1001000042199B18C517361A05A84CCDB2D44EB962
:100110003836A9020C50B9918688083CA6AAAA2AAA
:10012000BE000000803F0000000000000000000052
:1001300000000000000000000000000000010101BC
:10014000010101010101010101010102020202029A
:100150000202020303030303040404040505050566
:100160000606060707080809090A0A0B0B0C0D0DFD
:100170000E0F1011121314151617181A1B1D1F201D
:10018000222426282A2D2F3235383B3E4245494D20
:1001900052565B60666B71777E858D949DA5AFB876
:1001A000C3CED9E5F2FF000000000000000000000F
:1001B0000000000101010101020202020303030425
:1001C000040505060708090A0B0C0D0F1113151776
:1001D0001A1D2024282D32383E454D56606B7785F8
:1001E00094A5B8CEE5FF000014005000B400400113
:1001F000F301CD02CD03F3043D06AD073F09F40A38
:10020000C90CBF0ED41007135515BE17411ADB1CBD
:100210008B1F502227250F28062B0A2E1931323426
:100220005237773AA03DCB40F5431C473F4A5C4DDF
:1002300070507A5378566759475C155FCF61756483
:1002400003677969D66B166E3A703F722674EB7548
:100250008F770F796D7AA57BB87CA57D6C7E0B7F3F
:10026000837FD37FFB7FFB7FD37F837F0B7F6C7E7E
:10027000A57DB87CA57B6D7A0F798F77EB75267499
:100280003F723A70166ED66B796903677564CF61F9
:10029000155F475C675978567A5370505C4D3F4AFA
:1002A0001C47F543CB40A03D773A523732341931E1
:1002B0000A2E062B0F28272550228B1FDB1C411AE4
:1002C000BE1755150713D410BF0EC90CF40A3F0909
:1002D000AD073D06F304CD03CD02F3014001B400A8
:1002E0005000140000000001010202020203030397
:1002F00003030304040404040404040505050505BC
:100300000505050505060606060606060606060692
:10031000060707070707070707070707070707086D
:10032000080808080808080808080808080808094C
:10033000090909090909090909090909090909092D
:10034000090A0A0A0A0A0A0A0A0A0A0A0A0A0A0A0E
:100350000A0A0A0A0A0B0B0B0B0B0B0B0B0B0B0BF2
:100360000B0B0B0B0B0B0B0B0B0B0B0C0C0C0C0CD8
:100370000C0C0C0C0C0C0C0C0C0C0C0C0C0C0C0CBD
:100380000C0C0C0D0D0D0D0D0D0D0D0D0D0D0D0DA0
:100390000D0D0D0D0D0D0D0D0D0D0D0D0D0E0E0E8A
:1003A0000E0E0E0E0E0E0E0E0E0E0E0E0E0E0E0E6D
:1003B0000E0E0E0E0E0E0E0E0E0F0F0F0F0F0F0F56
:1003C0000F0F0F0F0F0F0F0F0F0F0F0F0F0F0F0F3D
:1003D0000F0F0F0F0F0F0F10101010101010101024
:1003E0001010101010100006080A0B0D0E0F10113F
:1003F00012131414151617171819191A1B1B1C1C85
:100400001D1D1E1E1F1F20202121222223232424E4
:100410002525262626272728282829292A2A2A2B5F
:100420002B2B2C2C2D2D2D2E2E2E2F2F2F303030F0
:10043000313131323232333333343434343535358B
:1004400036363637373737383838393939393A3A2E
:100450003A3B3B3B3B3C3C3C3C3D3D3D3D3E3E3ED8
:100460003E3F3F3F3F40000B101417191C1E202237
:10047000242627292A2C2D2F30313334353637398D
:100480003A3B3C3D3E3F4041424344454647484855
:10049000494A4B4C4D4E4E4F505152525354555564
:1004A00056575858595A5B5B5C5D5D5E5F5F606193
:1004B000616263636465656666676868696A6A6BDA
:1004C0006B6C6D6D6E6E6F6F707171727273737431
:1004D000747576767777787879797A7A7B7B7C7C95
:1004E0007D7D7E7E7F7F0010171C2024272A2D30E3
:1004F0003335373A3C3E4042444648494B4D4E50D6
:100500005253555658595B5C5D5F60616364656624
:1005100068696A6B6D6E6F707172737476777879D3
:100520007A7B7C7D7E7F80818283848586878889B3
:100530008A8B8B8C8D8E8F909192939494959697B5
:100540009899999A9B9C9D9E9E9FA0A1A2A2A3A4CC
:10055000A5A6A6A7A8A9A9AAABACACADAEAFAFB0F3
:10056000B1B1B2B3B4B4B5B6B6B7B8B9B9BABBBB2A
:10057000BCBDBDBEBFBFC0C1C1C2C3C3C4C5C5C66B
:10058000C7C7C8C8C9CACACBCCCCCDCECECFCFD0B6
:10059000D1D1D2D2D3D4D4D5D5D6D7D7D8D8D9DA09
:1005A000DADBDBDCDDDDDEDEDFDFE0E1E1E2E2E362
:1005B000E3E4E5E5E6E6E7E7E8E8E9EAEAEBEBECC1
:1005C000ECEDEDEEEEEFEFF0F1F1F2F2F3F3F4F427
:1005D000F5F5F6F6F7F7F8F8F9F9FAFAFBFBFCFC93
:1005E000FDFDFEFEFFFF7007780F74177C1F72275A
:1005F0007A2F76377E3F7147794F75577D5F7367E6
:100600007B6F6003680B64136C1B62236A2B663379
:100610006E3B6143694B65536D5B5005580D541536
:100620005C1D52255A2D56355E3D5145594D4001B0
:10063000480944114C1942214A2946314E393006A5
:10064000380E34163C1E32263A2E2002280A241276
:100650002C1A1004180C4276FC30825A825AFC3054
:1006600042768A7DF9184276FC306E6A1D47825ABE
:10067000825A1D476E6AFC304276F9188A7D627F85
:100680008C0C8A7DF9187D7A28254276FC30E3703F
:10069000573C6E6A1D47F2623451825A825A345175
:1006A000F2621D476E6A573CE370FC3042762825A3
:1006B0007D7AF9188A7D8C0C627FD97F4806627F2B
:1006C0008C0C9D7EC8128A7DF9182A7C1A1F7D7AAF
:1006D000282585781F2B4276FC30B673BA36E37036
:1006E000573CCA6DCE416E6A1D47D066404CF262DF
:1006F0003451D75EF655825A825AF655D75E345138
:10070000F262404CD0661D476E6ACE41CA6D573CBE
:10071000E370BA36B673FC3042761F2B85782825F5
:100720007D7A1A1F2A7CF9188A7DC8129D7E8C0C4E
:10073000627F4806D97F11241FBECFEFD8E0DEBF0D
:10074000CDBF11E0A0E0B1E0E4EFF0E402C005901D
:100750000D92A632B107D9F725E0A6E2B1E001C0BB
:100760001D92A130B207E1F70E944C120C94782040
:100770000C9400002F923F924F925F926F927F9263
:100780008F929F92AF92BF92CF92DF92EF92FF92A1
:100790000F931F93CF93DF93EC017B01FA018080CD
:1007A000912C80E091E0B4010E94ED1C6B018881E6
:1007B0000E94CD1C282F30E041E0841A91082815B2
:1007C000390509F408C18F5F082F10E03901660C64
:1007D000771CD301A20FB31FAE0FBF1F11963C9021
:1007E000832C912CA92EB12CDD242801440C551CFE
:1007F000D201A00FB11FAE0FBF1F11964C9150E058
:10080000481959094A9DC0014B9D900D5A9D900D64
:100810001124B6010E94ED1C860E971E97FCDEC0C7
:100820008FEF8816910411F00CF0CCC0630D2224D8
:100830002A94312C261A3108D301A20FB31FAE0F10
:10084000BF1F12967C90872C912CD201A00FB11F54
:10085000AE0FBF1F12964C9150E048195909A49E43
:10086000C001A59E900DB49E900D1124B6010E946A
:10087000ED1C860E971E4FEF8416910411F00CF0BC
:10088000A4C0760E88248A94912C871891082F5F33
:100890003F4FD901AA0FBB1FA20FB31FAE0FBF1F3F
:1008A0007C90272D30E00F5F1F4FD801AA0FBB1F90
:1008B000A00FB11FAE0FBF1F4C9150E0421B530B56
:1008C000A49EC001A59E900DB49E900D1124B6016A
:1008D0000E94ED1C260F371F2F3F310511F00CF041
:1008E00077C0760EEFEFF0E0E719F109498150E0AB
:1008F000249E9001259E300D349E300D1124A1E8D8
:10090000B0E80E94071D880F892F881F990B9195C9
:10091000082F0095849E9001859E300D949E300D89
:1009200011240E94071D880F892F881F990B91950C
:10093000182F1095E49F9001E59F300DF49F300D26
:1009400011240E94071D880F892F881F990B9195EC
:10095000482F40952A81029F900111240E94071D73
:10096000880F892F881F990B9195F70180832A8121
:10097000129F900111240E94071D880F892F881F44
:10098000990B919581832A81429F900111240E94A5
:10099000071D880F892F881F990B91958283DF91FE
:1009A000CF911F910F91FF90EF90DF90CF90BF906C
:1009B000AF909F908F907F906F905F904F903F90FF
:1009C0002F900895212C312C37CF812C912C5FCF83
:1009D000E0E0F0E08BCF00E010E0F8CE22242A9493
:1009E000312C2ACF9B01220F331F260F371F3C9A31
:1009F00048B14F7E58B150616FB7F8942115310559
:100A0000C9F0FC01820F931F219138E058B9000012
:100A100000C000C027FF48B9220F000000C000C07E
:100A200000C000C048B9000000C03A9579F7E81747
:100A3000F90751F76FBF89EF90E00197F1F700C018
:100A4000000008951F920F920FB60F921124AF92DB
:100A5000BF92CF92DF92EF92FF920F931F932F934B
:100A60003F934F935F936F937F938F939F93AF9336
:100A7000BF93CF93DF93EF93FF9380918800909182
:100A800089000197909389008093880080914601A6
:100A9000882329F0809146018150809346018091FE
:100AA0004601811115C0809148019091490101963C
:100AB00090934901809348018091480190914901A8
:100AC0008F3F910511F008F0F6C089E08093460150
:100AD00080910401882319F1815080930401809151
:100AE0000601813009F4ECC0FF91EF91DF91CF91C5
:100AF000BF91AF919F918F917F916F915F914F9136
:100B00003F912F911F910F91FF90EF90DF90CF9029
:100B1000BF90AF900F900FBE0F901F90189584E07C
:100B200080930401809107018F30C8F080915101BA
:100B3000811115C080913D0181110CC68091450144
:100B40008D3228F08091450181508093450184E0E9
:100B500080933D0180910701813109F439C6189BCA
:100B600005C0309B03C0199910923C0118990DC023
:100B7000309B0BC0199B09C090913B019B3428F41A
:100B800081E080933A0180933C01189B0EC030991C
:100B90000CC0199B0AC090913B019B3430F482E059
:100BA00080933A0181E080933C0118990EC03099FE
:100BB0000CC0199B0AC090913B019B3430F483E038
:100BC00080933A0181E080933C01189963C0809141
:100BD0003A0190913C01811157C1913009F41EC432
:100BE00010923B0180913501813009F40CC4809151
:100BF0004A01813009F409C580913C01813009F432
:100C000002C52A9880914B01882309F478C080910D
:100C100032018F5F80933201873309F470C1809174
:100C20004B01813009F45EC1823029F48091310199
:100C3000883209F45CC180913001813009F061C0D3
:100C400080915101813009F49AC5809142019091BF
:100C500043010E94D61F8091070180932F0190913C
:100C60000701981310C0CEE0D0E00E94D11FBE0152
:100C70000E94ED1C8F5F8093070180910701909186
:100C80002F01981791F31092510110923801109290
:100C9000300137C0309B9BCF199999CF90913B0180
:100CA0009B3408F094CF84E080933A0181E08093F4
:100CB0003C0184E0B5C3109249011092480105CF70
:100CC00080910B01863009F41FC508F404C18730F8
:100CD00009F416C5883019F42B9A2C9A2D9A809114
:100CE0000901823009F49DC4833009F49EC4813027
:100CF00019F4419A4298439810920601F5CE109249
:100D000031018091B003813009F45CC31092380145
:100D100080913901813009F414C480910801813037
:100D200009F4A6C380910801823009F4D4C28091ED
:100D30000801833009F446C080910801873009F426
:100D400041C0809108018830E9F180910801843028
:100D500009F492C280910801853009F443C2809160
:100D60000801863009F4EEC180910801893009F448
:100D70006FC1809108018A3009F40DC1809108018A
:100D80008B3009F4C4C0809108018C3009F0A7CEE3
:100D900080915101813009F0A2CE80912B018931DF
:100DA00018F48F5F80932B01E4E5F1E0DF011197E8
:100DB0008C9311978C938083339642E0EC35F40743
:100DC000A9F78DCE80915101813009F0BECF80917D
:100DD00037018F5F80933701813009F4B7C7809165
:100DE0002901813009F0B1CF8091410181110C942A
:100DF000400F80912B0180939F0380912E0180935F
:100E0000470300EF12E078E4E72E73E0F72EC4E525
:100E1000D1E0DD24DA9412C020915A0290915B0255
:100E200080915C02FE013197208331979083888303
:100E30002396F3E008341F0709F438C7D8018D91D1
:100E40008D0180935D02D0925E02F70181917F0156
:100E500080935F024CE051E06AE572E08DE592E03C
:100E60000E94BA0380913E01813009F414C7823098
:100E700099F690915A0220915B0220935A02909326
:100E80005B0280915C02CECF9111A7CE90913B0185
:100E90009111A6CE813009F44DC5823009F4CCC73A
:100EA000843009F09DCE80914B018F5F80934B0180
:100EB00080914B01833010F010924B0180914B01D7
:100EC00081110C94B80F10924A0181E080930601C1
:100ED00010923A0185CE853009F001CF2B982C98DD
:100EE0002D9AFDCE80913101843109F0A4CE10926B
:100EF00031011092320181E080933001A1CE8091C6
:100F000031018F5F809331011092320188CE809140
:100F10005101813009F037CF80912B01823318F4D1
:100F20008F5F80932B01C4E5D1E010E00FEF13C079
:100F300020915A0290915B0280915C02FE013197F0
:100F400020833197908388831E5F2396103B09F49A
:100F50001ACF80912B0110935D0200935E02809363
:100F60005F024CE051E06AE572E08DE592E00E949C
:100F7000BA0380913E01813009F40EC58230C1F67A
:100F800090915A0220915B0220935A0290935B0247
:100F900080915C02D3CF80915101813009F0EECE77
:100FA000209137012F5F2093370186E08093440121
:100FB00088E590E090934E0180934D01213009F433
:100FC00098C780912901813009F0D8CE0E94D11FA5
:100FD00068E570E00E94ED1C80932A010E94D11FF9
:100FE000209148013091490168E770E00E94ED1CB2
:100FF000280F20935D028FEF80935E0280935F0243
:101000004CE051E06AE572E08DE592E00E94BA039F
:1010100080913E01813011F40C944A10823011F419
:101020000C94281040915A0230915B0220915C028E
:1010300080912A0190E0FC01EE0FFF1FE80FF91FDD
:10104000EE5AFE4F4183308322831092290196CEBF
:1010500080915101813009F08CCE209137012F5FB2
:101060002093370186E08093440188E590E09093D7
:101070004E0180934D01213009F445C7809129012B
:10108000813009F076CEE3EEF4E064EE74E0A7EE92
:10109000B4E00FEFFF24F39436C0E5010983ED01BE
:1010A0002197E880E901C80FD91FCE5ADE4FD880BA
:1010B0004E2D50E04D0D511D4F3F51050CF4D8C53C
:1010C0000883E901C80FD91FCE5ADE4F2A813C910F
:1010D000832F90E0820F911D8F3F91050CF4C5C5C1
:1010E0000A83EB0188818111D0C5112309F4C2C69E
:1010F0001150108335966B5F7F4F1596D5E0E13028
:10110000FD0709F4F2C61081812F90E09C01220FA7
:10111000331F5901A80EB91EE501CE5ADE4F5E01FC
:10112000E980AD0142505109EA01D8804D2D50E0CF
:101130004E0D511D4F3F51050CF0AFCFED0CE501A9
:10114000E982ADCF80915101813009F00DCE58E494
:10115000E52E53E0F52EC4E5D1E08701DD24DA94D5
:1011600012C020915A0290915B0280915C02FE01B4
:10117000319720833197908388832396B3E0003A98
:101180001B0709F41FC48091480190914901902FD9
:101190009E19980F90935D02D0925E02D801ED9156
:1011A0008D01F0E0EA5DFE4F8591949180935F029E
:1011B0004CE051E06AE572E08DE592E00E94BA03EE
:1011C00080913E01813009F4F2C3823051F6909152
:1011D0005A0220915B0220935A0290935B02809105
:1011E0005C02C5CF80915101813009F0B8CD08E48F
:1011F00013E0C4E5D1E0FF24FA9412C020915A0212
:1012000090915B0280915C02FE01319720833197BF
:10121000908388832396B3E0003A1B0709F4F9C44E
:10122000809148019091490180935D02F0925E02A5
:10123000D801ED918D01F0E0EA5DFE4F859194912A
:1012400080935F024CE051E06AE572E08DE592E048
:101250000E94BA0380913E01813009F492C382302A
:1012600069F690915A0220915B0220935A02909362
:101270005B0280915C02C8CF80915101813009F0FE
:1012800069CD209137012F5F2093370180ED97E0E2
:1012900090934E0180934D01213009F421C6809135
:1012A0002901813009F056CD0E94D11F68E570E018
:1012B0000E94ED1C809326019927FC01EE0FFF1F71
:1012C000E80FF91FEE5AFE4F8FEF818380838283F0
:1012D000109229013FCD80915101813009F027CD35
:1012E000209137012F5F209337018CE290E090939B
:1012F0004E0180934D01213009F400C680912901EF
:10130000813009F014CD80912C0190912D01873509
:1013100091050CF074C697E5981B90932A01809173
:1013200048019091490180935D028FEF80935E02A6
:1013300080935F024CE051E06AE572E08DE592E057
:101340000E94BA0380913E01813009F48DC682303B
:1013500009F04EC650915A0260915B0260935A02A6
:1013600050935B0240915C0220912A0130E0F90128
:10137000EE0FFF1FE20FF31FEE5AFE4F6183508303
:10138000428387E590E0821B930BFC01EE0FFF1F69
:10139000E80FF91FEE5AFE4F61835083428380911C
:1013A0002C0190912D01019690932D0180932C0199
:1013B0008D3A910524F010922D0110922C0110927B
:1013C0002901B5CC809151018111A0CC80913701C8
:1013D0008F5F8093370190910801992309F4C0C170
:1013E000823309F4C0C180913801833009F090CC78
:1013F00081E080935101109238011092370180935F
:1014000039015A9A85CC10924A018091340188237F
:1014100009F487C1815080933401E9CB90913B015D
:101420009F3530F49F5F90933B019B3408F4DACBF7
:10143000813009F4C6C4823009F468C5833009F4E8
:10144000B0C4843009F0CECB80913E018F5F809391
:101450003E01833009F4F3C588E08093360181E0D2
:101460008093350110923A012B982C982D98BACB85
:1014700080915101813009F055CC209137012F5FC7
:101480002093370188E590E090934E0180934D01C1
:10149000213009F420C580912901813009F042CC26
:1014A00080912C0190912D01873591050CF0AAC5F2
:1014B00097E5981B90932A018091480190914901EA
:1014C00080935D028FEF80935E0280935F024CE019
:1014D00051E06AE572E08DE592E00E94BA038091E6
:1014E0003E01813009F4CBC5823009F09DC53091B1
:1014F0005A0240915B0240935A0230935B02209162
:101500005C0280912A0190E0FC01EE0FFF1FE80FC2
:10151000F91FEE5AFE4F41833083228380912C01C4
:1015200090912D01019690932D0180932C018D3A7D
:10153000910524F010922D0110922C011092290196
:10154000F1CBE4E5F1E0DF0111971C9211971C92B9
:1015500010823396D2E0EC35FD07A9F700EF12E0D8
:1015600088E5F801482F11924A95E9F798E4E92EA9
:1015700093E0F92ED7011D928A95E9F780914201F7
:10158000909143010E94D61F0E94D11F6FEF70E01F
:101590000E94ED1C80932E0187E590E090932D0131
:1015A00080932C0110922B0110922A011092370186
:1015B000109229011092400110923F018091410147
:1015C0008111ACC081E0809341018091080183309A
:1015D00081F180910801873061F1809108018830A4
:1015E00041F180910801853009F4DCC28091080145
:1015F000863009F4A0C280910801893009F407C23D
:10160000109239018ACB2A9AFDCA2B982C982D98D2
:1016100090913301992309F47BC091509093330149
:10162000EBCA4198429A439867CB41984298439AB3
:1016300063CB8FEF80932B010E94D11F6FEF70E07F
:101640000E94ED1C80932E0110922A0110922D0110
:1016500010922C0180932801682F20E030E0CFEF1A
:10166000D0E070E0482F50E0FB017D974E175F07F8
:101670000CF1635E7F4F6417750734F41BC0435E43
:101680005F4F4217530794F00E94D11FBE010E9482
:10169000ED1C8093280140912E0150E09C013327DE
:1016A000BA016D517109261737074CF720912C01AB
:1016B00030912D01F901EF54FC4F808380932E016E
:1016C0002F5F3F4F30932D0120932C0122333105A2
:1016D00014F4682FC6CF1092280180910801883039
:1016E00009F439C386E18093270188E5E701E82FF3
:1016F0001992EA95E9F7D8011D928A95E9F771CF19
:101700002B9A2C982D98EBCA2B982C9A2D98E7CAD7
:101710009EE190933301809306016ECA10924101BD
:1017200054CF2B9928C02B9A2C9A2D9A81E0809324
:10173000340180913601811191C281E080930601CC
:101740001092350190914B01992309F450CA80936E
:101750004A014DCA815080933D01811100CAEEC9F2
:10176000883009F040CE809138018F5F8093380136
:10177000109237013ACE2B982C982D98D7CF809184
:101780000801882309F4BDCA809142019091430168
:101790000E94D61F8091080180932F01909108012B
:1017A000981310C0CAE0D0E00E94D11FBE010E9471
:1017B000ED1C8F5F809308018091080190912F01AB
:1017C000981791F381E0809339011092300199CA02
:1017D00081E080933D01809148019091490180937F
:1017E0005D028FEF80935E028DEC80935F028091AB
:1017F000450160915A0290E0FC01EE0FFF1FE80FD7
:10180000F91FEE5AFE4F61838091450150915B02B2
:1018100090E0FC01EE0FFF1FE80FF91FEE5AFE4F9C
:1018200050838091450140915C0290E0FC01EE0FF5
:10183000FF1FE80FF91FEE5AFE4F4283209145012A
:1018400087E590E0DC01A21BB109FD01EE0FFF1F4F
:10185000EA0FFB1FEE5AFE4F618320914501EC0118
:10186000C21BD109FE01EE0FFF1FEC0FFD1FEE5A48
:10187000FE4F508320914501FC01E21BF1099F01BD
:10188000EE0FFF1FE20FF31FEE5AFE4F428320912F
:1018900045012D3208F463C9209145012150209360
:1018A00045012091450130E0F901EE0FFF1FE20FE5
:1018B000F31FEE5AFE4F61832091450130E0F9019C
:1018C000EE0FFF1FE20FF31FEE5AFE4F50832091E1
:1018D000450130E0F901EE0FFF1FE20FF31FEE5A52
:1018E000FE4F428320914501DC01A21BB109FD019D
:1018F000EE0FFF1FEA0FFB1FEE5AFE4F6183209190
:101900004501EC01C21BD1099E01FE01EE0FFF1F34
:10191000E20FF31FEE5AFE4F508320914501821BC8
:101920009109FC01EE0FFF1FE80FF91FEE5AFE4F61
:10193000428315C91092500110924F0180910B0102
:10194000882329F080910B01815080930B018091B5
:101950000B01843009F46FC38091510181110BC0D8
:1019600090910A0180910B01989FC00111249093DE
:101970004E0180934D0181E08093060110923A015F
:101980002FC990915C0280915B0280935C029093DE
:101990005B0220915A0238CC90915C0280915B02EC
:1019A00080935C0290935B0220915A02C7CA909187
:1019B0005C0280915B0280935C0290935B022091B9
:1019C0005A02D5CB809141018111C9C18091480350
:1019D000809340018091F00280933F0147E550E001
:1019E00069E473E088E493E00E94E11F47E550E07A
:1019F00061EF72E080EF92E00E94E11F8091400170
:101A000080939F0380913F0180934703ADC907EE08
:101A100014E0D4EEED2ED4E0FD2ECC24C394CFEF11
:101A2000D0E0DD24DA9480912A01855F80932A0139
:101A3000F8013497808380914101811165C0D701FD
:101A40001C92C09241010E94D11FBE010E94ED1C58
:101A50008093280140912E0150E09C013327BA0168
:101A60006252710926173707ECF04E5D5F4F42173F
:101A7000530734F417C04E5D5F4F4217530794F07D
:101A80000E94D11FBE010E94ED1C8093280140914D
:101A90002E0150E09C013327BA01625271092617CA
:101AA00037074CF780932E0180935D02D0925E023F
:101AB000D0925F024CE051E06AE572E08DE592E081
:101AC0000E94BA0380913E01813051F1823009F5C4
:101AD00090915A0220915B0220935A0290935B02EC
:101AE00080915C02F8013297208331969083D8016F
:101AF0008C930B5F1F4FB5E0EB0EF11CE5E005305A
:101B00001E0709F090CF7CCDF701C08210924101F1
:101B10009ACF20915A0290915B0280915C02E2CFB1
:101B200090915C0280915B0280935C0290935B02D7
:101B300020915A02D7CFC8E4D3E060E070E0CB0137
:101B400017C0BE0168547340882777FD8095982F91
:101B50000E94111E2BED3FE049EC50E40E949D1EB7
:101B600020E030E040E352E40E947B1D0E94001F11
:101B700020E030E040E85FE30E94171D20E030E005
:101B800048EC51E40E949D1E20E030E046E952E41A
:101B90000E94171D0E94E31D6993E3E0C03ADE072F
:101BA00081F629CDC8E4D3E060E070E0CB0117C036
:101BB000BE0168547340882777FD8095982F0E9456
:101BC000111E2BED3FE049EC50E40E949D1E20E0E9
:101BD00030E040EB52E40E947B1D0E94001F20E099
:101BE00030E040E85FE30E94171D20E030E048EC61
:101BF00051E40E949D1E20E030E046E952E40E943C
:101C0000171D0E94E31D6993B3E0C03ADB0781F61C
:101C1000EDCC809141018111EDC08091480380930A
:101C200040018091F00280933F0147E550E069E474
:101C300073E088E493E00E94E11F47E550E061EF24
:101C400072E080EF92E00E94E11F8091400180935A
:101C50009F0380913F018093470381C88150809307
:101C6000360181110C94F70568CD230F2A8339CAF8
:101C7000412F50E0EA01CC0FDD1FC40FD51FCE5A13
:101C8000DE4F48814E0D48831CCA173508F0ECC062
:101C90001F5F10832FCA90915C0280915B0280933A
:101CA0005C0290935B0220915A02BCC880910801AB
:101CB000833009F47FC14091270180910801883069
:101CC00009F45BC180912A018F5F80932A01481734
:101CD000A8F410922A018FEF80932B0180912801A4
:101CE000E82FF0E0EF54FC4F908190932E018F5F2E
:101CF00080932801823310F01092280180914101D5
:101D00008111C8C080914803809340018091F00206
:101D100080933F0147E550E069E473E088E493E095
:101D20000E94E11F47E550E061EF72E080EF92E032
:101D30000E94E11F8091400180939F0380913F01A9
:101D400080934703109229010C94A50680932901E2
:101D50001092370149C88BE080932701C6CC80914F
:101D60009F03809340018091470380933F0147E5A3
:101D700050E068E473E089E493E00E94E11F47E5E6
:101D800050E060EF72E081EF92E00E94E11F8091ED
:101D900040018093480380913F018093F0020C94AE
:101DA000B4068EE18093360181E080933501109274
:101DB0003A012B982C982D9810924C0180913A0161
:101DC00040CB909109019F5F909309019091090187
:101DD000943010F08093090188E08093360181E00F
:101DE0008093350110923A012B982C982D98809170
:101DF0003A0121CB80919F0380934001809147035A
:101E000080933F0147E550E068E473E089E493E0A4
:101E10000E94E11F47E550E060EF72E081EF92E041
:101E20000E94E11F809140018093480380913F010F
:101E30008093F0020C94AF0680915101813009F437
:101E4000E4C0809107018F5F8093070180910701B3
:101E5000823118F081E080930701109251011092B5
:101E600038011092370187CDEB01188280818150B3
:101E7000808340C9EB01F88280818F5F80833AC9FB
:101E800080912B018093480380912E018093F00272
:101E90000C94010780919F03809340018091470338
:101EA00080933F0147E550E068E473E089E493E004
:101EB0000E94E11F47E550E060EF72E081EF92E0A1
:101EC0000E94E11F809140018093480380913F016F
:101ED0008093F00237CF2093290110923701E0CA96
:101EE0002093290110923701DFC9109229010C9427
:101EF000B906209329011092370168C8209329015F
:101F00001092370100CA10923701BDC860910B01D1
:101F100086E090E00E94FB1F6091090185E090E05F
:101F20000E94FB1F6091080184E090E00E94FB1F6B
:101F30006091070183E090E00E94FB1F60914B01DC
:101F400081E090E00E94FB1F60913E0180E090E004
:101F50000E94FB1F88E08093360181E08093350169
:101F600010923A012B982C982D9880913A0166CACC
:101F700081E080934A010C94680710912B01E42FB3
:101F8000F0E0C12FD0E0BF01655071092FEF30E0C4
:101F9000C9010E94ED1CC617D7070CF453C065E0B9
:101FA00070E06E1B7F0BC9010E94ED1C160F109391
:101FB0002B0188CE10912B0140912701E42FF0E0F6
:101FC000C12FD0E0BF01655071092FEF30E0C9018A
:101FD0000E94ED1CC617D707C4F165E070E06E1BC8
:101FE0007F0BC9010E94ED1C160F10932B0165CECB
:101FF00060915A0250915B0240915C02B5C999EA26
:10200000980F8BC999EA980F55CA809108018F5F84
:1020100080930801809108018D3010F01092080122
:1020200081E080933901A7CC40915A0230915B0244
:1020300020915C0266CA88E080930B018DCC1092DF
:102040003E010ACA10922B013DCE10922B0135CED3
:1020500030915A0240915B0240935A0230935B02E6
:1020600020915C020C94180850915C0240915B0234
:1020700040935C0250935B0260915A0275C93091A3
:102080005C0220915B0220935C0230935B024091E2
:102090005A0237CA30915C0220915B0220935C02A5
:1020A00030935B0240915A020C9418081F920F92D1
:1020B0000FB60F9211242F933F934F935F936F931B
:1020C0007F938F939F93AF93BF93CF93DF93EF93C0
:1020D000FF9380918A0090918B0081509F4F909345
:1020E0008B0080938A008091510120914F013091A3
:1020F00050018111A8C080914D0190914E01281787
:10210000390708F46CC080916802811109C0809180
:102110006002882329F080916002815080936002E0
:1021200080916902811109C080916102882329F0A0
:102130008091610281508093610280916A028111D5
:1021400009C080916202882329F080916202815047
:102150008093620280916B02811109C080916302B9
:10216000882329F0809163028150809363028091DB
:102170006C02811109C080916402882329F080914A
:10218000640281508093640280916D02811109C0C4
:1021900080916502882329F08091650281508093A7
:1021A000650280916E02811109C0809166028823C8
:1021B00029F08091660281508093660280916F02BF
:1021C000811109C080916702882329F080916702FC
:1021D0008150809367021092500110924F018091BC
:1021E00007018F3008F054C080914F019091500149
:1021F00001969093500180934F01809142019091FC
:1022000043010196909343018093420180914201E2
:1022100090914301019621F41092430110924201E2
:10222000FF91EF91DF91CF91BF91AF919F918F91EE
:102230007F916F915F914F913F912F910F900FBEC2
:102240000F901F90189580914D0190914E01281785
:10225000390750F280910801813009F45FC0809104
:102260000801823009F45AC080910801893009F4CC
:102270007FC0809108018A3009F47AC080910801FA
:10228000843009F4ADC01092500110924F01ACCFD0
:1022900080910701823108F0A7CF80E090E047E508
:1022A00050E026C030914401231B11962C93DF018E
:1022B000A80FB91FAE5ABE4F2C913091440123177D
:1022C00008F44BC030914401231B2C93E80FF91FF5
:1022D000EE5AFE4F2281309144012317E0F13091F4
:1022E0004401231B228301968835910509F47CCF94
:1022F00020914501281799F1FC01EE0FFF1FDF0126
:10230000A80FB91FAE5ABE4F11962C91119730915C
:102310004401231738F611961C92C9CFC3E5D1E0CA
:10232000A2E5B1E0E4E5F1E08881882311F0815075
:1023300088838C91882311F081508C93808188232D
:1023400011F08150808323961396339672E0EC351A
:10235000F70751F789CF1282C6CF1C92B7CF2091D1
:102360004501BA01621B71098617970729F6BBCF91
:10237000C3E5D1E0A2E5B1E0E4E5F1E01EC0909153
:102380004401891B88838C9190914401981700F532
:1023900090914401891B8C938081909144019817FE
:1023A000E8F490914401891B808323961396339619
:1023B00082E0EC35F80709F461CF888190914401FF
:1023C0009817E8F218828C9190914401981700F3C5
:1023D0001C92808190914401981718F31082E5CFE8
:1023E000E4E5F1E0DF0111971C9211971C92108235
:1023F000339622E0EC35F207A9F745CF67E086E097
:1024000090E00E940D2061E085E090E00E940D20A8
:1024100061E084E090E00E940D2061E083E090E0C4
:102420000E940D2060E081E090E00E940D2060E0BD
:1024300080E090E00E940D206BE082E090E00E943E
:102440000D2082E090E00E94F31F80934C0186E013
:1024500090E00E94F31F80930B0185E090E00E94C2
:10246000F31F8093090184E090E00E94F31F8093A2
:10247000080183E090E00E94F31F8093070181E050
:1024800090E00E94F31F80934B0180E090E00E9457
:10249000F31F80933E010895CF93DF93CDB7DEB74E
:1024A0002A970FB6F894DEBF0FBECDBF81E08093B0
:1024B000810080916F00866080936F00289A299A2E
:1024C000409A5A98229A8CE384B98EE187B9529A3D
:1024D00082E090E00E94F31F80934C0180914C01B8
:1024E0008B3011F00C94C61C86E090E00E94F31F24
:1024F00080930B0185E090E00E94F31F8093090117
:1025000084E090E00E94F31F8093080181E090E056
:102510000E94F31F80934B0183E090E00E94F31F21
:102520008093070180E090E00E94F31F80933E01BA
:1025300080914B01882319F081E080934A0181E06A
:102540008093060190910A0180910B01989FC00130
:10255000112490934E0180934D018DE280934501AB
:1025600078941A82198223EE33E03C832B83A7E50B
:102570002A2E312C80914C01882311F40C943718A9
:10258000AB81BC81E0E0F1E01D923197E9F785E68F
:1025900080937C0023EE33E03C832B83F90126EF0C
:1025A00020937A0080917A0084FFFCCF809178009C
:1025B0009091790090588193919334E0E33EF30732
:1025C00079F710927A002F923F924F925F92FF928A
:1025D0000F931F93CF93DF93C3EED3E0E6EEF1E0CA
:1025E000FF2440E8659175910881198197032001C6
:1025F0000E034F1C10019E035F08300C411C5F1C32
:10260000F8035F08300C411C5F1C499259924A95AF
:1026100049F7DF91CF911F910F91FF905F904F90FD
:102620003F902F9011242F923F926F927F92CF93E1
:10263000DF93E6EEF5E048E3A591BB27AA0FBB1FA9
:10264000AD51BC4F2D903C90C591DD27CC0FDD1FC7
:10265000CD51DC4F688079807C926E9228823982DD
:102660004A9551F7DF91CF917F906F903F902F90D7
:102670002F923F924F925F926F927F928F929F9292
:10268000AF92BF92CF92DF92EF92FF920F931F9380
:10269000CF93DF93FF2400E1E02EC3EED3E0688008
:1026A00079804A805B807594679443015594479480
:1026B000640C751C84189508AC80BD804E805F80CA
:1026C000B594A794650155944794A40CB51CC418FF
:1026D000D508688579854A845B84759567958B01F3
:1026E00055944794640D751D041915098C859D85B5
:1026F0004E845F84959587959C0155944794840DED
:10270000951D24193509759467942301B594A794F0
:102710006A0C7B1C4A185B08959487945401D594E5
:10272000C7948C0C9D1CAC18BD08759567956B0102
:1027300095958795680F791FC81AD90A759467947B
:10274000130175956795660E771E261A370A42E8BB
:102750005AE51503C001049FB00114039F09700DD1
:10276000811D9F1D509F700D811D9F1D9594879405
:102770008401880E991E081B190B55944794D201A9
:10278000D594C7944C0C5D1CAC19BD093503C00130
:10279000249FB00134039F09700D811D9F1D529F1E
:1027A000700D811D9F1DB594A7946501A80EB91EDB
:1027B000C81AD90A69927992899299924992599242
:1027C000A992B9922992399209931993A993B9932D
:1027D000C992D992EA9409F062CF00E2C02EDD24BA
:1027E00004E0902EE6E5F6E000E1A02EBB2404E034
:1027F000E02EA3EEB3E0ED01CA0DDB1D8E2C2D9073
:102800003C904880598035942794310155944794E1
:10281000640C751C24183508299239927C926E92AA
:10282000AC0DBD1D1197EA94088119813C912E9140
:10283000459155916591759115022001049F1001F4
:1028400014035F08300C411C5F1C509F300C411C6E
:102850005F1C37023001269F200C311C461C571C80
:1028600036035F08300C411C5F1C729F300C411C0A
:102870005F1C0E01CA19DB09288039803594279422
:102880003101640C751C2418350868827982E001D6
:102890002992399217022001069F100116035F0842
:1028A000300C411C5F1C709F300C411C5F1C3502BA
:1028B0003001249F201831084608570834035F1C54
:1028C000301841085F08529F301841085F080D0119
:1028D000AA19BB092D903C90359427943101640CC2
:1028E000751C241835087C926E92D0012D923C9272
:1028F0001297EA9409F098CFDE01AA19BB092D902E
:102900003C904880598035942794310155944794E0
:10291000640C751C24183508288239827C926E92CA
:10292000C50196958795C80FD91FC33ED90540F4B8
:10293000DE01CA0DDB1DE82CEA19FB0934965FCFD6
:1029400085FC06C0EA2CE6945601CC0CDD1C51CF68
:10295000DF91CF911F910F91FF90EF90DF90CF907B
:10296000BF90AF909F908F907F906F905F904F90AF
:102970003F902F9011242F923F924F925F926F922F
:102980007F928F92FF920F931F93CF93DF93A3EECB
:10299000B3E0C0E7D2E0E3EEF4E04F01FF2440E40F
:1029A0000D911D91980106C0F4010D911D91329178
:1029B00022914F0111022001009F100198035F082E
:1029C000300C411C5F1C33023001229F200C311C53
:1029D000461C571CBA035F08300C411C5F1C1127B2
:1029E000552061F018E0F201F03428F5330CEE1FA9
:1029F000FF1F330CEE1FFF1F1A951DC0442069F006
:102A000014E0F42DE32DF034B0F4220CEE1FFF1F80
:102A1000220CEE1FFF1F1A95F6CFF101F03458F487
:102A2000F03160F4F13078F0F295E295EF70EF2B31
:102A3000E695F1E008C0EF2FF2E005C0EE0FFF1FB2
:102A4000EF2FE068F1E0EA51FD4F049122271123B6
:102A500021F0000F221F1A95E1F7099329934A9557
:102A600009F0A2CFDF91CF911F910F91FF908F902E
:102A70007F906F905F904F903F902F901124612C2A
:102A8000712C412C512CC12CD12CE12CF12C00E0CB
:102A900010E020E030E0812C912CE0E7F2E041E012
:102AA00050E080E090E038872F83FA87E98707C0FD
:102AB0004034510549F14F5F5F4FE985FA85219117
:102AC0003191FA87E987BA01625071096F33710554
:102AD00078F76C5C7F4FFB010C94011D5901A80E27
:102AE000B91E60EDA61667E4B60608F020C2ADEC8C
:102AF000BCEC0E94071D96958795969587958A0D43
:102B00009B1D40345105B9F62F8138857092A10381
:102B10006092A0035092A3034092A203D092A50317
:102B2000C092A403F092A703E092A6031093A90316
:102B30000093A8033093AB032093AA039092AD03B4
:102B40008092AC039093AF038093AE0380915101C8
:102B5000813009F489C580915101811154C280915D
:102B60000901813009F40DC76091090170E088EC1A
:102B700090E00E94ED1CFB018091A0039091A103C5
:102B8000813D57E0950708F4F9C6805D9740BF0185
:102B90000E94D91C8B017093A1036093A0038091C4
:102BA000050190E08617970708F0E5C680910501BA
:102BB0006B01C81AD10809F4DEC68091A203909176
:102BC000A303813D67E0960708F4D2C6805D974075
:102BD000BF010E94D91C7093A3036093A20380914C
:102BE000050190E08617970708F039C58091050127
:102BF0009B01281B3109F22E432F2C153D0510F4A3
:102C0000FC2C4D2D8091A4039091A503813D77E08C
:102C1000970708F421C5805D9740BF010E94D91C29
:102C20007093A5036093A4038091050190E086173B
:102C3000970728F4809105019B01281B3109CF2CAF
:102C4000D42EC216D30608F469018091A603909190
:102C5000A703813DA7E09A0708F4FBC4805D974075
:102C6000BF010E94D91C7093A7036093A6038091B3
:102C7000050190E08617970728F4809105019B01D4
:102C8000281B3109C216D30608F469018091A803F4
:102C90009091A903813DB7E09B0708F4D7C4805DFC
:102CA0009740BF010E94D91C7093A9036093A803A9
:102CB0008091050190E08617970728F4809105011F
:102CC0009B01281B3109C216D30608F469018091C3
:102CD000AA039091AB03813D47E0940708F4B3C485
:102CE000805D9740BF010E94D91C7093AB03609335
:102CF000AA038091050190E08617970728F4809138
:102D000005019B01281B31097601C216D30608F480
:102D100079018091AC039091AD03813D57E0950717
:102D200008F48EC4805D9740BF010E94D91C709347
:102D3000AD036093AC038091050190E0861797077F
:102D400028F4809105019B01281B3109E216F30646
:102D500008F479018091AE039091AF03813D67E063
:102D6000960708F47EC4805D9740BF010E94D91C7D
:102D70007093AF036093AE038091050190E08617D6
:102D8000970728F4809105019B01281B3109FA82DD
:102D9000E982E216F30610F43A832983C801E12C94
:102DA00021E000E010E032E0F32EC980DA80B22E9C
:102DB0001EC0FA01E05AFD4F208130E082179307D0
:102DC00008F44FC08083EE2009F44DC0FC92080F38
:102DD000191F88E0B81609F46BC1AB2DB0E0AA0F3B
:102DE000BB1FA056BC4F8D919C91B394E39420914E
:102DF00009014E2D50E0213009F4B2C08C159D051B
:102E000008F4A2C08C199D099A01220F331FD90121
:102E1000A056BC4F8D939C936091050170E068179C
:102E2000790740F48091050190E0F901E056FC4FEC
:102E300091838083DA01A859BD4F6C91662309F410
:102E4000B8CF7FEF760F7C93FA01E05AFD4F2081D7
:102E500030E08217930708F0B5CF772311F0625066
:102E60006C93E110B4CF1C92080F191FB6CF820EDD
:102E7000931EF0ED8F16F7E49F0608F41CCE3FEC8E
:102E8000832E37E4932E17CEEF81F885E20FF31FE0
:102E9000F887EF83E03DF74408F40DCEEFECF7E45C
:102EA000F887EF8308CE020F131F003DF7E41F07DA
:102EB00008F401CE0FEC17E4FECDE20EF31EE0EDB8
:102EC000EE16E7E4FE0608F4F6CD6FECE62E67E4B6
:102ED000F62EF1CDC20ED31EB0EDCB16B7E4DB0655
:102EE00008F4E9CD7FECC72E77E4D72EE4CDB90105
:102EF000640D751D603DA7E47A0708F52901569415
:102F000047945694479456944794460E571ED3CDF3
:102F1000B901660D771D603DF7E47F0758F439016C
:102F20007694679476946794660E771EC4CD8FEC82
:102F300097E4BECD3FEC632E37E4732EBCCD2FEC6F
:102F4000422E27E4522EB7CDDA01AA0FBB1FA0569E
:102F5000BC4F1D921C928091050180E090E06ACFE9
:102F6000813D77E0970708F4A0C09C01205D3740C1
:102F7000A3E8BDE20E94071D9695879592958295DC
:102F80008F7089279F7089273FCF609244012091DD
:102F90004701245D293508F027E58091470190E03D
:102FA0004816590608F033C3809145018217C8F4CA
:102FB000822F90E0FC01EE0FFF1FE80FF91FEE5A81
:102FC000FE4F118210821282A101481B590BFA0197
:102FD000EE0FFF1FE40FF51FEE5AFE4F1182108215
:102FE00012821F5F193008F010E0013009F4CEC2E0
:102FF000CA9409F091C0FFEFEF1AFF0A2FE1A20E69
:1030000038EFA31280C0F89468E570E082E591E0A3
:103010000E94F20478948091A2039091A303892BDB
:1030200051F58091A4039091A503892B21F58091FE
:10303000A6039091A703892BF1F48091A8039091A6
:10304000A903892BC1F48091AA039091AB03892B2A
:1030500091F48091AC039091AD03892B61F481E0F0
:103060008093B00380914C0181110C94C0120E9496
:10307000FE110C94C01280915101882321F010920E
:10308000500110924F0190910A0180910B01989F7D
:10309000C001112490934E0180934D011092B00312
:1030A000109251015A980C94BA1280E090E0ACCE84
:1030B00010924701809107018F3098F080910701AD
:1030C000823178F49801ABEABAEA0E94071D8C01BC
:1030D00016950795169507950935110510F008E521
:1030E00010E0A12CE12CF12C88248394D12C77249E
:1030F0007A94BB24BA9463E0562E75E0672E5D8205
:103100002801082D1D2D4BE0C42E50E1952E97016E
:10311000205A3D4F38872F83B0925E02809107017D
:1031200090E0FC013197E131F10508F05ACFED58FC
:10313000FF4F0C94011D6092440120914701245DD2
:10314000293508F027E58091470190E04816590697
:1031500008F42ACF80914701E0E3F0E0E81BF10991
:10316000CF01880F80935D02B0925F024CE051E086
:103170006AE572E08DE592E02E830E94BA038091A9
:103180003E012E81813009F450C2823009F046C2DE
:1031900040915A0250915B0250935A0240935B0255
:1031A00030915C02822F90E0FC01EE0FFF1FE80FD0
:1031B000F91FEE5AFE4F518340833283B101681BE1
:1031C000790BCB01FB01EE0FFF1FE80FF91FEE5A41
:1031D000FE4F5183408332838091470190E08415F4
:1031E000950509F0FECE80914501281710F0209337
:1031F00045018091450190E0FC01EE0FFF1FE80FB3
:10320000F91FEE5AFE4F71828091450190E0FC015A
:10321000EE0FFF1FE80FF91FEE5AFE4F108280914C
:10322000450190E0FC01EE0FFF1FE80FF91FEE5A79
:10323000FE4F128280914501D101A81BB109FD0109
:10324000EE0FFF1FEA0FFB1FEE5AFE4F71828091B7
:103250004501F101E81BF109CF01EE0FFF1FE80F57
:10326000F91FEE5AFE4F1082809145019101281BF3
:103270003109F901EE0FFF1FE20FF31FEE5AFE4F67
:103280001282AFCE809148019091490190914701FF
:10329000980F90935D02E12FF0E0E05AFD4FE0813E
:1032A000F0E0EA55FE4F8591949180935F024CE0E7
:1032B00051E06AE572E08DE592E00E94BA038091E8
:1032C0003E01813009F473C1823009F465C1409137
:1032D0005A0230915B0220915C028091470190E09C
:1032E000FC01EE0FFF1FE80FF91FEE5AFE4F41835E
:1032F0008091470190E0FC01EE0FFF1FE80FF91FDE
:10330000EE5AFE4F30838091470190E0FC01EE0FB2
:10331000FF1FE80FF91FEE5AFE4F228362CEA092E4
:103320005D02BFE1AB1609F435C3AF81B885EC91FE
:10333000F0E0EA55FE4F8591949180935F024CE056
:1033400051E06AE572E08DE592E00E94BA03809157
:103350003E01813009F447C1823009F433C1409104
:103360005A0230915B0220915C02013009F437C1AE
:103370009091470187E5891B01E090E0FC01EE0F89
:10338000FF1FE80FF91FEE5AFE4F4183308322835F
:1033900028CEEF81F88580812FE330E0281B3109AA
:1033A000C901880F80935D02E0817ACFEF81F885B3
:1033B00080812FE330E0281B3109C901880F8093F9
:1033C0005D02DF01B4CFEF81F8858081880F8F57D0
:1033D000F6CF809148019091490190914701980F53
:1033E00090935D02A2CF80914801909149018A0D8E
:1033F00080935D02AF81B8859ACF8091480190910A
:1034000049018A0D80935D0246CFA0925D02BFE123
:10341000AB1241CF90925D023ECF809148019091D6
:1034200049018A0D80935D02AF81B885EC9138CF58
:10343000EF81F8858081880F8F5780935D02E0814E
:103440002FCF809148019091490190914701980FA9
:1034500090935D02AF81B885EC9122CFA0925D027E
:103460009FE1A912F7CF90925D02F4CF2D812093B6
:103470004401809148019091490180935D02B0928E
:103480005F0220914701245D293508F027E54CE0D3
:1034900051E06AE572E08DE592E02E830E94BA0366
:1034A00080913E012E81813009F4A8C0823041F420
:1034B00080915A0290915B0290935A0280935B0232
:1034C0008091470190E08415950509F08ACD80919F
:1034D0004501281710F02093450180914501409146
:1034E0005A0290E0FC01EE0FFF1FE80FF91FEE5AA1
:1034F000FE4F41838091450130915B0290E0FC01D9
:10350000EE0FFF1FE80FF91FEE5AFE4F3083809138
:10351000450120915C0290E0FC01EE0FFF1FE80FD7
:10352000F91FEE5AFE4F228380914501B101681BBD
:103530007109FB01EE0FFF1FE60FF71FEE5AFE4F5A
:10354000418380914501D101A81BB109FD01EE0F16
:10355000FF1FEA0FFB1FEE5AFE4F3083809145019B
:10356000F101E81BF109CF01EE0FFF1FE80FF91F72
:10357000EE5AFE4F228335CD80914801909149014A
:1035800080935D02AF81B885EC918ACE809147012E
:103590008F5F809347012CCD30915A0240915B029E
:1035A00040935A0230935B0220915C0296CE309198
:1035B0005C0220915B0220935C0230935B0240919D
:1035C0005A028BCE30915A0240915B0240935A02CC
:1035D00030935B0220915C02013009F0C9CE8091EA
:1035E000470100E0CACE30915C0220915B0220933B
:1035F0005C0230935B0240915A02B7CE80915C022C
:1036000090915B0290935C0280935B0259CF909102
:103610004701892F880F880F890FA4CD50915A0236
:1036200040915B0230915C02BDCD40915C023091D3
:103630005B0230935C0240935B0250915A02B2CD20
:1036400080E090E071CB80E090E04CCB80E090E0B7
:1036500028CB80E090E004CB80E090E0DECA9601C9
:10366000CACA80E090E081CB71ED671677E07706FB
:1036700008F05CC11092A1031092A0038091050193
:103680008091A2039091A303813DA7E09A0708F0DF
:103690002BC11092A3031092A20380910501809187
:1036A000A4039091A503813DB7E09B0708F0FAC001
:1036B0001092A5031092A403809105018091A603A6
:1036C0009091A703813DE7E09E0708F0C9C01092E2
:1036D000A7031092A603809105018091A803909101
:1036E000A903813DF7E09F0708F098C01092A90355
:1036F0001092A803809105018091AA039091AB03D9
:10370000813D27E0920708F067C01092AB0310924A
:10371000AA03809105018091AC039091AD03813D96
:1037200037E09307B8F51092AD031092AC03809187
:1037300005018091AE039091AF03813D47E094076E
:1037400038F41092AF031092AE038091050103CAC2
:103750009C01205D3740A3E8BDE20E94071D9695BD
:103760008795929582958F7089279F70892790936E
:10377000AF038093AE032091050130E0281739078D
:1037800008F0E9C98091050190E09093AF03809320
:10379000AE03E1C99C01205D3740A3E8BDE20E9471
:1037A000071D96958795929582958F7089279F70B2
:1037B00089279093AD038093AC032091050130E0FD
:1037C0002817390708F0B5CF8091050190E0909354
:1037D000AD038093AC03ADCF9C01205D3740A3E8DF
:1037E000BDE20E94071D96958795929582958F70F0
:1037F00089279F7089279093AB038093AA03209118
:10380000050130E02817390708F085CF80910501C0
:1038100090E09093AB038093AA037DCF9C01205D41
:103820003740A3E8BDE20E94071D969587959295C3
:1038300082958F7089279F7089279093A903809321
:10384000A8032091050130E02817390708F054CF6C
:103850008091050190E09093A9038093A8034CCF39
:103860009C01205D3740A3E8BDE20E94071D9695AC
:103870008795929582958F7089279F70892790935D
:10388000A7038093A6032091050130E0281739078C
:1038900008F023CF8091050190E09093A7038093D7
:1038A000A6031BCF9C01205D3740A3E8BDE20E9428
:1038B000071D96958795929582958F7089279F70A1
:1038C00089279093A5038093A4032091050130E0FC
:1038D0002817390708F0F2CE8091050190E0909307
:1038E000A5038093A403EACE9C01205D3740A3E8A2
:1038F000BDE20E94071D96958795929582958F70DF
:1039000089279F7089279093A3038093A203209116
:10391000050130E02817390708F0C1CE8091050174
:1039200090E09093A3038093A203B9CE9301205D0E
:103930003740A3E8BDE20E94071D969587959295B2
:1039400082958F7089279F7089279093A103809318
:10395000A0032091050130E02817390708F090CE28
:103960008091050190E09093A1038093A00388CEFD
:1039700080E090E02DC9C12CD12C1FC980E090E0DF
:1039800006C98091A0039091A10309CA0E94FE116B
:103990000C94981290925D02C8CC991B79E004C0F7
:1039A000991F961708F0961B881F7A95C9F780957E
:1039B0000895AA1BBB1B51E107C0AA1FBB1FA61776
:1039C000B70710F0A61BB70B881F991F5A95A9F7C8
:1039D00080959095BC01CD01089597FB072E16F4B4
:1039E000009407D077FD09D00E94D91C07FC05D0B0
:1039F0003EF4909581959F4F0895709561957F4F06
:103A00000895EE0FFF1F0590F491E02D0994A29FF9
:103A1000B001B39FC001A39F700D811D1124911DA2
:103A2000B29F700D811D1124911D08955058BB2720
:103A3000AA270ED048C139D130F03ED120F031F460
:103A40009F3F11F41EF42EC10EF4E095E7FB24C154
:103A5000E92F4AD180F3BA176207730784079507E5
:103A600018F071F49EF562C10EF4E0950B2EBA2F9A
:103A7000A02D0B01B90190010C01CA01A001112474
:103A8000FF27591B99F0593F50F4503E68F11A1620
:103A9000F040A22F232F342F4427585FF3CF4695B1
:103AA00037952795A795F0405395C9F77EF41F16D3
:103AB000BA0B620B730B840BBAF09150A1F0FF0F9D
:103AC000BB1F661F771F881FC2F70EC0BA0F621F89
:103AD000731F841F48F4879577956795B795F79579
:103AE0009E3F08F0B3CF9395880F08F09927EE0F0B
:103AF0009795879508950CD0E6C0DED040F0D5D0DC
:103B000030F021F45F3F19F0C7C0511110C1CAC095
:103B1000EBD098F39923C9F35523B1F3951B550BBB
:103B2000BB27AA2762177307840738F09F5F5F4F90
:103B3000220F331F441FAA1FA9F333D00E2E3AF0D1
:103B4000E0E830D091505040E695001CCAF729D0EB
:103B5000FE2F27D0660F771F881FBB1F261737073A
:103B60004807AB07B0E809F0BB0B802DBF01FF276A
:103B700093585F4F2AF09E3F510568F08DC0D7C023
:103B80005F3FECF3983EDCF3869577956795B795A4
:103B9000F7959F5FC9F7880F911D9695879597F9BF
:103BA0000895E1E0660F771F881FBB1F6217730738
:103BB0008407BA0720F0621B730B840BBA0BEE1F4D
:103BC00088F7E095089598D088F09F5790F0B92F26
:103BD0009927B751A0F0D1F0660F771F881F991F62
:103BE0001AF0BA95C9F712C0B13081F09FD0B1E098
:103BF00008959CC0672F782F8827B85F39F0B93FA8
:103C0000CCF3869577956795B395D9F73EF4909563
:103C10008095709561957F4F8F4F9F4F0895E894E1
:103C200009C097FB3EF490958095709561957F4F04
:103C30008F4F9F4F9923A9F0F92F96E9BB279395B2
:103C4000F695879577956795B795F111F8CFFAF4C2
:103C5000BB0F11F460FF1BC06F5F7F4F8F4F9F4FF3
:103C600016C0882311F096E911C0772321F09EE851
:103C7000872F762F05C0662371F096E8862F70E0B7
:103C800060E02AF09A95660F771F881FDAF7880F91
:103C90009695879597F9089597F99F6780E870E062
:103CA00060E008959FEF80EC089500240A941616B2
:103CB000170618060906089500240A94121613061A
:103CC000140605060895092E0394000C11F48823A8
:103CD00052F0BB0F40F4BF2B11F460FF04C06F5FC4
:103CE0007F4F8F4F9F4F089557FD9058440F551F9A
:103CF00059F05F3F71F04795880F97FB991F61F06E
:103D00009F3F79F087950895121613061406551FE4
:103D1000F2CF4695F1DF08C0161617061806991F50
:103D2000F1CF86957105610508940895E894BB2745
:103D300066277727CB0197F908950BD0C4CFB5DF5D
:103D400028F0BADF18F0952309F0A6CFABCF1124E5
:103D5000EECFCADFA0F3959FD1F3950F50E0551F2A
:103D6000629FF001729FBB27F00DB11D639FAA27D0
:103D7000F00DB11DAA1F649F6627B00DA11D661F1F
:103D8000829F2227B00DA11D621F739FB00DA11D40
:103D9000621F839FA00D611D221F749F3327A00DFA
:103DA000611D231F849F600D211D822F762F6A2F96
:103DB00011249F5750408AF0E1F088234AF0EE0F1B
:103DC000FF1FBB1F661F771F881F91505040A9F728
:103DD0009E3F510570F060CFAACF5F3FECF3983E55
:103DE000DCF3869577956795B795F795E7959F5F8F
:103DF000C1F7FE2B880F911D9695879597F9089529
:103E00009F9305D00F9007FCEE5F28C04BCF74DF67
:103E1000E8F3E894E0E0BB279F57F0F02AED3FE09D
:103E200049EC06C0EE0FBB0F661F771F881F28F0F6
:103E3000B23A62077307840728F0B25A620B730B19
:103E4000840BE3959A9572F7803830F49A95BB0FFE
:103E5000661F771F881FD2F7904813C0EF93E0FFCB
:103E600006C0A2EA2AED3FE049EC5FEBF1DD2BDF73
:103E70000F90039401FC9058E8E0F1E00EC09F3FE2
:103E800031F0915020F4879577956795B795880F15
:103E9000911D9695879597F908959F938F937F939A
:103EA0006F93FF93EF939B01AC0147DFEF91FF917D
:103EB00005D02F913F914F915F913FCFDF93CF93EB
:103EC0001F930F93FF92EF92DF927B018C01689416
:103ED00005C0DA2EEF013DDFFE01E894A5912591A2
:103EE000359145915591AEF3EF01B2DDFE01970199
:103EF000A801DA9479F7DF90EF90FF900F911F916E
:103F0000CF91DF9108958F929F92AF92BF92CF92FF
:103F1000DF92EF92FF92CF93DF93EC01688179817A
:103F20008A819B81611571058105910521F464E207
:103F300079ED8BE597E02DE133EF41E050E00E9411
:103F4000242049015A019B01AC01A7EAB1E40E9477
:103F500043206B017C01ACEEB4EFA50194010E94FB
:103F60005120C60ED71EE81EF91EF7FE06C081E0DE
:103F7000C81AD108E10880E8F80AC882D982EA8222
:103F8000FB82C6019F77DF91CF91FF90EF90DF908A
:103F9000CF90BF90AF909F908F9008950E94831F05
:103FA000089580E091E00E94831F0895A0E0B0E0B2
:103FB0008093000190930101A0930201B09303014B
:103FC00008956817790768F4FB01DC01E40FF51F19
:103FD000A40FB51F02C002900E9241505040D8F776
:103FE00008950C941B20F999FECF92BD81BDF89ADB
:103FF000992780B50895262FF999FECF92BD81BDEE
:10400000F89A019700B4021639F01FBA20BD0FB616
:10401000F894FA9AF99A0FBE0895262FF999FECFCF
:104020001FBA92BD81BD20BD0FB6F894FA9AF99AD5
:104030000FBE01960895FB01DC0102C001900D92B4
:1040400041505040D8F70895052E97FB1EF4009478
:104050000E943B2057FD07D00E94562007FC03D04A
:104060004EF40C943B2050954095309521953F4F50
:104070004F4F5F4F089590958095709561957F4F54
:104080008F4F9F4F08950E94071DA59F900DB49FCD
:10409000900DA49F800D911D11240895B7FF0C94DD
:1040A00043200E944320821B930B0895A1E21A2E05
:1040B000AA1BBB1BFD010DC0AA1FBB1FEE1FFF1FCC
:1040C000A217B307E407F50720F0A21BB30BE40B1C
:1040D000F50B661F771F881F991F1A9469F7609563
:1040E0007095809590959B01AC01BD01CF0108951D
:0440F000F894FFCF72
:1040F40001000000043F01010101460708FF000020
:10410400FF8000FFFF0000FF0000FFFF0000FF80B2
:0641140000FFFF000000A7
:00000001FF
