:100000000C948C030C94A9030C94A9030C94A903DD
:100010000C94A9030C94A9030C94A9030C94A903B0
:100020000C94A9030C94A9030C94A9030C94130534
:100030000C9453100C94A9030C94A9030C94A903D9
:100040000C94A9030C94A9030C94A9030C94A90380
:100050000C94A9030C94A9030C94A9030C94A90370
:100060000C94A9030C94A90340182F1822182218E5
:10007000181818181818091809180918091809184B
:100080000A16FC17FC17FC17FC17FC17FC17FC17CB
:10009000FC17FC17EF17EF17EF17EF17EF17EF1716
:1000A000EF17EF17EF17EF17EF17EF17EF17EF1720
:1000B000EF172016201620162016201620162016C0
:1000C0002016201620162016201620162016201680
:1000D0002016201620162016201620162016201670
:1000E000201620162016F21AAA1A5D1AD81ACE1A4D
:1000F000E41A7219281AF119BE19B019BD1AB31AE7
:10010000C41A4C197D18F91A000000000000000004
:1001100000000000000000000000000000000001DE
:1001200001010101010101010101010101020202BC
:10013000020202020203030303030404040405058C
:1001400005050606060707080809090A0A0B0B0C2D
:100150000D0D0E0F1011121314151617181A1B1D62
:100160001F20222426282A2D2F3235383B3E424597
:10017000494D52565B60666B71777E858D949DA567
:10018000AFB8C3CED9E5F2FF0000000000000000C8
:10019000000000000001010101010202020203034C
:1001A0000304040505060708090A0B0C0D0F1113BB
:1001B00015171A1D2024282D32383E454D56606BE8
:1001C000778594A5B8CEE5FF000014005000B40078
:1001D0004001F301CD02CD03F3043D06AD073F0915
:1001E000F40AC90CBF0ED41007135515BE17411AD7
:1001F000DB1C8B1F502227250F28062B0A2E1931B6
:1002000032345237773AA03DCB40F5431C473F4A42
:100210005C4D70507A5378566759475C155FCF61D3
:10022000756403677969D66B166E3A703F722674EF
:10023000EB758F770F796D7AA57BB87CA57D6C7E89
:100240000B7F837FD37FFB7FFB7FD37F837F0B7FFE
:100250006C7EA57DB87CA57B6D7A0F798F77EB7569
:1002600026743F723A70166ED66B796903677564AF
:10027000CF61155F475C675978567A5370505C4D73
:100280003F4A1C47F543CB40A03D773A52373234C2
:1002900019310A2E062B0F28272550228B1FDB1C15
:1002A000411ABE1755150713D410BF0EC90CF40A16
:1002B0003F09AD073D06F304CD03CD02F301400134
:1002C000B400500014000000000101020202020309
:1002D00003030303030404040404040404050505E0
:1002E00005050505050505060606060606060606B5
:1002F0000606060707070707070707070707070791
:10030000070808080808080808080808080808086E
:10031000080909090909090909090909090909094E
:100320000909090A0A0A0A0A0A0A0A0A0A0A0A0A30
:100330000A0A0A0A0A0A0A0B0B0B0B0B0B0B0B0B14
:100340000B0B0B0B0B0B0B0B0B0B0B0B0B0C0C0CFA
:100350000C0C0C0C0C0C0C0C0C0C0C0C0C0C0C0CDD
:100360000C0C0C0C0C0D0D0D0D0D0D0D0D0D0D0DC2
:100370000D0D0D0D0D0D0D0D0D0D0D0D0D0D0D0EAC
:100380000E0E0E0E0E0E0E0E0E0E0E0E0E0E0E0E8D
:100390000E0E0E0E0E0E0E0E0E0E0E0F0F0F0F0F78
:1003A0000F0F0F0F0F0F0F0F0F0F0F0F0F0F0F0F5D
:1003B0000F0F0F0F0F0F0F0F0F1010101010101046
:1003C00010101010101010100006080A0B0D0E0F60
:1003D000101112131414151617171819191A1B1BBC
:1003E0001C1C1D1D1E1E1F1F202021212222232315
:1003F00024242525262626272728282829292A2A8D
:100400002A2B2B2B2C2C2D2D2D2E2E2E2F2F2F301B
:1004100030303131313232323333333434343435B5
:100420003535363636373737373838383939393958
:100430003A3A3A3B3B3B3B3C3C3C3C3D3D3D3D3E00
:100440003E3E3E3F3F3F3F40000B101417191C1E1D
:100450002022242627292A2C2D2F303133343536DB
:1004600037393A3B3C3D3E3F404142434445464795
:100470004848494A4B4C4D4E4E4F5051525253549E
:10048000555556575858595A5B5B5C5D5D5E5F5FCA
:100490006061616263636465656666676868696A0E
:1004A0006A6B6B6C6D6D6E6E6F6F70717172727363
:1004B0007374747576767777787879797A7A7B7BC6
:1004C0007C7C7D7D7E7E7F7F0010171C2024272A68
:1004D0002D303335373A3C3E4042444648494B4D37
:1004E0004E505253555658595B5C5D5F6061636472
:1004F000656668696A6B6D6E6F707172737476771A
:1005000078797A7B7C7D7E7F8081828384858687F3
:1005100088898A8B8B8C8D8E8F90919293949495F1
:1005200096979899999A9B9C9D9E9E9FA0A1A2A206
:10053000A3A4A5A6A6A7A8A9A9AAABACACADAEAF2B
:10054000AFB0B1B1B2B3B4B4B5B6B6B7B8B9B9BA61
:10055000BBBBBCBDBDBEBFBFC0C1C1C2C3C3C4C5A0
:10056000C5C6C7C7C8C8C9CACACBCCCCCDCECECFEA
:10057000CFD0D1D1D2D2D3D4D4D5D5D6D7D7D8D83D
:10058000D9DADADBDBDCDDDDDEDEDFDFE0E1E1E294
:10059000E2E3E3E4E5E5E6E6E7E7E8E8E9EAEAEBF3
:1005A000EBECECEDEDEEEEEFEFF0F1F1F2F2F3F358
:1005B000F4F4F5F5F6F6F7F7F8F8F9F9FAFAFBFBC3
:1005C000FCFCFDFDFEFEFFFF7007780F74177C1F1B
:1005D00072277A2F76377E3F7147794F75577D5F47
:1005E00073677B6F6003680B64136C1B62236A2B59
:1005F00066336E3B6143694B65536D5B5005580D27
:1006000054155C1D52255A2D56355E3D5145594DA8
:100610004001480944114C1942214A2946314E39BA
:100620003006380E34163C1E32263A2E2002280A96
:1006300024122C1A1004180C4276FC30825A825A6A
:10064000FC3042768A7DF9184276FC306E6A1D478E
:10065000825A825A1D476E6AFC304276F9188A7DAA
:10066000627F8C0C8A7DF9187D7A28254276FC30D1
:10067000E370573C6E6A1D47F2623451825A825AC7
:100680003451F2621D476E6A573CE370FC3042768B
:1006900028257D7AF9188A7D8C0C627FD97F4806DF
:1006A000627F8C0C9D7EC8128A7DF9182A7C1A1FE5
:1006B0007D7A282585781F2B4276FC30B673BA36B2
:1006C000E370573CCA6DCE416E6A1D47D066404C00
:1006D000F2623451D75EF655825A825AF655D75E89
:1006E0003451F262404CD0661D476E6ACE41CA6DED
:1006F000573CE370BA36B673FC3042761F2B8578D0
:1007000028257D7A1A1F2A7CF9188A7DC8129D7EB9
:100710008C0C627F4806D97F11241FBECFEFD8E032
:10072000DEBFCDBF11E0A0E0B1E0EEE7F0E402C033
:1007300005900D92A632B107D9F723E0A6E2B1E009
:1007400001C01D92A137B207E1F70E94FC120C9480
:100750003D200C9400002F923F924F925F926F9237
:100760007F928F929F92AF92BF92CF92DF92EF9241
:10077000FF920F931F93CF93DF93EC017B01FA015C
:100780008080912C80E091E0B4010E941F1F6B01DA
:1007900088810E94FF1E282F30E041E0841A9108D2
:1007A0002815390509F408C18F5F082F10E03901B9
:1007B000660C771CD301A20FB31FAE0FBF1F11969B
:1007C0003C90832C912CA92EB12CDD242801440CC3
:1007D000551CD201A00FB11FAE0FBF1F11964C9137
:1007E00050E0481959094A9DC0014B9D900D5A9DF2
:1007F000900D1124B6010E941F1F860E971E97FCB4
:10080000DEC08FEF8816910411F00CF0CCC0630DA0
:1008100022242A94312C261A3108D301A20FB31FA7
:10082000AE0FBF1F12967C90872C912CD201A00F87
:10083000B11FAE0FBF1F12964C9150E048195909D5
:10084000A49EC001A59E900DB49E900D1124B601EA
:100850000E941F1F860E971E4FEF8416910411F001
:100860000CF0A4C0760E88248A94912C87189108E5
:100870002F5F3F4FD901AA0FBB1FA20FB31FAE0FAF
:10088000BF1F7C90272D30E00F5F1F4FD801AA0FAC
:10089000BB1FA00FB11FAE0FBF1F4C9150E0421BFA
:1008A000530BA49EC001A59E900DB49E900D1124E3
:1008B000B6010E941F1F260F371F2F3F310511F071
:1008C0000CF077C0760EEFEFF0E0E719F1094981FF
:1008D00050E0249E9001259E300D349E300D112451
:1008E000A1E8B0E80E94391F880F892F881F990B53
:1008F0009195082F0095849E9001859E300D949EC1
:10090000300D11240E94391F880F892F881F990BE1
:100910009195182F1095E49F9001E59F300DF49F5D
:10092000300D11240E94391F880F892F881F990BC1
:100930009195482F40952A81029F900111240E9491
:10094000391F880F892F881F990B9195F701808394
:100950002A81129F900111240E94391F880F892F2C
:10096000881F990B919581832A81429F90011124C0
:100970000E94391F880F892F881F990B91958283B8
:10098000DF91CF911F910F91FF90EF90DF90CF906B
:10099000BF90AF909F908F907F906F905F904F909F
:1009A0003F902F900895212C312C37CF812C912C02
:1009B0005FCFE0E0F0E08BCF00E010E0F8CE222443
:1009C0002A94312C2ACF9B01220F331F260F371F69
:1009D0003C9A48B14F7E58B150616FB7F8942115D9
:1009E0003105C9F0FC01820F931F219138E058B9FD
:1009F000000000C000C027FF48B9220F000000C05F
:100A000000C000C000C048B9000000C03A9579F7A6
:100A1000E817F90751F76FBF89EF90E00197F1F7F9
:100A200000C0000008951F920F920FB60F9211247C
:100A3000AF92BF92CF92DF92EF92FF920F931F93EC
:100A40002F933F934F935F936F937F938F939F93D6
:100A5000AF93BF93CF93DF93EF93FF938091880081
:100A600090918900019790938900809388008091EC
:100A70004601882329F080914601815080934601E8
:100A800080914601811115C08091480190914901E2
:100A9000019690934901809348018091480190917B
:100AA00049018F3F910511F008F0F6C089E080936D
:100AB000460180910401882319F18150809304013B
:100AC00080910601813009F4ECC0FF91EF91DF9134
:100AD000CF91BF91AF919F918F917F916F915F91D6
:100AE0004F913F912F911F910F91FF90EF90DF90C9
:100AF000CF90BF90AF900F900FBE0F901F901895A2
:100B000084E080930401809107018F30C8F08091C8
:100B10005101811115C080913D01811150C6809114
:100B20004501853028F08091450181508093450131
:100B300084E080933D0180910701813109F47DC6F5
:100B4000189B05C0309B03C0199910923C0118995D
:100B50000DC0309B0BC0199B09C090913B019B3489
:100B600028F481E080933A0180933C01189B0EC0E9
:100B700030990CC0199B0AC090913B019B3430F412
:100B800082E080933A0181E080933C0118990EC085
:100B900030990CC0199B0AC090913B019B3430F4F2
:100BA00083E080933A0181E080933C01189963C00F
:100BB00080913A0190913C0181117BC1913009F4FF
:100BC00050C410923B0180913501813009F43EC43C
:100BD00080914A01813009F4BDC380913C0181308C
:100BE00009F4B6C32A9880914B01882309F478C090
:100BF000809132018F5F80933201873309F494C171
:100C000080914B01813009F482C1823029F48091B6
:100C10003101883209F480C180913001813009F0BE
:100C200061C080915101813009F4DEC5809142019B
:100C3000909143010E949B1F8091070180932F0197
:100C400090910701981310C0CEE0D0E00E94961F4B
:100C5000BE010E941F1F8F5F8093070180910701D3
:100C600090912F01981791F3109251011092380131
:100C70001092300137C0309B9BCF199999CF90913A
:100C80003B019B3408F094CF84E080933A0181E0EB
:100C900080933C0184E0E7C310924901109248011F
:100CA00005CF80910B01863009F463C508F428C193
:100CB000873009F45AC5883019F42B9A2C9A2D9A4A
:100CC00080910901823009F4E1C4833009F4E2C45F
:100CD000813019F4419A4298439810920601F5CE5A
:100CE0001092310180912002813009F48FC310925B
:100CF0003801C0913901C13009F41EC18091080149
:100D0000813009F4A4C180910801823009F402C441
:100D100080910801833009F46AC08091080187300E
:100D200009F465C080910801883009F460C08091A1
:100D30000801843009F4BFC380910801853009F4AB
:100D40005BC480910801863009F410C380910801CA
:100D5000893009F43FC2809108018A3009F4DBC16F
:100D6000809108018B3009F4AFC2809108018C306A
:100D700009F0A6CE80915101813009F0A1CE809179
:100D80002B01893118F48F5F80932B0180935301DD
:100D900080935201809354018093560180935501B2
:100DA00080935701809359018093580180935A0191
:100DB00080935C0180935B0180935D0180935F0170
:100DC00080935E0180936001809362018093610152
:100DD0008093630180936501809364018093660131
:100DE00080936801809367018093690169CE809147
:100DF0005101813009F09BCF809137018F5F809343
:100E00003701813009F443C780912901813009F00D
:100E10008ECF8091410181110C94520F80912B0152
:100E200080930F0280912E018093070200E012E070
:100E300078E0E72E72E0F72EC4E5D1E0DD24DA9405
:100E400012C020916A0190916B0180916C01FE01AA
:100E5000319720833197908388832396F2E008307E
:100E60001F0709F419C7D8018D918D0180936D0179
:100E7000D0926E01F70181917F0180936F014CE068
:100E800051E06AE671E08DE691E00E94AB0380914B
:100E90003E01813009F4F0C6823099F690916A01E2
:100EA00020916B0120936A0190936B0180916C01FA
:100EB000CECF911183CE90913B01911182CE8130A2
:100EC00009F46DC5823009F4A8C7843009F079CEE1
:100ED00080914B018F5F80934B0180914B01833058
:100EE00010F010924B0180914B0181110C94A90FCD
:100EF00010924A0181E08093060110923A0161CE7E
:100F0000853009F0DDCE2B982C982D9AD9CE809182
:100F10003101843109F080CE1092310110923201FA
:100F200081E0809330017DCE809131018F5F80938D
:100F300031011092320164CE10925301109252018D
:100F400010925401109256011092550110925701BF
:100F5000109259011092580110925A0110925C019E
:100F600010925B0110925D0110925F0110925E0180
:100F7000109260011092620110926101109263015F
:100F8000109265011092640110926601109268013E
:100F9000109267011092690100E012E088E0F80108
:100FA000482F11924A95E9F798E0E92E92E0F92E40
:100FB000D7011D928A95E9F78091420190914301F2
:100FC0000E949B1F0E94961F6FEF70E00E941F1FE0
:100FD00080932E0187E090E090932D0180932C0167
:100FE00010922B0110922A011092370110922901C0
:100FF0001092400110923F01809141018111C3C3C1
:10100000C093410180910801833009F447C3809166
:101010000801873009F442C380910801883009F43F
:101020003DC380910801853009F426C580910801EF
:10103000863009F4CBC580910801893009F432C5A6
:101040001092390180910801813009F05CCE8091C5
:101050005101813009F057CE209137012F5F209345
:10106000370188E090E090934E0180934D0121304C
:1010700009F430C780912901813009F044CE809174
:101080002C0190912D01873091050CF0A2C797E0BB
:10109000981B90932A018091480190914901809377
:1010A0006D018FEF80936E0180936F014CE051E0F2
:1010B0006AE671E08DE691E00E94AB0380913E010B
:1010C000813009F4BEC7823009F4AAC740916A0191
:1010D00030916B0120916C0180912A0190E0FC011C
:1010E000EE0FFF1FE80FF91FEE5AFE4F41833083CA
:1010F000228380912C0190912D01019690932D01D6
:1011000080932C010D9724F010922D0110922C0148
:1011100010922901F8CD80915101813009F020CE43
:10112000209137012F5F2093370186E0809344019F
:1011300088E090E090934E0180934D01213009F4B6
:10114000C4C680912901813009F00ACE0E94961F01
:101150008770907897FDA2C780932A010E94961FFE
:10116000209148013091490168E770E00E941F1FFB
:10117000280F20936D018FEF80936E0180936F0194
:101180004CE051E06AE671E08DE691E00E94AB032D
:1011900080913E01813009F471C7823009F067C740
:1011A00030916A0140916B0140936A0130936B0169
:1011B00020916C0180912A0190E0FC01EE0FFF1F4D
:1011C000E80FF91FEE5AFE4F4183308322831092BD
:1011D0002901C6CD80915101813009F0BCCD20910B
:1011E00037012F5F2093370186E08093440188E028
:1011F00090E090934E0180934D01213009F46FC629
:1012000080912901813009F0A6CDA3E5B3E064E522
:1012100073E0E7E5F3E00FEFFF24F39436C0E50158
:101220000983EF012197E880E901C80FD91FCE5A41
:10123000DE4FD8804E2D50E04D0D511D4F3F5105D2
:101240000CF40DC50883E901C80FD91FCE5ADE4F33
:101250002A813081832F90E0820F911D8F3F91056D
:101260000CF4FAC40A83EB0188818111EFC41123C5
:1012700009F4EBC511501C9315966B5F7F4F3596A3
:10128000D3E0A137BD0709F41CC61C91812F90E063
:101290009C01220F331F5901A80EB91EE501CE5A39
:1012A000DE4F5E01E980AF0142505109EA01D8806A
:1012B0004D2D50E04E0D511D4F3F51050CF0AFCF5D
:1012C000ED0CE501E982ADCF80915101813009F04B
:1012D0004CCD80912B01823318F48F5F80932B01CA
:1012E000C4E5D1E010E00FEF13C020916A019091A6
:1012F0006B0180916C01FE013197208331979083BF
:101300008883115E2396183F09F42FCD80912B011D
:1013100010936D0100936E0180936F014CE051E0DA
:101320006AE671E08DE691E00E94AB0380913E0198
:10133000813009F466C38230C1F690916A01209130
:101340006B0120936A0190936B0180916C01D3CF64
:101350002A9A49CC2B982C982D9890913301992357
:1013600009F40BC291509093330137CC8091510115
:10137000813009F0EBCC58E0E52E52E0F52EC4E5C3
:10138000D1E08701DD24DA9412C020916A019091A6
:101390006B0180916C01FE0131972083319790831E
:1013A00088832396B2E000311B0709F423C480919F
:1013B000480190914901902F9E19980F90936D01CB
:1013C000D0926E01D801ED918D01F0E0E85FFE4F03
:1013D0008591949180936F014CE051E06AE671E051
:1013E0008DE691E00E94AB0380913E01813009F4CB
:1013F00013C3823051F690916A0120916B012093C2
:101400006A0190936B0180916C01C5CF809151016D
:1014100081116DCC809137018F5F8093370190915E
:1014200008019111D6C1883009F4D6C180913801E4
:10143000833009F05ECC81E0809351011092380135
:1014400010923701809339015A9A53CC10924A0175
:1014500080913401882309F499C18150809334012B
:10146000B7CB90913B019F3530F49F5F90933B0148
:101470009B3408F4A8CB813009F472C4823009F49B
:1014800036C5833009F45CC4843009F09CCB80916C
:101490003E018F5F80933E01833009F4B3C588E03D
:1014A0008093360181E08093350110923A012B98A8
:1014B0002C982D9888CB80915101813009F03CCC3B
:1014C000209137012F5F2093370180ED97E09093B3
:1014D0004E0180934D01213009F404C5809129010A
:1014E000813009F029CC0E94961F8770907897FD73
:1014F000D0C5809326019927FC01EE0FFF1FE80F4E
:10150000F91FEE5AFE4F8FEF818380838283109202
:10151000290112CC80915101813009F0F9CB209141
:1015200037012F5F2093370184E090E090934E01C4
:1015300080934D01213009F4BFC48091290181308D
:1015400009F0E6CB80912C0190912D018730910517
:101550000CF055C597E0981B90932A0180914801A3
:101560009091490180936D018FEF80936E0180937C
:101570006F014CE051E06AE671E08DE691E00E9477
:10158000AB0380913E01813009F466C5823009F4D5
:101590003CC560916A0150916B0140916C012091B2
:1015A0002A0130E0F901EE0FFF1FE20FF31FEE5AA0
:1015B000FE4F61835083428387E090E0821B930B50
:1015C000FC01EE0FFF1FE80FF91FEE5AFE4F61837B
:1015D0005083428380912C0190912D01019690932C
:1015E0002D0180932C010D9724F010922D01109263
:1015F0002C01109229018CCB80915101813009F08E
:10160000A0CB08E012E0C4E5D1E0FF24FA9412C0B8
:1016100020916A0190916B0180916C01FE013197DC
:1016200020833197908388832396B2E000311B0793
:1016300009F4FDC1809148019091490180936D01A9
:10164000F0926E01D801ED918D01F0E0E85FFE4F60
:101650008591949180936F014CE051E06AE671E0CE
:101660008DE691E00E94AB0380913E01813009F448
:10167000BDC1823069F690916A0120916B0120937F
:101680006A0190936B0180916C01C8CF4198429A96
:10169000439823CB41984298439A1FCB8FEF809376
:1016A0002B010E94961F6FEF70E00E941F1F809316
:1016B0002E0110922A0110922D0110922C0180937C
:1016C0002801682F20E030E0CFEFD0E070E0482F15
:1016D00050E0FB017D974E175F070CF1635E7F4F73
:1016E0006417750734F41BC0435E5F4F42175307FE
:1016F00094F00E94961FBE010E941F1F8093280134
:1017000040912E0150E09C013327BA016D517109BF
:10171000261737074CF720912C0130912D01F90144
:10172000EF5DFD4F808380932E012F5F3F4F3093FD
:101730002D0120932C012233310514F4682FC6CFDC
:101740001092280180910801883009F4F5C282E0E6
:101750008093270188E0E701E82F1992EA95E9F7DD
:10176000D8011D928A95E9F75CCC2B9A2C982D987C
:10177000A7CA2B982C9A2D98A3CA9EE19093330167
:10178000809306012ACA109241013CCC2B991DC0BE
:101790002B9A2C9A2D9A81E0809334018091360106
:1017A00081114DC281E08093060110923501909124
:1017B0004B01992309F40CCA80934A0109CA81504C
:1017C00080933D018111BCC9AAC92B982C982D98F2
:1017D000E2CF823309F02ACE809138018F5F809367
:1017E00038011092370124CE80910801882309F432
:1017F00079CA80914201909143010E949B1F809180
:10180000080180932F0190910801981310C0CAE03D
:10181000D0E00E94961FBE010E941F1F8F5F809321
:1018200008018091080190912F01981791F381E0B0
:10183000809339011092300155CA81E080933D01B7
:10184000809148019091490180936D018FEF8093C1
:101850006E018DEC80936F018091450160916A016A
:1018600090E0FC01EE0FFF1FE80FF91FEE5AFE4F4C
:1018700061838091450150916B0190E0FC01EE0F76
:10188000FF1FE80FF91FEE5AFE4F5083809145016C
:1018900040916C0190E0FC01EE0FFF1FE80FF91F73
:1018A000EE5AFE4F42832091450187E090E0DC0133
:1018B000A21BB109FD01EE0FFF1FEA0FFB1FEE5A3D
:1018C000FE4F618320914501EC01C21BD109FE014D
:1018D000EE0FFF1FEC0FFD1FEE5AFE4F50832091BD
:1018E0004501FC01E21BF1099F01EE0FFF1FE20F12
:1018F000F31FEE5AFE4F428320914501253008F434
:101900001FC9209145012150209345012091450197
:1019100030E0F901EE0FFF1FE20FF31FEE5AFE4F0A
:1019200061832091450130E0F901EE0FFF1FE20FC6
:10193000F31FEE5AFE4F50832091450130E0F9012C
:10194000EE0FFF1FE20FF31FEE5AFE4F428320916E
:101950004501DC01A21BB109FD01EE0FFF1FEA0FDB
:10196000FB1FEE5AFE4F618320914501EC01C21B23
:10197000D1099E01FE01EE0FFF1FE20FF31FEE5A89
:10198000FE4F508320914501821B9109FC01EE0F0F
:10199000FF1FE80FF91FEE5AFE4F4283D1C8109285
:1019A000500110924F0180910B01882329F0809102
:1019B0000B01815080930B0180910B01843009F45D
:1019C0001AC38091510181110BC090910A0180913D
:1019D0000B01989FC001112490934E0180934D01FB
:1019E00081E08093060110923A01EBC890916C015E
:1019F00080916B0180936C0190936B0120916A013F
:101A00000DCE90916C0180916B0180936C0190934D
:101A10006B0120916A016FCC90916C0180916B01F8
:101A200080936C0190936B0120916A01B4CC8091FA
:101A300041018111AEC180910802809340018091E3
:101A4000000280933F0147E050E069E072E088E0E7
:101A500092E00E94A61F47E050E061E072E080E063
:101A600092E00E94A61F8091400180930F02809116
:101A70003F018093070265C984E68093080295E7D9
:101A8000909309022DE720930A0290930B02809312
:101A90000C0282E580930D029BE490930E028093EA
:101AA0000F02C4CA07E513E0D4E5ED2ED3E0FD2E06
:101AB000CC24C394CFEFD0E0DD24DA9480912A01C6
:101AC0008F5F80932A01F8013497808380914101D0
:101AD000811161C0F7011082C09241010E94961FDE
:101AE000BE010E941F1F8093280140912E0150E0EB
:101AF0009C013327BA016252710926173707ECF0AF
:101B00004E5D5F4F4217530734F417C04E5D5F4F71
:101B10004217530794F00E94961FBE010E941F1F98
:101B20008093280140912E0150E09C013327BA0197
:101B300062527109261737074CF780932E01809364
:101B40006D01D0926E01D0926F014CE051E06AE6D7
:101B500071E08DE691E00E94AB0380913E018130FF
:101B600051F18230E9F020916A0190916B018091EE
:101B70006C01F8013297208331969083F8018083BD
:101B80000B5F1F4FF5E0EF0EF11C43E00537140724
:101B900009F094CF55CAD701CC92109241019ECF43
:101BA00090916A0120916B0120936A0190936B01DF
:101BB00080916C01DECF90916C0180916B018093DC
:101BC0006C0190936B0120916A01D3CF84E68093DE
:101BD00008022DE72093090280930A029BE4909368
:101BE0000B0280930C0220930D0280930E029093BF
:101BF0000F0221CA809141018111EDC0809108023C
:101C0000809340018091000280933F0147E050E0C3
:101C100069E072E088E092E00E94A61F47E050E091
:101C200061E072E080E092E00E94A61F8091400196
:101C300080930F0280913F018093070287C88150F3
:101C40008093360181110C94E805ACCD173008F073
:101C500002C11F5F1C9310CB230F2A8304CB412F9B
:101C600050E0EA01CC0FDD1FC40FD51FCE5ADE4F66
:101C700048814E0D4883E7CA90916C0180916B01B9
:101C800080936C0190936B0120916A01E0C880936E
:101C9000290110923701BDC880910801833009F4F1
:101CA0007AC14091270180910801883009F456C11A
:101CB00080912A018F5F80932A014817A8F410921F
:101CC0002A018FEF80932B0180912801E82FF0E00B
:101CD000EF5DFD4F908190932E018F5F80932801DF
:101CE000823310F010922801809141018111B9C016
:101CF00080910802809340018091000280933F010F
:101D000047E050E069E072E088E092E00E94A61FA0
:101D100047E050E061E072E080E092E00E94A61FA0
:101D20008091400180930F0280913F0180930702D0
:101D3000109229010C94970681E0809327010ACD27
:101D40008EE18093360181E08093350110923A0153
:101D50002B982C982D9810924C0180913A0194CB9D
:101D6000909109019F5F909309019091090194302E
:101D700010F08093090188E08093360181E0809320
:101D8000350110923A012B982C982D9880913A01A8
:101D900075CB80910F028093400180910702809360
:101DA0003F0147E050E068E072E089E092E00E9485
:101DB000A61F47E050E060E072E081E092E00E9400
:101DC000A61F809140018093080280913F0180937B
:101DD00000020C94A10680910F0280934001809133
:101DE000070280933F0147E050E068E072E089E03D
:101DF00092E00E94A61F47E050E060E072E081E0C0
:101E000092E00E94A61F8091400180930802809179
:101E10003F01809300020C94A6068091510181300D
:101E200009F4DAC0809107018F5F809307018091E8
:101E30000701823118F081E080930701109251016F
:101E40001092380110923701CBCDEB01F8828C91C2
:101E50008F5F8C9311CAEB0118828C9181508C9307
:101E60000BCA80910F0280934001809107028093FA
:101E70003F0147E050E068E072E089E092E00E94B4
:101E8000A61F47E050E060E072E081E092E00E942F
:101E9000A61F809140018093080280913F018093AA
:101EA000000246CF80912B018093080280912E0181
:101EB000809300020C941607209329011092370199
:101EC00041CB109229010C94AB062093290110926A
:101ED00037013CC92093290110923701D0C81092D4
:101EE000370193C92093290110923701FCCA6091F0
:101EF0000B0186E090E00E94C01F6091090185E01F
:101F000090E00E94C01F6091080184E090E00E9470
:101F1000C01F6091070183E090E00E94C01F6091A4
:101F20004B0181E090E00E94C01F60913E0180E083
:101F300090E00E94C01F88E08093360181E080938A
:101F4000350110923A012B982C982D9880913A01E6
:101F500098CA81E080934A010C947D0710912B016F
:101F6000E42FF0E0C12FD0E0BF01655071092FEFE1
:101F700030E0C9010E941F1FC617D7070CF45EC0CE
:101F800065E070E06E1B7F0BC9010E941F1F160FDA
:101F900010932B018DCE10912B0140912701E42F3E
:101FA000F0E0C12FD0E0BF01655071092FEF30E0A4
:101FB000C9010E941F1FC617D707ECF165E070E04A
:101FC0006E1B7F0BC9010E941F1F160F10932B0160
:101FD0006ACE99EF980F5DC8809108018F5F80935A
:101FE0000801809108018D3010F01092080181E005
:101FF00080933901F5CC88E080930B01E2CC99EF16
:10200000980FAACA10923E014ACA50916A01609183
:102010006B0160936A0150936B0140916C01BFCAE0
:1020200030916A0140916B0140936A0130936B01DA
:1020300020916C0151C810922B0135CE10922B01CA
:1020400037CE30916C0120916B0120936C0130935D
:102050006B0140916A0140C850916C0140916B0145
:1020600040936C0150936B0160916A0198CA409152
:102070006A0130916B0120916C019CC830916C0118
:1020800020916B0120936C0130936B0140916A01A8
:1020900091C80197886F9F6F01962BCA0197886F2F
:1020A0009F6F019659C81F920F920FB60F9211247D
:1020B0002F933F934F935F936F937F938F939F9350
:1020C000AF93BF93CF93DF93EF93FF9380918A00F9
:1020D00090918B0081509F4F90938B0080938A004A
:1020E0008091510120914F01309150018111A8C080
:1020F00080914D0190914E012817390708F46CC06A
:1021000080917801811109C080917001882329F0A4
:1021100080917001815080937001809179018111CB
:1021200009C080917101882329F08091710181504B
:102130008093710180917A01811109C080917201AF
:10214000882329F0809172018150809372018091DF
:102150007B01811109C080917301882329F080914E
:10216000730181508093730180917C01811109C0BA
:1021700080917401882329F08091740181508093AB
:10218000740180917D01811109C0809175018823BE
:1021900029F08091750181508093750180917E01B5
:1021A000811109C080917601882329F08091760100
:1021B00081508093760180917F01811109C08091C7
:1021C0007701882329F080917701815080937701EE
:1021D0001092500110924F01809107018F3008F04A
:1021E00054C080914F0190915001019690935001FD
:1021F00080934F0180914201909143010196909309
:1022000043018093420180914201909143010196E4
:1022100021F41092430110924201FF91EF91DF915E
:10222000CF91BF91AF919F918F917F916F915F916E
:102230004F913F912F910F900FBE0F901F901895C7
:1022400080914D0190914E012817390750F28091ED
:102250000801813009F461C080910801823009F4DD
:102260005CC080910801893009F40FC18091080198
:102270008A3009F40AC180910801843009F43DC113
:102280001092500110924F01ACCF80910701823122
:1022900008F0A7CF80E090E047E050E027C0309101
:1022A0004401231B11962C93DF01A80FB91FAE5ACE
:1022B000BE4F2C9130914401231708F4DAC03091BD
:1022C0004401231B2C93E80FF91FEE5AFE4F228185
:1022D00030914401231708F4CAC030914401231BF4
:1022E000228301968830910509F47BCF2091450126
:1022F000281709F4C0C0FC01EE0FFF1FDF01A80F73
:10230000B91FAE5ABE4F11962C91119730914401CE
:10231000231728F611961C92C7CF8091530188236A
:1023200019F081508093530180915201882319F054
:1023300081508093520180915401882319F081507B
:102340008093540180915601882319F08150809325
:10235000560180915501882319F0815080935501D1
:1023600080915701882319F0815080935701809103
:102370005901882319F081508093590180915801A7
:10238000882319F081508093580180915A01882345
:1023900019F0815080935A0180915C01882319F0D3
:1023A000815080935C0180915B01882319F08150FA
:1023B00080935B0180915D01882319F081508093A7
:1023C0005D0180915F01882319F0815080935F0146
:1023D00080915E01882319F0815080935E01809185
:1023E0006001882319F0815080936001809162011F
:1023F000882319F0815080936201809161018823C4
:1024000019F081508093610180916301882319F054
:1024100081508093630180916501882319F0815078
:102420008093650180916401882319F08150809325
:10243000640180916601882319F0815080936601C0
:1024400080916801882319F0815080936801809100
:102450006701882319F08150809367018091690199
:10246000882309F4FECE815080936901FACE12824E
:1024700038CF1C9228CF20914501BA01621B710907
:102480008617970709F037CF2CCFC3E5D1E0A2E537
:10249000B1E0E4E5F1E01EC090914401891B88831E
:1024A0008C9190914401981700F590914401891BFB
:1024B0008C938081909144019817E8F490914401A5
:1024C000891B808323961396339671E0EC36F707C9
:1024D00009F4D1CE8881909144019817E8F21882CE
:1024E0008C9190914401981700F31C9280819091F7
:1024F0004401981718F31082E5CF109253011092FF
:1025000052011092540110925601109255011092EE
:102510005701109259011092580110925A011092CD
:102520005C0110925B0110925D0110925F011092AC
:102530005E0110926001109262011092610110928E
:10254000630110926501109264011092660110926D
:102550006801109267011092690192CE67E086E0EF
:1025600090E00E94D21F61E085E090E00E94D21FBF
:1025700061E084E090E00E94D21F61E083E090E09F
:102580000E94D21F60E081E090E00E94D21F60E0D4
:1025900080E090E00E94D21F6BE082E090E00E9419
:1025A000D21F82E090E00E94B81F80934C0186E029
:1025B00090E00E94B81F80930B0185E090E00E949C
:1025C000B81F8093090184E090E00E94B81F8093B7
:1025D000080183E090E00E94B81F8093070181E02A
:1025E00090E00E94B81F80934B0180E090E00E9431
:1025F000B81F80933E010895CF93DF93CDB7DEB728
:102600002B970FB6F894DEBF0FBECDBF81E080934D
:10261000810080916F00866080936F00289A299ACC
:10262000409A5A98229A8CE384B98EE187B9529ADB
:1026300082E090E00E94B81F80934C0180914C0191
:102640008B3011F00C94F81E86E090E00E94B81FC9
:1026500080930B0185E090E00E94B81F80930901F0
:1026600084E090E00E94B81F8093080181E090E030
:102670000E94B81F80934B0183E090E00E94B81F36
:102680008093070180E090E00E94B81F80933E0194
:1026900080914B01882319F081E080934A0181E009
:1026A0008093060190910A0180910B01989FC001CF
:1026B000112490934E0180934D0185E08093450154
:1026C00078941A82198223E532E03C832B83A6EFAB
:1026D0005A2EB7E02B2E312C80914C01882311F417
:1026E0000C94EE18AB81BC81E0E0F1E01D923197D3
:1026F000E9F785E680937C0023E532E03C832B8379
:10270000F90150927A0080917A0084FFFCCF809189
:1027100078009091790090588193919333E0E3355C
:10272000F30779F710927A002F923F924F925F92BF
:10273000FF920F931F93CF93DF93C3E5D2E0E8ECB2
:10274000F1E0FF2440E865917591088119819703B4
:1027500020010E034F1C10019E035F08300C411C2A
:102760005F1CF8035F08300C411C5F1C49925992B2
:102770004A9549F7DF91CF911F910F91FF905F909C
:102780004F903F902F9011242F923F926F927F9203
:10279000CF93DF93E8ECF5E048E3A591BB27AA0FC0
:1027A000BB1FAD5ABD4F2D903C90C591DD27CC0F7E
:1027B000DD1FCD5ADD4F688079807C926E92288231
:1027C00039824A9551F7DF91CF917F906F903F907A
:1027D0002F902F923F924F925F926F927F928F92A3
:1027E0009F92AF92BF92CF92DF92EF92FF920F93A0
:1027F0001F93CF93DF93FF2400E1E02EC3E5D2E0E7
:10280000688079804A805B80759467944301559411
:102810004794640C751C84189508AC80BD804E806C
:102820005F80B594A794650155944794A40CB51C9A
:10283000C418D508688579854A845B847595679541
:102840008B0155944794640D751D041915098C85E9
:102850009D854E845F84959587959C0155944794FA
:10286000840D951D24193509759467942301B59439
:10287000A7946A0C7B1C4A185B08959487945401B2
:10288000D594C7948C0C9D1CAC18BD0875956795A4
:102890006B0195958795680F791FC81AD90A7594A9
:1028A0006794130175956795660E771E261A370A89
:1028B00042E85AE51503C001049FB00114039F09C3
:1028C000700D811D9F1D509F700D811D9F1D959442
:1028D00087948401880E991E081B190B5594479400
:1028E000D201D594C7944C0C5D1CAC19BD093503BD
:1028F000C001249FB00134039F09700D811D9F1DED
:10290000529F700D811D9F1DB594A7946501A80E5F
:10291000B91EC81AD90A69927992899299924992F4
:102920005992A992B9922992399209931993A9932C
:10293000B993C992D992EA9409F062CF00E2C02E0D
:10294000DD2403E0902EE8E3F6E000E1A02EBB24B6
:1029500004E0E02EA3E5B2E0ED01CA0DDB1D8E2CF4
:102960002D903C904880598035942794310155949E
:102970004794640C751C24183508299239927C926E
:102980006E92AC0DBD1D1197EA94088119813C919E
:102990002E91459155916591759115022001049FE5
:1029A000100114035F08300C411C5F1C509F300C59
:1029B000411C5F1C37023001269F200C311C461C35
:1029C000571C36035F08300C411C5F1C729F300C93
:1029D000411C5F1C0E01CA19DB092880398035941F
:1029E00027943101640C751C24183508688279829B
:1029F000E0012992399217022001069F1001160367
:102A00005F08300C411C5F1C709F300C411C5F1C28
:102A100035023001249F2018310846085708340336
:102A20005F1C301841085F08529F301841085F084A
:102A30000D01AA19BB092D903C90359427943101C2
:102A4000640C751C241835087C926E92D0012D926E
:102A50003C921297EA9409F098CFDE01AA19BB09BB
:102A60002D903C904880598035942794310155949D
:102A70004794640C751C24183508288239827C928E
:102A80006E92C50196958795C80FD91FC335D90594
:102A900040F4DE01CA0DDB1DE82CEA19FB0934966F
:102AA0005FCF85FC06C0EA2CE6945601CC0CDD1CF9
:102AB00051CFDF91CF911F910F91FF90EF90DF9059
:102AC000CF90BF90AF909F908F907F906F905F90CE
:102AD0004F903F902F9011242F923F924F925F92F0
:102AE0006F927F928F92FF920F931F93CF93DF93FA
:102AF000A3E5B2E0C0E8D1E0E3E5F3E04F01FF2455
:102B000040E40D911D91980106C0F4010D911D91B5
:102B1000329122914F0111022001009F1001980370
:102B20005F08300C411C5F1C33023001229F200CD7
:102B3000311C461C571CBA035F08300C411C5F1C3B
:102B40001127552061F018E0F201F03428F5330C1C
:102B5000EE1FFF1F330CEE1FFF1F1A951DC04420F0
:102B600069F014E0F42DE32DF034B0F4220CEE1FE4
:102B7000FF1F220CEE1FFF1F1A95F6CFF101F03454
:102B800058F4F03160F4F13078F0F295E295EF709E
:102B9000EF2BE695F1E008C0EF2FF2E005C0EE0F55
:102BA000FF1FEF2FE068F1E0E853FD4F049122276B
:102BB000112321F0000F221F1A95E1F709932993A1
:102BC0004A9509F0A2CFDF91CF911F910F91FF900D
:102BD0008F907F906F905F904F903F902F90112437
:102BE000612C712CC12CD12CE12CF12C00E010E0D7
:102BF00020E030E0A12CB12C812C912CE0E8F1E018
:102C000041E050E080E090E039872887FB87EA8741
:102C10005D8207C04034510549F14F5F5F4FEA853F
:102C2000FB8521913191FB87EA87BA0162507109D6
:102C30006F33710578F76C5C7F4FFB010C94331F89
:102C40002901480E591E60ED461667E4560608F045
:102C500026C2ADECBCEC0E94391F969587959695DF
:102C60008795840D951D40345105B9F62885398521
:102C70005D807092110260921002D0921302C09295
:102C80001202F0921502E0921402109317020093C0
:102C900016023093190220931802B0921B02A092E0
:102CA0001A0290921D0280921C0290931F02809340
:102CB0001E0280915101813009F405C780915101B4
:102CC000811158C280910901813011F40C94F31ED6
:102CD0006091090170E088EC90E00E941F1FFB01E9
:102CE0008091100290911102813D57E0950710F4F8
:102CF0000C94EF1E805D9740BF010E940B1F8B015B
:102D000070931102609310028091050190E0861784
:102D1000970710F00C94EB1E809105016B01C81A07
:102D2000D10811F40C94EB1E8091120290911302C1
:102D3000813D67E0960710F40C94E71E805D974094
:102D4000BF010E940B1F70931302609312028091C7
:102D5000050190E08617970708F0B0C6809105013D
:102D60009B01281B3109F22E432F2C153D0510F431
:102D7000FC2C4D2D8091140290911502813D77E03D
:102D8000970708F498C6805D9740BF010E940B1F0B
:102D900070931502609314028091050190E08617EC
:102DA000970728F4809105019B01281B3109CF2C3E
:102DB000D42EC216D30608F46901809116029091B0
:102DC0001702813DA7E09A0708F472C6805D97401C
:102DD000BF010E940B1F709317026093160280912F
:102DE000050190E08617970728F4809105019B0163
:102DF000281B3109C216D30608F469018091180214
:102E000090911902813DB7E09B0708F44EC6805DA2
:102E10009740BF010E940B1F709319026093180224
:102E20008091050190E08617970728F480910501AD
:102E30009B01281B31097601C216D30608F47901DB
:102E400080911A0290911B02813D47E0940708F49B
:102E500029C6805D9740BF010E940B1F70931B0223
:102E600060931A028091050190E08617970728F475
:102E7000809105019B01281B3109E216F30608F435
:102E8000790180911C0290911D02813D57E09507C8
:102E900008F405C6805D9740BF010E940B1F709328
:102EA0001D0260931C028091050190E08617970730
:102EB00028F4809105019B01281B3109E216F306D5
:102EC00008F4790180911E0290911F02813D67E014
:102ED000960708F4F5C5805D9740BF010E940B1F5F
:102EE00070931F0260931E028091050190E0861787
:102EF000970728F4809105019B01281B3109FA826C
:102F0000E982E216F30610F43A832983C801E12C22
:102F100021E000E010E032E0F32EC980DA80B22E2A
:102F20001EC0FA01E059FE4F208130E0821793075E
:102F300008F44FC08083EE2009F44DC0FC92080FC6
:102F4000191F88E0B81609F46AC1AB2DB0E0AA0FCA
:102F5000BB1FA05FBD4F8D919C91B394E3942091D2
:102F600009014E2D50E0213009F4B2C08C159D05A9
:102F700008F4A2C08C199D099A01220F331FD901B0
:102F8000A05FBD4F8D939C936091050170E0681721
:102F9000790740F48091050190E0F901E05FFD4F71
:102FA00091838083DA01A858BE4F6C91662309F49F
:102FB000B8CF7FEF760F7C93FA01E059FE4F208166
:102FC00030E08217930708F0B5CF772311F06250F5
:102FD0006C93E110B4CF1C92080F191FB6CF820E6C
:102FE000931E20ED821627E4920608F416CE3FECDD
:102FF000832E37E4932E11CEA20EB31EF0EDAF1642
:10300000F7E4BF0608F409CE6FECA62E67E4B62EEF
:1030100004CEE885F985E20FF31FF987E887E03DE4
:10302000F74408F4FACDEFECF7E4F987E887F5CD3B
:10303000020F131F003DE7E41E0708F4EECD0FEC6E
:1030400017E4EBCDE20EF31EB0EDEB16B7E4FB0692
:1030500008F4E3CD7FECE72E77E4F72EDECDB9015F
:103060006C0D7D1D603DA7E47A0708F56901D694D3
:10307000C794D694C794D694C794C60ED71ECDCD08
:10308000B901660D771D603DF7E47F0758F43901FB
:103090007694679476946794660E771EBECD8FEC17
:1030A00097E4B8CD3FEC632E37E4732EB6CD2FEC0A
:1030B000C22E27E4D22EB1CDDA01AA0FBB1FA05F2A
:1030C000BD4F1D921C928091050180E090E06ACF77
:1030D000813D77E0970708F49FC09C01205D374051
:1030E000A3E8BDE20E94391F969587959295829537
:1030F0008F7089279F7089273FCFB092440130910C
:1031000047013C5F393008F037E08091470190E09B
:103110006816790608F00FC4809145018317C8F43A
:10312000832F90E0FC01EE0FFF1FE80FF91FEE5A0E
:10313000FE4F118210821282F101E81BF90BCF01C0
:10314000EE0FFF1FE80FF91FEE5AFE4F118210829B
:1031500012821F5F193008F010E0013009F4D1C26B
:10316000488559854F5F5F4F59874887215E283FC3
:1031700009F083C0F89468E070E082E591E00E9475
:10318000E30478948091120290911302892B51F5F7
:103190008091140290911502892B21F580911602DD
:1031A00090911702892BF1F48091180290911902E5
:1031B000892BC1F480911A0290911B02892B91F402
:1031C00080911C0290911D02892B61F481E0809313
:1031D000200280914C0181110C9472130E94AE1256
:1031E0000C94721380915101882321F010925001A8
:1031F00010924F0190910A0180910B01989FC0019C
:10320000112490934E0180934D0110922002109250
:1032100051015A980C946C1380E090E0ADCE10925E
:103220004701809107018F3098F08091070182312A
:1032300078F49801ABEABAEA0E94391F8C0116951E
:103240000795169507950930110510F008E010E074
:1032500020E019861886AA24A394F12CEE24EA947F
:1032600083E0982E97E0D92E35E0B32E4FE3842EDD
:1032700050E1C52E38011F2D0A2DE0926E0180917C
:10328000070190E0FC013197E131F10508F061CFD1
:10329000ED58FF4F0C94331FB09244013091470119
:1032A0003C5F393008F037E08091470190E06816C4
:1032B000790608F091C280914501831708F049CF43
:1032C000832F90E0FC01EE0FFF1FE80FF91FEE5A6D
:1032D000FE4F118210821282D101A81BB90BCD01C1
:1032E000FD012ECF20936D012F3109F485C5E885AE
:1032F000F985E059FE4FE081F0E0E857FE4F8591F7
:10330000949180936F014CE051E06AE671E08DE6A4
:1033100091E02F830E94AB0380913E012F81813089
:1033200009F418C2823009F40AC250916A0140912E
:103330006B0130916C0180914701013009F4FDC1AE
:10334000BD2DB81B8B2F01E090E0FC01EE0FFF1F9D
:10335000E80FF91FEE5AFE4F518340833283F9CEB6
:10336000E885F985E059FE4F8081AFE3B0E0A81B06
:10337000B109CD01880F80936D01BDCFE885F98536
:10338000E059FE4F8081880F8F5780936D01E08157
:10339000F0E0E857FE4F8591949180936F014CE0E7
:1033A00051E06AE671E08DE691E02F830E94AB0365
:1033B00080913E012F81813009F4F8C1823009F4F7
:1033C000DFC150916A0140916B0130916C01809195
:1033D0004701013009F4B1C16D2D681B862F01E052
:1033E000B3CF809148019091490190914701980F86
:1033F00090936D01E885F985E059FE4FE081F0E09A
:10340000E857FE4F8591949180936F014CE051E015
:103410006AE671E08DE691E02F830E94AB03809114
:103420003E012F81813009F47BC2823009F49DC1B5
:1034300050916A0140916B0130916C01809147017C
:10344000013009F47AC1FD2DF81B8F2F01E07CCFEC
:103450008091480190914901820F80936D01E88528
:10346000F985E059FE4FE081F0E0E857FE4F859185
:10347000949180936F014CE051E06AE671E08DE633
:1034800091E02F830E94AB0380913E012F81813018
:1034900009F497C1823009F47EC150916A014091CC
:1034A0006B0130916C0180914701013009F445C1F5
:1034B000ED2DE81B8E2F01E047CF809148019091C0
:1034C0004901820F80936D01E885F985E059FE4F2F
:1034D000E081F0E0E857FE4F8591949180936F0171
:1034E0004CE051E06AE671E08DE691E02F830E94A6
:1034F000AB0380913E012F81813009F413C18230EA
:1035000009F405C150916A0140916B0130916C0141
:103510008091470190E0FC01EE0FFF1FE80FF91FBB
:10352000EE5AFE4F51838091470190E0FC01EE0F6F
:10353000FF1FE80FF91FEE5AFE4F408380914701AD
:1035400090E0FC01EE0FFF1FE80FF91FEE5AFE4F4F
:103550003283FFCD809148019091490180936D01A4
:10356000E885F985B3CF8091480190914901820F98
:1035700080936D01E12FF0E0A9CF20936D012F31F1
:10358000C9F7C0926D01F6CF809148019091490131
:1035900090914701980F90936D01ECCFE885F985E4
:1035A000E059FE4F8081880F8F5780936D0190CF37
:1035B000809148019091490190914701980F909313
:1035C0006D01E885F98582CFE885F985E059FE4FE0
:1035D0008081AFE3B0E0A81BB109CD01880F8093D3
:1035E0006D0176CF20936D012F3159F7C0926D0197
:1035F000E8CF9092440180914801909149018093D5
:103600006D01E0926F01309147013C5F393008F065
:1036100037E04CE051E06AE671E08DE691E02F83FF
:103620003E830E94AB0380913E012F813E81813019
:1036300009F46DC1823041F480916A0190916B016F
:1036400090936A0180936B018091470190E0861509
:10365000970509F07ECD80914501381710F0309321
:1036600045018091450150916A0190E0FC01EE0F07
:10367000FF1FE80FF91FEE5AFE4F5183809145015D
:1036800040916B0190E0FC01EE0FFF1FE80FF91F66
:10369000EE5AFE4F40838091450130916C0190E0DD
:1036A000FC01EE0FFF1FE80FF91FEE5AFE4F3283A9
:1036B00080914501B101681B7109FB01EE0FFF1FED
:1036C000E60FF71FEE5AFE4F518380914501D1015D
:1036D000A81BB109CD01FD01EE0FFF1FE80FF91F77
:1036E000EE5AFE4F408380914501F101E81BF1093C
:1036F000CF01EE0FFF1FE80FF91FEE5AFE4F328386
:1037000028CD809147018F5F8093470129CD40915B
:103710006A0150916B0150936A0140936B013091A3
:103720006C01F6CE40916C0130916B0130936C01CD
:1037300040936B0150916A01EBCE00E005CE4091C1
:103740006A0150916B0150936A0140936B01309173
:103750006C01F1CD40916C0130916B0130936C01A3
:1037600040936B0150916A01E6CD40916A015091FE
:103770006B0150936A0140936B0130916C015ECEF6
:1037800040916A0150916B0150936A0140936B0123
:1037900030916C011CCE40916A0150916B015093A5
:1037A0006A0140936B0130916C017DCE40916C01B8
:1037B00030916B0130936C0140936B0150916A0121
:1037C00006CE40916C0130916B0130936C014093B7
:1037D0006B0150916A0167CE80914701E0E3F0E010
:1037E000E81BF109CF01880F80936D01E0926F0112
:1037F0004CE051E06AE671E08DE691E02F833E8374
:103800000E94AB0380913E012F813E81813009F4FB
:1038100034C1823009F03CC150916A0160916B0162
:1038200060936A0150936B0140916C01832F90E08B
:10383000FC01EE0FFF1FE80FF91FEE5AFE4F6183E8
:1038400050834283D101A81BB90BCD01FD01EE0FBE
:10385000FF1FE80FF91FEE5AFE4F6183508342832A
:103860008091470190E08615970509F072CC809110
:103870004501381710F0309345018091450190E0E3
:10388000FC01EE0FFF1FE80FF91FEE5AFE4FE18219
:103890008091450190E0FC01EE0FFF1FE80FF91F3A
:1038A000EE5AFE4F10828091450190E0FC01EE0F30
:1038B000FF1FE80FF91FEE5AFE4F1282809145015B
:1038C000F101E81BF109CF01EE0FFF1FE80FF91F0F
:1038D000EE5AFE4FE18280914501A101481B51093A
:1038E000FA01EE0FFF1FE40FF51FEE5AFE4F108294
:1038F00080914501B101681B7109CB01FC01EE0FFC
:10390000FF1FE80FF91FEE5AFE4F128222CC809162
:103910006C0190916B0190936C0180936B0194CE3C
:1039200040916C0130916B0130936C0140936B01BD
:1039300050916A0183CD80914701889D802D11248B
:1039400080936D01E0926F014CE051E06AE671E016
:103950008DE691E02F833E830E94AB0380913E0170
:103960002F813E81813009F47DC0823009F073C01F
:1039700050916A0160916B0160936A0150936B01F1
:1039800040916C01832F90E0FC01EE0FFF1FE80FC8
:10399000F91FEE5AFE4F618350834283F101E81B09
:1039A000F90BCF01EE0FFF1FE80FF91FEE5AFE4F84
:1039B0006183508342838091470190E0861597058B
:1039C00009F0C7CB80914501381710F030934501BD
:1039D0008091450190E0FC01EE0FFF1FE80FF91FF9
:1039E000EE5AFE4FE1828091450190E0FC01EE0F1E
:1039F000FF1FE80FF91FEE5AFE4F1082809145011C
:103A000090E0FC01EE0FFF1FE80FF91FEE5AFE4F8A
:103A1000128280914501A101481B5109CA01FA0196
:103A2000EE0FFF1FE80FF91FEE5AFE4FE182809163
:103A30004501B101681B7109FB01EE0FFF1FE60F85
:103A4000F71FEE5AFE4F108280914501D101A81B4D
:103A5000B109CD0153CF60916A0150916B01409142
:103A60006C0190CF50916C0140916B0140936C01BF
:103A700050936B0160916A0185CF50916C01409128
:103A80006B0140936C0150936B0160916A01CECE43
:103A900060916A0150916B0140916C01C7CE80E04A
:103AA00090E0FAC980E090E0D6C980E090E0B1C92A
:103AB00080E090E08DC980E090E067C9960153C92D
:103AC00080E090E00ACA71ED671677E0770608F0AB
:103AD0005CC1109211021092100280910501809138
:103AE000120290911302813DA7E09A0708F02BC1C2
:103AF000109213021092120280910501809114021B
:103B000090911502813DB7E09B0708F0FAC0109232
:103B10001502109214028091050180911602909175
:103B20001702813DE7E09E0708F0C9C01092170216
:103B3000109216028091050180911802909119024D
:103B4000813DF7E09F0708F098C01092190210928B
:103B500018028091050180911A0290911B02813D0B
:103B600027E0920708F067C010921B0210921A0219
:103B70008091050180911C0290911D02813D37E0EA
:103B80009307B8F510921D0210921C028091050156
:103B900080911E0290911F02813D47E0940738F406
:103BA00010921F0210921E028091050187C89C018D
:103BB000205D3740A3E8BDE20E94391F96958795A6
:103BC000929582958F7089279F70892790931F0205
:103BD00080931E022091050130E02817390708F074
:103BE0006DC88091050190E090931F0280931E02A2
:103BF00065C89C01205D3740A3E8BDE20E94391FE3
:103C000096958795929582958F7089279F708927C1
:103C100090931D0280931C022091050130E028172B
:103C2000390708F0B5CF8091050190E090931D020F
:103C300080931C02ADCF9C01205D3740A3E8BDE21C
:103C40000E94391F96958795929582958F70892746
:103C50009F70892790931B0280931A02209105017F
:103C600030E02817390708F085CF8091050190E0F2
:103C700090931B0280931A027DCF9C01205D3740F8
:103C8000A3E8BDE20E94391F96958795929582958B
:103C90008F7089279F70892790931902809318024B
:103CA0002091050130E02817390708F054CF8091A2
:103CB000050190E090931902809318024CCF9C016B
:103CC000205D3740A3E8BDE20E94391F9695879595
:103CD000929582958F7089279F70892790931702FC
:103CE000809316022091050130E02817390708F06B
:103CF00023CF8091050190E09093170280931602E4
:103D00001BCF9C01205D3740A3E8BDE20E94391F14
:103D100096958795929582958F7089279F708927B0
:103D200090931502809314022091050130E028172A
:103D3000390708F0F2CE8091050190E090931502CA
:103D400080931402EACE9C01205D3740A3E8BDE2D7
:103D50000E94391F96958795929582958F70892735
:103D60009F7089279093130280931202209105017E
:103D700030E02817390708F0C1CE8091050190E0A6
:103D80009093130280931202B9CE9301205D3740C5
:103D9000A3E8BDE20E94391F96958795929582957A
:103DA0008F7089279F70892790931102809310024A
:103DB0002091050130E02817390708F090CE809156
:103DC000050190E0909311028093100288CE80E06C
:103DD00090E00C94A016C12CD12C0C94941680E089
:103DE00090E00C947C1680911002909111028FC883
:103DF0000E94AE120C944813C0926D0178CA991BB0
:103E000079E004C0991F961708F0961B881F7A95D1
:103E1000C9F780950895AA1BBB1B51E107C0AA1FD3
:103E2000BB1FA617B70710F0A61BB70B881F991F5B
:103E30005A95A9F780959095BC01CD01089597FBFF
:103E4000072E16F4009407D077FD09D00E940B1FAF
:103E500007FC05D03EF4909581959F4F089570958D
:103E600061957F4F0895EE0FFF1F0590F491E02DAF
:103E70000994A29FB001B39FC001A39F700D811D43
:103E80001124911DB29F700D811D1124911D089563
:103E90008F929F92AF92BF92CF92DF92EF92FF925A
:103EA000CF93DF93EC01688179818A819B816115D1
:103EB00071058105910521F464E279ED8BE597E0C8
:103EC0002DE133EF41E050E00E94E91F49015A0122
:103ED0009B01AC01A7EAB1E40E9408206B017C01C0
:103EE000ACEEB4EFA50194010E941620C60ED71EB9
:103EF000E81EF91EF7FE06C081E0C81AD108E108E5
:103F000080E8F80AC882D982EA82FB82C6019F77DC
:103F1000DF91CF91FF90EF90DF90CF90BF90AF9067
:103F20009F908F9008950E94481F089580E091E02F
:103F30000E94481F0895A0E0B0E080930001909394
:103F40000101A0930201B093030108956817790756
:103F500068F4FB01DC01E40FF51FA40FB51F02C0DC
:103F600002900E9241505040D8F708950C94E01FF3
:103F7000F999FECF92BD81BDF89A992780B5089531
:103F8000262FF999FECF92BD81BDF89A019700B412
:103F9000021639F01FBA20BD0FB6F894FA9AF99AB2
:103FA0000FBE0895262FF999FECF1FBA92BD81BD8D
:103FB00020BD0FB6F894FA9AF99A0FBE01960895AB
:103FC000FB01DC0102C001900D9241505040D8F736
:103FD0000895052E97FB1EF400940E94002057FDC3
:103FE00007D00E941B2007FC03D04EF40C94002045
:103FF00050954095309521953F4F4F4F5F4F089515
:1040000090958095709561957F4F8F4F9F4F089544
:104010000E94391FA59F900DB49F900DA49F800D05
:10402000911D11240895B7FF0C9408200E940820C8
:10403000821B930B0895A1E21A2EAA1BBB1BFD0144
:104040000DC0AA1FBB1FEE1FFF1FA217B307E40777
:10405000F50720F0A21BB30BE40BF50B661F771FCF
:10406000881F991F1A9469F76095709580959095AF
:0E4070009B01AC01BD01CF010895F894FFCF74
:10407E0001000000043F01010101460708FF000096
:10408E00FF8000FFFF0000FF0000FFFF0000FF8029
:06409E0000FFFF0000001E
:00000001FF
