:100000000C94A4040C94C1040C94C1040C94C10479
:100010000C94C1040C94C1040C94C1040C94C1044C
:100020000C94C1040C94C1040C94C1040C943506C6
:100030000C94C3070C94C1040C94C1040C94C10427
:100040000C94C1040C94C1040C94C1040C94C1041C
:100050000C94C1040C94C1040C94C1040C94C1040C
:100060000C94C1040C94C104460B460B460B460B82
:10007000460B030C030C030C030C030C030C030CC6
:10008000030C030C030C000C000C000C000C000C07
:10009000000C000C000C000C000C000C000C000C00
:1000A000000C000C000C000C150C150C150C150C9C
:1000B000150C150C150C150C150C150C150C150C38
:1000C000150C150C150C150C150C150C150C150C28
:1000D000120C120C120C120C120C120C120C120C30
:1000E000120C120C120C120C120C120C120C120C20
:1000F000120C120C120C120C120C120C120C120C10
:10010000120C120C120C0A0C0A0C0A0C0A0C0A0C27
:100110000A0C0A0C0A0C0A0C0A0C0A0C0A0C0A0C2F
:100120000A0C0A0C0A0C0A0C0A0C0A0C0A0C0A0C1F
:100130000A0C0A0C0A0C0A0C0A0C180C180C180CE5
:10014000180C180C180C180C180C180C180C180C8F
:10015000180C180C180C180C180C180C180C05A8F6
:100160004CCDB2D44EB93836A9020C50B99186881C
:10017000083CA6AAAA2ABE000000803F0000050095
:1001800014002D0050007C00B300F3003D019101EC
:10019000EF015602C7024103C5035204E904880572
:1001A0003106E3069D0761082D09010ADE0AC30B2B
:1001B000B10CA60DA30EA80FB410C811E2120414BE
:1001C0002D155C169217CE18101A581BA61CF91D77
:1001D000521FAF2012227923E5245426C827402934
:1001E000BB2A392CBB2D3F2FC6304F32DA3368354E
:1001F000F6368738183AAB3B3E3DD13E6540F94173
:100200008C431F45B1464248D1495F4BEC4C764E7A
:10021000FE4F84510753875403567D57F258645A52
:10022000D25B3B5DA05E00605B61B16202644C65C5
:100230009266D1670A693C6A686B8D6CAC6DC36E5F
:10024000D36FDC70DC71D672C773B07491756A7647
:100250003A770278C1787779247AC87A647BF57B1B
:100260007E7CFD7C737DDF7D417E9A7EE97E2E7FE4
:100270006A7F9B7FC37FE17FF57FFF7FFF7FF57FF5
:10028000E17FC37F9B7F6A7F2E7FE97E9A7E417EDE
:10029000DF7D737DFD7C7E7CF57B647BC87A247A70
:1002A0007779C17802783A776A769175B074C773B6
:1002B000D672DC71DC70D36FC36EAC6D8D6C686B05
:1002C0003C6A0A69D16792664C650264B1625B61FF
:1002D0000060A05E3B5DD25B645AF2587D570356C6
:1002E000875407538451FE4F764EEC4C5F4BD149F7
:1002F0004248B1461F458C43F9416540D13E3E3DE1
:10030000AB3B183A8738F6366835DA334F32C630A9
:100310003F2FBB2D392CBB2A4029C8275426E52462
:1003200079231222AF20521FF91DA61C581B101A48
:10033000CE1892175C162D150414E212C811B410D1
:10034000A80FA30EA60DB10CC30BDE0A010A2D09DE
:1003500061089D07E30631068805E9045204C503D8
:100360004103C7025602EF0191013D01F300B300C2
:100370007C0050002D001400050000000001010267
:100380000202020303030303030404040404040439
:100390000405050505050505050505060606060609
:1003A00006060606060606070707070707070707E4
:1003B00007070707070808080808080808080808C2
:1003C00008080808080909090909090909090909A2
:1003D000090909090909090A0A0A0A0A0A0A0A0A84
:1003E0000A0A0A0A0A0A0A0A0A0A0A0B0B0B0B0B68
:1003F0000B0B0B0B0B0B0B0B0B0B0B0B0B0B0B0B4D
:100400000B0C0C0C0C0C0C0C0C0C0C0C0C0C0C0C2D
:100410000C0C0C0C0C0C0C0C0C0D0D0D0D0D0D0D15
:100420000D0D0D0D0D0D0D0D0D0D0D0D0D0D0D0DFC
:100430000D0D0D0E0E0E0E0E0E0E0E0E0E0E0E0EDF
:100440000E0E0E0E0E0E0E0E0E0E0E0E0E0E0E0FCB
:100450000F0F0F0F0F0F0F0F0F0F0F0F0F0F0F0FAC
:100460000F0F0F0F0F0F0F0F0F0F0F0F0F10101099
:100470001010101010101010101010100006080AA4
:100480000B0D0E0F1011121314141516171718193F
:10049000191A1B1B1C1C1D1D1E1E1F1F2020212185
:1004A00022222323242425252626262727282828F8
:1004B00029292A2A2A2B2B2B2C2C2D2D2D2E2E2E82
:1004C0002F2F2F3030303131313232323333333419
:1004D00034343435353536363637373737383838BB
:1004E000393939393A3A3A3B3B3B3B3C3C3C3C3D61
:1004F0003D3D3D3E3E3E3E3F3F3F3F40000B1014E2
:1005000017191C1E2022242627292A2C2D2F303192
:100510003334353637393A3B3C3D3E3F4041424328
:10052000444546474848494A4B4C4D4E4E4F505122
:1005300052525354555556575858595A5B5B5C5D47
:100540005D5E5F5F60616162636364656566666787
:100550006868696A6A6B6B6C6D6D6E6E6F6F7071D7
:100560007172727373747475767677777878797937
:100570007A7A7B7B7C7C7D7D7E7E7F7F0010171C62
:100580002024272A2D303335373A3C3E404244461A
:1005900048494B4D4E505253555658595B5C5D5F20
:1005A00060616364656668696A6B6D6E6F707172B5
:1005B0007374767778797A7B7C7D7E7F8081828385
:1005C0008485868788898A8B8B8C8D8E8F9091927B
:1005D0009394949596979899999A9B9C9D9E9E9F8B
:1005E000A0A1A2A2A3A4A5A6A6A7A8A9A9AAABACAC
:1005F000ACADAEAFAFB0B1B1B2B3B4B4B5B6B6B7DF
:10060000B8B9B9BABBBBBCBDBDBEBFBFC0C1C1C21A
:10061000C3C3C4C5C5C6C7C7C8C8C9CACACBCCCC62
:10062000CDCECECFCFD0D1D1D2D2D3D4D4D5D5D6B2
:10063000D7D7D8D8D9DADADBDBDCDDDDDEDEDFDF09
:10064000E0E1E1E2E2E3E3E4E5E5E6E6E7E7E8E866
:10065000E9EAEAEBEBECECEDEDEEEEEFEFF0F1F1C9
:10066000F2F2F3F3F4F4F5F5F6F6F7F7F8F8F9F932
:10067000FAFAFBFBFCFCFDFDFEFEFFFFF00FF81F8E
:10068000F42FFC3FF24FFA5FF66FFE7FF18FF99F78
:10069000F5AFFDBFF3CFFBDFF7EFE007E817E42787
:1006A000EC37E247EA57E667EE77E187E997E5A797
:1006B000EDB7E3C7EBD7D00BD81BD42BDC3BD24B29
:1006C000DA5BD66BDE7BD18BD99BD5ABDDBBD3CBD5
:1006D000C003C813C423CC33C243CA53C663CE730A
:1006E000C183C993C5A3CDB3B00DB81DB42DBC3D16
:1006F000B24DBA5DB66DBE7DB18DB99DB5ADA005EB
:10070000A815A425AC35A245AA55A665AE75A18548
:10071000A9959009981994299C3992499A599669F2
:100720009E7991898001881184218C3182418A517E
:1007300086618E71700E781E742E7C3E724E7A5ECB
:10074000766E6006681664266C3662466A56500AF3
:10075000581A542A5C3A524A4002481244224C32F7
:10076000300C381C342C2004281410084276FC303D
:10077000825A825AFC3042768A7DF9184276FC30E1
:100780006E6A1D47825A825A1D476E6AFC30427655
:10079000F9188A7D627F8C0C8A7DF9187D7A28256C
:1007A0004276FC30E370573C6E6A1D47F26234516A
:1007B000825A825A3451F2621D476E6A573CE37086
:1007C000FC30427628257D7AF9188A7D8C0C627F70
:1007D000D97F4806627F8C0C9D7EC8128A7DF918ED
:1007E0002A7C1A1F7D7A282585781F2B4276FC30BB
:1007F000B673BA36E370573CCA6DCE416E6A1D4778
:10080000D066404CF2623451D75EF655825A825A15
:10081000F655D75E3451F262404CD0661D476E6A81
:10082000CE41CA6D573CE370BA36B673FC3042769F
:100830001F2B857828257D7A1A1F2A7CF9188A7D36
:10084000C8129D7E8C0C627F4806D97FF67F2403F8
:10085000D97F4806A77F6B09627F8C0C0A7FAB0F9C
:100860009D7EC8121E7EE2158A7DF918E47C0C1C60
:100870002A7C1A1F5D7B24227D7A28258A792728E5
:1008800085781F2B6C77112E4276FC300575DF338F
:10089000B673BA3655728D39E370573C5F6F173FA8
:1008A000CA6DCE41246C7B446E6A1D47A768B4496B
:1008B000D066404CE964C04EF2623451EC609B5308
:1008C000D75EF655B45C4358825A825A4358B45C9A
:1008D000F655D75E9B53EC603451F262C04EE9642A
:1008E000404CD066B449A7681D476E6A7B44246CAF
:1008F000CE41CA6D173F5F6F573CE3708D3955721B
:10090000BA36B673DF330575FC304276112E6C773C
:100910001F2B857827288A7928257D7A24225D7BDC
:100920001A1F2A7C0C1CE47CF9188A7DE2151E7EB5
:10093000C8129D7EAB0F0A7F8C0C627F6B09A77F6C
:100940004806D97F2403F67F11241FBECFEFD8E0DD
:10095000DEBFCDBF11E0A0E0B1E0E6E0F2E202C010
:1009600005900D92A236B107D9F727E0A2E6B1E0D3
:1009700001C01D92A23CB207E1F70E9481080C94CD
:1009800001110C9400002F923F924F925F926F9250
:100990007F928F929F92AF92BF92CF92DF92EF920F
:1009A000FF920F931F93CF93DF937C015B01EA01CA
:1009B0008880912C80E091E0B4010E94240E8B018C
:1009C000D7018C910E94040EE82FF0E0B1E08B1A61
:1009D0009108E815F90509F411C18F5F282F30E05F
:1009E0003F01660C771CD301AE0FBF1FAC0FBD1FBC
:1009F00011964C91842E912CC92ED12C11272901AE
:100A0000440C551CD201A20FB31FAC0FBD1F119691
:100A10006C9170E0681979096C9DC0016D9D900D15
:100A20007C9D900D1124B8010E94240E860E971E05
:100A300097FCE7C08FEF8816910411F00CF0D5C039
:100A4000640F8FEF90E01C01261A31086E0E7F1E96
:100A5000DE01A60DB71D12964C91842E912C420EEC
:100A6000531EDE01A40DB51D12966C9170E068193D
:100A700079096C9DC0016D9D900D7C9D900D112498
:100A8000B8010E94240E860E971EAFEF8A169104BD
:100A900011F00CF0ADC0640F8FEF90E04C01861A9E
:100AA00091083196CF01880F991FE80FF91FEC0FBD
:100AB000FD1F4081E42FF0E02F5F3F4FC901880FF9
:100AC000991F280F391FC20FD31F288130E02E1B1A
:100AD0003F0B2C9DC0012D9D900D3C9D900D112430
:100AE000B8010E94240EE60FF71FEF3FF10511F049
:100AF0000CF081C0640FCFEFD0E0C61BD109D70145
:100B00001196EC91F0E0E29D9001E39D300DF29D95
:100B1000300D1124A1E8B0E80E943E0E880F892F05
:100B2000881F990B9195182F1095E89D9001E99DCC
:100B3000300DF89D300D11240E943E0E880F892F34
:100B4000881F990B9195582F5095EC9F9001ED9F20
:100B5000300DFC9F300D11240E943E0E880F892F0E
:100B6000881F990B9195482F4095F7012281129F7C
:100B7000900111240E943E0E880F892F881F990B27
:100B80009195D5018C932281529F90011124A1E867
:100B9000B0E80E943E0E880F892F881F990B91950F
:100BA000F5018183D70112962C91429F9001112467
:100BB000A1E8B0E80E943E0E880F892F881F990B8C
:100BC00091958283DF91CF911F910F91FF90EF90CC
:100BD000DF90CF90BF90AF909F908F907F906F905D
:100BE0005F904F903F902F900895212C312C2ECF65
:100BF000812C912C56CFC0E0D0E081CF20E030E0B6
:100C0000EFCE22242A94312C21CF9B01220F331FB7
:100C1000620F731F3C9A28B12F7E38B130614FB7F5
:100C2000F89461157105C9F0FC01680F791F819175
:100C300098E038B9000000C000C087FF28B9880FCD
:100C4000000000C000C000C000C028B9000000C003
:100C50009A9579F7E617F70751F74FBF89EF90E0BC
:100C60000197F1F700C0000008951F920F920FB690
:100C70000F921124CF92DF92EF92FF920F931F9366
:100C80002F933F934F935F936F937F938F939F9394
:100C9000AF93BF93CF93DF93EF93FF93809188003F
:100CA00090918900019790938900809388008091AA
:100CB0006B01882329F080916B01815080936B0137
:100CC00080916B01811116C080916D0190916E0130
:100CD000019690936E0180936D0180916D019091CA
:100CE0006E018F3F910511F008F0A7C080916A0155
:100CF00080936B01F0900101FF20A9F1FA94F0922A
:100D00000101809100018823A9F0809104018230C3
:100D100009F400C1833009F40AC1813049F4809399
:100D2000070110927301109272012B9A2C982D9842
:100D300010920001FF91EF91DF91CF91BF91AF91A0
:100D40009F918F917F916F915F914F913F912F91E3
:100D50001F910F91FF90EF90DF90CF900F900FBEFB
:100D60000F901F90189584E080930101189B6AC032
:100D700010926501809166018111E6C08091710534
:100D8000813009F469C01092640181E0809303010D
:100D900080916201813009F475C0809174018130C5
:100DA00009F0AFCF01ED14E089E7C82E81E0D82E1D
:100DB000C6E2D3E0EE24EA9480916D0190916E0139
:100DC0008F0D80932C03E0922D03D801ED918D01BE
:100DD000F0E0E85FFE4F808180932E0348E451E00D
:100DE00069E273E08CE293E00E94C304209129033E
:100DF000F601218390912A03908380912B038283B3
:100E0000298398838A83F394F394F3E0CF0ED11C63
:100E1000239780E9F812D0CF8091D10480936701A5
:100E20004FE850E062ED74E081ED94E00E94E6103E
:100E3000809167018093600564CF10926E011092DB
:100E40006D0154CF81E080936601809365018091AC
:100E50007105813009F097CF80917401811193CF92
:100E6000809163018F5F80936301823309F483C0B3
:100E700080916401863009F08BCF81E0809374010A
:100E800010926401C9E7D1E001ED14E060E070E088
:100E9000CB0117C0B801615D7440072E000C880BB0
:100EA000990B0E945D0F2BED3FE049EC50E40E944E
:100EB000E90F20E030E040E952E40E94BA0E0E94BF
:100EC000561020E030E040E85FE30E944E0E20E044
:100ED00030E040EA51E40E94E90F20E030E040EACF
:100EE00051E40E944E0E0E942C0FD8016D938D018B
:100EF000198218821A822396B5E001361B0751F633
:100F000083E080936A0110926F0110926301109246
:100F1000620143CF1092070181E080937301109228
:100F200072012B982C9A2D981092000103CF1092E9
:100F300007011092730181E0809372012B982C9825
:100F40002D9A10920001F6CE109264011092630166
:100F500091E09093000190930301809104018F5FD1
:100F60008093040180910401843010F09093040177
:100F70001092660103CF809164018F5F80936401BA
:100F80001092630177CF1F920F920FB60F92112428
:100F90002F933F938F939F93EF93FF9380918A00BA
:100FA00090918B0081509F4F90938B0080938A008B
:100FB00080917401811191C0209170013091710173
:100FC00080910501909106012817390708F44CC05B
:100FD00080912F03882329F080912F0381508093E3
:100FE0002F0380913003882329F0809130038150B2
:100FF0008093300380913103882329F0809131035D
:1010000081508093310380913203882329F08091AD
:10101000320381508093320380913303882329F077
:10102000809133038150809333038091340388236C
:1010300029F08091340381508093340380913503EB
:10104000882329F080913503815080933503809166
:101050003603882329F0809136038150809336032C
:101060001092710110927001809172018823A9F190
:10107000E9E7F1E01BC090916901891B81838081C0
:10108000909169018917E8F090916901891B80832B
:101090008281909169018917D0F090916901891B33
:1010A0008283339683E0E932F807B9F08181909129
:1010B0006901891700F71182808190916901891770
:1010C00018F71082828190916901891730F7128296
:1010D000339683E0E932F80749F7809170019091E7
:1010E000710101969093710180937001FF91EF91CE
:1010F0009F918F913F912F910F900FBE0F901F9056
:101100001895CF93DF9300D000D000D0CDB7DEB7D5
:1011100081E08093810080916F00866080936F00F2
:10112000289A8CE384B9789424EA35E03C832B83B5
:1011300087EF782E98E0492E512C2FE8222E312C63
:1011400066246A948091030181111CC480E092E0BE
:10115000AB81BC81FC011D923197E9F785E2809358
:101160007C0024EA35E03C832B83F90124EA37E054
:1011700070927A0080917A0084FFFCCF8091780091
:10118000909179009058819391932E173F0781F7A2
:1011900010927A002F923F924F925F92FF920F939C
:1011A0001F93CF93DF93C4EAD5E0ECE7F1E0FF248F
:1011B00040E06591759108811981970320010E0324
:1011C0004F1C10019E035F08300C411C5F1CF8038C
:1011D0005F08300C411C5F1C499259924A9549F7AF
:1011E000DF91CF911F910F91FF905F904F903F90B3
:1011F0002F9011242F923F926F927F92CF93DF9383
:10120000ECE7F6E048E7A591BB27AA0FBB1FAC555A
:10121000BA4F2D903C90C591DD27CC0FDD1FCC55EA
:10122000DA4F688079807C926E92288239824A9562
:1012300051F7DF91CF917F906F903F902F902F9239
:101240003F924F925F926F927F928F929F92AF9256
:10125000BF92CF92DF92EF92FF920F931F93CF93A3
:10126000DF93FF2400E2E02EC4EAD5E068807980B5
:101270004A805B8075946794430155944794640C4D
:10128000751C84189508AC80BD804E805F80B59435
:10129000A794650155944794A40CB51CC418D508AF
:1012A000688579854A845B84759567958B0155942B
:1012B0004794640D751D041915098C859D854E8410
:1012C0005F84959587959C0155944794840D951D51
:1012D00024193509759467942301B594A7946A0C71
:1012E0007B1C4A185B08959487945401D594C79445
:1012F0008C0C9D1CAC18BD08759567956B01959578
:101300008795680F791FC81AD90A759467941301D5
:1013100075956795660E771E261A370A42E85AE5D4
:101320001503C001049FB00114039F09700D811DB6
:101330009F1D509F700D811D9F1D95948794840162
:10134000880E991E081B190B55944794D201D59409
:10135000C7944C0C5D1CAC19BD093503C001249F1A
:10136000B00134039F09700D811D9F1D529F700DA8
:10137000811D9F1DB594A7946501A80EB91EC81ABA
:10138000D90A699279928992999249925992A9922D
:10139000B9922992399209931993A993B993C99251
:1013A000D992EA9409F062CF00E2C02EDD2407E072
:1013B000902EECE6F7E000E1A02EBB2404E0E02E46
:1013C000A4EAB5E0ED01CA0DDB1D8E2C2D903C90FA
:1013D0004880598035942794310155944794640C82
:1013E000751C24183508299239927C926E92AC0DA6
:1013F000BD1D1197EA94088119813C912E91459168
:1014000055916591759115022001049F10011403F7
:101410005F08300C411C5F1C509F300C411C5F1C4E
:1014200037023001269F200C311C461C571C360306
:101430005F08300C411C5F1C729F300C411C5F1C0C
:101440000E01CA19DB0928803980359427943101AF
:10145000640C751C2418350868827982E001299291
:10146000399217022001069F100116035F08300C05
:10147000411C5F1C709F300C411C5F1C3502300109
:10148000249F201831084608570834035F1C301881
:1014900041085F08529F301841085F080D01AA19E2
:1014A000BB092D903C90359427943101640C751C38
:1014B000241835087C926E92D0012D923C9212979E
:1014C000EA9409F098CFDE01AA19BB092D903C904F
:1014D0004880598035942794310155944794640C81
:1014E000751C24183508288239827C926E92C501B9
:1014F00096958795C80FD91FC43AD90540F4DE01E7
:10150000CA0DDB1DE82CEA19FB0934965FCF86FC77
:1015100006C0EA2CE6945601CC0CDD1C51CFDF91BD
:10152000CF911F910F91FF90EF90DF90CF90BF90E0
:10153000AF909F908F907F906F905F904F903F9073
:101540002F9011242F923F924F925F926F927F9231
:101550008F92FF920F931F93CF93DF93A4EAB5E08E
:10156000CFE3D3E0E4EAF7E04F01FF2440E80D9138
:101570001D91980106C0F4010D911D9132912291A7
:101580004F0111022001009F100198035F08300CE9
:10159000411C5F1C33023001229F200C311C461C71
:1015A000571CBA035F08300C411C5F1C11275520E3
:1015B00061F018E0F201F03428F5330CEE1FFF1F44
:1015C000330CEE1FFF1F1A951DC0442069F014E074
:1015D000F42DE32DF034B0F4220CEE1FFF1F220C8B
:1015E000EE1FFF1F1A95F6CFF101F03458F4F031D9
:1015F00060F4F13078F0F295E295EF70EF2BE6951C
:10160000F1E008C0EF2FF2E005C0EE0FFF1FEF2F53
:10161000E068F1E0E458FC4F04912227112321F007
:10162000000F221F1A95E1F7099329934A9509F0B3
:10163000A2CFDF91CF911F910F91FF908F907F905C
:101640006F905F904F903F902F901124A3E4B3E0F0
:10165000812C912CA12CB12CC12CD12CE12CF12C62
:1016600060E070E01A82198240E050E000E010E093
:1016700082E090E011C08933910508F0BDC0873148
:10168000910508F0C0C08830910590F0020F131F3B
:10169000019680389105C9F02D913D91E09173013B
:1016A000E111E9CFFC013597EB37F10508F4A0C053
:1016B000F901F695E795F695E795420F531F4E0F02
:1016C0005F1F01968038910539F7109364050093E8
:1016D0006305509362054093610529813A813093F7
:1016E0006605209365057093680560936705F09221
:1016F0006A05E0926905D0926C05C0926B05B092C4
:101700006E05A0926D059092700580926F05809194
:101710006801A201481B5109CA01181619060CF0EC
:101720008FC020E030E040E0812C912C36C0A091A9
:101730007501B091760160917701709178018A1BF3
:101740009B0B0E94100EEF59FA4F718360838091BA
:10175000020190E08617970728F46091020170E07B
:1017600071836083F901E15DFC4F808190E068172F
:10177000790708F0608380917201882311F0860E4A
:10178000971E4F5F242F30E080916801B201681BE3
:101790007109261737070CF055C0F901EE0FFF1F2E
:1017A000DF01AF59BA4F8D919C9111976091CF0491
:1017B0007091D0046817790730F48091CF0490912C
:1017C000D0048D939C936091750170917601681798
:1017D000790708F4ACCF809177019091780160E0AF
:1017E00070E0EF59FA4F1182108280910201BACF56
:1017F000EC5CFF4F0C94380E8038910508F058CF00
:10180000620F731F45CFE981FA81E20FF31FFA835C
:10181000E9833ECFF901F695E795A20EB31EAE0E11
:10182000BF1E36CFC20ED31E33CFE20EF31E30CF13
:10183000F901F695E795820E931E8E0E9F1E28CF16
:10184000812C912CC0907401C11069C010926C0160
:1018500080917201882369F0969487949694879476
:101860009694879471E98716910418F020E9822EE6
:10187000912C80917301882309F4C1C184E2809383
:101880006F0124E280916801D201A81BB1091A16E8
:101890001B060CF044C000E010E0D12CF1E08FE812
:1018A000E82EFD83222371F1015D1C4F82E0F82EAA
:1018B00098ECA92EBD81BE83E0E0ED831A830983F5
:1018C00005C08D818F5F8D838217D0F460922D03C8
:1018D00080910401823009F43DC1833009F4E3C0F2
:1018E000813009F499C07E81713059F780916C0183
:1018F0008F5F80936C018D818F5F8D83821730F3B2
:101900009E819D83D3940D2D10E080916801A0E409
:10191000CA0EF201E81BF1090E171F071CF2F8941A
:1019200060E970E089E791E00E9405067894809173
:10193000650590916605892B09F053C18091670573
:1019400090916805892B09F04CC1809169059091AF
:101950006A05892B09F045C180916B0590916C0552
:10196000892B09F03EC180916D0590916E05892B00
:1019700009F037C181E080937105809103018823CC
:1019800009F4E4CB80917301882379F08CE291E033
:10199000909378018093770188E998E0909376019D
:1019A0008093750184E0809368018091070188230A
:1019B00089F086E990E0909378018093770180ED3B
:1019C00097E090937601809375011092680182E10F
:1019D00080936A0180917201882389F040E550E08C
:1019E000509378014093770180ED97E090937601D2
:1019F000809375011092680183E080936A01809161
:101A0000750190917601815090489093D004809315
:101A1000CF04109203019ACB80916D0190916E01D9
:101A20008F3109F4CBC080932C03A981BA81EC914A
:101A3000F0E0E85FFE4F808180932E0348E451E0A0
:101A400069E273E08CE293E00E94C30480916C0130
:101A500090E0FC01EE0FFF1F8E0F9F1FFC01E75867
:101A6000FE4F80912903818380916C0190E0FC01FD
:101A7000EE0FFF1F8E0F9F1FFC01E758FE4F809156
:101A80002A03808380916C0190E0FC01EE0FFF1F20
:101A90008E0F9F1FFC01E758FE4F80912B0382831E
:101AA00020916F0120CFF092690155E285169104D3
:101AB00010F08093690180916C0118E4180F1139BE
:101AC00008F01FE880916C0190E08816990608F4F0
:101AD0000ACF80916C0180916D0190916E012091EF
:101AE0006C0180916D0190916E01922F990F290FD9
:101AF000821B815080932C03A0922E0348E451E076
:101B000069E273E08CE293E00E94C304812F90E0CD
:101B100030912903FC01EE0FFF1FE80FF91FE75872
:101B2000FE4F318340912A03408320912B0322836F
:101B3000B101681B790BCB01FB01EE0FFF1F8E0F6C
:101B40009F1FFC01E758FE4F318340832283209181
:101B50006F01C9CEC0922C03A981BA81EC91F0E04B
:101B6000E85FFE4F808180932E03BE81B13051F13A
:101B700023E0D21671F180916C01BE2CB81A41E0BD
:101B80004E8348E451E069E273E08CE293E00E9406
:101B9000C3048B2D90E0FC01EE0FFF1FE80FF91F2F
:101BA000E758FE4F80912903818380912A03808327
:101BB00080912B03828320916F0195CEF0E1F09309
:101BC0002C0333CFE3E0DE1641F0B0906C011E82AF
:101BD000D8CF30EA30932C03CECFF5EDF0932C0321
:101BE000F4CF80917401882321F01092710110923A
:101BF000700110927105109274010C94A20882E198
:101C000080936F0122E13ECE991B79E004C0991FB9
:101C1000961708F0961B881F7A95C9F78095089546
:101C2000AA1BBB1B51E107C0AA1FBB1FA617B70702
:101C300010F0A61BB70B881F991F5A95A9F780951E
:101C40009095BC01CD01089597FB072E16F40094E2
:101C500007D077FD09D00E94100E07FC05D03EF496
:101C6000909581959F4F0895709561957F4F089548
:101C7000EE0FFF1F0590F491E02D0994A29FB00193
:101C8000B39FC001A39F700D811D1124911DB29FB0
:101C9000700D811D1124911D08955058BB27AA274E
:101CA0000E94650E0C94AF0F0E94A10F38F00E94A5
:101CB000A80F20F039F49F3F19F426F40C949E0FDE
:101CC0000EF4E095E7FB0C94980FE92F0E94C00FEB
:101CD00058F3BA17620773078407950720F079F461
:101CE000A6F50C94E20F0EF4E0950B2EBA2FA02D62
:101CF0000B01B90190010C01CA01A0011124FF27B9
:101D0000591B99F0593F50F4503E68F11A16F040B3
:101D1000A22F232F342F4427585FF3CF46953795B2
:101D20002795A795F0405395C9F77EF41F16BA0B77
:101D3000620B730B840BBAF09150A1F0FF0FBB1F25
:101D4000661F771F881FC2F70EC0BA0F621F731F6E
:101D5000841F48F4879577956795B795F7959E3FCB
:101D600008F0B0CF9395880F08F09927EE0F97955C
:101D7000879508950E94CE0E0C94AF0F0E94A80F75
:101D800058F00E94A10F40F029F45F3F29F00C9415
:101D9000980F51110C94E30F0C949E0F0E94C00FEA
:101DA00068F39923B1F3552391F3951B550BBB278A
:101DB000AA2762177307840738F09F5F5F4F220FCF
:101DC000331F441FAA1FA9F335D00E2E3AF0E0E8C6
:101DD00032D091505040E695001CCAF72BD0FE2F10
:101DE00029D0660F771F881FBB1F261737074807A4
:101DF000AB07B0E809F0BB0B802DBF01FF2793585C
:101E00005F4F3AF09E3F510578F00C94980F0C9478
:101E1000E30F5F3FE4F3983ED4F38695779567959B
:101E2000B795F7959F5FC9F7880F911D9695879590
:101E300097F90895E1E0660F771F881FBB1F6217AF
:101E400073078407BA0720F0621B730B840BBA0B6D
:101E5000EE1F88F7E09508950E94C80F88F09F57FD
:101E600098F0B92F9927B751B0F0E1F0660F771FBE
:101E7000881F991F1AF0BA95C9F714C0B13091F0B4
:101E80000E94E20FB1E008950C94E20F672F782FC3
:101E90008827B85F39F0B93FCCF386957795679579
:101EA000B395D9F73EF490958095709561957F4FE5
:101EB0008F4F9F4F0895E89409C097FB3EF490958B
:101EC0008095709561957F4F8F4F9F4F9923A9F013
:101ED000F92F96E9BB279395F695879577956795A2
:101EE000B795F111F8CFFAF4BB0F11F460FF1BC0E6
:101EF0006F5F7F4F8F4F9F4F16C0882311F096E979
:101F000011C0772321F09EE8872F762F05C0662326
:101F100071F096E8862F70E060E02AF09A95660FDF
:101F2000771F881FDAF7880F9695879597F9089598
:101F300097F99F6780E870E060E008959FEF80EC7C
:101F4000089500240A94161617061806090608951F
:101F500000240A9412161306140605060895092E85
:101F60000394000C11F4882352F0BB0F40F4BF2BF4
:101F700011F460FF04C06F5F7F4F8F4F9F4F089534
:101F800057FD9058440F551F59F05F3F71F047952A
:101F9000880F97FB991F61F09F3F79F0879508950F
:101FA000121613061406551FF2CF4695F1DF08C02E
:101FB000161617061806991FF1CF8695710561054B
:101FC00008940895E894BB2766277727CB0197F9F3
:101FD00008950E94FC0F0C94AF0F0E94A10F38F0DF
:101FE0000E94A80F20F0952311F00C94980F0C94E8
:101FF0009E0F11240C94E30F0E94C00F70F3959F65
:10200000C1F3950F50E0551F629FF001729FBB27EF
:10201000F00DB11D639FAA27F00DB11DAA1F649F8B
:102020006627B00DA11D661F829F2227B00DA11D3E
:10203000621F739FB00DA11D621F839FA00D611DC4
:10204000221F749F3327A00D611D231F849F600DE5
:10205000211D822F762F6A2F11249F5750409AF00E
:10206000F1F088234AF0EE0FFF1FBB1F661F771F9A
:10207000881F91505040A9F79E3F510580F00C9465
:10208000980F0C94E30F5F3FE4F3983ED4F38695EA
:1020900077956795B795F795E7959F5FC1F7FE2B05
:1020A000880F911D9695879597F908959F930E94A3
:1020B00060100F9007FCEE5F0C9489100C949E0F3B
:1020C0000E94C80FD8F3E894E0E0BB279F57F0F0D8
:1020D0002AED3FE049EC06C0EE0FBB0F661F771FED
:1020E000881F28F0B23A62077307840728F0B25AB3
:1020F000620B730B840BE3959A9572F7803830F47A
:102100009A95BB0F661F771F881FD2F790480C94D3
:102110009F10EF93E0FF07C0A2EA2AED3FE049ECF1
:102120005FEB0E94650E0E94AF0F0F90039401FCBD
:102130009058EEE5F1E00C94AB109F3F31F09150D8
:1021400020F4879577956795B795880F911D96959B
:10215000879597F908959F938F937F936F93FF933C
:10216000EF939B01AC010E94E90FEF91FF910E9458
:10217000BF102F913F914F915F910C94E90FDF9326
:10218000CF931F930F93FF92EF92DF927B018C010D
:10219000689406C0DA2EEF010E94FC0FFE01E8945D
:1021A000A5912591359145915591A6F3EF010E9496
:1021B000650EFE019701A801DA9469F7DF90EF90B0
:1021C000FF900F911F91CF91DF91089568177907C4
:1021D00068F4FB01DC01E40FF51FA40FB51F02C07A
:1021E00002900E9241505040D8F708950C94F81088
:1021F000FB01DC0102C001900D9241505040D8F724
:062200000895F894FFCFE1
:1022060001043F010140010100000000000001013E
:1022160002020304050607090A0C0D0F111315180F
:102226001A1D202326292C3034373B4044484D5272
:10223600575C62676D73797F868D939AA2A9B1B94F
:10224600C1C9D1DAE3ECF5FF08FF0000FF8000FF0B
:10225600FF0000FF0000FFFF0000FF8000FFFF00FF
:02226600000076
:00000001FF
